{
  "contractName": "base",
  "abi": [
    {
      "inputs": [],
      "stateMutability": "nonpayable",
      "type": "constructor"
    },
    {
      "inputs": [
        {
          "internalType": "address",
          "name": "",
          "type": "address"
        }
      ],
      "name": "Address",
      "outputs": [
        {
          "internalType": "string",
          "name": "",
          "type": "string"
        }
      ],
      "stateMutability": "view",
      "type": "function",
      "constant": true
    },
    {
      "inputs": [
        {
          "internalType": "string",
          "name": "",
          "type": "string"
        }
      ],
      "name": "Id",
      "outputs": [
        {
          "internalType": "address",
          "name": "",
          "type": "address"
        }
      ],
      "stateMutability": "view",
      "type": "function",
      "constant": true
    },
    {
      "inputs": [
        {
          "internalType": "address",
          "name": "_address",
          "type": "address"
        },
        {
          "internalType": "string",
          "name": "category",
          "type": "string"
        }
      ],
      "name": "addClient",
      "outputs": [],
      "stateMutability": "nonpayable",
      "type": "function"
    },
    {
      "inputs": [
        {
          "internalType": "address",
          "name": "_address",
          "type": "address"
        }
      ],
      "name": "addEmployee",
      "outputs": [],
      "stateMutability": "nonpayable",
      "type": "function"
    },
    {
      "inputs": [
        {
          "internalType": "string",
          "name": "t",
          "type": "string"
        },
        {
          "internalType": "string",
          "name": "_id",
          "type": "string"
        }
      ],
      "name": "appprove",
      "outputs": [],
      "stateMutability": "nonpayable",
      "type": "function"
    },
    {
      "inputs": [
        {
          "internalType": "string",
          "name": "a",
          "type": "string"
        },
        {
          "internalType": "string",
          "name": "b",
          "type": "string"
        }
      ],
      "name": "compareStrings",
      "outputs": [
        {
          "internalType": "bool",
          "name": "",
          "type": "bool"
        }
      ],
      "stateMutability": "pure",
      "type": "function",
      "constant": true
    },
    {
      "inputs": [
        {
          "internalType": "string",
          "name": "a",
          "type": "string"
        },
        {
          "internalType": "string",
          "name": "b",
          "type": "string"
        }
      ],
      "name": "concat",
      "outputs": [
        {
          "internalType": "string",
          "name": "",
          "type": "string"
        }
      ],
      "stateMutability": "pure",
      "type": "function",
      "constant": true
    },
    {
      "inputs": [
        {
          "internalType": "address",
          "name": "",
          "type": "address"
        }
      ],
      "name": "confirmedBy",
      "outputs": [
        {
          "internalType": "bool",
          "name": "",
          "type": "bool"
        }
      ],
      "stateMutability": "view",
      "type": "function",
      "constant": true
    },
    {
      "inputs": [],
      "name": "doctorCnt",
      "outputs": [
        {
          "internalType": "uint256",
          "name": "",
          "type": "uint256"
        }
      ],
      "stateMutability": "view",
      "type": "function",
      "constant": true
    },
    {
      "inputs": [
        {
          "internalType": "string",
          "name": "_id",
          "type": "string"
        }
      ],
      "name": "getCreditScore",
      "outputs": [
        {
          "internalType": "uint256",
          "name": "",
          "type": "uint256"
        }
      ],
      "stateMutability": "view",
      "type": "function",
      "constant": true
    },
    {
      "inputs": [
        {
          "internalType": "string",
          "name": "_id",
          "type": "string"
        }
      ],
      "name": "getPersonalInfoHash",
      "outputs": [
        {
          "internalType": "string",
          "name": "",
          "type": "string"
        }
      ],
      "stateMutability": "view",
      "type": "function",
      "constant": true
    },
    {
      "inputs": [],
      "name": "hospitalCnt",
      "outputs": [
        {
          "internalType": "uint256",
          "name": "",
          "type": "uint256"
        }
      ],
      "stateMutability": "view",
      "type": "function",
      "constant": true
    },
    {
      "inputs": [
        {
          "internalType": "address",
          "name": "",
          "type": "address"
        }
      ],
      "name": "isDoctor",
      "outputs": [
        {
          "internalType": "bool",
          "name": "",
          "type": "bool"
        }
      ],
      "stateMutability": "view",
      "type": "function",
      "constant": true
    },
    {
      "inputs": [
        {
          "internalType": "address",
          "name": "",
          "type": "address"
        }
      ],
      "name": "isHospital",
      "outputs": [
        {
          "internalType": "bool",
          "name": "",
          "type": "bool"
        }
      ],
      "stateMutability": "view",
      "type": "function",
      "constant": true
    },
    {
      "inputs": [
        {
          "internalType": "address",
          "name": "",
          "type": "address"
        }
      ],
      "name": "isLab",
      "outputs": [
        {
          "internalType": "bool",
          "name": "",
          "type": "bool"
        }
      ],
      "stateMutability": "view",
      "type": "function",
      "constant": true
    },
    {
      "inputs": [
        {
          "internalType": "address",
          "name": "",
          "type": "address"
        }
      ],
      "name": "isOwner",
      "outputs": [
        {
          "internalType": "bool",
          "name": "",
          "type": "bool"
        }
      ],
      "stateMutability": "view",
      "type": "function",
      "constant": true
    },
    {
      "inputs": [
        {
          "internalType": "address",
          "name": "",
          "type": "address"
        }
      ],
      "name": "isPatient",
      "outputs": [
        {
          "internalType": "bool",
          "name": "",
          "type": "bool"
        }
      ],
      "stateMutability": "view",
      "type": "function",
      "constant": true
    },
    {
      "inputs": [
        {
          "internalType": "address",
          "name": "",
          "type": "address"
        }
      ],
      "name": "isTech",
      "outputs": [
        {
          "internalType": "bool",
          "name": "",
          "type": "bool"
        }
      ],
      "stateMutability": "view",
      "type": "function",
      "constant": true
    },
    {
      "inputs": [],
      "name": "labCnt",
      "outputs": [
        {
          "internalType": "uint256",
          "name": "",
          "type": "uint256"
        }
      ],
      "stateMutability": "view",
      "type": "function",
      "constant": true
    },
    {
      "inputs": [],
      "name": "owner",
      "outputs": [
        {
          "internalType": "address",
          "name": "",
          "type": "address"
        }
      ],
      "stateMutability": "view",
      "type": "function",
      "constant": true
    },
    {
      "inputs": [],
      "name": "patientCnt",
      "outputs": [
        {
          "internalType": "uint256",
          "name": "",
          "type": "uint256"
        }
      ],
      "stateMutability": "view",
      "type": "function",
      "constant": true
    },
    {
      "inputs": [
        {
          "internalType": "address",
          "name": "",
          "type": "address"
        }
      ],
      "name": "record",
      "outputs": [
        {
          "internalType": "string",
          "name": "personalInfoHash",
          "type": "string"
        },
        {
          "internalType": "uint256",
          "name": "credit",
          "type": "uint256"
        },
        {
          "internalType": "uint256",
          "name": "totalRecord",
          "type": "uint256"
        }
      ],
      "stateMutability": "view",
      "type": "function",
      "constant": true
    },
    {
      "inputs": [
        {
          "internalType": "string",
          "name": "_id",
          "type": "string"
        }
      ],
      "name": "remove",
      "outputs": [],
      "stateMutability": "nonpayable",
      "type": "function"
    },
    {
      "inputs": [
        {
          "internalType": "string",
          "name": "_pinfo",
          "type": "string"
        }
      ],
      "name": "setPersonalInfoHash",
      "outputs": [],
      "stateMutability": "nonpayable",
      "type": "function"
    },
    {
      "inputs": [],
      "name": "techCnt",
      "outputs": [
        {
          "internalType": "uint256",
          "name": "",
          "type": "uint256"
        }
      ],
      "stateMutability": "view",
      "type": "function",
      "constant": true
    },
    {
      "inputs": [
        {
          "internalType": "uint256",
          "name": "_reportId",
          "type": "uint256"
        }
      ],
      "name": "totalConfirmation",
      "outputs": [
        {
          "internalType": "uint256",
          "name": "",
          "type": "uint256"
        }
      ],
      "stateMutability": "view",
      "type": "function",
      "constant": true
    },
    {
      "inputs": [
        {
          "internalType": "uint256",
          "name": "_reportId",
          "type": "uint256"
        }
      ],
      "name": "totalConsulation",
      "outputs": [
        {
          "internalType": "uint256",
          "name": "",
          "type": "uint256"
        }
      ],
      "stateMutability": "view",
      "type": "function",
      "constant": true
    },
    {
      "inputs": [
        {
          "internalType": "address",
          "name": "",
          "type": "address"
        }
      ],
      "name": "worksAt",
      "outputs": [
        {
          "internalType": "address",
          "name": "",
          "type": "address"
        }
      ],
      "stateMutability": "view",
      "type": "function",
      "constant": true
    }
  ],
  "bytecode": "0x608060405260008055600060015560006002556000600355600060045534801561002857600080fd5b5033601160006101000a81548173ffffffffffffffffffffffffffffffffffffffff021916908373ffffffffffffffffffffffffffffffffffffffff1602179055506001600a60003373ffffffffffffffffffffffffffffffffffffffff1673ffffffffffffffffffffffffffffffffffffffff16815260200190815260200160002060006101000a81548160ff021916908315150217905550613c45806100d16000396000f3fe608060405234801561001057600080fd5b50600436106101c45760003560e01c80638f9c79ed116100f9578063bfa28ff111610097578063e4ded01111610071578063e4ded0111461058f578063eac8aa62146105bf578063ebfb412d146105ef578063f3cb8c311461061f576101c4565b8063bfa28ff114610513578063ce64eac114610543578063e292ec0814610573576101c4565b8063ac2018e5116100d3578063ac2018e514610477578063b89895f214610495578063bdf6c673146104b3578063bed34bba146104e3576101c4565b80638f9c79ed146103fb5780638fc7043f1461042b578063996440c614610447576101c4565b806349d8fea11161016657806360ebd6901161014057806360ebd6901461037357806380599e4b1461039157806389c19ddb146103ad5780638da5cb5b146103dd576101c4565b806349d8fea1146102e35780635070bd1f146103135780635e39088014610343576101c4565b80633465d6d5116101a25780633465d6d51461023357806339f0b138146102655780633eb23e69146102955780634761658e146102b3576101c4565b8063162dd8ae146101c95780631b9d1154146101e55780632f54bf6e14610203575b600080fd5b6101e360048036038101906101de9190612eec565b61063b565b005b6101ed610a3b565b6040516101fa9190612f7d565b60405180910390f35b61021d60048036038101906102189190612ff6565b610a41565b60405161022a919061303e565b60405180910390f35b61024d60048036038101906102489190612ff6565b610a61565b60405161025c939291906130e1565b60405180910390f35b61027f600480360381019061027a919061311f565b610b13565b60405161028c9190613177565b60405180910390f35b61029d610b5c565b6040516102aa9190612f7d565b60405180910390f35b6102cd60048036038101906102c8919061311f565b610b62565b6040516102da9190613192565b60405180910390f35b6102fd60048036038101906102f8919061311f565b611076565b60405161030a9190612f7d565b60405180910390f35b61032d60048036038101906103289190612ff6565b611191565b60405161033a919061303e565b60405180910390f35b61035d60048036038101906103589190612ff6565b6111b1565b60405161036a919061303e565b60405180910390f35b61037b6111d1565b6040516103889190612f7d565b60405180910390f35b6103ab60048036038101906103a6919061311f565b6111d7565b005b6103c760048036038101906103c29190612eec565b61178e565b6040516103d49190613192565b60405180910390f35b6103e56117ba565b6040516103f29190613177565b60405180910390f35b61041560048036038101906104109190612ff6565b6117e0565b604051610422919061303e565b60405180910390f35b6104456004803603810190610440919061311f565b611800565b005b610461600480360381019061045c9190612ff6565b6118df565b60405161046e919061303e565b60405180910390f35b61047f6118ff565b60405161048c9190612f7d565b60405180910390f35b61049d611905565b6040516104aa9190612f7d565b60405180910390f35b6104cd60048036038101906104c89190612ff6565b61190b565b6040516104da919061303e565b60405180910390f35b6104fd60048036038101906104f89190612eec565b61192b565b60405161050a919061303e565b60405180910390f35b61052d600480360381019061052891906131e0565b611984565b60405161053a9190612f7d565b60405180910390f35b61055d60048036038101906105589190612ff6565b611a76565b60405161056a919061303e565b60405180910390f35b61058d6004803603810190610588919061320d565b611a96565b005b6105a960048036038101906105a491906131e0565b6122f4565b6040516105b69190612f7d565b60405180910390f35b6105d960048036038101906105d49190612ff6565b6123e6565b6040516105e69190613177565b60405180910390f35b61060960048036038101906106049190612ff6565b612419565b6040516106169190613192565b60405180910390f35b61063960048036038101906106349190612ff6565b6124b9565b005b600660003373ffffffffffffffffffffffffffffffffffffffff1673ffffffffffffffffffffffffffffffffffffffff16815260200190815260200160002060009054906101000a900460ff166106c7576040517f08c379a00000000000000000000000000000000000000000000000000000000081526004016106be906132b5565b60405180910390fd5b6000600b826040516106d99190613311565b908152602001604051809103902060009054906101000a900473ffffffffffffffffffffffffffffffffffffffff169050610749836040518060400160405280600181526020017f680000000000000000000000000000000000000000000000000000000000000081525061192b565b156107db57600560008273ffffffffffffffffffffffffffffffffffffffff1673ffffffffffffffffffffffffffffffffffffffff16815260200190815260200160002060009054906101000a900460ff166107da576040517f08c379a00000000000000000000000000000000000000000000000000000000081526004016107d190613374565b60405180910390fd5b5b600760008273ffffffffffffffffffffffffffffffffffffffff1673ffffffffffffffffffffffffffffffffffffffff16815260200190815260200160002060009054906101000a900460ff168061087c5750600560008273ffffffffffffffffffffffffffffffffffffffff1673ffffffffffffffffffffffffffffffffffffffff16815260200190815260200160002060009054906101000a900460ff165b6108bb576040517f08c379a00000000000000000000000000000000000000000000000000000000081526004016108b2906133e0565b60405180910390fd5b6108c3612d60565b81816000019073ffffffffffffffffffffffffffffffffffffffff16908173ffffffffffffffffffffffffffffffffffffffff16815250506001816020019015159081151581525050600e60003373ffffffffffffffffffffffffffffffffffffffff1673ffffffffffffffffffffffffffffffffffffffff168152602001908152602001600020600201819080600181540180825580915050600190039060005260206000200160009091909190915060008201518160000160006101000a81548173ffffffffffffffffffffffffffffffffffffffff021916908373ffffffffffffffffffffffffffffffffffffffff16021790555060208201518160000160146101000a81548160ff0219169083151502179055505050600e60003373ffffffffffffffffffffffffffffffffffffffff1673ffffffffffffffffffffffffffffffffffffffff1681526020019081526020016000206003016000815480929190610a309061342f565b919050555050505050565b60015481565b600a6020528060005260406000206000915054906101000a900460ff1681565b600e602052806000526040600020600091509050806000018054610a84906134a6565b80601f0160208091040260200160405190810160405280929190818152602001828054610ab0906134a6565b8015610afd5780601f10610ad257610100808354040283529160200191610afd565b820191906000526020600020905b815481529060010190602001808311610ae057829003601f168201915b5050505050908060030154908060040154905083565b600b818051602081018201805184825260208301602085012081835280955050505050506000915054906101000a900473ffffffffffffffffffffffffffffffffffffffff1681565b60025481565b6060600c60003373ffffffffffffffffffffffffffffffffffffffff1673ffffffffffffffffffffffffffffffffffffffff16815260200190815260200160002060009054906101000a900473ffffffffffffffffffffffffffffffffffffffff16826000600b82604051610bd79190613311565b908152602001604051809103902060009054906101000a900473ffffffffffffffffffffffffffffffffffffffff169050600560008473ffffffffffffffffffffffffffffffffffffffff1673ffffffffffffffffffffffffffffffffffffffff16815260200190815260200160002060009054906101000a900460ff1680610ca95750600760008473ffffffffffffffffffffffffffffffffffffffff1673ffffffffffffffffffffffffffffffffffffffff16815260200190815260200160002060009054906101000a900460ff165b610ce8576040517f08c379a0000000000000000000000000000000000000000000000000000000008152600401610cdf90613523565b60405180910390fd5b6000805b600e60008473ffffffffffffffffffffffffffffffffffffffff1673ffffffffffffffffffffffffffffffffffffffff16815260200190815260200160002060020180549050811015610e8f576000600e60008573ffffffffffffffffffffffffffffffffffffffff1673ffffffffffffffffffffffffffffffffffffffff1681526020019081526020016000206002018281548110610d8f57610d8e613543565b5b9060005260206000200160000160009054906101000a900473ffffffffffffffffffffffffffffffffffffffff1690506000600e60008673ffffffffffffffffffffffffffffffffffffffff1673ffffffffffffffffffffffffffffffffffffffff1681526020019081526020016000206002018381548110610e1557610e14613543565b5b9060005260206000200160000160149054906101000a900460ff1690508673ffffffffffffffffffffffffffffffffffffffff168273ffffffffffffffffffffffffffffffffffffffff16148015610e6a5750805b15610e7a57600193505050610e8f565b50508080610e879061342f565b915050610cec565b5080610ed0576040517f08c379a0000000000000000000000000000000000000000000000000000000008152600401610ec790613523565b60405180910390fd5b6000600b87604051610ee29190613311565b908152602001604051809103902060009054906101000a900473ffffffffffffffffffffffffffffffffffffffff169050600660008273ffffffffffffffffffffffffffffffffffffffff1673ffffffffffffffffffffffffffffffffffffffff16815260200190815260200160002060009054906101000a900460ff16610f9f576040517f08c379a0000000000000000000000000000000000000000000000000000000008152600401610f96906135be565b60405180910390fd5b600e60008273ffffffffffffffffffffffffffffffffffffffff1673ffffffffffffffffffffffffffffffffffffffff1681526020019081526020016000206000018054610fec906134a6565b80601f0160208091040260200160405190810160405280929190818152602001828054611018906134a6565b80156110655780601f1061103a57610100808354040283529160200191611065565b820191906000526020600020905b81548152906001019060200180831161104857829003601f168201915b505050505095505050505050919050565b600080600b836040516110899190613311565b908152602001604051809103902060009054906101000a900473ffffffffffffffffffffffffffffffffffffffff169050600660008273ffffffffffffffffffffffffffffffffffffffff1673ffffffffffffffffffffffffffffffffffffffff16815260200190815260200160002060009054906101000a900460ff16611146576040517f08c379a000000000000000000000000000000000000000000000000000000000815260040161113d906135be565b60405180910390fd5b600e60008273ffffffffffffffffffffffffffffffffffffffff1673ffffffffffffffffffffffffffffffffffffffff16815260200190815260200160002060030154915050919050565b600f6020528060005260406000206000915054906101000a900460ff1681565b60076020528060005260406000206000915054906101000a900460ff1681565b60035481565b600660003373ffffffffffffffffffffffffffffffffffffffff1673ffffffffffffffffffffffffffffffffffffffff16815260200190815260200160002060009054906101000a900460ff16611263576040517f08c379a000000000000000000000000000000000000000000000000000000000815260040161125a906132b5565b60405180910390fd5b6000600b826040516112759190613311565b908152602001604051809103902060009054906101000a900473ffffffffffffffffffffffffffffffffffffffff1690506000600760008373ffffffffffffffffffffffffffffffffffffffff1673ffffffffffffffffffffffffffffffffffffffff16815260200190815260200160002060009054906101000a900460ff16806113495750600560008373ffffffffffffffffffffffffffffffffffffffff1673ffffffffffffffffffffffffffffffffffffffff16815260200190815260200160002060009054906101000a900460ff165b611388576040517f08c379a000000000000000000000000000000000000000000000000000000000815260040161137f906133e0565b60405180910390fd5b60005b600e60003373ffffffffffffffffffffffffffffffffffffffff1673ffffffffffffffffffffffffffffffffffffffff16815260200190815260200160002060020180549050811015611748578273ffffffffffffffffffffffffffffffffffffffff16600e60003373ffffffffffffffffffffffffffffffffffffffff1673ffffffffffffffffffffffffffffffffffffffff168152602001908152602001600020600201828154811061144357611442613543565b5b9060005260206000200160000160009054906101000a900473ffffffffffffffffffffffffffffffffffffffff1673ffffffffffffffffffffffffffffffffffffffff1603611735576000600e60003373ffffffffffffffffffffffffffffffffffffffff1673ffffffffffffffffffffffffffffffffffffffff168152602001908152602001600020600201805490509050600e60003373ffffffffffffffffffffffffffffffffffffffff1673ffffffffffffffffffffffffffffffffffffffff16815260200190815260200160002060020160018261152591906135de565b8154811061153657611535613543565b5b90600052602060002001600e60003373ffffffffffffffffffffffffffffffffffffffff1673ffffffffffffffffffffffffffffffffffffffff168152602001908152602001600020600201838154811061159457611593613543565b5b906000526020600020016000820160009054906101000a900473ffffffffffffffffffffffffffffffffffffffff168160000160006101000a81548173ffffffffffffffffffffffffffffffffffffffff021916908373ffffffffffffffffffffffffffffffffffffffff1602179055506000820160149054906101000a900460ff168160000160146101000a81548160ff021916908315150217905550905050600e60003373ffffffffffffffffffffffffffffffffffffffff1673ffffffffffffffffffffffffffffffffffffffff168152602001908152602001600020600301600081548092919061168890613612565b9190505550600e60003373ffffffffffffffffffffffffffffffffffffffff1673ffffffffffffffffffffffffffffffffffffffff1681526020019081526020016000206002018054806116df576116de61363b565b5b60019003818190600052602060002001600080820160006101000a81549073ffffffffffffffffffffffffffffffffffffffff02191690556000820160146101000a81549060ff02191690555050905560019250505b80806117409061342f565b91505061138b565b5080611789576040517f08c379a0000000000000000000000000000000000000000000000000000000008152600401611780906136b6565b60405180910390fd5b505050565b606082826040516020016117a39291906136d6565b604051602081830303815290604052905092915050565b601160009054906101000a900473ffffffffffffffffffffffffffffffffffffffff1681565b60066020528060005260406000206000915054906101000a900460ff1681565b600660003373ffffffffffffffffffffffffffffffffffffffff1673ffffffffffffffffffffffffffffffffffffffff16815260200190815260200160002060009054906101000a900460ff1661188c576040517f08c379a0000000000000000000000000000000000000000000000000000000008152600401611883906132b5565b60405180910390fd5b80600e60003373ffffffffffffffffffffffffffffffffffffffff1673ffffffffffffffffffffffffffffffffffffffff16815260200190815260200160002060000190816118db91906138a6565b5050565b60086020528060005260406000206000915054906101000a900460ff1681565b60005481565b60045481565b60056020528060005260406000206000915054906101000a900460ff1681565b60008160405160200161193e9190613311565b60405160208183030381529060405280519060200120836040516020016119659190613311565b6040516020818303038152906040528051906020012014905092915050565b6000600660003373ffffffffffffffffffffffffffffffffffffffff1673ffffffffffffffffffffffffffffffffffffffff16815260200190815260200160002060009054906101000a900460ff16611a12576040517f08c379a0000000000000000000000000000000000000000000000000000000008152600401611a09906135be565b60405180910390fd5b6000600e60003373ffffffffffffffffffffffffffffffffffffffff1673ffffffffffffffffffffffffffffffffffffffff168152602001908152602001600020600101600084815260200190815260200160002060020154905080915050919050565b60096020528060005260406000206000915054906101000a900460ff1681565b600a60003373ffffffffffffffffffffffffffffffffffffffff1673ffffffffffffffffffffffffffffffffffffffff16815260200190815260200160002060009054906101000a900460ff16611b22576040517f08c379a0000000000000000000000000000000000000000000000000000000008152600401611b19906139c4565b60405180910390fd5b81600073ffffffffffffffffffffffffffffffffffffffff168173ffffffffffffffffffffffffffffffffffffffff1603611b92576040517f08c379a0000000000000000000000000000000000000000000000000000000008152600401611b8990613a30565b60405180910390fd5b600860008273ffffffffffffffffffffffffffffffffffffffff1673ffffffffffffffffffffffffffffffffffffffff16815260200190815260200160002060009054906101000a900460ff16158015611c365750600960008273ffffffffffffffffffffffffffffffffffffffff1673ffffffffffffffffffffffffffffffffffffffff16815260200190815260200160002060009054906101000a900460ff16155b8015611c8c5750600760008273ffffffffffffffffffffffffffffffffffffffff1673ffffffffffffffffffffffffffffffffffffffff16815260200190815260200160002060009054906101000a900460ff16155b8015611ce25750600660008273ffffffffffffffffffffffffffffffffffffffff1673ffffffffffffffffffffffffffffffffffffffff16815260200190815260200160002060009054906101000a900460ff16155b8015611d385750600a60008273ffffffffffffffffffffffffffffffffffffffff1673ffffffffffffffffffffffffffffffffffffffff16815260200190815260200160002060009054906101000a900460ff16155b8015611d8e5750600560008273ffffffffffffffffffffffffffffffffffffffff1673ffffffffffffffffffffffffffffffffffffffff16815260200190815260200160002060009054906101000a900460ff16155b611dcd576040517f08c379a0000000000000000000000000000000000000000000000000000000008152600401611dc490613a9c565b60405180910390fd5b611e0c826040518060400160405280600881526020017f686f73706974616c00000000000000000000000000000000000000000000000081525061192b565b15611f84576001600560008573ffffffffffffffffffffffffffffffffffffffff1673ffffffffffffffffffffffffffffffffffffffff16815260200190815260200160002060006101000a81548160ff02191690831515021790555060016000815480929190611e7c9061342f565b91905055506000611e8e600154612bfa565b90506000611ed16040518060400160405280600181526020017f68000000000000000000000000000000000000000000000000000000000000008152508361178e565b905084600b82604051611ee49190613311565b908152602001604051809103902060006101000a81548173ffffffffffffffffffffffffffffffffffffffff021916908373ffffffffffffffffffffffffffffffffffffffff16021790555080600d60008773ffffffffffffffffffffffffffffffffffffffff1673ffffffffffffffffffffffffffffffffffffffff1681526020019081526020016000209081611f7c91906138a6565b5050506122ef565b611fc3826040518060400160405280600381526020017f6c6162000000000000000000000000000000000000000000000000000000000081525061192b565b1561213b576001600760008573ffffffffffffffffffffffffffffffffffffffff1673ffffffffffffffffffffffffffffffffffffffff16815260200190815260200160002060006101000a81548160ff021916908315150217905550600460008154809291906120339061342f565b91905055506000612045600454612bfa565b905060006120886040518060400160405280600181526020017f6c000000000000000000000000000000000000000000000000000000000000008152508361178e565b905084600b8260405161209b9190613311565b908152602001604051809103902060006101000a81548173ffffffffffffffffffffffffffffffffffffffff021916908373ffffffffffffffffffffffffffffffffffffffff16021790555080600d60008773ffffffffffffffffffffffffffffffffffffffff1673ffffffffffffffffffffffffffffffffffffffff168152602001908152602001600020908161213391906138a6565b5050506122ee565b61217a826040518060400160405280600781526020017f70617469656e740000000000000000000000000000000000000000000000000081525061192b565b156122ed576001600660008573ffffffffffffffffffffffffffffffffffffffff1673ffffffffffffffffffffffffffffffffffffffff16815260200190815260200160002060006101000a81548160ff0219169083151502179055506000808154809291906121e99061342f565b919050555060006121fb600054612bfa565b9050600061223e6040518060400160405280600181526020017f70000000000000000000000000000000000000000000000000000000000000008152508361178e565b905084600b826040516122519190613311565b908152602001604051809103902060006101000a81548173ffffffffffffffffffffffffffffffffffffffff021916908373ffffffffffffffffffffffffffffffffffffffff16021790555080600d60008773ffffffffffffffffffffffffffffffffffffffff1673ffffffffffffffffffffffffffffffffffffffff16815260200190815260200160002090816122e991906138a6565b5050505b5b5b505050565b6000600660003373ffffffffffffffffffffffffffffffffffffffff1673ffffffffffffffffffffffffffffffffffffffff16815260200190815260200160002060009054906101000a900460ff16612382576040517f08c379a0000000000000000000000000000000000000000000000000000000008152600401612379906135be565b60405180910390fd5b6000600e60003373ffffffffffffffffffffffffffffffffffffffff1673ffffffffffffffffffffffffffffffffffffffff168152602001908152602001600020600101600084815260200190815260200160002060010154905080915050919050565b600c6020528060005260406000206000915054906101000a900473ffffffffffffffffffffffffffffffffffffffff1681565b600d6020528060005260406000206000915090508054612438906134a6565b80601f0160208091040260200160405190810160405280929190818152602001828054612464906134a6565b80156124b15780601f10612486576101008083540402835291602001916124b1565b820191906000526020600020905b81548152906001019060200180831161249457829003601f168201915b505050505081565b80600073ffffffffffffffffffffffffffffffffffffffff168173ffffffffffffffffffffffffffffffffffffffff1603612529576040517f08c379a000000000000000000000000000000000000000000000000000000000815260040161252090613a30565b60405180910390fd5b600860008273ffffffffffffffffffffffffffffffffffffffff1673ffffffffffffffffffffffffffffffffffffffff16815260200190815260200160002060009054906101000a900460ff161580156125cd5750600960008273ffffffffffffffffffffffffffffffffffffffff1673ffffffffffffffffffffffffffffffffffffffff16815260200190815260200160002060009054906101000a900460ff16155b80156126235750600760008273ffffffffffffffffffffffffffffffffffffffff1673ffffffffffffffffffffffffffffffffffffffff16815260200190815260200160002060009054906101000a900460ff16155b80156126795750600660008273ffffffffffffffffffffffffffffffffffffffff1673ffffffffffffffffffffffffffffffffffffffff16815260200190815260200160002060009054906101000a900460ff16155b80156126cf5750600a60008273ffffffffffffffffffffffffffffffffffffffff1673ffffffffffffffffffffffffffffffffffffffff16815260200190815260200160002060009054906101000a900460ff16155b80156127255750600560008273ffffffffffffffffffffffffffffffffffffffff1673ffffffffffffffffffffffffffffffffffffffff16815260200190815260200160002060009054906101000a900460ff16155b612764576040517f08c379a000000000000000000000000000000000000000000000000000000000815260040161275b90613a9c565b60405180910390fd5b600560003373ffffffffffffffffffffffffffffffffffffffff1673ffffffffffffffffffffffffffffffffffffffff16815260200190815260200160002060009054906101000a900460ff16806128055750600760003373ffffffffffffffffffffffffffffffffffffffff1673ffffffffffffffffffffffffffffffffffffffff16815260200190815260200160002060009054906101000a900460ff165b612844576040517f08c379a000000000000000000000000000000000000000000000000000000000815260040161283b90613b08565b60405180910390fd5b600560003373ffffffffffffffffffffffffffffffffffffffff1673ffffffffffffffffffffffffffffffffffffffff16815260200190815260200160002060009054906101000a900460ff1615612a0957600260008154809291906128a99061342f565b91905055506001600860008473ffffffffffffffffffffffffffffffffffffffff1673ffffffffffffffffffffffffffffffffffffffff16815260200190815260200160002060006101000a81548160ff0219169083151502179055506000612913600254612bfa565b905060006129566040518060400160405280600181526020017f64000000000000000000000000000000000000000000000000000000000000008152508361178e565b905083600b826040516129699190613311565b908152602001604051809103902060006101000a81548173ffffffffffffffffffffffffffffffffffffffff021916908373ffffffffffffffffffffffffffffffffffffffff16021790555080600d60008673ffffffffffffffffffffffffffffffffffffffff1673ffffffffffffffffffffffffffffffffffffffff1681526020019081526020016000209081612a0191906138a6565b505050612b78565b6001600960008473ffffffffffffffffffffffffffffffffffffffff1673ffffffffffffffffffffffffffffffffffffffff16815260200190815260200160002060006101000a81548160ff02191690831515021790555060036000815480929190612a749061342f565b91905055506000612a86600354612bfa565b90506000612ac96040518060400160405280600181526020017f74000000000000000000000000000000000000000000000000000000000000008152508361178e565b905083600b82604051612adc9190613311565b908152602001604051809103902060006101000a81548173ffffffffffffffffffffffffffffffffffffffff021916908373ffffffffffffffffffffffffffffffffffffffff16021790555080600d60008673ffffffffffffffffffffffffffffffffffffffff1673ffffffffffffffffffffffffffffffffffffffff1681526020019081526020016000209081612b7491906138a6565b5050505b33600c60008473ffffffffffffffffffffffffffffffffffffffff1673ffffffffffffffffffffffffffffffffffffffff16815260200190815260200160002060006101000a81548173ffffffffffffffffffffffffffffffffffffffff021916908373ffffffffffffffffffffffffffffffffffffffff1602179055505050565b606060008203612c41576040518060400160405280600181526020017f30000000000000000000000000000000000000000000000000000000000000008152509050612d5b565b600082905060005b60008214612c73578080612c5c9061342f565b915050600a82612c6c9190613b57565b9150612c49565b60008167ffffffffffffffff811115612c8f57612c8e612dc1565b5b6040519080825280601f01601f191660200182016040528015612cc15781602001600182028036833780820191505090505b50905060008290508593505b60008414612d5357600a84612ce29190613b88565b6030612cee9190613bb9565b60f81b8282612cfc90613612565b92508281518110612d1057612d0f613543565b5b60200101907effffffffffffffffffffffffffffffffffffffffffffffffffffffffffffff1916908160001a905350600a84612d4c9190613b57565b9350612ccd565b819450505050505b919050565b6040518060400160405280600073ffffffffffffffffffffffffffffffffffffffff1681526020016000151581525090565b6000604051905090565b600080fd5b600080fd5b600080fd5b600080fd5b6000601f19601f8301169050919050565b7f4e487b7100000000000000000000000000000000000000000000000000000000600052604160045260246000fd5b612df982612db0565b810181811067ffffffffffffffff82111715612e1857612e17612dc1565b5b80604052505050565b6000612e2b612d92565b9050612e378282612df0565b919050565b600067ffffffffffffffff821115612e5757612e56612dc1565b5b612e6082612db0565b9050602081019050919050565b82818337600083830152505050565b6000612e8f612e8a84612e3c565b612e21565b905082815260208101848484011115612eab57612eaa612dab565b5b612eb6848285612e6d565b509392505050565b600082601f830112612ed357612ed2612da6565b5b8135612ee3848260208601612e7c565b91505092915050565b60008060408385031215612f0357612f02612d9c565b5b600083013567ffffffffffffffff811115612f2157612f20612da1565b5b612f2d85828601612ebe565b925050602083013567ffffffffffffffff811115612f4e57612f4d612da1565b5b612f5a85828601612ebe565b9150509250929050565b6000819050919050565b612f7781612f64565b82525050565b6000602082019050612f926000830184612f6e565b92915050565b600073ffffffffffffffffffffffffffffffffffffffff82169050919050565b6000612fc382612f98565b9050919050565b612fd381612fb8565b8114612fde57600080fd5b50565b600081359050612ff081612fca565b92915050565b60006020828403121561300c5761300b612d9c565b5b600061301a84828501612fe1565b91505092915050565b60008115159050919050565b61303881613023565b82525050565b6000602082019050613053600083018461302f565b92915050565b600081519050919050565b600082825260208201905092915050565b60005b83811015613093578082015181840152602081019050613078565b838111156130a2576000848401525b50505050565b60006130b382613059565b6130bd8185613064565b93506130cd818560208601613075565b6130d681612db0565b840191505092915050565b600060608201905081810360008301526130fb81866130a8565b905061310a6020830185612f6e565b6131176040830184612f6e565b949350505050565b60006020828403121561313557613134612d9c565b5b600082013567ffffffffffffffff81111561315357613152612da1565b5b61315f84828501612ebe565b91505092915050565b61317181612fb8565b82525050565b600060208201905061318c6000830184613168565b92915050565b600060208201905081810360008301526131ac81846130a8565b905092915050565b6131bd81612f64565b81146131c857600080fd5b50565b6000813590506131da816131b4565b92915050565b6000602082840312156131f6576131f5612d9c565b5b6000613204848285016131cb565b91505092915050565b6000806040838503121561322457613223612d9c565b5b600061323285828601612fe1565b925050602083013567ffffffffffffffff81111561325357613252612da1565b5b61325f85828601612ebe565b9150509250929050565b7f73656e646572206973206e6f742070617469656e740000000000000000000000600082015250565b600061329f601583613064565b91506132aa82613269565b602082019050919050565b600060208201905081810360008301526132ce81613292565b9050919050565b600081905092915050565b60006132eb82613059565b6132f581856132d5565b9350613305818560208601613075565b80840191505092915050565b600061331d82846132e0565b915081905092915050565b7f4e6f74206120686f73706974616c000000000000000000000000000000000000600082015250565b600061335e600e83613064565b915061336982613328565b602082019050919050565b6000602082019050818103600083015261338d81613351565b9050919050565b7f4e6f7420612076616c6964206164647265737300000000000000000000000000600082015250565b60006133ca601383613064565b91506133d582613394565b602082019050919050565b600060208201905081810360008301526133f9816133bd565b9050919050565b7f4e487b7100000000000000000000000000000000000000000000000000000000600052601160045260246000fd5b600061343a82612f64565b91507fffffffffffffffffffffffffffffffffffffffffffffffffffffffffffffffff820361346c5761346b613400565b5b600182019050919050565b7f4e487b7100000000000000000000000000000000000000000000000000000000600052602260045260246000fd5b600060028204905060018216806134be57607f821691505b6020821081036134d1576134d0613477565b5b50919050565b7f6e6f7420616c6c6f776564000000000000000000000000000000000000000000600082015250565b600061350d600b83613064565b9150613518826134d7565b602082019050919050565b6000602082019050818103600083015261353c81613500565b9050919050565b7f4e487b7100000000000000000000000000000000000000000000000000000000600052603260045260246000fd5b7f6e6f7420612070617469656e7400000000000000000000000000000000000000600082015250565b60006135a8600d83613064565b91506135b382613572565b602082019050919050565b600060208201905081810360008301526135d78161359b565b9050919050565b60006135e982612f64565b91506135f483612f64565b92508282101561360757613606613400565b5b828203905092915050565b600061361d82612f64565b9150600082036136305761362f613400565b5b600182039050919050565b7f4e487b7100000000000000000000000000000000000000000000000000000000600052603160045260246000fd5b7f696e76616c696420726571756573740000000000000000000000000000000000600082015250565b60006136a0600f83613064565b91506136ab8261366a565b602082019050919050565b600060208201905081810360008301526136cf81613693565b9050919050565b60006136e282856132e0565b91506136ee82846132e0565b91508190509392505050565b60008190508160005260206000209050919050565b60006020601f8301049050919050565b600082821b905092915050565b60006008830261375c7fffffffffffffffffffffffffffffffffffffffffffffffffffffffffffffffff8261371f565b613766868361371f565b95508019841693508086168417925050509392505050565b6000819050919050565b60006137a361379e61379984612f64565b61377e565b612f64565b9050919050565b6000819050919050565b6137bd83613788565b6137d16137c9826137aa565b84845461372c565b825550505050565b600090565b6137e66137d9565b6137f18184846137b4565b505050565b5b818110156138155761380a6000826137de565b6001810190506137f7565b5050565b601f82111561385a5761382b816136fa565b6138348461370f565b81016020851015613843578190505b61385761384f8561370f565b8301826137f6565b50505b505050565b600082821c905092915050565b600061387d6000198460080261385f565b1980831691505092915050565b6000613896838361386c565b9150826002028217905092915050565b6138af82613059565b67ffffffffffffffff8111156138c8576138c7612dc1565b5b6138d282546134a6565b6138dd828285613819565b600060209050601f83116001811461391057600084156138fe578287015190505b613908858261388a565b865550613970565b601f19841661391e866136fa565b60005b8281101561394657848901518255600182019150602085019450602081019050613921565b86831015613963578489015161395f601f89168261386c565b8355505b6001600288020188555050505b505050505050565b7f73656e646572206973206e6f74206f776e657200000000000000000000000000600082015250565b60006139ae601383613064565b91506139b982613978565b602082019050919050565b600060208201905081810360008301526139dd816139a1565b9050919050565b7f6e756c6c206164647265737320666f756e640000000000000000000000000000600082015250565b6000613a1a601283613064565b9150613a25826139e4565b602082019050919050565b60006020820190508181036000830152613a4981613a0d565b9050919050565b7f7072652d6578697374696e672061646472657373000000000000000000000000600082015250565b6000613a86601483613064565b9150613a9182613a50565b602082019050919050565b60006020820190508181036000830152613ab581613a79565b9050919050565b7f756e617574686f72697a65642061636365737300000000000000000000000000600082015250565b6000613af2601383613064565b9150613afd82613abc565b602082019050919050565b60006020820190508181036000830152613b2181613ae5565b9050919050565b7f4e487b7100000000000000000000000000000000000000000000000000000000600052601260045260246000fd5b6000613b6282612f64565b9150613b6d83612f64565b925082613b7d57613b7c613b28565b5b828204905092915050565b6000613b9382612f64565b9150613b9e83612f64565b925082613bae57613bad613b28565b5b828206905092915050565b6000613bc482612f64565b9150613bcf83612f64565b9250827fffffffffffffffffffffffffffffffffffffffffffffffffffffffffffffffff03821115613c0457613c03613400565b5b82820190509291505056fea26469706673582212209890a270c83a67da6ec39d83598511bf81afb9c7e504ddb1e3d903837cbd4e2a64736f6c634300080f0033",
  "immutableReferences": {},
  "source": "// SPDX-License-Identifier: MIT\r\npragma solidity ^0.8;\r\nimport \"../contracts/permission.sol\";\r\nimport \"../contracts/updateReport.sol\";\r\n\r\ncontract base is permission{\r\n\r\n    // sets the owner of the network\r\n    string id_hash;\r\n    address public owner;\r\n\r\n    constructor(){\r\n        owner = msg.sender;\r\n        isOwner[msg.sender] = true;\r\n    }\r\n\r\n}",
  "sourcePath": "D:\\ri\\ehr\\contracts\\base.sol",
  "compiler": {
    "name": "solc",
    "version": "0.8.15+commit.e14f2714.Emscripten.clang"
  },
  "schemaVersion": "3.4.8",
  "updatedAt": "2022-09-20T13:57:24.610Z",
  "networkType": "ethereum",
  "devdoc": {
    "kind": "dev",
    "methods": {},
    "version": 1
  },
  "userdoc": {
    "kind": "user",
    "methods": {},
    "version": 1
  }
}