{
  "contractName": "base",
  "abi": [
    {
      "inputs": [],
      "stateMutability": "nonpayable",
      "type": "constructor"
    },
    {
      "inputs": [
        {
          "internalType": "address",
          "name": "",
          "type": "address"
        }
      ],
      "name": "Address",
      "outputs": [
        {
          "internalType": "string",
          "name": "",
          "type": "string"
        }
      ],
      "stateMutability": "view",
      "type": "function"
    },
    {
      "inputs": [
        {
          "internalType": "string",
          "name": "",
          "type": "string"
        }
      ],
      "name": "Id",
      "outputs": [
        {
          "internalType": "address",
          "name": "",
          "type": "address"
        }
      ],
      "stateMutability": "view",
      "type": "function"
    },
    {
      "inputs": [
        {
          "internalType": "address",
          "name": "_address",
          "type": "address"
        },
        {
          "internalType": "string",
          "name": "category",
          "type": "string"
        }
      ],
      "name": "addClient",
      "outputs": [],
      "stateMutability": "nonpayable",
      "type": "function"
    },
    {
      "inputs": [
        {
          "internalType": "address",
          "name": "_address",
          "type": "address"
        }
      ],
      "name": "addEmployee",
      "outputs": [],
      "stateMutability": "nonpayable",
      "type": "function"
    },
    {
      "inputs": [
        {
          "internalType": "string",
          "name": "a",
          "type": "string"
        },
        {
          "internalType": "string",
          "name": "b",
          "type": "string"
        }
      ],
      "name": "compareStrings",
      "outputs": [
        {
          "internalType": "bool",
          "name": "",
          "type": "bool"
        }
      ],
      "stateMutability": "pure",
      "type": "function"
    },
    {
      "inputs": [
        {
          "internalType": "string",
          "name": "a",
          "type": "string"
        },
        {
          "internalType": "string",
          "name": "b",
          "type": "string"
        }
      ],
      "name": "concat",
      "outputs": [
        {
          "internalType": "string",
          "name": "",
          "type": "string"
        }
      ],
      "stateMutability": "pure",
      "type": "function"
    },
    {
      "inputs": [],
      "name": "doctorCnt",
      "outputs": [
        {
          "internalType": "uint256",
          "name": "",
          "type": "uint256"
        }
      ],
      "stateMutability": "view",
      "type": "function"
    },
    {
      "inputs": [
        {
          "internalType": "string",
          "name": "_id",
          "type": "string"
        }
      ],
      "name": "getCreditScore",
      "outputs": [
        {
          "internalType": "uint256",
          "name": "",
          "type": "uint256"
        }
      ],
      "stateMutability": "view",
      "type": "function"
    },
    {
      "inputs": [
        {
          "internalType": "string",
          "name": "_id",
          "type": "string"
        }
      ],
      "name": "getMedRecordCnt",
      "outputs": [
        {
          "internalType": "uint256",
          "name": "x",
          "type": "uint256"
        }
      ],
      "stateMutability": "view",
      "type": "function"
    },
    {
      "inputs": [
        {
          "internalType": "string",
          "name": "_id",
          "type": "string"
        }
      ],
      "name": "getPersonalInfoHash",
      "outputs": [
        {
          "internalType": "string",
          "name": "x",
          "type": "string"
        }
      ],
      "stateMutability": "view",
      "type": "function"
    },
    {
      "inputs": [],
      "name": "hospitalCnt",
      "outputs": [
        {
          "internalType": "uint256",
          "name": "",
          "type": "uint256"
        }
      ],
      "stateMutability": "view",
      "type": "function"
    },
    {
      "inputs": [
        {
          "internalType": "string",
          "name": "_id",
          "type": "string"
        }
      ],
      "name": "isAllowed",
      "outputs": [
        {
          "internalType": "bool",
          "name": "",
          "type": "bool"
        }
      ],
      "stateMutability": "view",
      "type": "function"
    },
    {
      "inputs": [
        {
          "internalType": "address",
          "name": "",
          "type": "address"
        }
      ],
      "name": "isDoctor",
      "outputs": [
        {
          "internalType": "bool",
          "name": "",
          "type": "bool"
        }
      ],
      "stateMutability": "view",
      "type": "function"
    },
    {
      "inputs": [
        {
          "internalType": "address",
          "name": "",
          "type": "address"
        }
      ],
      "name": "isHospital",
      "outputs": [
        {
          "internalType": "bool",
          "name": "",
          "type": "bool"
        }
      ],
      "stateMutability": "view",
      "type": "function"
    },
    {
      "inputs": [
        {
          "internalType": "address",
          "name": "",
          "type": "address"
        }
      ],
      "name": "isLab",
      "outputs": [
        {
          "internalType": "bool",
          "name": "",
          "type": "bool"
        }
      ],
      "stateMutability": "view",
      "type": "function"
    },
    {
      "inputs": [
        {
          "internalType": "address",
          "name": "",
          "type": "address"
        }
      ],
      "name": "isOwner",
      "outputs": [
        {
          "internalType": "bool",
          "name": "",
          "type": "bool"
        }
      ],
      "stateMutability": "view",
      "type": "function"
    },
    {
      "inputs": [
        {
          "internalType": "address",
          "name": "",
          "type": "address"
        }
      ],
      "name": "isPatient",
      "outputs": [
        {
          "internalType": "bool",
          "name": "",
          "type": "bool"
        }
      ],
      "stateMutability": "view",
      "type": "function"
    },
    {
      "inputs": [
        {
          "internalType": "address",
          "name": "",
          "type": "address"
        }
      ],
      "name": "isTech",
      "outputs": [
        {
          "internalType": "bool",
          "name": "",
          "type": "bool"
        }
      ],
      "stateMutability": "view",
      "type": "function"
    },
    {
      "inputs": [],
      "name": "labCnt",
      "outputs": [
        {
          "internalType": "uint256",
          "name": "",
          "type": "uint256"
        }
      ],
      "stateMutability": "view",
      "type": "function"
    },
    {
      "inputs": [
        {
          "internalType": "string",
          "name": "_id",
          "type": "string"
        },
        {
          "internalType": "string",
          "name": "status",
          "type": "string"
        }
      ],
      "name": "modifyStatus",
      "outputs": [],
      "stateMutability": "nonpayable",
      "type": "function"
    },
    {
      "inputs": [],
      "name": "owner",
      "outputs": [
        {
          "internalType": "address",
          "name": "",
          "type": "address"
        }
      ],
      "stateMutability": "view",
      "type": "function"
    },
    {
      "inputs": [],
      "name": "patientCnt",
      "outputs": [
        {
          "internalType": "uint256",
          "name": "",
          "type": "uint256"
        }
      ],
      "stateMutability": "view",
      "type": "function"
    },
    {
      "inputs": [
        {
          "internalType": "address",
          "name": "",
          "type": "address"
        }
      ],
      "name": "record",
      "outputs": [
        {
          "internalType": "string",
          "name": "personalInfoHash",
          "type": "string"
        },
        {
          "internalType": "uint256",
          "name": "credit",
          "type": "uint256"
        },
        {
          "internalType": "uint256",
          "name": "totalRecord",
          "type": "uint256"
        }
      ],
      "stateMutability": "view",
      "type": "function"
    },
    {
      "inputs": [
        {
          "internalType": "string",
          "name": "_pinfo",
          "type": "string"
        }
      ],
      "name": "setPersonalInfoHash",
      "outputs": [],
      "stateMutability": "nonpayable",
      "type": "function"
    },
    {
      "inputs": [],
      "name": "techCnt",
      "outputs": [
        {
          "internalType": "uint256",
          "name": "",
          "type": "uint256"
        }
      ],
      "stateMutability": "view",
      "type": "function"
    },
    {
      "inputs": [
        {
          "internalType": "uint256",
          "name": "_reportId",
          "type": "uint256"
        }
      ],
      "name": "totalConfirmation",
      "outputs": [
        {
          "internalType": "uint256",
          "name": "",
          "type": "uint256"
        }
      ],
      "stateMutability": "view",
      "type": "function"
    },
    {
      "inputs": [
        {
          "internalType": "uint256",
          "name": "_reportId",
          "type": "uint256"
        }
      ],
      "name": "totalConsulation",
      "outputs": [
        {
          "internalType": "uint256",
          "name": "",
          "type": "uint256"
        }
      ],
      "stateMutability": "view",
      "type": "function"
    },
    {
      "inputs": [
        {
          "internalType": "address",
          "name": "",
          "type": "address"
        }
      ],
      "name": "worksAt",
      "outputs": [
        {
          "internalType": "address",
          "name": "",
          "type": "address"
        }
      ],
      "stateMutability": "view",
      "type": "function"
    }
  ],
  "bytecode": "0x608060405260008055600060015560006002556000600355600060045534801561002857600080fd5b5033601060006101000a81548173ffffffffffffffffffffffffffffffffffffffff021916908373ffffffffffffffffffffffffffffffffffffffff1602179055506001600a60003373ffffffffffffffffffffffffffffffffffffffff1673ffffffffffffffffffffffffffffffffffffffff16815260200190815260200160002060006101000a81548160ff021916908315150217905550613dc8806100d16000396000f3fe608060405234801561001057600080fd5b50600436106101c45760003560e01c80638fc7043f116100f9578063ce64eac111610097578063e4ded01111610071578063e4ded011146105a3578063eac8aa62146105d3578063ebfb412d14610603578063f3cb8c3114610633576101c4565b8063ce64eac114610527578063e12483f814610557578063e292ec0814610587576101c4565b8063b89895f2116100d3578063b89895f214610479578063bdf6c67314610497578063bed34bba146104c7578063bfa28ff1146104f7576101c4565b80638fc7043f1461040f578063996440c61461042b578063ac2018e51461045b576101c4565b806349d8fea111610166578063807ad94011610140578063807ad9401461036157806389c19ddb146103915780638da5cb5b146103c15780638f9c79ed146103df576101c4565b806349d8fea1146102e35780635e3908801461031357806360ebd69014610343576101c4565b80633655181a116101a25780633655181a1461024957806339f0b138146102655780633eb23e69146102955780634761658e146102b3576101c4565b80631b9d1154146101c95780632f54bf6e146101e75780633465d6d514610217575b600080fd5b6101d161064f565b6040516101de9190612e56565b60405180910390f35b61020160048036038101906101fc9190612ee3565b610655565b60405161020e9190612f2b565b60405180910390f35b610231600480360381019061022c9190612ee3565b610675565b60405161024093929190612fdf565b60405180910390f35b610263600480360381019061025e9190613152565b610727565b005b61027f600480360381019061027a91906131ca565b610f27565b60405161028c9190613222565b60405180910390f35b61029d610f70565b6040516102aa9190612e56565b60405180910390f35b6102cd60048036038101906102c891906131ca565b610f76565b6040516102da919061323d565b60405180910390f35b6102fd60048036038101906102f891906131ca565b61112b565b60405161030a9190612e56565b60405180910390f35b61032d60048036038101906103289190612ee3565b611246565b60405161033a9190612f2b565b60405180910390f35b61034b611266565b6040516103589190612e56565b60405180910390f35b61037b600480360381019061037691906131ca565b61126c565b6040516103889190612f2b565b60405180910390f35b6103ab60048036038101906103a69190613152565b61173f565b6040516103b8919061323d565b60405180910390f35b6103c961176b565b6040516103d69190613222565b60405180910390f35b6103f960048036038101906103f49190612ee3565b611791565b6040516104069190612f2b565b60405180910390f35b610429600480360381019061042491906131ca565b6117b1565b005b61044560048036038101906104409190612ee3565b611890565b6040516104529190612f2b565b60405180910390f35b6104636118b0565b6040516104709190612e56565b60405180910390f35b6104816118b6565b60405161048e9190612e56565b60405180910390f35b6104b160048036038101906104ac9190612ee3565b6118bc565b6040516104be9190612f2b565b60405180910390f35b6104e160048036038101906104dc9190613152565b6118dc565b6040516104ee9190612f2b565b60405180910390f35b610511600480360381019061050c919061328b565b611935565b60405161051e9190612e56565b60405180910390f35b610541600480360381019061053c9190612ee3565b611a27565b60405161054e9190612f2b565b60405180910390f35b610571600480360381019061056c91906131ca565b611a47565b60405161057e9190612e56565b60405180910390f35b6105a1600480360381019061059c91906132b8565b611b73565b005b6105bd60048036038101906105b8919061328b565b6123d1565b6040516105ca9190612e56565b60405180910390f35b6105ed60048036038101906105e89190612ee3565b6124c3565b6040516105fa9190613222565b60405180910390f35b61061d60048036038101906106189190612ee3565b6124f6565b60405161062a919061323d565b60405180910390f35b61064d60048036038101906106489190612ee3565b612596565b005b60015481565b600a6020528060005260406000206000915054906101000a900460ff1681565b600e60205280600052604060002060009150905080600001805461069890613343565b80601f01602080910402602001604051908101604052809291908181526020018280546106c490613343565b80156107115780601f106106e657610100808354040283529160200191610711565b820191906000526020600020905b8154815290600101906020018083116106f457829003601f168201915b5050505050908060030154908060040154905083565b600660003373ffffffffffffffffffffffffffffffffffffffff1673ffffffffffffffffffffffffffffffffffffffff16815260200190815260200160002060009054906101000a900460ff166107b3576040517f08c379a00000000000000000000000000000000000000000000000000000000081526004016107aa906133c0565b60405180910390fd5b6000600b836040516107c5919061341c565b908152602001604051809103902060009054906101000a900473ffffffffffffffffffffffffffffffffffffffff169050600760008273ffffffffffffffffffffffffffffffffffffffff1673ffffffffffffffffffffffffffffffffffffffff16815260200190815260200160002060009054906101000a900460ff16806108975750600560008273ffffffffffffffffffffffffffffffffffffffff1673ffffffffffffffffffffffffffffffffffffffff16815260200190815260200160002060009054906101000a900460ff165b6108d6576040517f08c379a00000000000000000000000000000000000000000000000000000000081526004016108cd9061347f565b60405180910390fd5b60008060005b600e60003373ffffffffffffffffffffffffffffffffffffffff1673ffffffffffffffffffffffffffffffffffffffff16815260200190815260200160002060020180549050811015610d91578373ffffffffffffffffffffffffffffffffffffffff16600e60003373ffffffffffffffffffffffffffffffffffffffff1673ffffffffffffffffffffffffffffffffffffffff16815260200190815260200160002060020182815481106109945761099361349f565b5b9060005260206000200160009054906101000a900473ffffffffffffffffffffffffffffffffffffffff1673ffffffffffffffffffffffffffffffffffffffff16148015610a1d5750610a1c856040518060400160405280600781526020017f617070726f7665000000000000000000000000000000000000000000000000008152506118dc565b5b15610a2b5760019150610d91565b8373ffffffffffffffffffffffffffffffffffffffff16600e60003373ffffffffffffffffffffffffffffffffffffffff1673ffffffffffffffffffffffffffffffffffffffff1681526020019081526020016000206002018281548110610a9657610a9561349f565b5b9060005260206000200160009054906101000a900473ffffffffffffffffffffffffffffffffffffffff1673ffffffffffffffffffffffffffffffffffffffff16148015610b1f5750610b1e856040518060400160405280600681526020017f72656d6f766500000000000000000000000000000000000000000000000000008152506118dc565b5b15610d7e576000600e60003373ffffffffffffffffffffffffffffffffffffffff1673ffffffffffffffffffffffffffffffffffffffff168152602001908152602001600020600201805490509050600e60003373ffffffffffffffffffffffffffffffffffffffff1673ffffffffffffffffffffffffffffffffffffffff168152602001908152602001600020600201600182610bbd91906134fd565b81548110610bce57610bcd61349f565b5b9060005260206000200160009054906101000a900473ffffffffffffffffffffffffffffffffffffffff16600e60003373ffffffffffffffffffffffffffffffffffffffff1673ffffffffffffffffffffffffffffffffffffffff1681526020019081526020016000206002018381548110610c4d57610c4c61349f565b5b9060005260206000200160006101000a81548173ffffffffffffffffffffffffffffffffffffffff021916908373ffffffffffffffffffffffffffffffffffffffff160217905550600e60003373ffffffffffffffffffffffffffffffffffffffff1673ffffffffffffffffffffffffffffffffffffffff1681526020019081526020016000206003016000815480929190610ce890613531565b9190505550600e60003373ffffffffffffffffffffffffffffffffffffffff1673ffffffffffffffffffffffffffffffffffffffff168152602001908152602001600020600201805480610d3f57610d3e61355a565b5b6001900381819060005260206000200160006101000a81549073ffffffffffffffffffffffffffffffffffffffff021916905590556001935050610d91565b8080610d8990613589565b9150506108dc565b5080158015610ddb5750610dda846040518060400160405280600781526020017f617070726f7665000000000000000000000000000000000000000000000000008152506118dc565b5b15610ee057600e60003373ffffffffffffffffffffffffffffffffffffffff1673ffffffffffffffffffffffffffffffffffffffff168152602001908152602001600020600201839080600181540180825580915050600190039060005260206000200160009091909190916101000a81548173ffffffffffffffffffffffffffffffffffffffff021916908373ffffffffffffffffffffffffffffffffffffffff160217905550600e60003373ffffffffffffffffffffffffffffffffffffffff1673ffffffffffffffffffffffffffffffffffffffff1681526020019081526020016000206003016000815480929190610ed690613589565b9190505550600191505b81610f20576040517f08c379a0000000000000000000000000000000000000000000000000000000008152600401610f179061361d565b60405180910390fd5b5050505050565b600b818051602081018201805184825260208301602085012081835280955050505050506000915054906101000a900473ffffffffffffffffffffffffffffffffffffffff1681565b60025481565b60606000600b83604051610f8a919061341c565b908152602001604051809103902060009054906101000a900473ffffffffffffffffffffffffffffffffffffffff169050600660008273ffffffffffffffffffffffffffffffffffffffff1673ffffffffffffffffffffffffffffffffffffffff16815260200190815260200160002060009054906101000a900460ff16801561101957506110188361126c565b5b611058576040517f08c379a000000000000000000000000000000000000000000000000000000000815260040161104f90613689565b60405180910390fd5b600e60008273ffffffffffffffffffffffffffffffffffffffff1673ffffffffffffffffffffffffffffffffffffffff16815260200190815260200160002060000180546110a590613343565b80601f01602080910402602001604051908101604052809291908181526020018280546110d190613343565b801561111e5780601f106110f35761010080835404028352916020019161111e565b820191906000526020600020905b81548152906001019060200180831161110157829003601f168201915b5050505050915050919050565b600080600b8360405161113e919061341c565b908152602001604051809103902060009054906101000a900473ffffffffffffffffffffffffffffffffffffffff169050600660008273ffffffffffffffffffffffffffffffffffffffff1673ffffffffffffffffffffffffffffffffffffffff16815260200190815260200160002060009054906101000a900460ff166111fb576040517f08c379a00000000000000000000000000000000000000000000000000000000081526004016111f290613689565b60405180910390fd5b600e60008273ffffffffffffffffffffffffffffffffffffffff1673ffffffffffffffffffffffffffffffffffffffff16815260200190815260200160002060030154915050919050565b60076020528060005260406000206000915054906101000a900460ff1681565b60035481565b600080600b8360405161127f919061341c565b908152602001604051809103902060009054906101000a900473ffffffffffffffffffffffffffffffffffffffff169050600660008273ffffffffffffffffffffffffffffffffffffffff1673ffffffffffffffffffffffffffffffffffffffff16815260200190815260200160002060009054906101000a900460ff1661133c576040517f08c379a0000000000000000000000000000000000000000000000000000000008152600401611333906136f5565b60405180910390fd5b8073ffffffffffffffffffffffffffffffffffffffff163373ffffffffffffffffffffffffffffffffffffffff16036113e7578073ffffffffffffffffffffffffffffffffffffffff163373ffffffffffffffffffffffffffffffffffffffff16146113dd576040517f08c379a00000000000000000000000000000000000000000000000000000000081526004016113d490613761565b60405180910390fd5b600191505061173a565b600860003373ffffffffffffffffffffffffffffffffffffffff1673ffffffffffffffffffffffffffffffffffffffff16815260200190815260200160002060009054906101000a900460ff16806114885750600960003373ffffffffffffffffffffffffffffffffffffffff1673ffffffffffffffffffffffffffffffffffffffff16815260200190815260200160002060009054906101000a900460ff165b6114c7576040517f08c379a00000000000000000000000000000000000000000000000000000000081526004016114be906137cd565b60405180910390fd5b6000600c60003373ffffffffffffffffffffffffffffffffffffffff1673ffffffffffffffffffffffffffffffffffffffff16815260200190815260200160002060009054906101000a900473ffffffffffffffffffffffffffffffffffffffff169050600560008273ffffffffffffffffffffffffffffffffffffffff1673ffffffffffffffffffffffffffffffffffffffff16815260200190815260200160002060009054906101000a900460ff16806115cc5750600760008273ffffffffffffffffffffffffffffffffffffffff1673ffffffffffffffffffffffffffffffffffffffff16815260200190815260200160002060009054906101000a900460ff165b61160b576040517f08c379a000000000000000000000000000000000000000000000000000000000815260040161160290613839565b60405180910390fd5b60005b600e60008473ffffffffffffffffffffffffffffffffffffffff1673ffffffffffffffffffffffffffffffffffffffff16815260200190815260200160002060020180549050811015611732576000600e60008573ffffffffffffffffffffffffffffffffffffffff1673ffffffffffffffffffffffffffffffffffffffff16815260200190815260200160002060020182815481106116b1576116b061349f565b5b9060005260206000200160009054906101000a900473ffffffffffffffffffffffffffffffffffffffff1690508273ffffffffffffffffffffffffffffffffffffffff168173ffffffffffffffffffffffffffffffffffffffff160361171e57600194505050505061173a565b50808061172a90613589565b91505061160e565b505060009150505b919050565b60608282604051602001611754929190613859565b604051602081830303815290604052905092915050565b601060009054906101000a900473ffffffffffffffffffffffffffffffffffffffff1681565b60066020528060005260406000206000915054906101000a900460ff1681565b600660003373ffffffffffffffffffffffffffffffffffffffff1673ffffffffffffffffffffffffffffffffffffffff16815260200190815260200160002060009054906101000a900460ff1661183d576040517f08c379a0000000000000000000000000000000000000000000000000000000008152600401611834906133c0565b60405180910390fd5b80600e60003373ffffffffffffffffffffffffffffffffffffffff1673ffffffffffffffffffffffffffffffffffffffff168152602001908152602001600020600001908161188c9190613a29565b5050565b60086020528060005260406000206000915054906101000a900460ff1681565b60005481565b60045481565b60056020528060005260406000206000915054906101000a900460ff1681565b6000816040516020016118ef919061341c565b6040516020818303038152906040528051906020012083604051602001611916919061341c565b6040516020818303038152906040528051906020012014905092915050565b6000600660003373ffffffffffffffffffffffffffffffffffffffff1673ffffffffffffffffffffffffffffffffffffffff16815260200190815260200160002060009054906101000a900460ff166119c3576040517f08c379a00000000000000000000000000000000000000000000000000000000081526004016119ba90613689565b60405180910390fd5b6000600e60003373ffffffffffffffffffffffffffffffffffffffff1673ffffffffffffffffffffffffffffffffffffffff168152602001908152602001600020600101600084815260200190815260200160002060020154905080915050919050565b60096020528060005260406000206000915054906101000a900460ff1681565b600080600b83604051611a5a919061341c565b908152602001604051809103902060009054906101000a900473ffffffffffffffffffffffffffffffffffffffff169050600660008273ffffffffffffffffffffffffffffffffffffffff1673ffffffffffffffffffffffffffffffffffffffff16815260200190815260200160002060009054906101000a900460ff168015611ae95750611ae88361126c565b5b611b28576040517f08c379a0000000000000000000000000000000000000000000000000000000008152600401611b1f906136f5565b60405180910390fd5b600e60008273ffffffffffffffffffffffffffffffffffffffff1673ffffffffffffffffffffffffffffffffffffffff16815260200190815260200160002060040154915050919050565b600a60003373ffffffffffffffffffffffffffffffffffffffff1673ffffffffffffffffffffffffffffffffffffffff16815260200190815260200160002060009054906101000a900460ff16611bff576040517f08c379a0000000000000000000000000000000000000000000000000000000008152600401611bf690613b47565b60405180910390fd5b81600073ffffffffffffffffffffffffffffffffffffffff168173ffffffffffffffffffffffffffffffffffffffff1603611c6f576040517f08c379a0000000000000000000000000000000000000000000000000000000008152600401611c6690613bb3565b60405180910390fd5b600860008273ffffffffffffffffffffffffffffffffffffffff1673ffffffffffffffffffffffffffffffffffffffff16815260200190815260200160002060009054906101000a900460ff16158015611d135750600960008273ffffffffffffffffffffffffffffffffffffffff1673ffffffffffffffffffffffffffffffffffffffff16815260200190815260200160002060009054906101000a900460ff16155b8015611d695750600760008273ffffffffffffffffffffffffffffffffffffffff1673ffffffffffffffffffffffffffffffffffffffff16815260200190815260200160002060009054906101000a900460ff16155b8015611dbf5750600660008273ffffffffffffffffffffffffffffffffffffffff1673ffffffffffffffffffffffffffffffffffffffff16815260200190815260200160002060009054906101000a900460ff16155b8015611e155750600a60008273ffffffffffffffffffffffffffffffffffffffff1673ffffffffffffffffffffffffffffffffffffffff16815260200190815260200160002060009054906101000a900460ff16155b8015611e6b5750600560008273ffffffffffffffffffffffffffffffffffffffff1673ffffffffffffffffffffffffffffffffffffffff16815260200190815260200160002060009054906101000a900460ff16155b611eaa576040517f08c379a0000000000000000000000000000000000000000000000000000000008152600401611ea190613c1f565b60405180910390fd5b611ee9826040518060400160405280600881526020017f686f73706974616c0000000000000000000000000000000000000000000000008152506118dc565b15612061576001600560008573ffffffffffffffffffffffffffffffffffffffff1673ffffffffffffffffffffffffffffffffffffffff16815260200190815260200160002060006101000a81548160ff02191690831515021790555060016000815480929190611f5990613589565b91905055506000611f6b600154612cd7565b90506000611fae6040518060400160405280600181526020017f68000000000000000000000000000000000000000000000000000000000000008152508361173f565b905084600b82604051611fc1919061341c565b908152602001604051809103902060006101000a81548173ffffffffffffffffffffffffffffffffffffffff021916908373ffffffffffffffffffffffffffffffffffffffff16021790555080600d60008773ffffffffffffffffffffffffffffffffffffffff1673ffffffffffffffffffffffffffffffffffffffff16815260200190815260200160002090816120599190613a29565b5050506123cc565b6120a0826040518060400160405280600381526020017f6c616200000000000000000000000000000000000000000000000000000000008152506118dc565b15612218576001600760008573ffffffffffffffffffffffffffffffffffffffff1673ffffffffffffffffffffffffffffffffffffffff16815260200190815260200160002060006101000a81548160ff0219169083151502179055506004600081548092919061211090613589565b91905055506000612122600454612cd7565b905060006121656040518060400160405280600181526020017f6c000000000000000000000000000000000000000000000000000000000000008152508361173f565b905084600b82604051612178919061341c565b908152602001604051809103902060006101000a81548173ffffffffffffffffffffffffffffffffffffffff021916908373ffffffffffffffffffffffffffffffffffffffff16021790555080600d60008773ffffffffffffffffffffffffffffffffffffffff1673ffffffffffffffffffffffffffffffffffffffff16815260200190815260200160002090816122109190613a29565b5050506123cb565b612257826040518060400160405280600781526020017f70617469656e74000000000000000000000000000000000000000000000000008152506118dc565b156123ca576001600660008573ffffffffffffffffffffffffffffffffffffffff1673ffffffffffffffffffffffffffffffffffffffff16815260200190815260200160002060006101000a81548160ff0219169083151502179055506000808154809291906122c690613589565b919050555060006122d8600054612cd7565b9050600061231b6040518060400160405280600181526020017f70000000000000000000000000000000000000000000000000000000000000008152508361173f565b905084600b8260405161232e919061341c565b908152602001604051809103902060006101000a81548173ffffffffffffffffffffffffffffffffffffffff021916908373ffffffffffffffffffffffffffffffffffffffff16021790555080600d60008773ffffffffffffffffffffffffffffffffffffffff1673ffffffffffffffffffffffffffffffffffffffff16815260200190815260200160002090816123c69190613a29565b5050505b5b5b505050565b6000600660003373ffffffffffffffffffffffffffffffffffffffff1673ffffffffffffffffffffffffffffffffffffffff16815260200190815260200160002060009054906101000a900460ff1661245f576040517f08c379a000000000000000000000000000000000000000000000000000000000815260040161245690613689565b60405180910390fd5b6000600e60003373ffffffffffffffffffffffffffffffffffffffff1673ffffffffffffffffffffffffffffffffffffffff168152602001908152602001600020600101600084815260200190815260200160002060010154905080915050919050565b600c6020528060005260406000206000915054906101000a900473ffffffffffffffffffffffffffffffffffffffff1681565b600d602052806000526040600020600091509050805461251590613343565b80601f016020809104026020016040519081016040528092919081815260200182805461254190613343565b801561258e5780601f106125635761010080835404028352916020019161258e565b820191906000526020600020905b81548152906001019060200180831161257157829003601f168201915b505050505081565b80600073ffffffffffffffffffffffffffffffffffffffff168173ffffffffffffffffffffffffffffffffffffffff1603612606576040517f08c379a00000000000000000000000000000000000000000000000000000000081526004016125fd90613bb3565b60405180910390fd5b600860008273ffffffffffffffffffffffffffffffffffffffff1673ffffffffffffffffffffffffffffffffffffffff16815260200190815260200160002060009054906101000a900460ff161580156126aa5750600960008273ffffffffffffffffffffffffffffffffffffffff1673ffffffffffffffffffffffffffffffffffffffff16815260200190815260200160002060009054906101000a900460ff16155b80156127005750600760008273ffffffffffffffffffffffffffffffffffffffff1673ffffffffffffffffffffffffffffffffffffffff16815260200190815260200160002060009054906101000a900460ff16155b80156127565750600660008273ffffffffffffffffffffffffffffffffffffffff1673ffffffffffffffffffffffffffffffffffffffff16815260200190815260200160002060009054906101000a900460ff16155b80156127ac5750600a60008273ffffffffffffffffffffffffffffffffffffffff1673ffffffffffffffffffffffffffffffffffffffff16815260200190815260200160002060009054906101000a900460ff16155b80156128025750600560008273ffffffffffffffffffffffffffffffffffffffff1673ffffffffffffffffffffffffffffffffffffffff16815260200190815260200160002060009054906101000a900460ff16155b612841576040517f08c379a000000000000000000000000000000000000000000000000000000000815260040161283890613c1f565b60405180910390fd5b600560003373ffffffffffffffffffffffffffffffffffffffff1673ffffffffffffffffffffffffffffffffffffffff16815260200190815260200160002060009054906101000a900460ff16806128e25750600760003373ffffffffffffffffffffffffffffffffffffffff1673ffffffffffffffffffffffffffffffffffffffff16815260200190815260200160002060009054906101000a900460ff165b612921576040517f08c379a000000000000000000000000000000000000000000000000000000000815260040161291890613c8b565b60405180910390fd5b600560003373ffffffffffffffffffffffffffffffffffffffff1673ffffffffffffffffffffffffffffffffffffffff16815260200190815260200160002060009054906101000a900460ff1615612ae6576002600081548092919061298690613589565b91905055506001600860008473ffffffffffffffffffffffffffffffffffffffff1673ffffffffffffffffffffffffffffffffffffffff16815260200190815260200160002060006101000a81548160ff02191690831515021790555060006129f0600254612cd7565b90506000612a336040518060400160405280600181526020017f64000000000000000000000000000000000000000000000000000000000000008152508361173f565b905083600b82604051612a46919061341c565b908152602001604051809103902060006101000a81548173ffffffffffffffffffffffffffffffffffffffff021916908373ffffffffffffffffffffffffffffffffffffffff16021790555080600d60008673ffffffffffffffffffffffffffffffffffffffff1673ffffffffffffffffffffffffffffffffffffffff1681526020019081526020016000209081612ade9190613a29565b505050612c55565b6001600960008473ffffffffffffffffffffffffffffffffffffffff1673ffffffffffffffffffffffffffffffffffffffff16815260200190815260200160002060006101000a81548160ff02191690831515021790555060036000815480929190612b5190613589565b91905055506000612b63600354612cd7565b90506000612ba66040518060400160405280600181526020017f74000000000000000000000000000000000000000000000000000000000000008152508361173f565b905083600b82604051612bb9919061341c565b908152602001604051809103902060006101000a81548173ffffffffffffffffffffffffffffffffffffffff021916908373ffffffffffffffffffffffffffffffffffffffff16021790555080600d60008673ffffffffffffffffffffffffffffffffffffffff1673ffffffffffffffffffffffffffffffffffffffff1681526020019081526020016000209081612c519190613a29565b5050505b33600c60008473ffffffffffffffffffffffffffffffffffffffff1673ffffffffffffffffffffffffffffffffffffffff16815260200190815260200160002060006101000a81548173ffffffffffffffffffffffffffffffffffffffff021916908373ffffffffffffffffffffffffffffffffffffffff1602179055505050565b606060008203612d1e576040518060400160405280600181526020017f30000000000000000000000000000000000000000000000000000000000000008152509050612e38565b600082905060005b60008214612d50578080612d3990613589565b915050600a82612d499190613cda565b9150612d26565b60008167ffffffffffffffff811115612d6c57612d6b613027565b5b6040519080825280601f01601f191660200182016040528015612d9e5781602001600182028036833780820191505090505b50905060008290508593505b60008414612e3057600a84612dbf9190613d0b565b6030612dcb9190613d3c565b60f81b8282612dd990613531565b92508281518110612ded57612dec61349f565b5b60200101907effffffffffffffffffffffffffffffffffffffffffffffffffffffffffffff1916908160001a905350600a84612e299190613cda565b9350612daa565b819450505050505b919050565b6000819050919050565b612e5081612e3d565b82525050565b6000602082019050612e6b6000830184612e47565b92915050565b6000604051905090565b600080fd5b600080fd5b600073ffffffffffffffffffffffffffffffffffffffff82169050919050565b6000612eb082612e85565b9050919050565b612ec081612ea5565b8114612ecb57600080fd5b50565b600081359050612edd81612eb7565b92915050565b600060208284031215612ef957612ef8612e7b565b5b6000612f0784828501612ece565b91505092915050565b60008115159050919050565b612f2581612f10565b82525050565b6000602082019050612f406000830184612f1c565b92915050565b600081519050919050565b600082825260208201905092915050565b60005b83811015612f80578082015181840152602081019050612f65565b83811115612f8f576000848401525b50505050565b6000601f19601f8301169050919050565b6000612fb182612f46565b612fbb8185612f51565b9350612fcb818560208601612f62565b612fd481612f95565b840191505092915050565b60006060820190508181036000830152612ff98186612fa6565b90506130086020830185612e47565b6130156040830184612e47565b949350505050565b600080fd5b600080fd5b7f4e487b7100000000000000000000000000000000000000000000000000000000600052604160045260246000fd5b61305f82612f95565b810181811067ffffffffffffffff8211171561307e5761307d613027565b5b80604052505050565b6000613091612e71565b905061309d8282613056565b919050565b600067ffffffffffffffff8211156130bd576130bc613027565b5b6130c682612f95565b9050602081019050919050565b82818337600083830152505050565b60006130f56130f0846130a2565b613087565b90508281526020810184848401111561311157613110613022565b5b61311c8482856130d3565b509392505050565b600082601f8301126131395761313861301d565b5b81356131498482602086016130e2565b91505092915050565b6000806040838503121561316957613168612e7b565b5b600083013567ffffffffffffffff81111561318757613186612e80565b5b61319385828601613124565b925050602083013567ffffffffffffffff8111156131b4576131b3612e80565b5b6131c085828601613124565b9150509250929050565b6000602082840312156131e0576131df612e7b565b5b600082013567ffffffffffffffff8111156131fe576131fd612e80565b5b61320a84828501613124565b91505092915050565b61321c81612ea5565b82525050565b60006020820190506132376000830184613213565b92915050565b600060208201905081810360008301526132578184612fa6565b905092915050565b61326881612e3d565b811461327357600080fd5b50565b6000813590506132858161325f565b92915050565b6000602082840312156132a1576132a0612e7b565b5b60006132af84828501613276565b91505092915050565b600080604083850312156132cf576132ce612e7b565b5b60006132dd85828601612ece565b925050602083013567ffffffffffffffff8111156132fe576132fd612e80565b5b61330a85828601613124565b9150509250929050565b7f4e487b7100000000000000000000000000000000000000000000000000000000600052602260045260246000fd5b6000600282049050600182168061335b57607f821691505b60208210810361336e5761336d613314565b5b50919050565b7f73656e646572206973206e6f742070617469656e740000000000000000000000600082015250565b60006133aa601583612f51565b91506133b582613374565b602082019050919050565b600060208201905081810360008301526133d98161339d565b9050919050565b600081905092915050565b60006133f682612f46565b61340081856133e0565b9350613410818560208601612f62565b80840191505092915050565b600061342882846133eb565b915081905092915050565b7f4e6f7420612076616c6964206164647265737300000000000000000000000000600082015250565b6000613469601383612f51565b915061347482613433565b602082019050919050565b600060208201905081810360008301526134988161345c565b9050919050565b7f4e487b7100000000000000000000000000000000000000000000000000000000600052603260045260246000fd5b7f4e487b7100000000000000000000000000000000000000000000000000000000600052601160045260246000fd5b600061350882612e3d565b915061351383612e3d565b925082821015613526576135256134ce565b5b828203905092915050565b600061353c82612e3d565b91506000820361354f5761354e6134ce565b5b600182039050919050565b7f4e487b7100000000000000000000000000000000000000000000000000000000600052603160045260246000fd5b600061359482612e3d565b91507fffffffffffffffffffffffffffffffffffffffffffffffffffffffffffffffff82036135c6576135c56134ce565b5b600182019050919050565b7f696e76616c696420726571756573740000000000000000000000000000000000600082015250565b6000613607600f83612f51565b9150613612826135d1565b602082019050919050565b60006020820190508181036000830152613636816135fa565b9050919050565b7f6e6f7420612070617469656e7400000000000000000000000000000000000000600082015250565b6000613673600d83612f51565b915061367e8261363d565b602082019050919050565b600060208201905081810360008301526136a281613666565b9050919050565b7f6e6f7420612070617469656e7427732069640000000000000000000000000000600082015250565b60006136df601283612f51565b91506136ea826136a9565b602082019050919050565b6000602082019050818103600083015261370e816136d2565b9050919050565b7f74727920796f7572206964000000000000000000000000000000000000000000600082015250565b600061374b600b83612f51565b915061375682613715565b602082019050919050565b6000602082019050818103600083015261377a8161373e565b9050919050565b7f6e6f74206120776f726b65720000000000000000000000000000000000000000600082015250565b60006137b7600c83612f51565b91506137c282613781565b602082019050919050565b600060208201905081810360008301526137e6816137aa565b9050919050565b7f6e6f7420616c6c6f776564000000000000000000000000000000000000000000600082015250565b6000613823600b83612f51565b915061382e826137ed565b602082019050919050565b6000602082019050818103600083015261385281613816565b9050919050565b600061386582856133eb565b915061387182846133eb565b91508190509392505050565b60008190508160005260206000209050919050565b60006020601f8301049050919050565b600082821b905092915050565b6000600883026138df7fffffffffffffffffffffffffffffffffffffffffffffffffffffffffffffffff826138a2565b6138e986836138a2565b95508019841693508086168417925050509392505050565b6000819050919050565b600061392661392161391c84612e3d565b613901565b612e3d565b9050919050565b6000819050919050565b6139408361390b565b61395461394c8261392d565b8484546138af565b825550505050565b600090565b61396961395c565b613974818484613937565b505050565b5b818110156139985761398d600082613961565b60018101905061397a565b5050565b601f8211156139dd576139ae8161387d565b6139b784613892565b810160208510156139c6578190505b6139da6139d285613892565b830182613979565b50505b505050565b600082821c905092915050565b6000613a00600019846008026139e2565b1980831691505092915050565b6000613a1983836139ef565b9150826002028217905092915050565b613a3282612f46565b67ffffffffffffffff811115613a4b57613a4a613027565b5b613a558254613343565b613a6082828561399c565b600060209050601f831160018114613a935760008415613a81578287015190505b613a8b8582613a0d565b865550613af3565b601f198416613aa18661387d565b60005b82811015613ac957848901518255600182019150602085019450602081019050613aa4565b86831015613ae65784890151613ae2601f8916826139ef565b8355505b6001600288020188555050505b505050505050565b7f73656e646572206973206e6f74206f776e657200000000000000000000000000600082015250565b6000613b31601383612f51565b9150613b3c82613afb565b602082019050919050565b60006020820190508181036000830152613b6081613b24565b9050919050565b7f6e756c6c206164647265737320666f756e640000000000000000000000000000600082015250565b6000613b9d601283612f51565b9150613ba882613b67565b602082019050919050565b60006020820190508181036000830152613bcc81613b90565b9050919050565b7f7072652d6578697374696e672061646472657373000000000000000000000000600082015250565b6000613c09601483612f51565b9150613c1482613bd3565b602082019050919050565b60006020820190508181036000830152613c3881613bfc565b9050919050565b7f756e617574686f72697a65642061636365737300000000000000000000000000600082015250565b6000613c75601383612f51565b9150613c8082613c3f565b602082019050919050565b60006020820190508181036000830152613ca481613c68565b9050919050565b7f4e487b7100000000000000000000000000000000000000000000000000000000600052601260045260246000fd5b6000613ce582612e3d565b9150613cf083612e3d565b925082613d0057613cff613cab565b5b828204905092915050565b6000613d1682612e3d565b9150613d2183612e3d565b925082613d3157613d30613cab565b5b828206905092915050565b6000613d4782612e3d565b9150613d5283612e3d565b9250827fffffffffffffffffffffffffffffffffffffffffffffffffffffffffffffffff03821115613d8757613d866134ce565b5b82820190509291505056fea2646970667358221220f9a05621357a9cf9aa782460bd3b2ec291c1e6f00a35a8aa4ef291eb6a6d264e64736f6c634300080f0033",
  "immutableReferences": {},
  "source": "// SPDX-License-Identifier: MIT\r\npragma solidity ^0.8;\r\nimport \"../contracts/permission.sol\";\r\nimport \"../contracts/updateReport.sol\";\r\n\r\ncontract base is permission{\r\n\r\n    // sets the owner of the network\r\n    string id_hash;\r\n    address public owner;\r\n\r\n    constructor(){\r\n        owner = msg.sender;\r\n        isOwner[msg.sender] = true;\r\n    }\r\n    \r\n\r\n}",
  "sourcePath": "D:\\ri\\ehr\\contracts\\base.sol",
  "compiler": {
    "name": "solc",
    "version": "0.8.15+commit.e14f2714.Emscripten.clang"
  },
  "schemaVersion": "3.4.8",
  "updatedAt": "2022-09-24T16:36:10.212Z",
  "devdoc": {
    "kind": "dev",
    "methods": {},
    "version": 1
  },
  "userdoc": {
    "kind": "user",
    "methods": {},
    "version": 1
  }
}