{
  "contractName": "base",
  "abi": [
    {
      "inputs": [],
      "stateMutability": "nonpayable",
      "type": "constructor"
    },
    {
      "inputs": [
        {
          "internalType": "address",
          "name": "",
          "type": "address"
        }
      ],
      "name": "Address",
      "outputs": [
        {
          "internalType": "string",
          "name": "",
          "type": "string"
        }
      ],
      "stateMutability": "view",
      "type": "function",
      "constant": true
    },
    {
      "inputs": [
        {
          "internalType": "string",
          "name": "",
          "type": "string"
        }
      ],
      "name": "Id",
      "outputs": [
        {
          "internalType": "address",
          "name": "",
          "type": "address"
        }
      ],
      "stateMutability": "view",
      "type": "function",
      "constant": true
    },
    {
      "inputs": [
        {
          "internalType": "address",
          "name": "_address",
          "type": "address"
        },
        {
          "internalType": "string",
          "name": "category",
          "type": "string"
        }
      ],
      "name": "addClient",
      "outputs": [],
      "stateMutability": "nonpayable",
      "type": "function"
    },
    {
      "inputs": [
        {
          "internalType": "address",
          "name": "_address",
          "type": "address"
        }
      ],
      "name": "addEmployee",
      "outputs": [],
      "stateMutability": "nonpayable",
      "type": "function"
    },
    {
      "inputs": [
        {
          "internalType": "string",
          "name": "_id",
          "type": "string"
        },
        {
          "internalType": "uint256",
          "name": "rId",
          "type": "uint256"
        }
      ],
      "name": "approveRefferedDoctor",
      "outputs": [],
      "stateMutability": "nonpayable",
      "type": "function"
    },
    {
      "inputs": [
        {
          "internalType": "string",
          "name": "a",
          "type": "string"
        },
        {
          "internalType": "string",
          "name": "b",
          "type": "string"
        }
      ],
      "name": "compareStrings",
      "outputs": [
        {
          "internalType": "bool",
          "name": "",
          "type": "bool"
        }
      ],
      "stateMutability": "pure",
      "type": "function",
      "constant": true
    },
    {
      "inputs": [
        {
          "internalType": "string",
          "name": "a",
          "type": "string"
        },
        {
          "internalType": "string",
          "name": "b",
          "type": "string"
        }
      ],
      "name": "concat",
      "outputs": [
        {
          "internalType": "string",
          "name": "",
          "type": "string"
        }
      ],
      "stateMutability": "pure",
      "type": "function",
      "constant": true
    },
    {
      "inputs": [
        {
          "internalType": "string",
          "name": "_id",
          "type": "string"
        },
        {
          "internalType": "uint256",
          "name": "_reportId",
          "type": "uint256"
        },
        {
          "internalType": "bool",
          "name": "status",
          "type": "bool"
        }
      ],
      "name": "confirmDisease",
      "outputs": [],
      "stateMutability": "nonpayable",
      "type": "function"
    },
    {
      "inputs": [],
      "name": "doctorCnt",
      "outputs": [
        {
          "internalType": "uint256",
          "name": "",
          "type": "uint256"
        }
      ],
      "stateMutability": "view",
      "type": "function",
      "constant": true
    },
    {
      "inputs": [
        {
          "internalType": "string",
          "name": "_id",
          "type": "string"
        }
      ],
      "name": "getCreditScore",
      "outputs": [
        {
          "internalType": "uint256",
          "name": "",
          "type": "uint256"
        }
      ],
      "stateMutability": "view",
      "type": "function",
      "constant": true
    },
    {
      "inputs": [
        {
          "internalType": "string",
          "name": "_id",
          "type": "string"
        },
        {
          "internalType": "uint256",
          "name": "_reportId",
          "type": "uint256"
        }
      ],
      "name": "getMedInfoHash",
      "outputs": [
        {
          "internalType": "string",
          "name": "",
          "type": "string"
        }
      ],
      "stateMutability": "view",
      "type": "function",
      "constant": true
    },
    {
      "inputs": [
        {
          "internalType": "string",
          "name": "_id",
          "type": "string"
        }
      ],
      "name": "getMedRecordCnt",
      "outputs": [
        {
          "internalType": "uint256",
          "name": "x",
          "type": "uint256"
        }
      ],
      "stateMutability": "view",
      "type": "function",
      "constant": true
    },
    {
      "inputs": [
        {
          "internalType": "string",
          "name": "_id",
          "type": "string"
        }
      ],
      "name": "getPersonalInfoHash",
      "outputs": [
        {
          "internalType": "string",
          "name": "x",
          "type": "string"
        }
      ],
      "stateMutability": "view",
      "type": "function",
      "constant": true
    },
    {
      "inputs": [],
      "name": "hospitalCnt",
      "outputs": [
        {
          "internalType": "uint256",
          "name": "",
          "type": "uint256"
        }
      ],
      "stateMutability": "view",
      "type": "function",
      "constant": true
    },
    {
      "inputs": [
        {
          "internalType": "string",
          "name": "_id",
          "type": "string"
        }
      ],
      "name": "isAllowed",
      "outputs": [
        {
          "internalType": "bool",
          "name": "",
          "type": "bool"
        }
      ],
      "stateMutability": "view",
      "type": "function",
      "constant": true
    },
    {
      "inputs": [
        {
          "internalType": "address",
          "name": "",
          "type": "address"
        }
      ],
      "name": "isDoctor",
      "outputs": [
        {
          "internalType": "bool",
          "name": "",
          "type": "bool"
        }
      ],
      "stateMutability": "view",
      "type": "function",
      "constant": true
    },
    {
      "inputs": [
        {
          "internalType": "address",
          "name": "",
          "type": "address"
        }
      ],
      "name": "isHospital",
      "outputs": [
        {
          "internalType": "bool",
          "name": "",
          "type": "bool"
        }
      ],
      "stateMutability": "view",
      "type": "function",
      "constant": true
    },
    {
      "inputs": [
        {
          "internalType": "address",
          "name": "",
          "type": "address"
        }
      ],
      "name": "isLab",
      "outputs": [
        {
          "internalType": "bool",
          "name": "",
          "type": "bool"
        }
      ],
      "stateMutability": "view",
      "type": "function",
      "constant": true
    },
    {
      "inputs": [
        {
          "internalType": "address",
          "name": "",
          "type": "address"
        }
      ],
      "name": "isOwner",
      "outputs": [
        {
          "internalType": "bool",
          "name": "",
          "type": "bool"
        }
      ],
      "stateMutability": "view",
      "type": "function",
      "constant": true
    },
    {
      "inputs": [
        {
          "internalType": "address",
          "name": "",
          "type": "address"
        }
      ],
      "name": "isPatient",
      "outputs": [
        {
          "internalType": "bool",
          "name": "",
          "type": "bool"
        }
      ],
      "stateMutability": "view",
      "type": "function",
      "constant": true
    },
    {
      "inputs": [
        {
          "internalType": "address",
          "name": "",
          "type": "address"
        }
      ],
      "name": "isTech",
      "outputs": [
        {
          "internalType": "bool",
          "name": "",
          "type": "bool"
        }
      ],
      "stateMutability": "view",
      "type": "function",
      "constant": true
    },
    {
      "inputs": [],
      "name": "labCnt",
      "outputs": [
        {
          "internalType": "uint256",
          "name": "",
          "type": "uint256"
        }
      ],
      "stateMutability": "view",
      "type": "function",
      "constant": true
    },
    {
      "inputs": [
        {
          "internalType": "string",
          "name": "_id",
          "type": "string"
        },
        {
          "internalType": "string",
          "name": "status",
          "type": "string"
        }
      ],
      "name": "modifyStatus",
      "outputs": [],
      "stateMutability": "nonpayable",
      "type": "function"
    },
    {
      "inputs": [],
      "name": "owner",
      "outputs": [
        {
          "internalType": "address",
          "name": "",
          "type": "address"
        }
      ],
      "stateMutability": "view",
      "type": "function",
      "constant": true
    },
    {
      "inputs": [],
      "name": "patientCnt",
      "outputs": [
        {
          "internalType": "uint256",
          "name": "",
          "type": "uint256"
        }
      ],
      "stateMutability": "view",
      "type": "function",
      "constant": true
    },
    {
      "inputs": [
        {
          "internalType": "address",
          "name": "",
          "type": "address"
        }
      ],
      "name": "record",
      "outputs": [
        {
          "internalType": "string",
          "name": "personalInfoHash",
          "type": "string"
        },
        {
          "internalType": "uint256",
          "name": "credit",
          "type": "uint256"
        },
        {
          "internalType": "uint256",
          "name": "totalRecord",
          "type": "uint256"
        }
      ],
      "stateMutability": "view",
      "type": "function",
      "constant": true
    },
    {
      "inputs": [
        {
          "internalType": "string",
          "name": "_id",
          "type": "string"
        },
        {
          "internalType": "string",
          "name": "_pId",
          "type": "string"
        },
        {
          "internalType": "uint256",
          "name": "rId",
          "type": "uint256"
        }
      ],
      "name": "reffer",
      "outputs": [],
      "stateMutability": "nonpayable",
      "type": "function"
    },
    {
      "inputs": [
        {
          "internalType": "string",
          "name": "_mHash",
          "type": "string"
        },
        {
          "internalType": "string",
          "name": "_id",
          "type": "string"
        }
      ],
      "name": "setMedInfoHash",
      "outputs": [],
      "stateMutability": "nonpayable",
      "type": "function"
    },
    {
      "inputs": [
        {
          "internalType": "string",
          "name": "_pinfo",
          "type": "string"
        }
      ],
      "name": "setPersonalInfoHash",
      "outputs": [],
      "stateMutability": "nonpayable",
      "type": "function"
    },
    {
      "inputs": [],
      "name": "techCnt",
      "outputs": [
        {
          "internalType": "uint256",
          "name": "",
          "type": "uint256"
        }
      ],
      "stateMutability": "view",
      "type": "function",
      "constant": true
    },
    {
      "inputs": [
        {
          "internalType": "uint256",
          "name": "_reportId",
          "type": "uint256"
        }
      ],
      "name": "totalConfirmation",
      "outputs": [
        {
          "internalType": "uint256",
          "name": "",
          "type": "uint256"
        }
      ],
      "stateMutability": "view",
      "type": "function",
      "constant": true
    },
    {
      "inputs": [
        {
          "internalType": "uint256",
          "name": "_reportId",
          "type": "uint256"
        }
      ],
      "name": "totalConsulation",
      "outputs": [
        {
          "internalType": "uint256",
          "name": "",
          "type": "uint256"
        }
      ],
      "stateMutability": "view",
      "type": "function",
      "constant": true
    },
    {
      "inputs": [
        {
          "internalType": "address",
          "name": "",
          "type": "address"
        }
      ],
      "name": "worksAt",
      "outputs": [
        {
          "internalType": "address",
          "name": "",
          "type": "address"
        }
      ],
      "stateMutability": "view",
      "type": "function",
      "constant": true
    }
  ],
  "bytecode": "0x608060405260008055600060015560006002556000600355600060045534801561002857600080fd5b5033601060006101000a81548173ffffffffffffffffffffffffffffffffffffffff021916908373ffffffffffffffffffffffffffffffffffffffff1602179055506001600a60003373ffffffffffffffffffffffffffffffffffffffff1673ffffffffffffffffffffffffffffffffffffffff16815260200190815260200160002060006101000a81548160ff0219169083151502179055506153f3806100d16000396000f3fe608060405234801561001057600080fd5b50600436106101fb5760003560e01c80638fa793901161011a578063bfa28ff1116100ad578063e292ec081161007c578063e292ec081461065e578063e4ded0111461067a578063eac8aa62146106aa578063ebfb412d146106da578063f3cb8c311461070a576101fb565b8063bfa28ff1146105b2578063cd422a3f146105e2578063ce64eac1146105fe578063e12483f81461062e576101fb565b8063ac2018e5116100e9578063ac2018e514610516578063b89895f214610534578063bdf6c67314610552578063bed34bba14610582576101fb565b80638fa793901461047e5780638fc7043f146104ae578063996440c6146104ca578063a8488687146104fa576101fb565b806349d8fea11161019257806382826ecd1161016157806382826ecd146103e457806389c19ddb146104005780638da5cb5b146104305780638f9c79ed1461044e576101fb565b806349d8fea1146103365780635e3908801461036657806360ebd69014610396578063807ad940146103b4576101fb565b80633655181a116101ce5780633655181a1461029c57806339f0b138146102b85780633eb23e69146102e85780634761658e14610306576101fb565b8063030b35cb146102005780631b9d11541461021c5780632f54bf6e1461023a5780633465d6d51461026a575b600080fd5b61021a6004803603810190610215919061414c565b610726565b005b6102246109ab565b60405161023191906141dd565b60405180910390f35b610254600480360381019061024f9190614256565b6109b1565b604051610261919061429e565b60405180910390f35b610284600480360381019061027f9190614256565b6109d1565b60405161029393929190614341565b60405180910390f35b6102b660048036038101906102b1919061414c565b610a83565b005b6102d260048036038101906102cd919061437f565b611283565b6040516102df91906143d7565b60405180910390f35b6102f06112cc565b6040516102fd91906141dd565b60405180910390f35b610320600480360381019061031b919061437f565b6112d2565b60405161032d91906143f2565b60405180910390f35b610350600480360381019061034b919061437f565b611487565b60405161035d91906141dd565b60405180910390f35b610380600480360381019061037b9190614256565b6115a2565b60405161038d919061429e565b60405180910390f35b61039e6115c2565b6040516103ab91906141dd565b60405180910390f35b6103ce60048036038101906103c9919061437f565b6115c8565b6040516103db919061429e565b60405180910390f35b6103fe60048036038101906103f99190614440565b611a9b565b005b61041a6004803603810190610415919061414c565b611d6a565b60405161042791906143f2565b60405180910390f35b610438611d96565b60405161044591906143d7565b60405180910390f35b61046860048036038101906104639190614256565b611dbc565b604051610475919061429e565b60405180910390f35b61049860048036038101906104939190614440565b611ddc565b6040516104a591906143f2565b60405180910390f35b6104c860048036038101906104c3919061437f565b612153565b005b6104e460048036038101906104df9190614256565b612232565b6040516104f1919061429e565b60405180910390f35b610514600480360381019061050f91906144c8565b612252565b005b61051e61278a565b60405161052b91906141dd565b60405180910390f35b61053c612790565b60405161054991906141dd565b60405180910390f35b61056c60048036038101906105679190614256565b612796565b604051610579919061429e565b60405180910390f35b61059c6004803603810190610597919061414c565b6127b6565b6040516105a9919061429e565b60405180910390f35b6105cc60048036038101906105c79190614537565b61280f565b6040516105d991906141dd565b60405180910390f35b6105fc60048036038101906105f79190614564565b612901565b005b61061860048036038101906106139190614256565b612bdc565b604051610625919061429e565b60405180910390f35b6106486004803603810190610643919061437f565b612bfc565b60405161065591906141dd565b60405180910390f35b610678600480360381019061067391906145ef565b612d28565b005b610694600480360381019061068f9190614537565b613586565b6040516106a191906141dd565b60405180910390f35b6106c460048036038101906106bf9190614256565b613678565b6040516106d191906143d7565b60405180910390f35b6106f460048036038101906106ef9190614256565b6136ab565b60405161070191906143f2565b60405180910390f35b610724600480360381019061071f9190614256565b61374b565b005b6000600b826040516107389190614687565b908152602001604051809103902060009054906101000a900473ffffffffffffffffffffffffffffffffffffffff169050600660008273ffffffffffffffffffffffffffffffffffffffff1673ffffffffffffffffffffffffffffffffffffffff16815260200190815260200160002060009054906101000a900460ff166107f5576040517f08c379a00000000000000000000000000000000000000000000000000000000081526004016107ec906146ea565b60405180910390fd5b6107fe826115c8565b80156108535750600960003373ffffffffffffffffffffffffffffffffffffffff1673ffffffffffffffffffffffffffffffffffffffff16815260200190815260200160002060009054906101000a900460ff165b610892576040517f08c379a000000000000000000000000000000000000000000000000000000000815260040161088990614756565b60405180910390fd5b6000600e60008373ffffffffffffffffffffffffffffffffffffffff1673ffffffffffffffffffffffffffffffffffffffff1681526020019081526020016000206004015490506001816108e691906147a5565b905083600e60008473ffffffffffffffffffffffffffffffffffffffff1673ffffffffffffffffffffffffffffffffffffffff1681526020019081526020016000206001016000838152602001908152602001600020600001908161094b9190614a07565b5080600e60008473ffffffffffffffffffffffffffffffffffffffff1673ffffffffffffffffffffffffffffffffffffffff168152602001908152602001600020600401600082825461099e91906147a5565b9250508190555050505050565b60015481565b600a6020528060005260406000206000915054906101000a900460ff1681565b600e6020528060005260406000206000915090508060000180546109f49061482a565b80601f0160208091040260200160405190810160405280929190818152602001828054610a209061482a565b8015610a6d5780601f10610a4257610100808354040283529160200191610a6d565b820191906000526020600020905b815481529060010190602001808311610a5057829003601f168201915b5050505050908060030154908060040154905083565b600660003373ffffffffffffffffffffffffffffffffffffffff1673ffffffffffffffffffffffffffffffffffffffff16815260200190815260200160002060009054906101000a900460ff16610b0f576040517f08c379a0000000000000000000000000000000000000000000000000000000008152600401610b0690614b25565b60405180910390fd5b6000600b83604051610b219190614687565b908152602001604051809103902060009054906101000a900473ffffffffffffffffffffffffffffffffffffffff169050600760008273ffffffffffffffffffffffffffffffffffffffff1673ffffffffffffffffffffffffffffffffffffffff16815260200190815260200160002060009054906101000a900460ff1680610bf35750600560008273ffffffffffffffffffffffffffffffffffffffff1673ffffffffffffffffffffffffffffffffffffffff16815260200190815260200160002060009054906101000a900460ff165b610c32576040517f08c379a0000000000000000000000000000000000000000000000000000000008152600401610c2990614b91565b60405180910390fd5b60008060005b600e60003373ffffffffffffffffffffffffffffffffffffffff1673ffffffffffffffffffffffffffffffffffffffff168152602001908152602001600020600201805490508110156110ed578373ffffffffffffffffffffffffffffffffffffffff16600e60003373ffffffffffffffffffffffffffffffffffffffff1673ffffffffffffffffffffffffffffffffffffffff1681526020019081526020016000206002018281548110610cf057610cef614bb1565b5b9060005260206000200160009054906101000a900473ffffffffffffffffffffffffffffffffffffffff1673ffffffffffffffffffffffffffffffffffffffff16148015610d795750610d78856040518060400160405280600781526020017f617070726f7665000000000000000000000000000000000000000000000000008152506127b6565b5b15610d8757600191506110ed565b8373ffffffffffffffffffffffffffffffffffffffff16600e60003373ffffffffffffffffffffffffffffffffffffffff1673ffffffffffffffffffffffffffffffffffffffff1681526020019081526020016000206002018281548110610df257610df1614bb1565b5b9060005260206000200160009054906101000a900473ffffffffffffffffffffffffffffffffffffffff1673ffffffffffffffffffffffffffffffffffffffff16148015610e7b5750610e7a856040518060400160405280600681526020017f72656d6f766500000000000000000000000000000000000000000000000000008152506127b6565b5b156110da576000600e60003373ffffffffffffffffffffffffffffffffffffffff1673ffffffffffffffffffffffffffffffffffffffff168152602001908152602001600020600201805490509050600e60003373ffffffffffffffffffffffffffffffffffffffff1673ffffffffffffffffffffffffffffffffffffffff168152602001908152602001600020600201600182610f199190614be0565b81548110610f2a57610f29614bb1565b5b9060005260206000200160009054906101000a900473ffffffffffffffffffffffffffffffffffffffff16600e60003373ffffffffffffffffffffffffffffffffffffffff1673ffffffffffffffffffffffffffffffffffffffff1681526020019081526020016000206002018381548110610fa957610fa8614bb1565b5b9060005260206000200160006101000a81548173ffffffffffffffffffffffffffffffffffffffff021916908373ffffffffffffffffffffffffffffffffffffffff160217905550600e60003373ffffffffffffffffffffffffffffffffffffffff1673ffffffffffffffffffffffffffffffffffffffff168152602001908152602001600020600301600081548092919061104490614c14565b9190505550600e60003373ffffffffffffffffffffffffffffffffffffffff1673ffffffffffffffffffffffffffffffffffffffff16815260200190815260200160002060020180548061109b5761109a614c3d565b5b6001900381819060005260206000200160006101000a81549073ffffffffffffffffffffffffffffffffffffffff0219169055905560019350506110ed565b80806110e590614c6c565b915050610c38565b50801580156111375750611136846040518060400160405280600781526020017f617070726f7665000000000000000000000000000000000000000000000000008152506127b6565b5b1561123c57600e60003373ffffffffffffffffffffffffffffffffffffffff1673ffffffffffffffffffffffffffffffffffffffff168152602001908152602001600020600201839080600181540180825580915050600190039060005260206000200160009091909190916101000a81548173ffffffffffffffffffffffffffffffffffffffff021916908373ffffffffffffffffffffffffffffffffffffffff160217905550600e60003373ffffffffffffffffffffffffffffffffffffffff1673ffffffffffffffffffffffffffffffffffffffff168152602001908152602001600020600301600081548092919061123290614c6c565b9190505550600191505b8161127c576040517f08c379a000000000000000000000000000000000000000000000000000000000815260040161127390614d00565b60405180910390fd5b5050505050565b600b818051602081018201805184825260208301602085012081835280955050505050506000915054906101000a900473ffffffffffffffffffffffffffffffffffffffff1681565b60025481565b60606000600b836040516112e69190614687565b908152602001604051809103902060009054906101000a900473ffffffffffffffffffffffffffffffffffffffff169050600660008273ffffffffffffffffffffffffffffffffffffffff1673ffffffffffffffffffffffffffffffffffffffff16815260200190815260200160002060009054906101000a900460ff1680156113755750611374836115c8565b5b6113b4576040517f08c379a00000000000000000000000000000000000000000000000000000000081526004016113ab906146ea565b60405180910390fd5b600e60008273ffffffffffffffffffffffffffffffffffffffff1673ffffffffffffffffffffffffffffffffffffffff16815260200190815260200160002060000180546114019061482a565b80601f016020809104026020016040519081016040528092919081815260200182805461142d9061482a565b801561147a5780601f1061144f5761010080835404028352916020019161147a565b820191906000526020600020905b81548152906001019060200180831161145d57829003601f168201915b5050505050915050919050565b600080600b8360405161149a9190614687565b908152602001604051809103902060009054906101000a900473ffffffffffffffffffffffffffffffffffffffff169050600660008273ffffffffffffffffffffffffffffffffffffffff1673ffffffffffffffffffffffffffffffffffffffff16815260200190815260200160002060009054906101000a900460ff16611557576040517f08c379a000000000000000000000000000000000000000000000000000000000815260040161154e906146ea565b60405180910390fd5b600e60008273ffffffffffffffffffffffffffffffffffffffff1673ffffffffffffffffffffffffffffffffffffffff16815260200190815260200160002060030154915050919050565b60076020528060005260406000206000915054906101000a900460ff1681565b60035481565b600080600b836040516115db9190614687565b908152602001604051809103902060009054906101000a900473ffffffffffffffffffffffffffffffffffffffff169050600660008273ffffffffffffffffffffffffffffffffffffffff1673ffffffffffffffffffffffffffffffffffffffff16815260200190815260200160002060009054906101000a900460ff16611698576040517f08c379a000000000000000000000000000000000000000000000000000000000815260040161168f90614d6c565b60405180910390fd5b8073ffffffffffffffffffffffffffffffffffffffff163373ffffffffffffffffffffffffffffffffffffffff1603611743578073ffffffffffffffffffffffffffffffffffffffff163373ffffffffffffffffffffffffffffffffffffffff1614611739576040517f08c379a000000000000000000000000000000000000000000000000000000000815260040161173090614dd8565b60405180910390fd5b6001915050611a96565b600860003373ffffffffffffffffffffffffffffffffffffffff1673ffffffffffffffffffffffffffffffffffffffff16815260200190815260200160002060009054906101000a900460ff16806117e45750600960003373ffffffffffffffffffffffffffffffffffffffff1673ffffffffffffffffffffffffffffffffffffffff16815260200190815260200160002060009054906101000a900460ff165b611823576040517f08c379a000000000000000000000000000000000000000000000000000000000815260040161181a90614e44565b60405180910390fd5b6000600c60003373ffffffffffffffffffffffffffffffffffffffff1673ffffffffffffffffffffffffffffffffffffffff16815260200190815260200160002060009054906101000a900473ffffffffffffffffffffffffffffffffffffffff169050600560008273ffffffffffffffffffffffffffffffffffffffff1673ffffffffffffffffffffffffffffffffffffffff16815260200190815260200160002060009054906101000a900460ff16806119285750600760008273ffffffffffffffffffffffffffffffffffffffff1673ffffffffffffffffffffffffffffffffffffffff16815260200190815260200160002060009054906101000a900460ff165b611967576040517f08c379a000000000000000000000000000000000000000000000000000000000815260040161195e90614eb0565b60405180910390fd5b60005b600e60008473ffffffffffffffffffffffffffffffffffffffff1673ffffffffffffffffffffffffffffffffffffffff16815260200190815260200160002060020180549050811015611a8e576000600e60008573ffffffffffffffffffffffffffffffffffffffff1673ffffffffffffffffffffffffffffffffffffffff1681526020019081526020016000206002018281548110611a0d57611a0c614bb1565b5b9060005260206000200160009054906101000a900473ffffffffffffffffffffffffffffffffffffffff1690508273ffffffffffffffffffffffffffffffffffffffff168173ffffffffffffffffffffffffffffffffffffffff1603611a7a576001945050505050611a96565b508080611a8690614c6c565b91505061196a565b505060009150505b919050565b600660003373ffffffffffffffffffffffffffffffffffffffff1673ffffffffffffffffffffffffffffffffffffffff16815260200190815260200160002060009054906101000a900460ff16611b27576040517f08c379a0000000000000000000000000000000000000000000000000000000008152600401611b1e90614b25565b60405180910390fd5b6000600b83604051611b399190614687565b908152602001604051809103902060009054906101000a900473ffffffffffffffffffffffffffffffffffffffff169050600860008273ffffffffffffffffffffffffffffffffffffffff1673ffffffffffffffffffffffffffffffffffffffff16815260200190815260200160002060009054906101000a900460ff16611bf6576040517f08c379a0000000000000000000000000000000000000000000000000000000008152600401611bed90614f1c565b60405180910390fd5b6001600e60003373ffffffffffffffffffffffffffffffffffffffff1673ffffffffffffffffffffffffffffffffffffffff168152602001908152602001600020600101600084815260200190815260200160002060040160008373ffffffffffffffffffffffffffffffffffffffff1673ffffffffffffffffffffffffffffffffffffffff1681526020019081526020016000205414611ccc576040517f08c379a0000000000000000000000000000000000000000000000000000000008152600401611cc390614f88565b60405180910390fd5b6002600e60003373ffffffffffffffffffffffffffffffffffffffff1673ffffffffffffffffffffffffffffffffffffffff168152602001908152602001600020600101600084815260200190815260200160002060040160008373ffffffffffffffffffffffffffffffffffffffff1673ffffffffffffffffffffffffffffffffffffffff16815260200190815260200160002081905550505050565b60608282604051602001611d7f929190614fa8565b604051602081830303815290604052905092915050565b601060009054906101000a900473ffffffffffffffffffffffffffffffffffffffff1681565b60066020528060005260406000206000915054906101000a900460ff1681565b60606000600b84604051611df09190614687565b908152602001604051809103902060009054906101000a900473ffffffffffffffffffffffffffffffffffffffff169050600660008273ffffffffffffffffffffffffffffffffffffffff1673ffffffffffffffffffffffffffffffffffffffff16815260200190815260200160002060009054906101000a900460ff16611ead576040517f08c379a0000000000000000000000000000000000000000000000000000000008152600401611ea4906146ea565b60405180910390fd5b60056000600c60003373ffffffffffffffffffffffffffffffffffffffff1673ffffffffffffffffffffffffffffffffffffffff16815260200190815260200160002060009054906101000a900473ffffffffffffffffffffffffffffffffffffffff1673ffffffffffffffffffffffffffffffffffffffff1673ffffffffffffffffffffffffffffffffffffffff16815260200190815260200160002060009054906101000a900460ff1680611fe45750600660003373ffffffffffffffffffffffffffffffffffffffff1673ffffffffffffffffffffffffffffffffffffffff16815260200190815260200160002060009054906101000a900460ff168015611fe357508073ffffffffffffffffffffffffffffffffffffffff163373ffffffffffffffffffffffffffffffffffffffff16145b5b612023576040517f08c379a000000000000000000000000000000000000000000000000000000000815260040161201a90614eb0565b60405180910390fd5b61202c846115c8565b61206b576040517f08c379a000000000000000000000000000000000000000000000000000000000815260040161206290614f88565b60405180910390fd5b600e60008273ffffffffffffffffffffffffffffffffffffffff1673ffffffffffffffffffffffffffffffffffffffff168152602001908152602001600020600101600084815260200190815260200160002060000180546120cc9061482a565b80601f01602080910402602001604051908101604052809291908181526020018280546120f89061482a565b80156121455780601f1061211a57610100808354040283529160200191612145565b820191906000526020600020905b81548152906001019060200180831161212857829003601f168201915b505050505091505092915050565b600660003373ffffffffffffffffffffffffffffffffffffffff1673ffffffffffffffffffffffffffffffffffffffff16815260200190815260200160002060009054906101000a900460ff166121df576040517f08c379a00000000000000000000000000000000000000000000000000000000081526004016121d690614b25565b60405180910390fd5b80600e60003373ffffffffffffffffffffffffffffffffffffffff1673ffffffffffffffffffffffffffffffffffffffff168152602001908152602001600020600001908161222e9190614a07565b5050565b60086020528060005260406000206000915054906101000a900460ff1681565b600860003373ffffffffffffffffffffffffffffffffffffffff1673ffffffffffffffffffffffffffffffffffffffff16815260200190815260200160002060009054906101000a900460ff166122de576040517f08c379a00000000000000000000000000000000000000000000000000000000081526004016122d590615018565b60405180910390fd5b6000600b846040516122f09190614687565b908152602001604051809103902060009054906101000a900473ffffffffffffffffffffffffffffffffffffffff16905061232a846115c8565b806123c857506002600e60008373ffffffffffffffffffffffffffffffffffffffff1673ffffffffffffffffffffffffffffffffffffffff168152602001908152602001600020600101600085815260200190815260200160002060040160003373ffffffffffffffffffffffffffffffffffffffff1673ffffffffffffffffffffffffffffffffffffffff16815260200190815260200160002054145b612407576040517f08c379a00000000000000000000000000000000000000000000000000000000081526004016123fe90614eb0565b60405180910390fd5b600660008273ffffffffffffffffffffffffffffffffffffffff1673ffffffffffffffffffffffffffffffffffffffff16815260200190815260200160002060009054906101000a900460ff16612493576040517f08c379a000000000000000000000000000000000000000000000000000000000815260040161248a906146ea565b60405180910390fd5b600e60008273ffffffffffffffffffffffffffffffffffffffff1673ffffffffffffffffffffffffffffffffffffffff168152602001908152602001600020600101600084815260200190815260200160002060030160003373ffffffffffffffffffffffffffffffffffffffff1673ffffffffffffffffffffffffffffffffffffffff16815260200190815260200160002060009054906101000a900460ff1615612574576040517f08c379a000000000000000000000000000000000000000000000000000000000815260040161256b90615084565b60405180910390fd5b82600e60008373ffffffffffffffffffffffffffffffffffffffff1673ffffffffffffffffffffffffffffffffffffffff1681526020019081526020016000206004015410156125f9576040517f08c379a00000000000000000000000000000000000000000000000000000000081526004016125f0906150f0565b60405180910390fd5b6001600e60008373ffffffffffffffffffffffffffffffffffffffff1673ffffffffffffffffffffffffffffffffffffffff168152602001908152602001600020600101600085815260200190815260200160002060030160003373ffffffffffffffffffffffffffffffffffffffff1673ffffffffffffffffffffffffffffffffffffffff16815260200190815260200160002060006101000a81548160ff021916908315150217905550600e60008273ffffffffffffffffffffffffffffffffffffffff1673ffffffffffffffffffffffffffffffffffffffff1681526020019081526020016000206001016000848152602001908152602001600020600101600081548092919061270c90614c6c565b9190505550811561278457600e60008273ffffffffffffffffffffffffffffffffffffffff1673ffffffffffffffffffffffffffffffffffffffff1681526020019081526020016000206001016000848152602001908152602001600020600201600081548092919061277e90614c6c565b91905055505b50505050565b60005481565b60045481565b60056020528060005260406000206000915054906101000a900460ff1681565b6000816040516020016127c99190614687565b60405160208183030381529060405280519060200120836040516020016127f09190614687565b6040516020818303038152906040528051906020012014905092915050565b6000600660003373ffffffffffffffffffffffffffffffffffffffff1673ffffffffffffffffffffffffffffffffffffffff16815260200190815260200160002060009054906101000a900460ff1661289d576040517f08c379a0000000000000000000000000000000000000000000000000000000008152600401612894906146ea565b60405180910390fd5b6000600e60003373ffffffffffffffffffffffffffffffffffffffff1673ffffffffffffffffffffffffffffffffffffffff168152602001908152602001600020600101600084815260200190815260200160002060020154905080915050919050565b600860003373ffffffffffffffffffffffffffffffffffffffff1673ffffffffffffffffffffffffffffffffffffffff16815260200190815260200160002060009054906101000a900460ff1661298d576040517f08c379a000000000000000000000000000000000000000000000000000000000815260040161298490615018565b60405180910390fd5b6000600b8360405161299f9190614687565b908152602001604051809103902060009054906101000a900473ffffffffffffffffffffffffffffffffffffffff1690506000600b856040516129e29190614687565b908152602001604051809103902060009054906101000a900473ffffffffffffffffffffffffffffffffffffffff169050600660008373ffffffffffffffffffffffffffffffffffffffff1673ffffffffffffffffffffffffffffffffffffffff16815260200190815260200160002060009054906101000a900460ff168015612ab55750600860008273ffffffffffffffffffffffffffffffffffffffff1673ffffffffffffffffffffffffffffffffffffffff16815260200190815260200160002060009054906101000a900460ff165b612af4576040517f08c379a0000000000000000000000000000000000000000000000000000000008152600401612aeb9061515c565b60405180910390fd5b612afd846115c8565b612b3c576040517f08c379a0000000000000000000000000000000000000000000000000000000008152600401612b3390614eb0565b60405180910390fd5b6001600e60008473ffffffffffffffffffffffffffffffffffffffff1673ffffffffffffffffffffffffffffffffffffffff168152602001908152602001600020600101600085815260200190815260200160002060040160008373ffffffffffffffffffffffffffffffffffffffff1673ffffffffffffffffffffffffffffffffffffffff168152602001908152602001600020819055505050505050565b60096020528060005260406000206000915054906101000a900460ff1681565b600080600b83604051612c0f9190614687565b908152602001604051809103902060009054906101000a900473ffffffffffffffffffffffffffffffffffffffff169050600660008273ffffffffffffffffffffffffffffffffffffffff1673ffffffffffffffffffffffffffffffffffffffff16815260200190815260200160002060009054906101000a900460ff168015612c9e5750612c9d836115c8565b5b612cdd576040517f08c379a0000000000000000000000000000000000000000000000000000000008152600401612cd490614d6c565b60405180910390fd5b600e60008273ffffffffffffffffffffffffffffffffffffffff1673ffffffffffffffffffffffffffffffffffffffff16815260200190815260200160002060040154915050919050565b600a60003373ffffffffffffffffffffffffffffffffffffffff1673ffffffffffffffffffffffffffffffffffffffff16815260200190815260200160002060009054906101000a900460ff16612db4576040517f08c379a0000000000000000000000000000000000000000000000000000000008152600401612dab906151c8565b60405180910390fd5b81600073ffffffffffffffffffffffffffffffffffffffff168173ffffffffffffffffffffffffffffffffffffffff1603612e24576040517f08c379a0000000000000000000000000000000000000000000000000000000008152600401612e1b90615234565b60405180910390fd5b600860008273ffffffffffffffffffffffffffffffffffffffff1673ffffffffffffffffffffffffffffffffffffffff16815260200190815260200160002060009054906101000a900460ff16158015612ec85750600960008273ffffffffffffffffffffffffffffffffffffffff1673ffffffffffffffffffffffffffffffffffffffff16815260200190815260200160002060009054906101000a900460ff16155b8015612f1e5750600760008273ffffffffffffffffffffffffffffffffffffffff1673ffffffffffffffffffffffffffffffffffffffff16815260200190815260200160002060009054906101000a900460ff16155b8015612f745750600660008273ffffffffffffffffffffffffffffffffffffffff1673ffffffffffffffffffffffffffffffffffffffff16815260200190815260200160002060009054906101000a900460ff16155b8015612fca5750600a60008273ffffffffffffffffffffffffffffffffffffffff1673ffffffffffffffffffffffffffffffffffffffff16815260200190815260200160002060009054906101000a900460ff16155b80156130205750600560008273ffffffffffffffffffffffffffffffffffffffff1673ffffffffffffffffffffffffffffffffffffffff16815260200190815260200160002060009054906101000a900460ff16155b61305f576040517f08c379a0000000000000000000000000000000000000000000000000000000008152600401613056906152a0565b60405180910390fd5b61309e826040518060400160405280600881526020017f686f73706974616c0000000000000000000000000000000000000000000000008152506127b6565b15613216576001600560008573ffffffffffffffffffffffffffffffffffffffff1673ffffffffffffffffffffffffffffffffffffffff16815260200190815260200160002060006101000a81548160ff0219169083151502179055506001600081548092919061310e90614c6c565b91905055506000613120600154613e8c565b905060006131636040518060400160405280600181526020017f680000000000000000000000000000000000000000000000000000000000000081525083611d6a565b905084600b826040516131769190614687565b908152602001604051809103902060006101000a81548173ffffffffffffffffffffffffffffffffffffffff021916908373ffffffffffffffffffffffffffffffffffffffff16021790555080600d60008773ffffffffffffffffffffffffffffffffffffffff1673ffffffffffffffffffffffffffffffffffffffff168152602001908152602001600020908161320e9190614a07565b505050613581565b613255826040518060400160405280600381526020017f6c616200000000000000000000000000000000000000000000000000000000008152506127b6565b156133cd576001600760008573ffffffffffffffffffffffffffffffffffffffff1673ffffffffffffffffffffffffffffffffffffffff16815260200190815260200160002060006101000a81548160ff021916908315150217905550600460008154809291906132c590614c6c565b919050555060006132d7600454613e8c565b9050600061331a6040518060400160405280600181526020017f6c0000000000000000000000000000000000000000000000000000000000000081525083611d6a565b905084600b8260405161332d9190614687565b908152602001604051809103902060006101000a81548173ffffffffffffffffffffffffffffffffffffffff021916908373ffffffffffffffffffffffffffffffffffffffff16021790555080600d60008773ffffffffffffffffffffffffffffffffffffffff1673ffffffffffffffffffffffffffffffffffffffff16815260200190815260200160002090816133c59190614a07565b505050613580565b61340c826040518060400160405280600781526020017f70617469656e74000000000000000000000000000000000000000000000000008152506127b6565b1561357f576001600660008573ffffffffffffffffffffffffffffffffffffffff1673ffffffffffffffffffffffffffffffffffffffff16815260200190815260200160002060006101000a81548160ff02191690831515021790555060008081548092919061347b90614c6c565b9190505550600061348d600054613e8c565b905060006134d06040518060400160405280600181526020017f700000000000000000000000000000000000000000000000000000000000000081525083611d6a565b905084600b826040516134e39190614687565b908152602001604051809103902060006101000a81548173ffffffffffffffffffffffffffffffffffffffff021916908373ffffffffffffffffffffffffffffffffffffffff16021790555080600d60008773ffffffffffffffffffffffffffffffffffffffff1673ffffffffffffffffffffffffffffffffffffffff168152602001908152602001600020908161357b9190614a07565b5050505b5b5b505050565b6000600660003373ffffffffffffffffffffffffffffffffffffffff1673ffffffffffffffffffffffffffffffffffffffff16815260200190815260200160002060009054906101000a900460ff16613614576040517f08c379a000000000000000000000000000000000000000000000000000000000815260040161360b906146ea565b60405180910390fd5b6000600e60003373ffffffffffffffffffffffffffffffffffffffff1673ffffffffffffffffffffffffffffffffffffffff168152602001908152602001600020600101600084815260200190815260200160002060010154905080915050919050565b600c6020528060005260406000206000915054906101000a900473ffffffffffffffffffffffffffffffffffffffff1681565b600d60205280600052604060002060009150905080546136ca9061482a565b80601f01602080910402602001604051908101604052809291908181526020018280546136f69061482a565b80156137435780601f1061371857610100808354040283529160200191613743565b820191906000526020600020905b81548152906001019060200180831161372657829003601f168201915b505050505081565b80600073ffffffffffffffffffffffffffffffffffffffff168173ffffffffffffffffffffffffffffffffffffffff16036137bb576040517f08c379a00000000000000000000000000000000000000000000000000000000081526004016137b290615234565b60405180910390fd5b600860008273ffffffffffffffffffffffffffffffffffffffff1673ffffffffffffffffffffffffffffffffffffffff16815260200190815260200160002060009054906101000a900460ff1615801561385f5750600960008273ffffffffffffffffffffffffffffffffffffffff1673ffffffffffffffffffffffffffffffffffffffff16815260200190815260200160002060009054906101000a900460ff16155b80156138b55750600760008273ffffffffffffffffffffffffffffffffffffffff1673ffffffffffffffffffffffffffffffffffffffff16815260200190815260200160002060009054906101000a900460ff16155b801561390b5750600660008273ffffffffffffffffffffffffffffffffffffffff1673ffffffffffffffffffffffffffffffffffffffff16815260200190815260200160002060009054906101000a900460ff16155b80156139615750600a60008273ffffffffffffffffffffffffffffffffffffffff1673ffffffffffffffffffffffffffffffffffffffff16815260200190815260200160002060009054906101000a900460ff16155b80156139b75750600560008273ffffffffffffffffffffffffffffffffffffffff1673ffffffffffffffffffffffffffffffffffffffff16815260200190815260200160002060009054906101000a900460ff16155b6139f6576040517f08c379a00000000000000000000000000000000000000000000000000000000081526004016139ed906152a0565b60405180910390fd5b600560003373ffffffffffffffffffffffffffffffffffffffff1673ffffffffffffffffffffffffffffffffffffffff16815260200190815260200160002060009054906101000a900460ff1680613a975750600760003373ffffffffffffffffffffffffffffffffffffffff1673ffffffffffffffffffffffffffffffffffffffff16815260200190815260200160002060009054906101000a900460ff165b613ad6576040517f08c379a0000000000000000000000000000000000000000000000000000000008152600401613acd9061530c565b60405180910390fd5b600560003373ffffffffffffffffffffffffffffffffffffffff1673ffffffffffffffffffffffffffffffffffffffff16815260200190815260200160002060009054906101000a900460ff1615613c9b5760026000815480929190613b3b90614c6c565b91905055506001600860008473ffffffffffffffffffffffffffffffffffffffff1673ffffffffffffffffffffffffffffffffffffffff16815260200190815260200160002060006101000a81548160ff0219169083151502179055506000613ba5600254613e8c565b90506000613be86040518060400160405280600181526020017f640000000000000000000000000000000000000000000000000000000000000081525083611d6a565b905083600b82604051613bfb9190614687565b908152602001604051809103902060006101000a81548173ffffffffffffffffffffffffffffffffffffffff021916908373ffffffffffffffffffffffffffffffffffffffff16021790555080600d60008673ffffffffffffffffffffffffffffffffffffffff1673ffffffffffffffffffffffffffffffffffffffff1681526020019081526020016000209081613c939190614a07565b505050613e0a565b6001600960008473ffffffffffffffffffffffffffffffffffffffff1673ffffffffffffffffffffffffffffffffffffffff16815260200190815260200160002060006101000a81548160ff02191690831515021790555060036000815480929190613d0690614c6c565b91905055506000613d18600354613e8c565b90506000613d5b6040518060400160405280600181526020017f740000000000000000000000000000000000000000000000000000000000000081525083611d6a565b905083600b82604051613d6e9190614687565b908152602001604051809103902060006101000a81548173ffffffffffffffffffffffffffffffffffffffff021916908373ffffffffffffffffffffffffffffffffffffffff16021790555080600d60008673ffffffffffffffffffffffffffffffffffffffff1673ffffffffffffffffffffffffffffffffffffffff1681526020019081526020016000209081613e069190614a07565b5050505b33600c60008473ffffffffffffffffffffffffffffffffffffffff1673ffffffffffffffffffffffffffffffffffffffff16815260200190815260200160002060006101000a81548173ffffffffffffffffffffffffffffffffffffffff021916908373ffffffffffffffffffffffffffffffffffffffff1602179055505050565b606060008203613ed3576040518060400160405280600181526020017f30000000000000000000000000000000000000000000000000000000000000008152509050613fed565b600082905060005b60008214613f05578080613eee90614c6c565b915050600a82613efe919061535b565b9150613edb565b60008167ffffffffffffffff811115613f2157613f20614021565b5b6040519080825280601f01601f191660200182016040528015613f535781602001600182028036833780820191505090505b50905060008290508593505b60008414613fe557600a84613f74919061538c565b6030613f8091906147a5565b60f81b8282613f8e90614c14565b92508281518110613fa257613fa1614bb1565b5b60200101907effffffffffffffffffffffffffffffffffffffffffffffffffffffffffffff1916908160001a905350600a84613fde919061535b565b9350613f5f565b819450505050505b919050565b6000604051905090565b600080fd5b600080fd5b600080fd5b600080fd5b6000601f19601f8301169050919050565b7f4e487b7100000000000000000000000000000000000000000000000000000000600052604160045260246000fd5b61405982614010565b810181811067ffffffffffffffff8211171561407857614077614021565b5b80604052505050565b600061408b613ff2565b90506140978282614050565b919050565b600067ffffffffffffffff8211156140b7576140b6614021565b5b6140c082614010565b9050602081019050919050565b82818337600083830152505050565b60006140ef6140ea8461409c565b614081565b90508281526020810184848401111561410b5761410a61400b565b5b6141168482856140cd565b509392505050565b600082601f83011261413357614132614006565b5b81356141438482602086016140dc565b91505092915050565b6000806040838503121561416357614162613ffc565b5b600083013567ffffffffffffffff81111561418157614180614001565b5b61418d8582860161411e565b925050602083013567ffffffffffffffff8111156141ae576141ad614001565b5b6141ba8582860161411e565b9150509250929050565b6000819050919050565b6141d7816141c4565b82525050565b60006020820190506141f260008301846141ce565b92915050565b600073ffffffffffffffffffffffffffffffffffffffff82169050919050565b6000614223826141f8565b9050919050565b61423381614218565b811461423e57600080fd5b50565b6000813590506142508161422a565b92915050565b60006020828403121561426c5761426b613ffc565b5b600061427a84828501614241565b91505092915050565b60008115159050919050565b61429881614283565b82525050565b60006020820190506142b3600083018461428f565b92915050565b600081519050919050565b600082825260208201905092915050565b60005b838110156142f35780820151818401526020810190506142d8565b83811115614302576000848401525b50505050565b6000614313826142b9565b61431d81856142c4565b935061432d8185602086016142d5565b61433681614010565b840191505092915050565b6000606082019050818103600083015261435b8186614308565b905061436a60208301856141ce565b61437760408301846141ce565b949350505050565b60006020828403121561439557614394613ffc565b5b600082013567ffffffffffffffff8111156143b3576143b2614001565b5b6143bf8482850161411e565b91505092915050565b6143d181614218565b82525050565b60006020820190506143ec60008301846143c8565b92915050565b6000602082019050818103600083015261440c8184614308565b905092915050565b61441d816141c4565b811461442857600080fd5b50565b60008135905061443a81614414565b92915050565b6000806040838503121561445757614456613ffc565b5b600083013567ffffffffffffffff81111561447557614474614001565b5b6144818582860161411e565b92505060206144928582860161442b565b9150509250929050565b6144a581614283565b81146144b057600080fd5b50565b6000813590506144c28161449c565b92915050565b6000806000606084860312156144e1576144e0613ffc565b5b600084013567ffffffffffffffff8111156144ff576144fe614001565b5b61450b8682870161411e565b935050602061451c8682870161442b565b925050604061452d868287016144b3565b9150509250925092565b60006020828403121561454d5761454c613ffc565b5b600061455b8482850161442b565b91505092915050565b60008060006060848603121561457d5761457c613ffc565b5b600084013567ffffffffffffffff81111561459b5761459a614001565b5b6145a78682870161411e565b935050602084013567ffffffffffffffff8111156145c8576145c7614001565b5b6145d48682870161411e565b92505060406145e58682870161442b565b9150509250925092565b6000806040838503121561460657614605613ffc565b5b600061461485828601614241565b925050602083013567ffffffffffffffff81111561463557614634614001565b5b6146418582860161411e565b9150509250929050565b600081905092915050565b6000614661826142b9565b61466b818561464b565b935061467b8185602086016142d5565b80840191505092915050565b60006146938284614656565b915081905092915050565b7f6e6f7420612070617469656e7400000000000000000000000000000000000000600082015250565b60006146d4600d836142c4565b91506146df8261469e565b602082019050919050565b60006020820190508181036000830152614703816146c7565b9050919050565b7f6e6f742061206c61625465636800000000000000000000000000000000000000600082015250565b6000614740600d836142c4565b915061474b8261470a565b602082019050919050565b6000602082019050818103600083015261476f81614733565b9050919050565b7f4e487b7100000000000000000000000000000000000000000000000000000000600052601160045260246000fd5b60006147b0826141c4565b91506147bb836141c4565b9250827fffffffffffffffffffffffffffffffffffffffffffffffffffffffffffffffff038211156147f0576147ef614776565b5b828201905092915050565b7f4e487b7100000000000000000000000000000000000000000000000000000000600052602260045260246000fd5b6000600282049050600182168061484257607f821691505b602082108103614855576148546147fb565b5b50919050565b60008190508160005260206000209050919050565b60006020601f8301049050919050565b600082821b905092915050565b6000600883026148bd7fffffffffffffffffffffffffffffffffffffffffffffffffffffffffffffffff82614880565b6148c78683614880565b95508019841693508086168417925050509392505050565b6000819050919050565b60006149046148ff6148fa846141c4565b6148df565b6141c4565b9050919050565b6000819050919050565b61491e836148e9565b61493261492a8261490b565b84845461488d565b825550505050565b600090565b61494761493a565b614952818484614915565b505050565b5b818110156149765761496b60008261493f565b600181019050614958565b5050565b601f8211156149bb5761498c8161485b565b61499584614870565b810160208510156149a4578190505b6149b86149b085614870565b830182614957565b50505b505050565b600082821c905092915050565b60006149de600019846008026149c0565b1980831691505092915050565b60006149f783836149cd565b9150826002028217905092915050565b614a10826142b9565b67ffffffffffffffff811115614a2957614a28614021565b5b614a33825461482a565b614a3e82828561497a565b600060209050601f831160018114614a715760008415614a5f578287015190505b614a6985826149eb565b865550614ad1565b601f198416614a7f8661485b565b60005b82811015614aa757848901518255600182019150602085019450602081019050614a82565b86831015614ac45784890151614ac0601f8916826149cd565b8355505b6001600288020188555050505b505050505050565b7f73656e646572206973206e6f742070617469656e740000000000000000000000600082015250565b6000614b0f6015836142c4565b9150614b1a82614ad9565b602082019050919050565b60006020820190508181036000830152614b3e81614b02565b9050919050565b7f4e6f7420612076616c6964206164647265737300000000000000000000000000600082015250565b6000614b7b6013836142c4565b9150614b8682614b45565b602082019050919050565b60006020820190508181036000830152614baa81614b6e565b9050919050565b7f4e487b7100000000000000000000000000000000000000000000000000000000600052603260045260246000fd5b6000614beb826141c4565b9150614bf6836141c4565b925082821015614c0957614c08614776565b5b828203905092915050565b6000614c1f826141c4565b915060008203614c3257614c31614776565b5b600182039050919050565b7f4e487b7100000000000000000000000000000000000000000000000000000000600052603160045260246000fd5b6000614c77826141c4565b91507fffffffffffffffffffffffffffffffffffffffffffffffffffffffffffffffff8203614ca957614ca8614776565b5b600182019050919050565b7f696e76616c696420726571756573740000000000000000000000000000000000600082015250565b6000614cea600f836142c4565b9150614cf582614cb4565b602082019050919050565b60006020820190508181036000830152614d1981614cdd565b9050919050565b7f6e6f7420612070617469656e7427732069640000000000000000000000000000600082015250565b6000614d566012836142c4565b9150614d6182614d20565b602082019050919050565b60006020820190508181036000830152614d8581614d49565b9050919050565b7f74727920796f7572206964000000000000000000000000000000000000000000600082015250565b6000614dc2600b836142c4565b9150614dcd82614d8c565b602082019050919050565b60006020820190508181036000830152614df181614db5565b9050919050565b7f6e6f74206120776f726b65720000000000000000000000000000000000000000600082015250565b6000614e2e600c836142c4565b9150614e3982614df8565b602082019050919050565b60006020820190508181036000830152614e5d81614e21565b9050919050565b7f6e6f7420616c6c6f776564000000000000000000000000000000000000000000600082015250565b6000614e9a600b836142c4565b9150614ea582614e64565b602082019050919050565b60006020820190508181036000830152614ec981614e8d565b9050919050565b7f6e6f74206120646f63746f720000000000000000000000000000000000000000600082015250565b6000614f06600c836142c4565b9150614f1182614ed0565b602082019050919050565b60006020820190508181036000830152614f3581614ef9565b9050919050565b7f6e6f7420612076616c6964207265717565737400000000000000000000000000600082015250565b6000614f726013836142c4565b9150614f7d82614f3c565b602082019050919050565b60006020820190508181036000830152614fa181614f65565b9050919050565b6000614fb48285614656565b9150614fc08284614656565b91508190509392505050565b7f73656e646572206973206e6f74206120646f63746f7200000000000000000000600082015250565b60006150026016836142c4565b915061500d82614fcc565b602082019050919050565b6000602082019050818103600083015261503181614ff5565b9050919050565b7f6861766520636f6e6669726d656420616c726561647900000000000000000000600082015250565b600061506e6016836142c4565b915061507982615038565b602082019050919050565b6000602082019050818103600083015261509d81615061565b9050919050565b7f696e76616c6964207265706f7274204964000000000000000000000000000000600082015250565b60006150da6011836142c4565b91506150e5826150a4565b602082019050919050565b60006020820190508181036000830152615109816150cd565b9050919050565b7f6e6f742076616c696420706172616d7300000000000000000000000000000000600082015250565b60006151466010836142c4565b915061515182615110565b602082019050919050565b6000602082019050818103600083015261517581615139565b9050919050565b7f73656e646572206973206e6f74206f776e657200000000000000000000000000600082015250565b60006151b26013836142c4565b91506151bd8261517c565b602082019050919050565b600060208201905081810360008301526151e1816151a5565b9050919050565b7f6e756c6c206164647265737320666f756e640000000000000000000000000000600082015250565b600061521e6012836142c4565b9150615229826151e8565b602082019050919050565b6000602082019050818103600083015261524d81615211565b9050919050565b7f7072652d6578697374696e672061646472657373000000000000000000000000600082015250565b600061528a6014836142c4565b915061529582615254565b602082019050919050565b600060208201905081810360008301526152b98161527d565b9050919050565b7f756e617574686f72697a65642061636365737300000000000000000000000000600082015250565b60006152f66013836142c4565b9150615301826152c0565b602082019050919050565b60006020820190508181036000830152615325816152e9565b9050919050565b7f4e487b7100000000000000000000000000000000000000000000000000000000600052601260045260246000fd5b6000615366826141c4565b9150615371836141c4565b9250826153815761538061532c565b5b828204905092915050565b6000615397826141c4565b91506153a2836141c4565b9250826153b2576153b161532c565b5b82820690509291505056fea264697066735822122064107a5aba5f9ae332f46fa1a1d139c2f70ca3c16c9cb3bc3b8bf98f5c2a111a64736f6c634300080f0033",
  "immutableReferences": {},
  "source": "// SPDX-License-Identifier: MIT\r\npragma solidity ^0.8;\r\nimport \"../contracts/permission.sol\";\r\nimport \"../contracts/updateReport.sol\";\r\n\r\ncontract base is permission,updateReport{\r\n\r\n    // sets the owner of the network\r\n    string id_hash;\r\n    address public owner;\r\n\r\n    constructor(){\r\n        owner = msg.sender;\r\n        isOwner[msg.sender] = true;\r\n    }\r\n    \r\n\r\n}",
  "sourcePath": "D:\\ri\\ehr\\contracts\\base.sol",
  "compiler": {
    "name": "solc",
    "version": "0.8.15+commit.e14f2714.Emscripten.clang"
  },
  "schemaVersion": "3.4.8",
  "updatedAt": "2022-10-08T06:18:50.857Z",
  "networkType": "ethereum",
  "devdoc": {
    "kind": "dev",
    "methods": {},
    "version": 1
  },
  "userdoc": {
    "kind": "user",
    "methods": {},
    "version": 1
  }
}