{
  "contractName": "details",
  "abi": [
    {
      "inputs": [
        {
          "internalType": "address",
          "name": "",
          "type": "address"
        }
      ],
      "name": "Address",
      "outputs": [
        {
          "internalType": "string",
          "name": "",
          "type": "string"
        }
      ],
      "stateMutability": "view",
      "type": "function"
    },
    {
      "inputs": [
        {
          "internalType": "string",
          "name": "",
          "type": "string"
        }
      ],
      "name": "Id",
      "outputs": [
        {
          "internalType": "address",
          "name": "",
          "type": "address"
        }
      ],
      "stateMutability": "view",
      "type": "function"
    },
    {
      "inputs": [
        {
          "internalType": "address",
          "name": "_address",
          "type": "address"
        },
        {
          "internalType": "string",
          "name": "category",
          "type": "string"
        }
      ],
      "name": "addClient",
      "outputs": [],
      "stateMutability": "nonpayable",
      "type": "function"
    },
    {
      "inputs": [
        {
          "internalType": "address",
          "name": "_address",
          "type": "address"
        }
      ],
      "name": "addEmployee",
      "outputs": [],
      "stateMutability": "nonpayable",
      "type": "function"
    },
    {
      "inputs": [
        {
          "internalType": "string",
          "name": "a",
          "type": "string"
        },
        {
          "internalType": "string",
          "name": "b",
          "type": "string"
        }
      ],
      "name": "compareStrings",
      "outputs": [
        {
          "internalType": "bool",
          "name": "",
          "type": "bool"
        }
      ],
      "stateMutability": "pure",
      "type": "function"
    },
    {
      "inputs": [
        {
          "internalType": "string",
          "name": "a",
          "type": "string"
        },
        {
          "internalType": "string",
          "name": "b",
          "type": "string"
        }
      ],
      "name": "concat",
      "outputs": [
        {
          "internalType": "string",
          "name": "",
          "type": "string"
        }
      ],
      "stateMutability": "pure",
      "type": "function"
    },
    {
      "inputs": [],
      "name": "doctorCnt",
      "outputs": [
        {
          "internalType": "uint256",
          "name": "",
          "type": "uint256"
        }
      ],
      "stateMutability": "view",
      "type": "function"
    },
    {
      "inputs": [],
      "name": "hospitalCnt",
      "outputs": [
        {
          "internalType": "uint256",
          "name": "",
          "type": "uint256"
        }
      ],
      "stateMutability": "view",
      "type": "function"
    },
    {
      "inputs": [
        {
          "internalType": "address",
          "name": "",
          "type": "address"
        }
      ],
      "name": "isDoctor",
      "outputs": [
        {
          "internalType": "bool",
          "name": "",
          "type": "bool"
        }
      ],
      "stateMutability": "view",
      "type": "function"
    },
    {
      "inputs": [
        {
          "internalType": "address",
          "name": "",
          "type": "address"
        }
      ],
      "name": "isHospital",
      "outputs": [
        {
          "internalType": "bool",
          "name": "",
          "type": "bool"
        }
      ],
      "stateMutability": "view",
      "type": "function"
    },
    {
      "inputs": [
        {
          "internalType": "address",
          "name": "",
          "type": "address"
        }
      ],
      "name": "isLab",
      "outputs": [
        {
          "internalType": "bool",
          "name": "",
          "type": "bool"
        }
      ],
      "stateMutability": "view",
      "type": "function"
    },
    {
      "inputs": [
        {
          "internalType": "address",
          "name": "",
          "type": "address"
        }
      ],
      "name": "isOwner",
      "outputs": [
        {
          "internalType": "bool",
          "name": "",
          "type": "bool"
        }
      ],
      "stateMutability": "view",
      "type": "function"
    },
    {
      "inputs": [
        {
          "internalType": "address",
          "name": "",
          "type": "address"
        }
      ],
      "name": "isPatient",
      "outputs": [
        {
          "internalType": "bool",
          "name": "",
          "type": "bool"
        }
      ],
      "stateMutability": "view",
      "type": "function"
    },
    {
      "inputs": [
        {
          "internalType": "address",
          "name": "",
          "type": "address"
        }
      ],
      "name": "isTech",
      "outputs": [
        {
          "internalType": "bool",
          "name": "",
          "type": "bool"
        }
      ],
      "stateMutability": "view",
      "type": "function"
    },
    {
      "inputs": [],
      "name": "labCnt",
      "outputs": [
        {
          "internalType": "uint256",
          "name": "",
          "type": "uint256"
        }
      ],
      "stateMutability": "view",
      "type": "function"
    },
    {
      "inputs": [],
      "name": "patientCnt",
      "outputs": [
        {
          "internalType": "uint256",
          "name": "",
          "type": "uint256"
        }
      ],
      "stateMutability": "view",
      "type": "function"
    },
    {
      "inputs": [
        {
          "internalType": "address",
          "name": "",
          "type": "address"
        }
      ],
      "name": "record",
      "outputs": [
        {
          "internalType": "string",
          "name": "personalInfoHash",
          "type": "string"
        },
        {
          "internalType": "uint256",
          "name": "credit",
          "type": "uint256"
        },
        {
          "internalType": "uint256",
          "name": "totalRecord",
          "type": "uint256"
        }
      ],
      "stateMutability": "view",
      "type": "function"
    },
    {
      "inputs": [],
      "name": "techCnt",
      "outputs": [
        {
          "internalType": "uint256",
          "name": "",
          "type": "uint256"
        }
      ],
      "stateMutability": "view",
      "type": "function"
    },
    {
      "inputs": [
        {
          "internalType": "address",
          "name": "",
          "type": "address"
        }
      ],
      "name": "worksAt",
      "outputs": [
        {
          "internalType": "address",
          "name": "",
          "type": "address"
        }
      ],
      "stateMutability": "view",
      "type": "function"
    },
    {
      "inputs": [
        {
          "internalType": "string",
          "name": "_pinfo",
          "type": "string"
        }
      ],
      "name": "setPersonalInfoHash",
      "outputs": [],
      "stateMutability": "nonpayable",
      "type": "function"
    },
    {
      "inputs": [
        {
          "internalType": "string",
          "name": "_id",
          "type": "string"
        }
      ],
      "name": "getPersonalInfoHash",
      "outputs": [
        {
          "internalType": "string",
          "name": "x",
          "type": "string"
        }
      ],
      "stateMutability": "view",
      "type": "function"
    },
    {
      "inputs": [
        {
          "internalType": "string",
          "name": "_id",
          "type": "string"
        }
      ],
      "name": "getMedRecordCnt",
      "outputs": [
        {
          "internalType": "uint256",
          "name": "x",
          "type": "uint256"
        }
      ],
      "stateMutability": "view",
      "type": "function"
    },
    {
      "inputs": [
        {
          "internalType": "string",
          "name": "_id",
          "type": "string"
        }
      ],
      "name": "getCreditScore",
      "outputs": [
        {
          "internalType": "uint256",
          "name": "",
          "type": "uint256"
        }
      ],
      "stateMutability": "view",
      "type": "function"
    },
    {
      "inputs": [
        {
          "internalType": "uint256",
          "name": "_reportId",
          "type": "uint256"
        }
      ],
      "name": "totalConsulation",
      "outputs": [
        {
          "internalType": "uint256",
          "name": "",
          "type": "uint256"
        }
      ],
      "stateMutability": "view",
      "type": "function"
    },
    {
      "inputs": [
        {
          "internalType": "uint256",
          "name": "_reportId",
          "type": "uint256"
        }
      ],
      "name": "totalConfirmation",
      "outputs": [
        {
          "internalType": "uint256",
          "name": "",
          "type": "uint256"
        }
      ],
      "stateMutability": "view",
      "type": "function"
    },
    {
      "inputs": [
        {
          "internalType": "string",
          "name": "_id",
          "type": "string"
        }
      ],
      "name": "isAllowed",
      "outputs": [
        {
          "internalType": "bool",
          "name": "",
          "type": "bool"
        }
      ],
      "stateMutability": "view",
      "type": "function"
    }
  ],
  "bytecode": "0x608060405260008055600060015560006002556000600355600060045534801561002857600080fd5b506133f7806100386000396000f3fe608060405234801561001057600080fd5b506004361061018e5760003560e01c8063996440c6116100de578063ce64eac111610097578063e4ded01111610071578063e4ded01114610533578063eac8aa6214610563578063ebfb412d14610593578063f3cb8c31146105c35761018e565b8063ce64eac1146104b7578063e12483f8146104e7578063e292ec08146105175761018e565b8063996440c6146103bb578063ac2018e5146103eb578063b89895f214610409578063bdf6c67314610427578063bed34bba14610457578063bfa28ff1146104875761018e565b806349d8fea11161014b578063807ad94011610125578063807ad9401461030f57806389c19ddb1461033f5780638f9c79ed1461036f5780638fc7043f1461039f5761018e565b806349d8fea1146102915780635e390880146102c157806360ebd690146102f15761018e565b80631b9d1154146101935780632f54bf6e146101b15780633465d6d5146101e157806339f0b138146102135780633eb23e69146102435780634761658e14610261575b600080fd5b61019b6105df565b6040516101a891906125c0565b60405180910390f35b6101cb60048036038101906101c6919061264d565b6105e5565b6040516101d89190612695565b60405180910390f35b6101fb60048036038101906101f6919061264d565b610605565b60405161020a93929190612749565b60405180910390f35b61022d600480360381019061022891906128bc565b6106b7565b60405161023a9190612914565b60405180910390f35b61024b610700565b60405161025891906125c0565b60405180910390f35b61027b600480360381019061027691906128bc565b610706565b604051610288919061292f565b60405180910390f35b6102ab60048036038101906102a691906128bc565b6108bb565b6040516102b891906125c0565b60405180910390f35b6102db60048036038101906102d6919061264d565b6109d6565b6040516102e89190612695565b60405180910390f35b6102f96109f6565b60405161030691906125c0565b60405180910390f35b610329600480360381019061032491906128bc565b6109fc565b6040516103369190612695565b60405180910390f35b61035960048036038101906103549190612951565b610ecf565b604051610366919061292f565b60405180910390f35b6103896004803603810190610384919061264d565b610efb565b6040516103969190612695565b60405180910390f35b6103b960048036038101906103b491906128bc565b610f1b565b005b6103d560048036038101906103d0919061264d565b610ffa565b6040516103e29190612695565b60405180910390f35b6103f361101a565b60405161040091906125c0565b60405180910390f35b610411611020565b60405161041e91906125c0565b60405180910390f35b610441600480360381019061043c919061264d565b611026565b60405161044e9190612695565b60405180910390f35b610471600480360381019061046c9190612951565b611046565b60405161047e9190612695565b60405180910390f35b6104a1600480360381019061049c91906129f5565b61109f565b6040516104ae91906125c0565b60405180910390f35b6104d160048036038101906104cc919061264d565b611191565b6040516104de9190612695565b60405180910390f35b61050160048036038101906104fc91906128bc565b6111b1565b60405161050e91906125c0565b60405180910390f35b610531600480360381019061052c9190612a22565b6112dd565b005b61054d600480360381019061054891906129f5565b611b3b565b60405161055a91906125c0565b60405180910390f35b61057d6004803603810190610578919061264d565b611c2d565b60405161058a9190612914565b60405180910390f35b6105ad60048036038101906105a8919061264d565b611c60565b6040516105ba919061292f565b60405180910390f35b6105dd60048036038101906105d8919061264d565b611d00565b005b60015481565b600a6020528060005260406000206000915054906101000a900460ff1681565b600e60205280600052604060002060009150905080600001805461062890612aad565b80601f016020809104026020016040519081016040528092919081815260200182805461065490612aad565b80156106a15780601f10610676576101008083540402835291602001916106a1565b820191906000526020600020905b81548152906001019060200180831161068457829003601f168201915b5050505050908060030154908060040154905083565b600b818051602081018201805184825260208301602085012081835280955050505050506000915054906101000a900473ffffffffffffffffffffffffffffffffffffffff1681565b60025481565b60606000600b8360405161071a9190612b1a565b908152602001604051809103902060009054906101000a900473ffffffffffffffffffffffffffffffffffffffff169050600660008273ffffffffffffffffffffffffffffffffffffffff1673ffffffffffffffffffffffffffffffffffffffff16815260200190815260200160002060009054906101000a900460ff1680156107a957506107a8836109fc565b5b6107e8576040517f08c379a00000000000000000000000000000000000000000000000000000000081526004016107df90612b7d565b60405180910390fd5b600e60008273ffffffffffffffffffffffffffffffffffffffff1673ffffffffffffffffffffffffffffffffffffffff168152602001908152602001600020600001805461083590612aad565b80601f016020809104026020016040519081016040528092919081815260200182805461086190612aad565b80156108ae5780601f10610883576101008083540402835291602001916108ae565b820191906000526020600020905b81548152906001019060200180831161089157829003601f168201915b5050505050915050919050565b600080600b836040516108ce9190612b1a565b908152602001604051809103902060009054906101000a900473ffffffffffffffffffffffffffffffffffffffff169050600660008273ffffffffffffffffffffffffffffffffffffffff1673ffffffffffffffffffffffffffffffffffffffff16815260200190815260200160002060009054906101000a900460ff1661098b576040517f08c379a000000000000000000000000000000000000000000000000000000000815260040161098290612b7d565b60405180910390fd5b600e60008273ffffffffffffffffffffffffffffffffffffffff1673ffffffffffffffffffffffffffffffffffffffff16815260200190815260200160002060030154915050919050565b60076020528060005260406000206000915054906101000a900460ff1681565b60035481565b600080600b83604051610a0f9190612b1a565b908152602001604051809103902060009054906101000a900473ffffffffffffffffffffffffffffffffffffffff169050600660008273ffffffffffffffffffffffffffffffffffffffff1673ffffffffffffffffffffffffffffffffffffffff16815260200190815260200160002060009054906101000a900460ff16610acc576040517f08c379a0000000000000000000000000000000000000000000000000000000008152600401610ac390612be9565b60405180910390fd5b8073ffffffffffffffffffffffffffffffffffffffff163373ffffffffffffffffffffffffffffffffffffffff1603610b77578073ffffffffffffffffffffffffffffffffffffffff163373ffffffffffffffffffffffffffffffffffffffff1614610b6d576040517f08c379a0000000000000000000000000000000000000000000000000000000008152600401610b6490612c55565b60405180910390fd5b6001915050610eca565b600860003373ffffffffffffffffffffffffffffffffffffffff1673ffffffffffffffffffffffffffffffffffffffff16815260200190815260200160002060009054906101000a900460ff1680610c185750600960003373ffffffffffffffffffffffffffffffffffffffff1673ffffffffffffffffffffffffffffffffffffffff16815260200190815260200160002060009054906101000a900460ff165b610c57576040517f08c379a0000000000000000000000000000000000000000000000000000000008152600401610c4e90612cc1565b60405180910390fd5b6000600c60003373ffffffffffffffffffffffffffffffffffffffff1673ffffffffffffffffffffffffffffffffffffffff16815260200190815260200160002060009054906101000a900473ffffffffffffffffffffffffffffffffffffffff169050600560008273ffffffffffffffffffffffffffffffffffffffff1673ffffffffffffffffffffffffffffffffffffffff16815260200190815260200160002060009054906101000a900460ff1680610d5c5750600760008273ffffffffffffffffffffffffffffffffffffffff1673ffffffffffffffffffffffffffffffffffffffff16815260200190815260200160002060009054906101000a900460ff165b610d9b576040517f08c379a0000000000000000000000000000000000000000000000000000000008152600401610d9290612d2d565b60405180910390fd5b60005b600e60008473ffffffffffffffffffffffffffffffffffffffff1673ffffffffffffffffffffffffffffffffffffffff16815260200190815260200160002060020180549050811015610ec2576000600e60008573ffffffffffffffffffffffffffffffffffffffff1673ffffffffffffffffffffffffffffffffffffffff1681526020019081526020016000206002018281548110610e4157610e40612d4d565b5b9060005260206000200160009054906101000a900473ffffffffffffffffffffffffffffffffffffffff1690508273ffffffffffffffffffffffffffffffffffffffff168173ffffffffffffffffffffffffffffffffffffffff1603610eae576001945050505050610eca565b508080610eba90612dab565b915050610d9e565b505060009150505b919050565b60608282604051602001610ee4929190612df3565b604051602081830303815290604052905092915050565b60066020528060005260406000206000915054906101000a900460ff1681565b600660003373ffffffffffffffffffffffffffffffffffffffff1673ffffffffffffffffffffffffffffffffffffffff16815260200190815260200160002060009054906101000a900460ff16610fa7576040517f08c379a0000000000000000000000000000000000000000000000000000000008152600401610f9e90612e63565b60405180910390fd5b80600e60003373ffffffffffffffffffffffffffffffffffffffff1673ffffffffffffffffffffffffffffffffffffffff1681526020019081526020016000206000019081610ff6919061302f565b5050565b60086020528060005260406000206000915054906101000a900460ff1681565b60005481565b60045481565b60056020528060005260406000206000915054906101000a900460ff1681565b6000816040516020016110599190612b1a565b60405160208183030381529060405280519060200120836040516020016110809190612b1a565b6040516020818303038152906040528051906020012014905092915050565b6000600660003373ffffffffffffffffffffffffffffffffffffffff1673ffffffffffffffffffffffffffffffffffffffff16815260200190815260200160002060009054906101000a900460ff1661112d576040517f08c379a000000000000000000000000000000000000000000000000000000000815260040161112490612b7d565b60405180910390fd5b6000600e60003373ffffffffffffffffffffffffffffffffffffffff1673ffffffffffffffffffffffffffffffffffffffff168152602001908152602001600020600101600084815260200190815260200160002060020154905080915050919050565b60096020528060005260406000206000915054906101000a900460ff1681565b600080600b836040516111c49190612b1a565b908152602001604051809103902060009054906101000a900473ffffffffffffffffffffffffffffffffffffffff169050600660008273ffffffffffffffffffffffffffffffffffffffff1673ffffffffffffffffffffffffffffffffffffffff16815260200190815260200160002060009054906101000a900460ff1680156112535750611252836109fc565b5b611292576040517f08c379a000000000000000000000000000000000000000000000000000000000815260040161128990612be9565b60405180910390fd5b600e60008273ffffffffffffffffffffffffffffffffffffffff1673ffffffffffffffffffffffffffffffffffffffff16815260200190815260200160002060040154915050919050565b600a60003373ffffffffffffffffffffffffffffffffffffffff1673ffffffffffffffffffffffffffffffffffffffff16815260200190815260200160002060009054906101000a900460ff16611369576040517f08c379a00000000000000000000000000000000000000000000000000000000081526004016113609061314d565b60405180910390fd5b81600073ffffffffffffffffffffffffffffffffffffffff168173ffffffffffffffffffffffffffffffffffffffff16036113d9576040517f08c379a00000000000000000000000000000000000000000000000000000000081526004016113d0906131b9565b60405180910390fd5b600860008273ffffffffffffffffffffffffffffffffffffffff1673ffffffffffffffffffffffffffffffffffffffff16815260200190815260200160002060009054906101000a900460ff1615801561147d5750600960008273ffffffffffffffffffffffffffffffffffffffff1673ffffffffffffffffffffffffffffffffffffffff16815260200190815260200160002060009054906101000a900460ff16155b80156114d35750600760008273ffffffffffffffffffffffffffffffffffffffff1673ffffffffffffffffffffffffffffffffffffffff16815260200190815260200160002060009054906101000a900460ff16155b80156115295750600660008273ffffffffffffffffffffffffffffffffffffffff1673ffffffffffffffffffffffffffffffffffffffff16815260200190815260200160002060009054906101000a900460ff16155b801561157f5750600a60008273ffffffffffffffffffffffffffffffffffffffff1673ffffffffffffffffffffffffffffffffffffffff16815260200190815260200160002060009054906101000a900460ff16155b80156115d55750600560008273ffffffffffffffffffffffffffffffffffffffff1673ffffffffffffffffffffffffffffffffffffffff16815260200190815260200160002060009054906101000a900460ff16155b611614576040517f08c379a000000000000000000000000000000000000000000000000000000000815260040161160b90613225565b60405180910390fd5b611653826040518060400160405280600881526020017f686f73706974616c000000000000000000000000000000000000000000000000815250611046565b156117cb576001600560008573ffffffffffffffffffffffffffffffffffffffff1673ffffffffffffffffffffffffffffffffffffffff16815260200190815260200160002060006101000a81548160ff021916908315150217905550600160008154809291906116c390612dab565b919050555060006116d5600154612441565b905060006117186040518060400160405280600181526020017f680000000000000000000000000000000000000000000000000000000000000081525083610ecf565b905084600b8260405161172b9190612b1a565b908152602001604051809103902060006101000a81548173ffffffffffffffffffffffffffffffffffffffff021916908373ffffffffffffffffffffffffffffffffffffffff16021790555080600d60008773ffffffffffffffffffffffffffffffffffffffff1673ffffffffffffffffffffffffffffffffffffffff16815260200190815260200160002090816117c3919061302f565b505050611b36565b61180a826040518060400160405280600381526020017f6c61620000000000000000000000000000000000000000000000000000000000815250611046565b15611982576001600760008573ffffffffffffffffffffffffffffffffffffffff1673ffffffffffffffffffffffffffffffffffffffff16815260200190815260200160002060006101000a81548160ff0219169083151502179055506004600081548092919061187a90612dab565b9190505550600061188c600454612441565b905060006118cf6040518060400160405280600181526020017f6c0000000000000000000000000000000000000000000000000000000000000081525083610ecf565b905084600b826040516118e29190612b1a565b908152602001604051809103902060006101000a81548173ffffffffffffffffffffffffffffffffffffffff021916908373ffffffffffffffffffffffffffffffffffffffff16021790555080600d60008773ffffffffffffffffffffffffffffffffffffffff1673ffffffffffffffffffffffffffffffffffffffff168152602001908152602001600020908161197a919061302f565b505050611b35565b6119c1826040518060400160405280600781526020017f70617469656e7400000000000000000000000000000000000000000000000000815250611046565b15611b34576001600660008573ffffffffffffffffffffffffffffffffffffffff1673ffffffffffffffffffffffffffffffffffffffff16815260200190815260200160002060006101000a81548160ff021916908315150217905550600080815480929190611a3090612dab565b91905055506000611a42600054612441565b90506000611a856040518060400160405280600181526020017f700000000000000000000000000000000000000000000000000000000000000081525083610ecf565b905084600b82604051611a989190612b1a565b908152602001604051809103902060006101000a81548173ffffffffffffffffffffffffffffffffffffffff021916908373ffffffffffffffffffffffffffffffffffffffff16021790555080600d60008773ffffffffffffffffffffffffffffffffffffffff1673ffffffffffffffffffffffffffffffffffffffff1681526020019081526020016000209081611b30919061302f565b5050505b5b5b505050565b6000600660003373ffffffffffffffffffffffffffffffffffffffff1673ffffffffffffffffffffffffffffffffffffffff16815260200190815260200160002060009054906101000a900460ff16611bc9576040517f08c379a0000000000000000000000000000000000000000000000000000000008152600401611bc090612b7d565b60405180910390fd5b6000600e60003373ffffffffffffffffffffffffffffffffffffffff1673ffffffffffffffffffffffffffffffffffffffff168152602001908152602001600020600101600084815260200190815260200160002060010154905080915050919050565b600c6020528060005260406000206000915054906101000a900473ffffffffffffffffffffffffffffffffffffffff1681565b600d6020528060005260406000206000915090508054611c7f90612aad565b80601f0160208091040260200160405190810160405280929190818152602001828054611cab90612aad565b8015611cf85780601f10611ccd57610100808354040283529160200191611cf8565b820191906000526020600020905b815481529060010190602001808311611cdb57829003601f168201915b505050505081565b80600073ffffffffffffffffffffffffffffffffffffffff168173ffffffffffffffffffffffffffffffffffffffff1603611d70576040517f08c379a0000000000000000000000000000000000000000000000000000000008152600401611d67906131b9565b60405180910390fd5b600860008273ffffffffffffffffffffffffffffffffffffffff1673ffffffffffffffffffffffffffffffffffffffff16815260200190815260200160002060009054906101000a900460ff16158015611e145750600960008273ffffffffffffffffffffffffffffffffffffffff1673ffffffffffffffffffffffffffffffffffffffff16815260200190815260200160002060009054906101000a900460ff16155b8015611e6a5750600760008273ffffffffffffffffffffffffffffffffffffffff1673ffffffffffffffffffffffffffffffffffffffff16815260200190815260200160002060009054906101000a900460ff16155b8015611ec05750600660008273ffffffffffffffffffffffffffffffffffffffff1673ffffffffffffffffffffffffffffffffffffffff16815260200190815260200160002060009054906101000a900460ff16155b8015611f165750600a60008273ffffffffffffffffffffffffffffffffffffffff1673ffffffffffffffffffffffffffffffffffffffff16815260200190815260200160002060009054906101000a900460ff16155b8015611f6c5750600560008273ffffffffffffffffffffffffffffffffffffffff1673ffffffffffffffffffffffffffffffffffffffff16815260200190815260200160002060009054906101000a900460ff16155b611fab576040517f08c379a0000000000000000000000000000000000000000000000000000000008152600401611fa290613225565b60405180910390fd5b600560003373ffffffffffffffffffffffffffffffffffffffff1673ffffffffffffffffffffffffffffffffffffffff16815260200190815260200160002060009054906101000a900460ff168061204c5750600760003373ffffffffffffffffffffffffffffffffffffffff1673ffffffffffffffffffffffffffffffffffffffff16815260200190815260200160002060009054906101000a900460ff165b61208b576040517f08c379a000000000000000000000000000000000000000000000000000000000815260040161208290613291565b60405180910390fd5b600560003373ffffffffffffffffffffffffffffffffffffffff1673ffffffffffffffffffffffffffffffffffffffff16815260200190815260200160002060009054906101000a900460ff161561225057600260008154809291906120f090612dab565b91905055506001600860008473ffffffffffffffffffffffffffffffffffffffff1673ffffffffffffffffffffffffffffffffffffffff16815260200190815260200160002060006101000a81548160ff021916908315150217905550600061215a600254612441565b9050600061219d6040518060400160405280600181526020017f640000000000000000000000000000000000000000000000000000000000000081525083610ecf565b905083600b826040516121b09190612b1a565b908152602001604051809103902060006101000a81548173ffffffffffffffffffffffffffffffffffffffff021916908373ffffffffffffffffffffffffffffffffffffffff16021790555080600d60008673ffffffffffffffffffffffffffffffffffffffff1673ffffffffffffffffffffffffffffffffffffffff1681526020019081526020016000209081612248919061302f565b5050506123bf565b6001600960008473ffffffffffffffffffffffffffffffffffffffff1673ffffffffffffffffffffffffffffffffffffffff16815260200190815260200160002060006101000a81548160ff021916908315150217905550600360008154809291906122bb90612dab565b919050555060006122cd600354612441565b905060006123106040518060400160405280600181526020017f740000000000000000000000000000000000000000000000000000000000000081525083610ecf565b905083600b826040516123239190612b1a565b908152602001604051809103902060006101000a81548173ffffffffffffffffffffffffffffffffffffffff021916908373ffffffffffffffffffffffffffffffffffffffff16021790555080600d60008673ffffffffffffffffffffffffffffffffffffffff1673ffffffffffffffffffffffffffffffffffffffff16815260200190815260200160002090816123bb919061302f565b5050505b33600c60008473ffffffffffffffffffffffffffffffffffffffff1673ffffffffffffffffffffffffffffffffffffffff16815260200190815260200160002060006101000a81548173ffffffffffffffffffffffffffffffffffffffff021916908373ffffffffffffffffffffffffffffffffffffffff1602179055505050565b606060008203612488576040518060400160405280600181526020017f300000000000000000000000000000000000000000000000000000000000000081525090506125a2565b600082905060005b600082146124ba5780806124a390612dab565b915050600a826124b391906132e0565b9150612490565b60008167ffffffffffffffff8111156124d6576124d5612791565b5b6040519080825280601f01601f1916602001820160405280156125085781602001600182028036833780820191505090505b50905060008290508593505b6000841461259a57600a846125299190613311565b60306125359190613342565b60f81b828261254390613398565b9250828151811061255757612556612d4d565b5b60200101907effffffffffffffffffffffffffffffffffffffffffffffffffffffffffffff1916908160001a905350600a8461259391906132e0565b9350612514565b819450505050505b919050565b6000819050919050565b6125ba816125a7565b82525050565b60006020820190506125d560008301846125b1565b92915050565b6000604051905090565b600080fd5b600080fd5b600073ffffffffffffffffffffffffffffffffffffffff82169050919050565b600061261a826125ef565b9050919050565b61262a8161260f565b811461263557600080fd5b50565b60008135905061264781612621565b92915050565b600060208284031215612663576126626125e5565b5b600061267184828501612638565b91505092915050565b60008115159050919050565b61268f8161267a565b82525050565b60006020820190506126aa6000830184612686565b92915050565b600081519050919050565b600082825260208201905092915050565b60005b838110156126ea5780820151818401526020810190506126cf565b838111156126f9576000848401525b50505050565b6000601f19601f8301169050919050565b600061271b826126b0565b61272581856126bb565b93506127358185602086016126cc565b61273e816126ff565b840191505092915050565b600060608201905081810360008301526127638186612710565b905061277260208301856125b1565b61277f60408301846125b1565b949350505050565b600080fd5b600080fd5b7f4e487b7100000000000000000000000000000000000000000000000000000000600052604160045260246000fd5b6127c9826126ff565b810181811067ffffffffffffffff821117156127e8576127e7612791565b5b80604052505050565b60006127fb6125db565b905061280782826127c0565b919050565b600067ffffffffffffffff82111561282757612826612791565b5b612830826126ff565b9050602081019050919050565b82818337600083830152505050565b600061285f61285a8461280c565b6127f1565b90508281526020810184848401111561287b5761287a61278c565b5b61288684828561283d565b509392505050565b600082601f8301126128a3576128a2612787565b5b81356128b384826020860161284c565b91505092915050565b6000602082840312156128d2576128d16125e5565b5b600082013567ffffffffffffffff8111156128f0576128ef6125ea565b5b6128fc8482850161288e565b91505092915050565b61290e8161260f565b82525050565b60006020820190506129296000830184612905565b92915050565b600060208201905081810360008301526129498184612710565b905092915050565b60008060408385031215612968576129676125e5565b5b600083013567ffffffffffffffff811115612986576129856125ea565b5b6129928582860161288e565b925050602083013567ffffffffffffffff8111156129b3576129b26125ea565b5b6129bf8582860161288e565b9150509250929050565b6129d2816125a7565b81146129dd57600080fd5b50565b6000813590506129ef816129c9565b92915050565b600060208284031215612a0b57612a0a6125e5565b5b6000612a19848285016129e0565b91505092915050565b60008060408385031215612a3957612a386125e5565b5b6000612a4785828601612638565b925050602083013567ffffffffffffffff811115612a6857612a676125ea565b5b612a748582860161288e565b9150509250929050565b7f4e487b7100000000000000000000000000000000000000000000000000000000600052602260045260246000fd5b60006002820490506001821680612ac557607f821691505b602082108103612ad857612ad7612a7e565b5b50919050565b600081905092915050565b6000612af4826126b0565b612afe8185612ade565b9350612b0e8185602086016126cc565b80840191505092915050565b6000612b268284612ae9565b915081905092915050565b7f6e6f7420612070617469656e7400000000000000000000000000000000000000600082015250565b6000612b67600d836126bb565b9150612b7282612b31565b602082019050919050565b60006020820190508181036000830152612b9681612b5a565b9050919050565b7f6e6f7420612070617469656e7427732069640000000000000000000000000000600082015250565b6000612bd36012836126bb565b9150612bde82612b9d565b602082019050919050565b60006020820190508181036000830152612c0281612bc6565b9050919050565b7f74727920796f7572206964000000000000000000000000000000000000000000600082015250565b6000612c3f600b836126bb565b9150612c4a82612c09565b602082019050919050565b60006020820190508181036000830152612c6e81612c32565b9050919050565b7f6e6f74206120776f726b65720000000000000000000000000000000000000000600082015250565b6000612cab600c836126bb565b9150612cb682612c75565b602082019050919050565b60006020820190508181036000830152612cda81612c9e565b9050919050565b7f6e6f7420616c6c6f776564000000000000000000000000000000000000000000600082015250565b6000612d17600b836126bb565b9150612d2282612ce1565b602082019050919050565b60006020820190508181036000830152612d4681612d0a565b9050919050565b7f4e487b7100000000000000000000000000000000000000000000000000000000600052603260045260246000fd5b7f4e487b7100000000000000000000000000000000000000000000000000000000600052601160045260246000fd5b6000612db6826125a7565b91507fffffffffffffffffffffffffffffffffffffffffffffffffffffffffffffffff8203612de857612de7612d7c565b5b600182019050919050565b6000612dff8285612ae9565b9150612e0b8284612ae9565b91508190509392505050565b7f73656e646572206973206e6f742070617469656e740000000000000000000000600082015250565b6000612e4d6015836126bb565b9150612e5882612e17565b602082019050919050565b60006020820190508181036000830152612e7c81612e40565b9050919050565b60008190508160005260206000209050919050565b60006020601f8301049050919050565b600082821b905092915050565b600060088302612ee57fffffffffffffffffffffffffffffffffffffffffffffffffffffffffffffffff82612ea8565b612eef8683612ea8565b95508019841693508086168417925050509392505050565b6000819050919050565b6000612f2c612f27612f22846125a7565b612f07565b6125a7565b9050919050565b6000819050919050565b612f4683612f11565b612f5a612f5282612f33565b848454612eb5565b825550505050565b600090565b612f6f612f62565b612f7a818484612f3d565b505050565b5b81811015612f9e57612f93600082612f67565b600181019050612f80565b5050565b601f821115612fe357612fb481612e83565b612fbd84612e98565b81016020851015612fcc578190505b612fe0612fd885612e98565b830182612f7f565b50505b505050565b600082821c905092915050565b600061300660001984600802612fe8565b1980831691505092915050565b600061301f8383612ff5565b9150826002028217905092915050565b613038826126b0565b67ffffffffffffffff81111561305157613050612791565b5b61305b8254612aad565b613066828285612fa2565b600060209050601f8311600181146130995760008415613087578287015190505b6130918582613013565b8655506130f9565b601f1984166130a786612e83565b60005b828110156130cf578489015182556001820191506020850194506020810190506130aa565b868310156130ec57848901516130e8601f891682612ff5565b8355505b6001600288020188555050505b505050505050565b7f73656e646572206973206e6f74206f776e657200000000000000000000000000600082015250565b60006131376013836126bb565b915061314282613101565b602082019050919050565b600060208201905081810360008301526131668161312a565b9050919050565b7f6e756c6c206164647265737320666f756e640000000000000000000000000000600082015250565b60006131a36012836126bb565b91506131ae8261316d565b602082019050919050565b600060208201905081810360008301526131d281613196565b9050919050565b7f7072652d6578697374696e672061646472657373000000000000000000000000600082015250565b600061320f6014836126bb565b915061321a826131d9565b602082019050919050565b6000602082019050818103600083015261323e81613202565b9050919050565b7f756e617574686f72697a65642061636365737300000000000000000000000000600082015250565b600061327b6013836126bb565b915061328682613245565b602082019050919050565b600060208201905081810360008301526132aa8161326e565b9050919050565b7f4e487b7100000000000000000000000000000000000000000000000000000000600052601260045260246000fd5b60006132eb826125a7565b91506132f6836125a7565b925082613306576133056132b1565b5b828204905092915050565b600061331c826125a7565b9150613327836125a7565b925082613337576133366132b1565b5b828206905092915050565b600061334d826125a7565b9150613358836125a7565b9250827fffffffffffffffffffffffffffffffffffffffffffffffffffffffffffffffff0382111561338d5761338c612d7c565b5b828201905092915050565b60006133a3826125a7565b9150600082036133b6576133b5612d7c565b5b60018203905091905056fea2646970667358221220acd5d34fd30cc4d4e9cdaf9b20d45fa6e2eab93e72680eaaba9c64d3648971db64736f6c634300080f0033",
  "immutableReferences": {},
  "source": "// SPDX-License-Identifier: MIT\r\n\r\npragma solidity ^0.8;\r\n\r\nimport \"../contracts/enroll.sol\";\r\n\r\ncontract details is enroll{\r\n\r\n    // set of functions revolving aroung patient's record\r\n\r\n    struct medicalReport{\r\n        string cid;\r\n        uint256 consultationCnt;\r\n        uint256 confirmationCnt;\r\n        mapping (address => bool)confirmedBy;\r\n        mapping (address => uint256)refferedTo; // 0 - initial state , 1 - reffered by doctor , 2 - approved by patient\r\n    }\r\n\r\n    struct patientRecord{\r\n        string personalInfoHash;\r\n        mapping(uint256=>medicalReport) medicalInfoHash;\r\n        address[] permitted;\r\n        uint256 credit;\r\n        uint256 totalRecord;\r\n    }\r\n\r\n    mapping (address => patientRecord) public record;\r\n    // mapping (address => bool) public confirmedBy;\r\n\r\n    \r\n    // patient sets their personal info\r\n    function setPersonalInfoHash(\r\n        string memory _pinfo\r\n    )public\r\n    onlyPatient\r\n    {\r\n        record[msg.sender].personalInfoHash = _pinfo;\r\n\r\n    }\r\n    // workers at approved insti can see the patient info\r\n    function getPersonalInfoHash(string memory _id)\r\n    public\r\n    view\r\n    // isAllowed(_id)\r\n    returns(string memory x)\r\n    {\r\n        address _address = Id[_id];\r\n        require(isPatient[_address] && isAllowed(_id), \"not a patient\" );\r\n        x =  record[_address].personalInfoHash;\r\n        return x;\r\n    }\r\n    // \r\n    function getMedRecordCnt(string memory _id)\r\n    public \r\n    view\r\n    returns(uint256 x){\r\n        address _address = Id[_id];\r\n        require(isPatient[_address] && isAllowed(_id),\"not a patient's id\");\r\n        x = record[_address].totalRecord;\r\n        return x;\r\n    }\r\n    \r\n    // anyone can see patient's credit score\r\n    function getCreditScore(string memory _id) public view returns(uint256){\r\n        address _patientAddress = Id[_id];\r\n        require(isPatient[_patientAddress],\"not a patient\");\r\n        return record[_patientAddress].credit;\r\n    }\r\n\r\n    \r\n    // total numbers of doctors who can given their opinion on the medical report\r\n    function totalConsulation(uint256 _reportId)public view returns(uint256){\r\n        require(isPatient[msg.sender],\"not a patient\" );\r\n        uint256 total = record[msg.sender].medicalInfoHash[_reportId].consultationCnt;\r\n        return total;\r\n    }\r\n    \r\n    // total number of doctors who agreed with the medical report \r\n    function totalConfirmation(uint256 _reportId)public view returns(uint256){\r\n        require(isPatient[msg.sender],\"not a patient\" );\r\n        uint256 positive = record[msg.sender].medicalInfoHash[_reportId].confirmationCnt;\r\n        return positive;\r\n    }\r\n\r\n    // checks if the sender works at a insti approved by the patient\r\n    function isAllowed(string memory _id )public view returns(bool){\r\n        address _patientAddress = Id[_id];\r\n        require(isPatient[_patientAddress],\"not a patient's id\");\r\n        if(msg.sender == _patientAddress){\r\n            require(msg.sender == _patientAddress,\"try your id\");\r\n            return true;\r\n        }else{\r\n            require(isDoctor[msg.sender] || isTech[msg.sender], \"not a worker\");\r\n            address _address = worksAt[msg.sender];\r\n            require(isHospital[_address] || isLab[_address] , \"not allowed\");\r\n            for(uint256 i=0; i < record[_patientAddress].permitted.length; i++){\r\n                address instiAddress = record[_patientAddress].permitted[i];\r\n                if(instiAddress == _address){\r\n                    return true;\r\n                }\r\n            }\r\n        }\r\n        return false;\r\n        \r\n    }\r\n    \r\n\r\n}",
  "sourcePath": "D:\\ri\\ehr\\contracts\\details.sol",
  "compiler": {
    "name": "solc",
    "version": "0.8.15+commit.e14f2714.Emscripten.clang"
  },
  "schemaVersion": "3.4.8",
  "updatedAt": "2022-10-08T06:18:40.444Z",
  "devdoc": {
    "kind": "dev",
    "methods": {},
    "version": 1
  },
  "userdoc": {
    "kind": "user",
    "methods": {},
    "version": 1
  }
}