{
  "contractName": "details",
  "abi": [
    {
      "inputs": [
        {
          "internalType": "address",
          "name": "",
          "type": "address"
        }
      ],
      "name": "Address",
      "outputs": [
        {
          "internalType": "string",
          "name": "",
          "type": "string"
        }
      ],
      "stateMutability": "view",
      "type": "function"
    },
    {
      "inputs": [
        {
          "internalType": "string",
          "name": "",
          "type": "string"
        }
      ],
      "name": "Id",
      "outputs": [
        {
          "internalType": "address",
          "name": "",
          "type": "address"
        }
      ],
      "stateMutability": "view",
      "type": "function"
    },
    {
      "inputs": [
        {
          "internalType": "address",
          "name": "_address",
          "type": "address"
        },
        {
          "internalType": "string",
          "name": "category",
          "type": "string"
        }
      ],
      "name": "addClient",
      "outputs": [],
      "stateMutability": "nonpayable",
      "type": "function"
    },
    {
      "inputs": [
        {
          "internalType": "address",
          "name": "_address",
          "type": "address"
        }
      ],
      "name": "addEmployee",
      "outputs": [],
      "stateMutability": "nonpayable",
      "type": "function"
    },
    {
      "inputs": [
        {
          "internalType": "string",
          "name": "a",
          "type": "string"
        },
        {
          "internalType": "string",
          "name": "b",
          "type": "string"
        }
      ],
      "name": "compareStrings",
      "outputs": [
        {
          "internalType": "bool",
          "name": "",
          "type": "bool"
        }
      ],
      "stateMutability": "pure",
      "type": "function"
    },
    {
      "inputs": [
        {
          "internalType": "string",
          "name": "a",
          "type": "string"
        },
        {
          "internalType": "string",
          "name": "b",
          "type": "string"
        }
      ],
      "name": "concat",
      "outputs": [
        {
          "internalType": "string",
          "name": "",
          "type": "string"
        }
      ],
      "stateMutability": "pure",
      "type": "function"
    },
    {
      "inputs": [
        {
          "internalType": "address",
          "name": "",
          "type": "address"
        }
      ],
      "name": "confirmedBy",
      "outputs": [
        {
          "internalType": "bool",
          "name": "",
          "type": "bool"
        }
      ],
      "stateMutability": "view",
      "type": "function"
    },
    {
      "inputs": [],
      "name": "doctorCnt",
      "outputs": [
        {
          "internalType": "uint256",
          "name": "",
          "type": "uint256"
        }
      ],
      "stateMutability": "view",
      "type": "function"
    },
    {
      "inputs": [],
      "name": "hospitalCnt",
      "outputs": [
        {
          "internalType": "uint256",
          "name": "",
          "type": "uint256"
        }
      ],
      "stateMutability": "view",
      "type": "function"
    },
    {
      "inputs": [
        {
          "internalType": "address",
          "name": "",
          "type": "address"
        }
      ],
      "name": "isDoctor",
      "outputs": [
        {
          "internalType": "bool",
          "name": "",
          "type": "bool"
        }
      ],
      "stateMutability": "view",
      "type": "function"
    },
    {
      "inputs": [
        {
          "internalType": "address",
          "name": "",
          "type": "address"
        }
      ],
      "name": "isHospital",
      "outputs": [
        {
          "internalType": "bool",
          "name": "",
          "type": "bool"
        }
      ],
      "stateMutability": "view",
      "type": "function"
    },
    {
      "inputs": [
        {
          "internalType": "address",
          "name": "",
          "type": "address"
        }
      ],
      "name": "isLab",
      "outputs": [
        {
          "internalType": "bool",
          "name": "",
          "type": "bool"
        }
      ],
      "stateMutability": "view",
      "type": "function"
    },
    {
      "inputs": [
        {
          "internalType": "address",
          "name": "",
          "type": "address"
        }
      ],
      "name": "isOwner",
      "outputs": [
        {
          "internalType": "bool",
          "name": "",
          "type": "bool"
        }
      ],
      "stateMutability": "view",
      "type": "function"
    },
    {
      "inputs": [
        {
          "internalType": "address",
          "name": "",
          "type": "address"
        }
      ],
      "name": "isPatient",
      "outputs": [
        {
          "internalType": "bool",
          "name": "",
          "type": "bool"
        }
      ],
      "stateMutability": "view",
      "type": "function"
    },
    {
      "inputs": [
        {
          "internalType": "address",
          "name": "",
          "type": "address"
        }
      ],
      "name": "isTech",
      "outputs": [
        {
          "internalType": "bool",
          "name": "",
          "type": "bool"
        }
      ],
      "stateMutability": "view",
      "type": "function"
    },
    {
      "inputs": [],
      "name": "labCnt",
      "outputs": [
        {
          "internalType": "uint256",
          "name": "",
          "type": "uint256"
        }
      ],
      "stateMutability": "view",
      "type": "function"
    },
    {
      "inputs": [],
      "name": "patientCnt",
      "outputs": [
        {
          "internalType": "uint256",
          "name": "",
          "type": "uint256"
        }
      ],
      "stateMutability": "view",
      "type": "function"
    },
    {
      "inputs": [
        {
          "internalType": "address",
          "name": "",
          "type": "address"
        }
      ],
      "name": "record",
      "outputs": [
        {
          "internalType": "string",
          "name": "personalInfoHash",
          "type": "string"
        },
        {
          "internalType": "uint256",
          "name": "credit",
          "type": "uint256"
        },
        {
          "internalType": "uint256",
          "name": "totalRecord",
          "type": "uint256"
        }
      ],
      "stateMutability": "view",
      "type": "function"
    },
    {
      "inputs": [],
      "name": "techCnt",
      "outputs": [
        {
          "internalType": "uint256",
          "name": "",
          "type": "uint256"
        }
      ],
      "stateMutability": "view",
      "type": "function"
    },
    {
      "inputs": [
        {
          "internalType": "address",
          "name": "",
          "type": "address"
        }
      ],
      "name": "worksAt",
      "outputs": [
        {
          "internalType": "address",
          "name": "",
          "type": "address"
        }
      ],
      "stateMutability": "view",
      "type": "function"
    },
    {
      "inputs": [
        {
          "internalType": "string",
          "name": "_pinfo",
          "type": "string"
        }
      ],
      "name": "setPersonalInfoHash",
      "outputs": [],
      "stateMutability": "nonpayable",
      "type": "function"
    },
    {
      "inputs": [
        {
          "internalType": "string",
          "name": "_id",
          "type": "string"
        }
      ],
      "name": "getPersonalInfoHash",
      "outputs": [
        {
          "internalType": "string",
          "name": "",
          "type": "string"
        }
      ],
      "stateMutability": "view",
      "type": "function"
    },
    {
      "inputs": [
        {
          "internalType": "string",
          "name": "_id",
          "type": "string"
        }
      ],
      "name": "getCreditScore",
      "outputs": [
        {
          "internalType": "uint256",
          "name": "",
          "type": "uint256"
        }
      ],
      "stateMutability": "view",
      "type": "function"
    },
    {
      "inputs": [
        {
          "internalType": "uint256",
          "name": "_reportId",
          "type": "uint256"
        }
      ],
      "name": "totalConsulation",
      "outputs": [
        {
          "internalType": "uint256",
          "name": "",
          "type": "uint256"
        }
      ],
      "stateMutability": "view",
      "type": "function"
    },
    {
      "inputs": [
        {
          "internalType": "uint256",
          "name": "_reportId",
          "type": "uint256"
        }
      ],
      "name": "totalConfirmation",
      "outputs": [
        {
          "internalType": "uint256",
          "name": "",
          "type": "uint256"
        }
      ],
      "stateMutability": "view",
      "type": "function"
    }
  ],
  "bytecode": "0x608060405260008055600060015560006002556000600355600060045534801561002857600080fd5b50612fe8806100386000396000f3fe608060405234801561001057600080fd5b50600436106101735760003560e01c80638fc7043f116100de578063bfa28ff111610097578063e4ded01111610071578063e4ded011146104e8578063eac8aa6214610518578063ebfb412d14610548578063f3cb8c311461057857610173565b8063bfa28ff11461046c578063ce64eac11461049c578063e292ec08146104cc57610173565b80638fc7043f14610384578063996440c6146103a0578063ac2018e5146103d0578063b89895f2146103ee578063bdf6c6731461040c578063bed34bba1461043c57610173565b806349d8fea11161013057806349d8fea1146102765780635070bd1f146102a65780635e390880146102d657806360ebd6901461030657806389c19ddb146103245780638f9c79ed1461035457610173565b80631b9d1154146101785780632f54bf6e146101965780633465d6d5146101c657806339f0b138146101f85780633eb23e69146102285780634761658e14610246575b600080fd5b610180610594565b60405161018d91906122f5565b60405180910390f35b6101b060048036038101906101ab9190612382565b61059a565b6040516101bd91906123ca565b60405180910390f35b6101e060048036038101906101db9190612382565b6105ba565b6040516101ef9392919061247e565b60405180910390f35b610212600480360381019061020d91906125f1565b61066c565b60405161021f9190612649565b60405180910390f35b6102306106b5565b60405161023d91906122f5565b60405180910390f35b610260600480360381019061025b91906125f1565b6106bb565b60405161026d9190612664565b60405180910390f35b610290600480360381019061028b91906125f1565b610bcf565b60405161029d91906122f5565b60405180910390f35b6102c060048036038101906102bb9190612382565b610cea565b6040516102cd91906123ca565b60405180910390f35b6102f060048036038101906102eb9190612382565b610d0a565b6040516102fd91906123ca565b60405180910390f35b61030e610d2a565b60405161031b91906122f5565b60405180910390f35b61033e60048036038101906103399190612686565b610d30565b60405161034b9190612664565b60405180910390f35b61036e60048036038101906103699190612382565b610d5c565b60405161037b91906123ca565b60405180910390f35b61039e600480360381019061039991906125f1565b610d7c565b005b6103ba60048036038101906103b59190612382565b610e5b565b6040516103c791906123ca565b60405180910390f35b6103d8610e7b565b6040516103e591906122f5565b60405180910390f35b6103f6610e81565b60405161040391906122f5565b60405180910390f35b61042660048036038101906104219190612382565b610e87565b60405161043391906123ca565b60405180910390f35b61045660048036038101906104519190612686565b610ea7565b60405161046391906123ca565b60405180910390f35b6104866004803603810190610481919061272a565b610f00565b60405161049391906122f5565b60405180910390f35b6104b660048036038101906104b19190612382565b610ff2565b6040516104c391906123ca565b60405180910390f35b6104e660048036038101906104e19190612757565b611012565b005b61050260048036038101906104fd919061272a565b611870565b60405161050f91906122f5565b60405180910390f35b610532600480360381019061052d9190612382565b611962565b60405161053f9190612649565b60405180910390f35b610562600480360381019061055d9190612382565b611995565b60405161056f9190612664565b60405180910390f35b610592600480360381019061058d9190612382565b611a35565b005b60015481565b600a6020528060005260406000206000915054906101000a900460ff1681565b600e6020528060005260406000206000915090508060000180546105dd906127e2565b80601f0160208091040260200160405190810160405280929190818152602001828054610609906127e2565b80156106565780601f1061062b57610100808354040283529160200191610656565b820191906000526020600020905b81548152906001019060200180831161063957829003601f168201915b5050505050908060030154908060040154905083565b600b818051602081018201805184825260208301602085012081835280955050505050506000915054906101000a900473ffffffffffffffffffffffffffffffffffffffff1681565b60025481565b6060600c60003373ffffffffffffffffffffffffffffffffffffffff1673ffffffffffffffffffffffffffffffffffffffff16815260200190815260200160002060009054906101000a900473ffffffffffffffffffffffffffffffffffffffff16826000600b82604051610730919061284f565b908152602001604051809103902060009054906101000a900473ffffffffffffffffffffffffffffffffffffffff169050600560008473ffffffffffffffffffffffffffffffffffffffff1673ffffffffffffffffffffffffffffffffffffffff16815260200190815260200160002060009054906101000a900460ff16806108025750600760008473ffffffffffffffffffffffffffffffffffffffff1673ffffffffffffffffffffffffffffffffffffffff16815260200190815260200160002060009054906101000a900460ff165b610841576040517f08c379a0000000000000000000000000000000000000000000000000000000008152600401610838906128b2565b60405180910390fd5b6000805b600e60008473ffffffffffffffffffffffffffffffffffffffff1673ffffffffffffffffffffffffffffffffffffffff168152602001908152602001600020600201805490508110156109e8576000600e60008573ffffffffffffffffffffffffffffffffffffffff1673ffffffffffffffffffffffffffffffffffffffff16815260200190815260200160002060020182815481106108e8576108e76128d2565b5b9060005260206000200160000160009054906101000a900473ffffffffffffffffffffffffffffffffffffffff1690506000600e60008673ffffffffffffffffffffffffffffffffffffffff1673ffffffffffffffffffffffffffffffffffffffff168152602001908152602001600020600201838154811061096e5761096d6128d2565b5b9060005260206000200160000160149054906101000a900460ff1690508673ffffffffffffffffffffffffffffffffffffffff168273ffffffffffffffffffffffffffffffffffffffff161480156109c35750805b156109d3576001935050506109e8565b505080806109e090612930565b915050610845565b5080610a29576040517f08c379a0000000000000000000000000000000000000000000000000000000008152600401610a20906128b2565b60405180910390fd5b6000600b87604051610a3b919061284f565b908152602001604051809103902060009054906101000a900473ffffffffffffffffffffffffffffffffffffffff169050600660008273ffffffffffffffffffffffffffffffffffffffff1673ffffffffffffffffffffffffffffffffffffffff16815260200190815260200160002060009054906101000a900460ff16610af8576040517f08c379a0000000000000000000000000000000000000000000000000000000008152600401610aef906129c4565b60405180910390fd5b600e60008273ffffffffffffffffffffffffffffffffffffffff1673ffffffffffffffffffffffffffffffffffffffff1681526020019081526020016000206000018054610b45906127e2565b80601f0160208091040260200160405190810160405280929190818152602001828054610b71906127e2565b8015610bbe5780601f10610b9357610100808354040283529160200191610bbe565b820191906000526020600020905b815481529060010190602001808311610ba157829003601f168201915b505050505095505050505050919050565b600080600b83604051610be2919061284f565b908152602001604051809103902060009054906101000a900473ffffffffffffffffffffffffffffffffffffffff169050600660008273ffffffffffffffffffffffffffffffffffffffff1673ffffffffffffffffffffffffffffffffffffffff16815260200190815260200160002060009054906101000a900460ff16610c9f576040517f08c379a0000000000000000000000000000000000000000000000000000000008152600401610c96906129c4565b60405180910390fd5b600e60008273ffffffffffffffffffffffffffffffffffffffff1673ffffffffffffffffffffffffffffffffffffffff16815260200190815260200160002060030154915050919050565b600f6020528060005260406000206000915054906101000a900460ff1681565b60076020528060005260406000206000915054906101000a900460ff1681565b60035481565b60608282604051602001610d459291906129e4565b604051602081830303815290604052905092915050565b60066020528060005260406000206000915054906101000a900460ff1681565b600660003373ffffffffffffffffffffffffffffffffffffffff1673ffffffffffffffffffffffffffffffffffffffff16815260200190815260200160002060009054906101000a900460ff16610e08576040517f08c379a0000000000000000000000000000000000000000000000000000000008152600401610dff90612a54565b60405180910390fd5b80600e60003373ffffffffffffffffffffffffffffffffffffffff1673ffffffffffffffffffffffffffffffffffffffff1681526020019081526020016000206000019081610e579190612c20565b5050565b60086020528060005260406000206000915054906101000a900460ff1681565b60005481565b60045481565b60056020528060005260406000206000915054906101000a900460ff1681565b600081604051602001610eba919061284f565b6040516020818303038152906040528051906020012083604051602001610ee1919061284f565b6040516020818303038152906040528051906020012014905092915050565b6000600660003373ffffffffffffffffffffffffffffffffffffffff1673ffffffffffffffffffffffffffffffffffffffff16815260200190815260200160002060009054906101000a900460ff16610f8e576040517f08c379a0000000000000000000000000000000000000000000000000000000008152600401610f85906129c4565b60405180910390fd5b6000600e60003373ffffffffffffffffffffffffffffffffffffffff1673ffffffffffffffffffffffffffffffffffffffff168152602001908152602001600020600101600084815260200190815260200160002060020154905080915050919050565b60096020528060005260406000206000915054906101000a900460ff1681565b600a60003373ffffffffffffffffffffffffffffffffffffffff1673ffffffffffffffffffffffffffffffffffffffff16815260200190815260200160002060009054906101000a900460ff1661109e576040517f08c379a000000000000000000000000000000000000000000000000000000000815260040161109590612d3e565b60405180910390fd5b81600073ffffffffffffffffffffffffffffffffffffffff168173ffffffffffffffffffffffffffffffffffffffff160361110e576040517f08c379a000000000000000000000000000000000000000000000000000000000815260040161110590612daa565b60405180910390fd5b600860008273ffffffffffffffffffffffffffffffffffffffff1673ffffffffffffffffffffffffffffffffffffffff16815260200190815260200160002060009054906101000a900460ff161580156111b25750600960008273ffffffffffffffffffffffffffffffffffffffff1673ffffffffffffffffffffffffffffffffffffffff16815260200190815260200160002060009054906101000a900460ff16155b80156112085750600760008273ffffffffffffffffffffffffffffffffffffffff1673ffffffffffffffffffffffffffffffffffffffff16815260200190815260200160002060009054906101000a900460ff16155b801561125e5750600660008273ffffffffffffffffffffffffffffffffffffffff1673ffffffffffffffffffffffffffffffffffffffff16815260200190815260200160002060009054906101000a900460ff16155b80156112b45750600a60008273ffffffffffffffffffffffffffffffffffffffff1673ffffffffffffffffffffffffffffffffffffffff16815260200190815260200160002060009054906101000a900460ff16155b801561130a5750600560008273ffffffffffffffffffffffffffffffffffffffff1673ffffffffffffffffffffffffffffffffffffffff16815260200190815260200160002060009054906101000a900460ff16155b611349576040517f08c379a000000000000000000000000000000000000000000000000000000000815260040161134090612e16565b60405180910390fd5b611388826040518060400160405280600881526020017f686f73706974616c000000000000000000000000000000000000000000000000815250610ea7565b15611500576001600560008573ffffffffffffffffffffffffffffffffffffffff1673ffffffffffffffffffffffffffffffffffffffff16815260200190815260200160002060006101000a81548160ff021916908315150217905550600160008154809291906113f890612930565b9190505550600061140a600154612176565b9050600061144d6040518060400160405280600181526020017f680000000000000000000000000000000000000000000000000000000000000081525083610d30565b905084600b82604051611460919061284f565b908152602001604051809103902060006101000a81548173ffffffffffffffffffffffffffffffffffffffff021916908373ffffffffffffffffffffffffffffffffffffffff16021790555080600d60008773ffffffffffffffffffffffffffffffffffffffff1673ffffffffffffffffffffffffffffffffffffffff16815260200190815260200160002090816114f89190612c20565b50505061186b565b61153f826040518060400160405280600381526020017f6c61620000000000000000000000000000000000000000000000000000000000815250610ea7565b156116b7576001600760008573ffffffffffffffffffffffffffffffffffffffff1673ffffffffffffffffffffffffffffffffffffffff16815260200190815260200160002060006101000a81548160ff021916908315150217905550600460008154809291906115af90612930565b919050555060006115c1600454612176565b905060006116046040518060400160405280600181526020017f6c0000000000000000000000000000000000000000000000000000000000000081525083610d30565b905084600b82604051611617919061284f565b908152602001604051809103902060006101000a81548173ffffffffffffffffffffffffffffffffffffffff021916908373ffffffffffffffffffffffffffffffffffffffff16021790555080600d60008773ffffffffffffffffffffffffffffffffffffffff1673ffffffffffffffffffffffffffffffffffffffff16815260200190815260200160002090816116af9190612c20565b50505061186a565b6116f6826040518060400160405280600781526020017f70617469656e7400000000000000000000000000000000000000000000000000815250610ea7565b15611869576001600660008573ffffffffffffffffffffffffffffffffffffffff1673ffffffffffffffffffffffffffffffffffffffff16815260200190815260200160002060006101000a81548160ff02191690831515021790555060008081548092919061176590612930565b91905055506000611777600054612176565b905060006117ba6040518060400160405280600181526020017f700000000000000000000000000000000000000000000000000000000000000081525083610d30565b905084600b826040516117cd919061284f565b908152602001604051809103902060006101000a81548173ffffffffffffffffffffffffffffffffffffffff021916908373ffffffffffffffffffffffffffffffffffffffff16021790555080600d60008773ffffffffffffffffffffffffffffffffffffffff1673ffffffffffffffffffffffffffffffffffffffff16815260200190815260200160002090816118659190612c20565b5050505b5b5b505050565b6000600660003373ffffffffffffffffffffffffffffffffffffffff1673ffffffffffffffffffffffffffffffffffffffff16815260200190815260200160002060009054906101000a900460ff166118fe576040517f08c379a00000000000000000000000000000000000000000000000000000000081526004016118f5906129c4565b60405180910390fd5b6000600e60003373ffffffffffffffffffffffffffffffffffffffff1673ffffffffffffffffffffffffffffffffffffffff168152602001908152602001600020600101600084815260200190815260200160002060010154905080915050919050565b600c6020528060005260406000206000915054906101000a900473ffffffffffffffffffffffffffffffffffffffff1681565b600d60205280600052604060002060009150905080546119b4906127e2565b80601f01602080910402602001604051908101604052809291908181526020018280546119e0906127e2565b8015611a2d5780601f10611a0257610100808354040283529160200191611a2d565b820191906000526020600020905b815481529060010190602001808311611a1057829003601f168201915b505050505081565b80600073ffffffffffffffffffffffffffffffffffffffff168173ffffffffffffffffffffffffffffffffffffffff1603611aa5576040517f08c379a0000000000000000000000000000000000000000000000000000000008152600401611a9c90612daa565b60405180910390fd5b600860008273ffffffffffffffffffffffffffffffffffffffff1673ffffffffffffffffffffffffffffffffffffffff16815260200190815260200160002060009054906101000a900460ff16158015611b495750600960008273ffffffffffffffffffffffffffffffffffffffff1673ffffffffffffffffffffffffffffffffffffffff16815260200190815260200160002060009054906101000a900460ff16155b8015611b9f5750600760008273ffffffffffffffffffffffffffffffffffffffff1673ffffffffffffffffffffffffffffffffffffffff16815260200190815260200160002060009054906101000a900460ff16155b8015611bf55750600660008273ffffffffffffffffffffffffffffffffffffffff1673ffffffffffffffffffffffffffffffffffffffff16815260200190815260200160002060009054906101000a900460ff16155b8015611c4b5750600a60008273ffffffffffffffffffffffffffffffffffffffff1673ffffffffffffffffffffffffffffffffffffffff16815260200190815260200160002060009054906101000a900460ff16155b8015611ca15750600560008273ffffffffffffffffffffffffffffffffffffffff1673ffffffffffffffffffffffffffffffffffffffff16815260200190815260200160002060009054906101000a900460ff16155b611ce0576040517f08c379a0000000000000000000000000000000000000000000000000000000008152600401611cd790612e16565b60405180910390fd5b600560003373ffffffffffffffffffffffffffffffffffffffff1673ffffffffffffffffffffffffffffffffffffffff16815260200190815260200160002060009054906101000a900460ff1680611d815750600760003373ffffffffffffffffffffffffffffffffffffffff1673ffffffffffffffffffffffffffffffffffffffff16815260200190815260200160002060009054906101000a900460ff165b611dc0576040517f08c379a0000000000000000000000000000000000000000000000000000000008152600401611db790612e82565b60405180910390fd5b600560003373ffffffffffffffffffffffffffffffffffffffff1673ffffffffffffffffffffffffffffffffffffffff16815260200190815260200160002060009054906101000a900460ff1615611f855760026000815480929190611e2590612930565b91905055506001600860008473ffffffffffffffffffffffffffffffffffffffff1673ffffffffffffffffffffffffffffffffffffffff16815260200190815260200160002060006101000a81548160ff0219169083151502179055506000611e8f600254612176565b90506000611ed26040518060400160405280600181526020017f640000000000000000000000000000000000000000000000000000000000000081525083610d30565b905083600b82604051611ee5919061284f565b908152602001604051809103902060006101000a81548173ffffffffffffffffffffffffffffffffffffffff021916908373ffffffffffffffffffffffffffffffffffffffff16021790555080600d60008673ffffffffffffffffffffffffffffffffffffffff1673ffffffffffffffffffffffffffffffffffffffff1681526020019081526020016000209081611f7d9190612c20565b5050506120f4565b6001600960008473ffffffffffffffffffffffffffffffffffffffff1673ffffffffffffffffffffffffffffffffffffffff16815260200190815260200160002060006101000a81548160ff02191690831515021790555060036000815480929190611ff090612930565b91905055506000612002600354612176565b905060006120456040518060400160405280600181526020017f740000000000000000000000000000000000000000000000000000000000000081525083610d30565b905083600b82604051612058919061284f565b908152602001604051809103902060006101000a81548173ffffffffffffffffffffffffffffffffffffffff021916908373ffffffffffffffffffffffffffffffffffffffff16021790555080600d60008673ffffffffffffffffffffffffffffffffffffffff1673ffffffffffffffffffffffffffffffffffffffff16815260200190815260200160002090816120f09190612c20565b5050505b33600c60008473ffffffffffffffffffffffffffffffffffffffff1673ffffffffffffffffffffffffffffffffffffffff16815260200190815260200160002060006101000a81548173ffffffffffffffffffffffffffffffffffffffff021916908373ffffffffffffffffffffffffffffffffffffffff1602179055505050565b6060600082036121bd576040518060400160405280600181526020017f300000000000000000000000000000000000000000000000000000000000000081525090506122d7565b600082905060005b600082146121ef5780806121d890612930565b915050600a826121e89190612ed1565b91506121c5565b60008167ffffffffffffffff81111561220b5761220a6124c6565b5b6040519080825280601f01601f19166020018201604052801561223d5781602001600182028036833780820191505090505b50905060008290508593505b600084146122cf57600a8461225e9190612f02565b603061226a9190612f33565b60f81b828261227890612f89565b9250828151811061228c5761228b6128d2565b5b60200101907effffffffffffffffffffffffffffffffffffffffffffffffffffffffffffff1916908160001a905350600a846122c89190612ed1565b9350612249565b819450505050505b919050565b6000819050919050565b6122ef816122dc565b82525050565b600060208201905061230a60008301846122e6565b92915050565b6000604051905090565b600080fd5b600080fd5b600073ffffffffffffffffffffffffffffffffffffffff82169050919050565b600061234f82612324565b9050919050565b61235f81612344565b811461236a57600080fd5b50565b60008135905061237c81612356565b92915050565b6000602082840312156123985761239761231a565b5b60006123a68482850161236d565b91505092915050565b60008115159050919050565b6123c4816123af565b82525050565b60006020820190506123df60008301846123bb565b92915050565b600081519050919050565b600082825260208201905092915050565b60005b8381101561241f578082015181840152602081019050612404565b8381111561242e576000848401525b50505050565b6000601f19601f8301169050919050565b6000612450826123e5565b61245a81856123f0565b935061246a818560208601612401565b61247381612434565b840191505092915050565b600060608201905081810360008301526124988186612445565b90506124a760208301856122e6565b6124b460408301846122e6565b949350505050565b600080fd5b600080fd5b7f4e487b7100000000000000000000000000000000000000000000000000000000600052604160045260246000fd5b6124fe82612434565b810181811067ffffffffffffffff8211171561251d5761251c6124c6565b5b80604052505050565b6000612530612310565b905061253c82826124f5565b919050565b600067ffffffffffffffff82111561255c5761255b6124c6565b5b61256582612434565b9050602081019050919050565b82818337600083830152505050565b600061259461258f84612541565b612526565b9050828152602081018484840111156125b0576125af6124c1565b5b6125bb848285612572565b509392505050565b600082601f8301126125d8576125d76124bc565b5b81356125e8848260208601612581565b91505092915050565b6000602082840312156126075761260661231a565b5b600082013567ffffffffffffffff8111156126255761262461231f565b5b612631848285016125c3565b91505092915050565b61264381612344565b82525050565b600060208201905061265e600083018461263a565b92915050565b6000602082019050818103600083015261267e8184612445565b905092915050565b6000806040838503121561269d5761269c61231a565b5b600083013567ffffffffffffffff8111156126bb576126ba61231f565b5b6126c7858286016125c3565b925050602083013567ffffffffffffffff8111156126e8576126e761231f565b5b6126f4858286016125c3565b9150509250929050565b612707816122dc565b811461271257600080fd5b50565b600081359050612724816126fe565b92915050565b6000602082840312156127405761273f61231a565b5b600061274e84828501612715565b91505092915050565b6000806040838503121561276e5761276d61231a565b5b600061277c8582860161236d565b925050602083013567ffffffffffffffff81111561279d5761279c61231f565b5b6127a9858286016125c3565b9150509250929050565b7f4e487b7100000000000000000000000000000000000000000000000000000000600052602260045260246000fd5b600060028204905060018216806127fa57607f821691505b60208210810361280d5761280c6127b3565b5b50919050565b600081905092915050565b6000612829826123e5565b6128338185612813565b9350612843818560208601612401565b80840191505092915050565b600061285b828461281e565b915081905092915050565b7f6e6f7420616c6c6f776564000000000000000000000000000000000000000000600082015250565b600061289c600b836123f0565b91506128a782612866565b602082019050919050565b600060208201905081810360008301526128cb8161288f565b9050919050565b7f4e487b7100000000000000000000000000000000000000000000000000000000600052603260045260246000fd5b7f4e487b7100000000000000000000000000000000000000000000000000000000600052601160045260246000fd5b600061293b826122dc565b91507fffffffffffffffffffffffffffffffffffffffffffffffffffffffffffffffff820361296d5761296c612901565b5b600182019050919050565b7f6e6f7420612070617469656e7400000000000000000000000000000000000000600082015250565b60006129ae600d836123f0565b91506129b982612978565b602082019050919050565b600060208201905081810360008301526129dd816129a1565b9050919050565b60006129f0828561281e565b91506129fc828461281e565b91508190509392505050565b7f73656e646572206973206e6f742070617469656e740000000000000000000000600082015250565b6000612a3e6015836123f0565b9150612a4982612a08565b602082019050919050565b60006020820190508181036000830152612a6d81612a31565b9050919050565b60008190508160005260206000209050919050565b60006020601f8301049050919050565b600082821b905092915050565b600060088302612ad67fffffffffffffffffffffffffffffffffffffffffffffffffffffffffffffffff82612a99565b612ae08683612a99565b95508019841693508086168417925050509392505050565b6000819050919050565b6000612b1d612b18612b13846122dc565b612af8565b6122dc565b9050919050565b6000819050919050565b612b3783612b02565b612b4b612b4382612b24565b848454612aa6565b825550505050565b600090565b612b60612b53565b612b6b818484612b2e565b505050565b5b81811015612b8f57612b84600082612b58565b600181019050612b71565b5050565b601f821115612bd457612ba581612a74565b612bae84612a89565b81016020851015612bbd578190505b612bd1612bc985612a89565b830182612b70565b50505b505050565b600082821c905092915050565b6000612bf760001984600802612bd9565b1980831691505092915050565b6000612c108383612be6565b9150826002028217905092915050565b612c29826123e5565b67ffffffffffffffff811115612c4257612c416124c6565b5b612c4c82546127e2565b612c57828285612b93565b600060209050601f831160018114612c8a5760008415612c78578287015190505b612c828582612c04565b865550612cea565b601f198416612c9886612a74565b60005b82811015612cc057848901518255600182019150602085019450602081019050612c9b565b86831015612cdd5784890151612cd9601f891682612be6565b8355505b6001600288020188555050505b505050505050565b7f73656e646572206973206e6f74206f776e657200000000000000000000000000600082015250565b6000612d286013836123f0565b9150612d3382612cf2565b602082019050919050565b60006020820190508181036000830152612d5781612d1b565b9050919050565b7f6e756c6c206164647265737320666f756e640000000000000000000000000000600082015250565b6000612d946012836123f0565b9150612d9f82612d5e565b602082019050919050565b60006020820190508181036000830152612dc381612d87565b9050919050565b7f7072652d6578697374696e672061646472657373000000000000000000000000600082015250565b6000612e006014836123f0565b9150612e0b82612dca565b602082019050919050565b60006020820190508181036000830152612e2f81612df3565b9050919050565b7f756e617574686f72697a65642061636365737300000000000000000000000000600082015250565b6000612e6c6013836123f0565b9150612e7782612e36565b602082019050919050565b60006020820190508181036000830152612e9b81612e5f565b9050919050565b7f4e487b7100000000000000000000000000000000000000000000000000000000600052601260045260246000fd5b6000612edc826122dc565b9150612ee7836122dc565b925082612ef757612ef6612ea2565b5b828204905092915050565b6000612f0d826122dc565b9150612f18836122dc565b925082612f2857612f27612ea2565b5b828206905092915050565b6000612f3e826122dc565b9150612f49836122dc565b9250827fffffffffffffffffffffffffffffffffffffffffffffffffffffffffffffffff03821115612f7e57612f7d612901565b5b828201905092915050565b6000612f94826122dc565b915060008203612fa757612fa6612901565b5b60018203905091905056fea264697066735822122079049d920031c9cfbdc79f735661e9899ca7982607248ab0c343034e28b263b364736f6c634300080f0033",
  "immutableReferences": {},
  "source": "// SPDX-License-Identifier: MIT\r\n\r\npragma solidity ^0.8;\r\n\r\nimport \"../contracts/enroll.sol\";\r\n\r\ncontract details is enroll{\r\n\r\n    // set of functions revolving aroung patient's record\r\n\r\n    struct institutions{\r\n        address instiAddress;\r\n        bool status;\r\n    }\r\n    struct medicalReport{\r\n        string cid;\r\n        uint256 consultationCnt;\r\n        uint256 confirmationCnt;\r\n    }\r\n\r\n    struct patientRecord{\r\n        string personalInfoHash;\r\n        mapping(uint256=>medicalReport) medicalInfoHash;\r\n        institutions[] permitted;\r\n        uint256 credit;\r\n        uint256 totalRecord;\r\n    }\r\n\r\n    mapping (address => patientRecord) public record;\r\n    mapping (address => bool) public confirmedBy;\r\n\r\n    \r\n    // patient sets their personal info\r\n    function setPersonalInfoHash(\r\n        string memory _pinfo\r\n    )public\r\n    onlyPatient\r\n    {\r\n        record[msg.sender].personalInfoHash = _pinfo;\r\n\r\n    }\r\n    // workers at approved insti can see the patient info\r\n    function getPersonalInfoHash(string memory _id)\r\n    public\r\n    view\r\n    isAllowed(worksAt[msg.sender], _id)\r\n    returns(string memory)\r\n    {\r\n        address _address = Id[_id];\r\n        require(isPatient[_address], \"not a patient\" );\r\n        return record[_address].personalInfoHash;\r\n    }\r\n\r\n    \r\n    // anyone can see patient's credit score\r\n    function getCreditScore(string memory _id) public view returns(uint256){\r\n        address _patientAddress = Id[_id];\r\n        require(isPatient[_patientAddress],\"not a patient\");\r\n        return record[_patientAddress].credit;\r\n    }\r\n\r\n    \r\n    // total numbers of doctors who can given their opinion on the medical report\r\n    function totalConsulation(uint256 _reportId)public view returns(uint256){\r\n        require(isPatient[msg.sender],\"not a patient\" );\r\n        uint256 total = record[msg.sender].medicalInfoHash[_reportId].consultationCnt;\r\n        return total;\r\n    }\r\n    // total number of doctors who agreed with the medical report \r\n    function totalConfirmation(uint256 _reportId)public view returns(uint256){\r\n        require(isPatient[msg.sender],\"not a patient\" );\r\n        uint256 positive = record[msg.sender].medicalInfoHash[_reportId].confirmationCnt;\r\n        return positive;\r\n    }\r\n\r\n    // checks if the sender works at a insti approved by the patient\r\n    modifier isAllowed(address _address , string memory _id ){\r\n        address _patientAddress = Id[_id];\r\n        require(isHospital[_address] || isLab[_address] , \"not allowed\");\r\n        bool ok = false;\r\n        for(uint256 i=0; i < record[_patientAddress].permitted.length; i++){\r\n            address instiAddress = record[_patientAddress].permitted[i].instiAddress;\r\n            bool _status = record[_patientAddress].permitted[i].status;\r\n            if(instiAddress == _address && _status){\r\n                ok = true;\r\n                break;\r\n            }\r\n\r\n        }\r\n        require(ok,\"not allowed\");\r\n        _;\r\n        \r\n    }\r\n    \r\n\r\n}",
  "sourcePath": "D:\\ri\\ehr\\contracts\\details.sol",
  "compiler": {
    "name": "solc",
    "version": "0.8.15+commit.e14f2714.Emscripten.clang"
  },
  "schemaVersion": "3.4.8",
  "updatedAt": "2022-09-20T13:57:15.830Z",
  "devdoc": {
    "kind": "dev",
    "methods": {},
    "version": 1
  },
  "userdoc": {
    "kind": "user",
    "methods": {},
    "version": 1
  }
}