{
  "contractName": "enroll",
  "abi": [
    {
      "inputs": [
        {
          "internalType": "address",
          "name": "",
          "type": "address"
        }
      ],
      "name": "Address",
      "outputs": [
        {
          "internalType": "string",
          "name": "",
          "type": "string"
        }
      ],
      "stateMutability": "view",
      "type": "function"
    },
    {
      "inputs": [
        {
          "internalType": "string",
          "name": "",
          "type": "string"
        }
      ],
      "name": "Id",
      "outputs": [
        {
          "internalType": "address",
          "name": "",
          "type": "address"
        }
      ],
      "stateMutability": "view",
      "type": "function"
    },
    {
      "inputs": [
        {
          "internalType": "string",
          "name": "a",
          "type": "string"
        },
        {
          "internalType": "string",
          "name": "b",
          "type": "string"
        }
      ],
      "name": "compareStrings",
      "outputs": [
        {
          "internalType": "bool",
          "name": "",
          "type": "bool"
        }
      ],
      "stateMutability": "pure",
      "type": "function"
    },
    {
      "inputs": [
        {
          "internalType": "string",
          "name": "a",
          "type": "string"
        },
        {
          "internalType": "string",
          "name": "b",
          "type": "string"
        }
      ],
      "name": "concat",
      "outputs": [
        {
          "internalType": "string",
          "name": "",
          "type": "string"
        }
      ],
      "stateMutability": "pure",
      "type": "function"
    },
    {
      "inputs": [],
      "name": "doctorCnt",
      "outputs": [
        {
          "internalType": "uint256",
          "name": "",
          "type": "uint256"
        }
      ],
      "stateMutability": "view",
      "type": "function"
    },
    {
      "inputs": [],
      "name": "hospitalCnt",
      "outputs": [
        {
          "internalType": "uint256",
          "name": "",
          "type": "uint256"
        }
      ],
      "stateMutability": "view",
      "type": "function"
    },
    {
      "inputs": [
        {
          "internalType": "address",
          "name": "",
          "type": "address"
        }
      ],
      "name": "isDoctor",
      "outputs": [
        {
          "internalType": "bool",
          "name": "",
          "type": "bool"
        }
      ],
      "stateMutability": "view",
      "type": "function"
    },
    {
      "inputs": [
        {
          "internalType": "address",
          "name": "",
          "type": "address"
        }
      ],
      "name": "isHospital",
      "outputs": [
        {
          "internalType": "bool",
          "name": "",
          "type": "bool"
        }
      ],
      "stateMutability": "view",
      "type": "function"
    },
    {
      "inputs": [
        {
          "internalType": "address",
          "name": "",
          "type": "address"
        }
      ],
      "name": "isLab",
      "outputs": [
        {
          "internalType": "bool",
          "name": "",
          "type": "bool"
        }
      ],
      "stateMutability": "view",
      "type": "function"
    },
    {
      "inputs": [
        {
          "internalType": "address",
          "name": "",
          "type": "address"
        }
      ],
      "name": "isOwner",
      "outputs": [
        {
          "internalType": "bool",
          "name": "",
          "type": "bool"
        }
      ],
      "stateMutability": "view",
      "type": "function"
    },
    {
      "inputs": [
        {
          "internalType": "address",
          "name": "",
          "type": "address"
        }
      ],
      "name": "isPatient",
      "outputs": [
        {
          "internalType": "bool",
          "name": "",
          "type": "bool"
        }
      ],
      "stateMutability": "view",
      "type": "function"
    },
    {
      "inputs": [
        {
          "internalType": "address",
          "name": "",
          "type": "address"
        }
      ],
      "name": "isTech",
      "outputs": [
        {
          "internalType": "bool",
          "name": "",
          "type": "bool"
        }
      ],
      "stateMutability": "view",
      "type": "function"
    },
    {
      "inputs": [],
      "name": "labCnt",
      "outputs": [
        {
          "internalType": "uint256",
          "name": "",
          "type": "uint256"
        }
      ],
      "stateMutability": "view",
      "type": "function"
    },
    {
      "inputs": [],
      "name": "patientCnt",
      "outputs": [
        {
          "internalType": "uint256",
          "name": "",
          "type": "uint256"
        }
      ],
      "stateMutability": "view",
      "type": "function"
    },
    {
      "inputs": [],
      "name": "techCnt",
      "outputs": [
        {
          "internalType": "uint256",
          "name": "",
          "type": "uint256"
        }
      ],
      "stateMutability": "view",
      "type": "function"
    },
    {
      "inputs": [
        {
          "internalType": "address",
          "name": "",
          "type": "address"
        }
      ],
      "name": "worksAt",
      "outputs": [
        {
          "internalType": "address",
          "name": "",
          "type": "address"
        }
      ],
      "stateMutability": "view",
      "type": "function"
    },
    {
      "inputs": [
        {
          "internalType": "address",
          "name": "_address",
          "type": "address"
        },
        {
          "internalType": "string",
          "name": "category",
          "type": "string"
        }
      ],
      "name": "addClient",
      "outputs": [],
      "stateMutability": "nonpayable",
      "type": "function"
    },
    {
      "inputs": [
        {
          "internalType": "address",
          "name": "_address",
          "type": "address"
        }
      ],
      "name": "addEmployee",
      "outputs": [],
      "stateMutability": "nonpayable",
      "type": "function"
    }
  ],
  "bytecode": "0x608060405260008055600060015560006002556000600355600060045534801561002857600080fd5b506122ae806100386000396000f3fe608060405234801561001057600080fd5b50600436106101165760003560e01c8063ac2018e5116100a2578063ce64eac111610071578063ce64eac114610331578063e292ec0814610361578063eac8aa621461037d578063ebfb412d146103ad578063f3cb8c31146103dd57610116565b8063ac2018e514610295578063b89895f2146102b3578063bdf6c673146102d1578063bed34bba1461030157610116565b80635e390880116100e95780635e390880146101b757806360ebd690146101e757806389c19ddb146102055780638f9c79ed14610235578063996440c61461026557610116565b80631b9d11541461011b5780632f54bf6e1461013957806339f0b138146101695780633eb23e6914610199575b600080fd5b6101236103f9565b6040516101309190611796565b60405180910390f35b610153600480360381019061014e9190611823565b6103ff565b604051610160919061186b565b60405180910390f35b610183600480360381019061017e91906119cc565b61041f565b6040516101909190611a24565b60405180910390f35b6101a1610468565b6040516101ae9190611796565b60405180910390f35b6101d160048036038101906101cc9190611823565b61046e565b6040516101de919061186b565b60405180910390f35b6101ef61048e565b6040516101fc9190611796565b60405180910390f35b61021f600480360381019061021a9190611a3f565b610494565b60405161022c9190611b3f565b60405180910390f35b61024f600480360381019061024a9190611823565b6104c0565b60405161025c919061186b565b60405180910390f35b61027f600480360381019061027a9190611823565b6104e0565b60405161028c919061186b565b60405180910390f35b61029d610500565b6040516102aa9190611796565b60405180910390f35b6102bb610506565b6040516102c89190611796565b60405180910390f35b6102eb60048036038101906102e69190611823565b61050c565b6040516102f8919061186b565b60405180910390f35b61031b60048036038101906103169190611a3f565b61052c565b604051610328919061186b565b60405180910390f35b61034b60048036038101906103469190611823565b610585565b604051610358919061186b565b60405180910390f35b61037b60048036038101906103769190611b61565b6105a5565b005b61039760048036038101906103929190611823565b610e03565b6040516103a49190611a24565b60405180910390f35b6103c760048036038101906103c29190611823565b610e36565b6040516103d49190611b3f565b60405180910390f35b6103f760048036038101906103f29190611823565b610ed6565b005b60015481565b600a6020528060005260406000206000915054906101000a900460ff1681565b600b818051602081018201805184825260208301602085012081835280955050505050506000915054906101000a900473ffffffffffffffffffffffffffffffffffffffff1681565b60025481565b60076020528060005260406000206000915054906101000a900460ff1681565b60035481565b606082826040516020016104a9929190611bf9565b604051602081830303815290604052905092915050565b60066020528060005260406000206000915054906101000a900460ff1681565b60086020528060005260406000206000915054906101000a900460ff1681565b60005481565b60045481565b60056020528060005260406000206000915054906101000a900460ff1681565b60008160405160200161053f9190611c1d565b60405160208183030381529060405280519060200120836040516020016105669190611c1d565b6040516020818303038152906040528051906020012014905092915050565b60096020528060005260406000206000915054906101000a900460ff1681565b600a60003373ffffffffffffffffffffffffffffffffffffffff1673ffffffffffffffffffffffffffffffffffffffff16815260200190815260200160002060009054906101000a900460ff16610631576040517f08c379a000000000000000000000000000000000000000000000000000000000815260040161062890611c80565b60405180910390fd5b81600073ffffffffffffffffffffffffffffffffffffffff168173ffffffffffffffffffffffffffffffffffffffff16036106a1576040517f08c379a000000000000000000000000000000000000000000000000000000000815260040161069890611cec565b60405180910390fd5b600860008273ffffffffffffffffffffffffffffffffffffffff1673ffffffffffffffffffffffffffffffffffffffff16815260200190815260200160002060009054906101000a900460ff161580156107455750600960008273ffffffffffffffffffffffffffffffffffffffff1673ffffffffffffffffffffffffffffffffffffffff16815260200190815260200160002060009054906101000a900460ff16155b801561079b5750600760008273ffffffffffffffffffffffffffffffffffffffff1673ffffffffffffffffffffffffffffffffffffffff16815260200190815260200160002060009054906101000a900460ff16155b80156107f15750600660008273ffffffffffffffffffffffffffffffffffffffff1673ffffffffffffffffffffffffffffffffffffffff16815260200190815260200160002060009054906101000a900460ff16155b80156108475750600a60008273ffffffffffffffffffffffffffffffffffffffff1673ffffffffffffffffffffffffffffffffffffffff16815260200190815260200160002060009054906101000a900460ff16155b801561089d5750600560008273ffffffffffffffffffffffffffffffffffffffff1673ffffffffffffffffffffffffffffffffffffffff16815260200190815260200160002060009054906101000a900460ff16155b6108dc576040517f08c379a00000000000000000000000000000000000000000000000000000000081526004016108d390611d58565b60405180910390fd5b61091b826040518060400160405280600881526020017f686f73706974616c00000000000000000000000000000000000000000000000081525061052c565b15610a93576001600560008573ffffffffffffffffffffffffffffffffffffffff1673ffffffffffffffffffffffffffffffffffffffff16815260200190815260200160002060006101000a81548160ff0219169083151502179055506001600081548092919061098b90611da7565b9190505550600061099d600154611617565b905060006109e06040518060400160405280600181526020017f680000000000000000000000000000000000000000000000000000000000000081525083610494565b905084600b826040516109f39190611c1d565b908152602001604051809103902060006101000a81548173ffffffffffffffffffffffffffffffffffffffff021916908373ffffffffffffffffffffffffffffffffffffffff16021790555080600d60008773ffffffffffffffffffffffffffffffffffffffff1673ffffffffffffffffffffffffffffffffffffffff1681526020019081526020016000209081610a8b9190611ffb565b505050610dfe565b610ad2826040518060400160405280600381526020017f6c6162000000000000000000000000000000000000000000000000000000000081525061052c565b15610c4a576001600760008573ffffffffffffffffffffffffffffffffffffffff1673ffffffffffffffffffffffffffffffffffffffff16815260200190815260200160002060006101000a81548160ff02191690831515021790555060046000815480929190610b4290611da7565b91905055506000610b54600454611617565b90506000610b976040518060400160405280600181526020017f6c0000000000000000000000000000000000000000000000000000000000000081525083610494565b905084600b82604051610baa9190611c1d565b908152602001604051809103902060006101000a81548173ffffffffffffffffffffffffffffffffffffffff021916908373ffffffffffffffffffffffffffffffffffffffff16021790555080600d60008773ffffffffffffffffffffffffffffffffffffffff1673ffffffffffffffffffffffffffffffffffffffff1681526020019081526020016000209081610c429190611ffb565b505050610dfd565b610c89826040518060400160405280600781526020017f70617469656e740000000000000000000000000000000000000000000000000081525061052c565b15610dfc576001600660008573ffffffffffffffffffffffffffffffffffffffff1673ffffffffffffffffffffffffffffffffffffffff16815260200190815260200160002060006101000a81548160ff021916908315150217905550600080815480929190610cf890611da7565b91905055506000610d0a600054611617565b90506000610d4d6040518060400160405280600181526020017f700000000000000000000000000000000000000000000000000000000000000081525083610494565b905084600b82604051610d609190611c1d565b908152602001604051809103902060006101000a81548173ffffffffffffffffffffffffffffffffffffffff021916908373ffffffffffffffffffffffffffffffffffffffff16021790555080600d60008773ffffffffffffffffffffffffffffffffffffffff1673ffffffffffffffffffffffffffffffffffffffff1681526020019081526020016000209081610df89190611ffb565b5050505b5b5b505050565b600c6020528060005260406000206000915054906101000a900473ffffffffffffffffffffffffffffffffffffffff1681565b600d6020528060005260406000206000915090508054610e5590611e1e565b80601f0160208091040260200160405190810160405280929190818152602001828054610e8190611e1e565b8015610ece5780601f10610ea357610100808354040283529160200191610ece565b820191906000526020600020905b815481529060010190602001808311610eb157829003601f168201915b505050505081565b80600073ffffffffffffffffffffffffffffffffffffffff168173ffffffffffffffffffffffffffffffffffffffff1603610f46576040517f08c379a0000000000000000000000000000000000000000000000000000000008152600401610f3d90611cec565b60405180910390fd5b600860008273ffffffffffffffffffffffffffffffffffffffff1673ffffffffffffffffffffffffffffffffffffffff16815260200190815260200160002060009054906101000a900460ff16158015610fea5750600960008273ffffffffffffffffffffffffffffffffffffffff1673ffffffffffffffffffffffffffffffffffffffff16815260200190815260200160002060009054906101000a900460ff16155b80156110405750600760008273ffffffffffffffffffffffffffffffffffffffff1673ffffffffffffffffffffffffffffffffffffffff16815260200190815260200160002060009054906101000a900460ff16155b80156110965750600660008273ffffffffffffffffffffffffffffffffffffffff1673ffffffffffffffffffffffffffffffffffffffff16815260200190815260200160002060009054906101000a900460ff16155b80156110ec5750600a60008273ffffffffffffffffffffffffffffffffffffffff1673ffffffffffffffffffffffffffffffffffffffff16815260200190815260200160002060009054906101000a900460ff16155b80156111425750600560008273ffffffffffffffffffffffffffffffffffffffff1673ffffffffffffffffffffffffffffffffffffffff16815260200190815260200160002060009054906101000a900460ff16155b611181576040517f08c379a000000000000000000000000000000000000000000000000000000000815260040161117890611d58565b60405180910390fd5b600560003373ffffffffffffffffffffffffffffffffffffffff1673ffffffffffffffffffffffffffffffffffffffff16815260200190815260200160002060009054906101000a900460ff16806112225750600760003373ffffffffffffffffffffffffffffffffffffffff1673ffffffffffffffffffffffffffffffffffffffff16815260200190815260200160002060009054906101000a900460ff165b611261576040517f08c379a000000000000000000000000000000000000000000000000000000000815260040161125890612119565b60405180910390fd5b600560003373ffffffffffffffffffffffffffffffffffffffff1673ffffffffffffffffffffffffffffffffffffffff16815260200190815260200160002060009054906101000a900460ff161561142657600260008154809291906112c690611da7565b91905055506001600860008473ffffffffffffffffffffffffffffffffffffffff1673ffffffffffffffffffffffffffffffffffffffff16815260200190815260200160002060006101000a81548160ff0219169083151502179055506000611330600254611617565b905060006113736040518060400160405280600181526020017f640000000000000000000000000000000000000000000000000000000000000081525083610494565b905083600b826040516113869190611c1d565b908152602001604051809103902060006101000a81548173ffffffffffffffffffffffffffffffffffffffff021916908373ffffffffffffffffffffffffffffffffffffffff16021790555080600d60008673ffffffffffffffffffffffffffffffffffffffff1673ffffffffffffffffffffffffffffffffffffffff168152602001908152602001600020908161141e9190611ffb565b505050611595565b6001600960008473ffffffffffffffffffffffffffffffffffffffff1673ffffffffffffffffffffffffffffffffffffffff16815260200190815260200160002060006101000a81548160ff0219169083151502179055506003600081548092919061149190611da7565b919050555060006114a3600354611617565b905060006114e66040518060400160405280600181526020017f740000000000000000000000000000000000000000000000000000000000000081525083610494565b905083600b826040516114f99190611c1d565b908152602001604051809103902060006101000a81548173ffffffffffffffffffffffffffffffffffffffff021916908373ffffffffffffffffffffffffffffffffffffffff16021790555080600d60008673ffffffffffffffffffffffffffffffffffffffff1673ffffffffffffffffffffffffffffffffffffffff16815260200190815260200160002090816115919190611ffb565b5050505b33600c60008473ffffffffffffffffffffffffffffffffffffffff1673ffffffffffffffffffffffffffffffffffffffff16815260200190815260200160002060006101000a81548173ffffffffffffffffffffffffffffffffffffffff021916908373ffffffffffffffffffffffffffffffffffffffff1602179055505050565b60606000820361165e576040518060400160405280600181526020017f30000000000000000000000000000000000000000000000000000000000000008152509050611778565b600082905060005b6000821461169057808061167990611da7565b915050600a826116899190612168565b9150611666565b60008167ffffffffffffffff8111156116ac576116ab6118a1565b5b6040519080825280601f01601f1916602001820160405280156116de5781602001600182028036833780820191505090505b50905060008290508593505b6000841461177057600a846116ff9190612199565b603061170b91906121ca565b60f81b828261171990612220565b9250828151811061172d5761172c612249565b5b60200101907effffffffffffffffffffffffffffffffffffffffffffffffffffffffffffff1916908160001a905350600a846117699190612168565b93506116ea565b819450505050505b919050565b6000819050919050565b6117908161177d565b82525050565b60006020820190506117ab6000830184611787565b92915050565b6000604051905090565b600080fd5b600080fd5b600073ffffffffffffffffffffffffffffffffffffffff82169050919050565b60006117f0826117c5565b9050919050565b611800816117e5565b811461180b57600080fd5b50565b60008135905061181d816117f7565b92915050565b600060208284031215611839576118386117bb565b5b60006118478482850161180e565b91505092915050565b60008115159050919050565b61186581611850565b82525050565b6000602082019050611880600083018461185c565b92915050565b600080fd5b600080fd5b6000601f19601f8301169050919050565b7f4e487b7100000000000000000000000000000000000000000000000000000000600052604160045260246000fd5b6118d982611890565b810181811067ffffffffffffffff821117156118f8576118f76118a1565b5b80604052505050565b600061190b6117b1565b905061191782826118d0565b919050565b600067ffffffffffffffff821115611937576119366118a1565b5b61194082611890565b9050602081019050919050565b82818337600083830152505050565b600061196f61196a8461191c565b611901565b90508281526020810184848401111561198b5761198a61188b565b5b61199684828561194d565b509392505050565b600082601f8301126119b3576119b2611886565b5b81356119c384826020860161195c565b91505092915050565b6000602082840312156119e2576119e16117bb565b5b600082013567ffffffffffffffff811115611a00576119ff6117c0565b5b611a0c8482850161199e565b91505092915050565b611a1e816117e5565b82525050565b6000602082019050611a396000830184611a15565b92915050565b60008060408385031215611a5657611a556117bb565b5b600083013567ffffffffffffffff811115611a7457611a736117c0565b5b611a808582860161199e565b925050602083013567ffffffffffffffff811115611aa157611aa06117c0565b5b611aad8582860161199e565b9150509250929050565b600081519050919050565b600082825260208201905092915050565b60005b83811015611af1578082015181840152602081019050611ad6565b83811115611b00576000848401525b50505050565b6000611b1182611ab7565b611b1b8185611ac2565b9350611b2b818560208601611ad3565b611b3481611890565b840191505092915050565b60006020820190508181036000830152611b598184611b06565b905092915050565b60008060408385031215611b7857611b776117bb565b5b6000611b868582860161180e565b925050602083013567ffffffffffffffff811115611ba757611ba66117c0565b5b611bb38582860161199e565b9150509250929050565b600081905092915050565b6000611bd382611ab7565b611bdd8185611bbd565b9350611bed818560208601611ad3565b80840191505092915050565b6000611c058285611bc8565b9150611c118284611bc8565b91508190509392505050565b6000611c298284611bc8565b915081905092915050565b7f73656e646572206973206e6f74206f776e657200000000000000000000000000600082015250565b6000611c6a601383611ac2565b9150611c7582611c34565b602082019050919050565b60006020820190508181036000830152611c9981611c5d565b9050919050565b7f6e756c6c206164647265737320666f756e640000000000000000000000000000600082015250565b6000611cd6601283611ac2565b9150611ce182611ca0565b602082019050919050565b60006020820190508181036000830152611d0581611cc9565b9050919050565b7f7072652d6578697374696e672061646472657373000000000000000000000000600082015250565b6000611d42601483611ac2565b9150611d4d82611d0c565b602082019050919050565b60006020820190508181036000830152611d7181611d35565b9050919050565b7f4e487b7100000000000000000000000000000000000000000000000000000000600052601160045260246000fd5b6000611db28261177d565b91507fffffffffffffffffffffffffffffffffffffffffffffffffffffffffffffffff8203611de457611de3611d78565b5b600182019050919050565b7f4e487b7100000000000000000000000000000000000000000000000000000000600052602260045260246000fd5b60006002820490506001821680611e3657607f821691505b602082108103611e4957611e48611def565b5b50919050565b60008190508160005260206000209050919050565b60006020601f8301049050919050565b600082821b905092915050565b600060088302611eb17fffffffffffffffffffffffffffffffffffffffffffffffffffffffffffffffff82611e74565b611ebb8683611e74565b95508019841693508086168417925050509392505050565b6000819050919050565b6000611ef8611ef3611eee8461177d565b611ed3565b61177d565b9050919050565b6000819050919050565b611f1283611edd565b611f26611f1e82611eff565b848454611e81565b825550505050565b600090565b611f3b611f2e565b611f46818484611f09565b505050565b5b81811015611f6a57611f5f600082611f33565b600181019050611f4c565b5050565b601f821115611faf57611f8081611e4f565b611f8984611e64565b81016020851015611f98578190505b611fac611fa485611e64565b830182611f4b565b50505b505050565b600082821c905092915050565b6000611fd260001984600802611fb4565b1980831691505092915050565b6000611feb8383611fc1565b9150826002028217905092915050565b61200482611ab7565b67ffffffffffffffff81111561201d5761201c6118a1565b5b6120278254611e1e565b612032828285611f6e565b600060209050601f8311600181146120655760008415612053578287015190505b61205d8582611fdf565b8655506120c5565b601f19841661207386611e4f565b60005b8281101561209b57848901518255600182019150602085019450602081019050612076565b868310156120b857848901516120b4601f891682611fc1565b8355505b6001600288020188555050505b505050505050565b7f756e617574686f72697a65642061636365737300000000000000000000000000600082015250565b6000612103601383611ac2565b915061210e826120cd565b602082019050919050565b60006020820190508181036000830152612132816120f6565b9050919050565b7f4e487b7100000000000000000000000000000000000000000000000000000000600052601260045260246000fd5b60006121738261177d565b915061217e8361177d565b92508261218e5761218d612139565b5b828204905092915050565b60006121a48261177d565b91506121af8361177d565b9250826121bf576121be612139565b5b828206905092915050565b60006121d58261177d565b91506121e08361177d565b9250827fffffffffffffffffffffffffffffffffffffffffffffffffffffffffffffffff0382111561221557612214611d78565b5b828201905092915050565b600061222b8261177d565b91506000820361223e5761223d611d78565b5b600182039050919050565b7f4e487b7100000000000000000000000000000000000000000000000000000000600052603260045260246000fdfea26469706673582212206fe942b67a75294d18f71c4f98725f9aae1703e67d3751baac14f3314b74585364736f6c634300080f0033",
  "immutableReferences": {},
  "source": "// SPDX-License-Identifier: MIT\r\npragma solidity ^0.8;\r\nimport \"./helper.sol\";\r\ncontract enroll is helper{\r\n\r\n    // set of functions for the enrollment of participants in the network\r\n    \r\n    uint256 public patientCnt = 0 ;\r\n    uint256 public hospitalCnt = 0;\r\n    uint256 public doctorCnt = 0;\r\n    uint256 public techCnt = 0;\r\n    uint256 public labCnt = 0;\r\n    mapping (address => bool) public isHospital;\r\n    mapping (address => bool) public  isPatient;\r\n    mapping (address => bool) public  isLab;\r\n    mapping (address => bool) public  isDoctor;\r\n    mapping (address => bool) public  isTech;\r\n    mapping (address => bool) public isOwner;\r\n    mapping (string => address) public  Id;\r\n    mapping (address => address)public worksAt;\r\n    mapping (address => string)public Address;\r\n    // by admin\r\n    \r\n\r\n    modifier onlyAdmin(){\r\n        require(isOwner[msg.sender],\"sender is not owner\");\r\n        _;\r\n    }\r\n    \r\n    modifier onlyPatient(){\r\n        require(isPatient[msg.sender],\"sender is not patient\");\r\n        _;\r\n    }\r\n\r\n    modifier onlyDoctor(){\r\n        require(isDoctor[msg.sender],\"sender is not a doctor\");\r\n        _;\r\n    }\r\n\r\n    modifier isValid(\r\n        address _address)\r\n    {\r\n        require(_address != address(0x0),\"null address found\");\r\n        require(!isDoctor[_address]\r\n         && !isTech[_address]\r\n         && !isLab[_address]\r\n         && !isPatient[_address]\r\n         && !isOwner[_address]\r\n         && !isHospital[_address],\r\n         \"pre-existing address\");\r\n         _;\r\n    \r\n    }\r\n\r\n    \r\n\r\n\r\n    // owner add the hosptials , lab  and patients to the network\r\n    function addClient(\r\n        address _address,\r\n        string memory category)\r\n        public\r\n        onlyAdmin\r\n        isValid(_address)\r\n    {\r\n        if(compareStrings(category ,\"hospital\")){\r\n            isHospital[_address] = true;\r\n            hospitalCnt++;\r\n            string memory idNo = uint2str(hospitalCnt);\r\n            string memory id = concat(\"h\",idNo);\r\n            Id[id] = _address;\r\n            Address[_address] = id;\r\n        }else if(compareStrings(category ,\"lab\")){\r\n            isLab[_address] = true;\r\n            labCnt++;\r\n            string memory idNo = uint2str(labCnt);\r\n            string memory id = concat(\"l\",idNo);\r\n            Id[id] = _address;\r\n            Address[_address] = id;\r\n        }else if(compareStrings(category,\"patient\")){\r\n            isPatient[_address] = true;\r\n            patientCnt++;\r\n            string memory idNo = uint2str(patientCnt);\r\n            string memory id = concat(\"p\",idNo);\r\n            Id[id] = _address;\r\n            Address[_address] = id;\r\n        }\r\n    }\r\n\r\n\r\n    // enrollment by hospitals and labs\r\n\r\n    function addEmployee(address _address)\r\n        public\r\n        isValid(_address)\r\n    {\r\n        require(isHospital[msg.sender] || isLab[msg.sender] ,\"unauthorized access\");\r\n        if(isHospital[msg.sender]){\r\n            doctorCnt++;\r\n            isDoctor[_address] = true;\r\n            string memory idNo = uint2str(doctorCnt);\r\n            string memory id = concat(\"d\",idNo);\r\n            Id[id] = _address;\r\n            Address[_address] = id;\r\n        }else{\r\n            isTech[_address] = true;\r\n            techCnt++;\r\n            string memory idNo = uint2str(techCnt);\r\n            string memory id = concat(\"t\",idNo);\r\n            Id[id] = _address;\r\n            Address[_address] = id;\r\n        }\r\n        \r\n        worksAt[_address] = msg.sender;\r\n    }\r\n\r\n}",
  "sourcePath": "D:\\ri\\ehr\\contracts\\enroll.sol",
  "compiler": {
    "name": "solc",
    "version": "0.8.15+commit.e14f2714.Emscripten.clang"
  },
  "schemaVersion": "3.4.8",
  "updatedAt": "2022-09-24T16:36:10.291Z",
  "devdoc": {
    "kind": "dev",
    "methods": {},
    "version": 1
  },
  "userdoc": {
    "kind": "user",
    "methods": {},
    "version": 1
  }
}