{
  "contractName": "helper",
  "abi": [
    {
      "inputs": [
        {
          "internalType": "string",
          "name": "a",
          "type": "string"
        },
        {
          "internalType": "string",
          "name": "b",
          "type": "string"
        }
      ],
      "name": "compareStrings",
      "outputs": [
        {
          "internalType": "bool",
          "name": "",
          "type": "bool"
        }
      ],
      "stateMutability": "pure",
      "type": "function"
    },
    {
      "inputs": [
        {
          "internalType": "string",
          "name": "a",
          "type": "string"
        },
        {
          "internalType": "string",
          "name": "b",
          "type": "string"
        }
      ],
      "name": "concat",
      "outputs": [
        {
          "internalType": "string",
          "name": "",
          "type": "string"
        }
      ],
      "stateMutability": "pure",
      "type": "function"
    }
  ],
  "bytecode": "0x608060405234801561001057600080fd5b5061047f806100206000396000f3fe608060405234801561001057600080fd5b50600436106100365760003560e01c806389c19ddb1461003b578063bed34bba1461006b575b600080fd5b6100556004803603810190610050919061027a565b61009b565b604051610062919061037a565b60405180910390f35b6100856004803603810190610080919061027a565b6100c7565b60405161009291906103b7565b60405180910390f35b606082826040516020016100b092919061040e565b604051602081830303815290604052905092915050565b6000816040516020016100da9190610432565b60405160208183030381529060405280519060200120836040516020016101019190610432565b6040516020818303038152906040528051906020012014905092915050565b6000604051905090565b600080fd5b600080fd5b600080fd5b600080fd5b6000601f19601f8301169050919050565b7f4e487b7100000000000000000000000000000000000000000000000000000000600052604160045260246000fd5b6101878261013e565b810181811067ffffffffffffffff821117156101a6576101a561014f565b5b80604052505050565b60006101b9610120565b90506101c5828261017e565b919050565b600067ffffffffffffffff8211156101e5576101e461014f565b5b6101ee8261013e565b9050602081019050919050565b82818337600083830152505050565b600061021d610218846101ca565b6101af565b90508281526020810184848401111561023957610238610139565b5b6102448482856101fb565b509392505050565b600082601f83011261026157610260610134565b5b813561027184826020860161020a565b91505092915050565b600080604083850312156102915761029061012a565b5b600083013567ffffffffffffffff8111156102af576102ae61012f565b5b6102bb8582860161024c565b925050602083013567ffffffffffffffff8111156102dc576102db61012f565b5b6102e88582860161024c565b9150509250929050565b600081519050919050565b600082825260208201905092915050565b60005b8381101561032c578082015181840152602081019050610311565b8381111561033b576000848401525b50505050565b600061034c826102f2565b61035681856102fd565b935061036681856020860161030e565b61036f8161013e565b840191505092915050565b600060208201905081810360008301526103948184610341565b905092915050565b60008115159050919050565b6103b18161039c565b82525050565b60006020820190506103cc60008301846103a8565b92915050565b600081905092915050565b60006103e8826102f2565b6103f281856103d2565b935061040281856020860161030e565b80840191505092915050565b600061041a82856103dd565b915061042682846103dd565b91508190509392505050565b600061043e82846103dd565b91508190509291505056fea2646970667358221220b6751b08f3a695155fff39614e3c3d2a18d437775f7bab94f4bffda3f0e2671864736f6c634300080f0033",
  "immutableReferences": {},
  "source": "// SPDX-License-Identifier: MIT\r\npragma solidity ^0.8;\r\n\r\ncontract helper{\r\n\r\n    function compareStrings(string memory a, string memory b) public pure returns (bool) {\r\n        return (keccak256(abi.encodePacked((a))) == keccak256(abi.encodePacked((b))));\r\n    }\r\n\r\n    // function to convert integers to strings\r\n    function uint2str( uint256 _i)internal pure returns (string memory str)\r\n    {\r\n        if (_i == 0)\r\n        {\r\n            return \"0\";\r\n        }\r\n        uint256 j = _i;\r\n        uint256 length;\r\n        while (j != 0)\r\n        {\r\n            length++;\r\n            j /= 10;\r\n        }\r\n        bytes memory bstr = new bytes(length);\r\n        uint256 k = length;\r\n        j = _i;\r\n        while (j != 0)\r\n        {\r\n            bstr[--k] = bytes1(uint8(48 + j % 10));\r\n            j /= 10;\r\n        }\r\n        str = string(bstr);\r\n    }\r\n\r\n    function concat(string memory a,string memory b) public pure returns (string memory){\r\n        return string(abi.encodePacked(a,b));\r\n    }\r\n}",
  "sourcePath": "D:\\ri\\ehr\\contracts\\helper.sol",
  "compiler": {
    "name": "solc",
    "version": "0.8.15+commit.e14f2714.Emscripten.clang"
  },
  "schemaVersion": "3.4.8",
  "updatedAt": "2022-09-24T16:36:10.306Z",
  "devdoc": {
    "kind": "dev",
    "methods": {},
    "version": 1
  },
  "userdoc": {
    "kind": "user",
    "methods": {},
    "version": 1
  }
}