{
  "contractName": "permission",
  "abi": [
    {
      "inputs": [
        {
          "internalType": "address",
          "name": "",
          "type": "address"
        }
      ],
      "name": "Address",
      "outputs": [
        {
          "internalType": "string",
          "name": "",
          "type": "string"
        }
      ],
      "stateMutability": "view",
      "type": "function"
    },
    {
      "inputs": [
        {
          "internalType": "string",
          "name": "",
          "type": "string"
        }
      ],
      "name": "Id",
      "outputs": [
        {
          "internalType": "address",
          "name": "",
          "type": "address"
        }
      ],
      "stateMutability": "view",
      "type": "function"
    },
    {
      "inputs": [
        {
          "internalType": "address",
          "name": "_address",
          "type": "address"
        },
        {
          "internalType": "string",
          "name": "category",
          "type": "string"
        }
      ],
      "name": "addClient",
      "outputs": [],
      "stateMutability": "nonpayable",
      "type": "function"
    },
    {
      "inputs": [
        {
          "internalType": "address",
          "name": "_address",
          "type": "address"
        }
      ],
      "name": "addEmployee",
      "outputs": [],
      "stateMutability": "nonpayable",
      "type": "function"
    },
    {
      "inputs": [
        {
          "internalType": "string",
          "name": "a",
          "type": "string"
        },
        {
          "internalType": "string",
          "name": "b",
          "type": "string"
        }
      ],
      "name": "compareStrings",
      "outputs": [
        {
          "internalType": "bool",
          "name": "",
          "type": "bool"
        }
      ],
      "stateMutability": "pure",
      "type": "function"
    },
    {
      "inputs": [
        {
          "internalType": "string",
          "name": "a",
          "type": "string"
        },
        {
          "internalType": "string",
          "name": "b",
          "type": "string"
        }
      ],
      "name": "concat",
      "outputs": [
        {
          "internalType": "string",
          "name": "",
          "type": "string"
        }
      ],
      "stateMutability": "pure",
      "type": "function"
    },
    {
      "inputs": [],
      "name": "doctorCnt",
      "outputs": [
        {
          "internalType": "uint256",
          "name": "",
          "type": "uint256"
        }
      ],
      "stateMutability": "view",
      "type": "function"
    },
    {
      "inputs": [
        {
          "internalType": "string",
          "name": "_id",
          "type": "string"
        }
      ],
      "name": "getCreditScore",
      "outputs": [
        {
          "internalType": "uint256",
          "name": "",
          "type": "uint256"
        }
      ],
      "stateMutability": "view",
      "type": "function"
    },
    {
      "inputs": [
        {
          "internalType": "string",
          "name": "_id",
          "type": "string"
        }
      ],
      "name": "getMedRecordCnt",
      "outputs": [
        {
          "internalType": "uint256",
          "name": "x",
          "type": "uint256"
        }
      ],
      "stateMutability": "view",
      "type": "function"
    },
    {
      "inputs": [
        {
          "internalType": "string",
          "name": "_id",
          "type": "string"
        }
      ],
      "name": "getPersonalInfoHash",
      "outputs": [
        {
          "internalType": "string",
          "name": "x",
          "type": "string"
        }
      ],
      "stateMutability": "view",
      "type": "function"
    },
    {
      "inputs": [],
      "name": "hospitalCnt",
      "outputs": [
        {
          "internalType": "uint256",
          "name": "",
          "type": "uint256"
        }
      ],
      "stateMutability": "view",
      "type": "function"
    },
    {
      "inputs": [
        {
          "internalType": "string",
          "name": "_id",
          "type": "string"
        }
      ],
      "name": "isAllowed",
      "outputs": [
        {
          "internalType": "bool",
          "name": "",
          "type": "bool"
        }
      ],
      "stateMutability": "view",
      "type": "function"
    },
    {
      "inputs": [
        {
          "internalType": "address",
          "name": "",
          "type": "address"
        }
      ],
      "name": "isDoctor",
      "outputs": [
        {
          "internalType": "bool",
          "name": "",
          "type": "bool"
        }
      ],
      "stateMutability": "view",
      "type": "function"
    },
    {
      "inputs": [
        {
          "internalType": "address",
          "name": "",
          "type": "address"
        }
      ],
      "name": "isHospital",
      "outputs": [
        {
          "internalType": "bool",
          "name": "",
          "type": "bool"
        }
      ],
      "stateMutability": "view",
      "type": "function"
    },
    {
      "inputs": [
        {
          "internalType": "address",
          "name": "",
          "type": "address"
        }
      ],
      "name": "isLab",
      "outputs": [
        {
          "internalType": "bool",
          "name": "",
          "type": "bool"
        }
      ],
      "stateMutability": "view",
      "type": "function"
    },
    {
      "inputs": [
        {
          "internalType": "address",
          "name": "",
          "type": "address"
        }
      ],
      "name": "isOwner",
      "outputs": [
        {
          "internalType": "bool",
          "name": "",
          "type": "bool"
        }
      ],
      "stateMutability": "view",
      "type": "function"
    },
    {
      "inputs": [
        {
          "internalType": "address",
          "name": "",
          "type": "address"
        }
      ],
      "name": "isPatient",
      "outputs": [
        {
          "internalType": "bool",
          "name": "",
          "type": "bool"
        }
      ],
      "stateMutability": "view",
      "type": "function"
    },
    {
      "inputs": [
        {
          "internalType": "address",
          "name": "",
          "type": "address"
        }
      ],
      "name": "isTech",
      "outputs": [
        {
          "internalType": "bool",
          "name": "",
          "type": "bool"
        }
      ],
      "stateMutability": "view",
      "type": "function"
    },
    {
      "inputs": [],
      "name": "labCnt",
      "outputs": [
        {
          "internalType": "uint256",
          "name": "",
          "type": "uint256"
        }
      ],
      "stateMutability": "view",
      "type": "function"
    },
    {
      "inputs": [],
      "name": "patientCnt",
      "outputs": [
        {
          "internalType": "uint256",
          "name": "",
          "type": "uint256"
        }
      ],
      "stateMutability": "view",
      "type": "function"
    },
    {
      "inputs": [
        {
          "internalType": "address",
          "name": "",
          "type": "address"
        }
      ],
      "name": "record",
      "outputs": [
        {
          "internalType": "string",
          "name": "personalInfoHash",
          "type": "string"
        },
        {
          "internalType": "uint256",
          "name": "credit",
          "type": "uint256"
        },
        {
          "internalType": "uint256",
          "name": "totalRecord",
          "type": "uint256"
        }
      ],
      "stateMutability": "view",
      "type": "function"
    },
    {
      "inputs": [
        {
          "internalType": "string",
          "name": "_pinfo",
          "type": "string"
        }
      ],
      "name": "setPersonalInfoHash",
      "outputs": [],
      "stateMutability": "nonpayable",
      "type": "function"
    },
    {
      "inputs": [],
      "name": "techCnt",
      "outputs": [
        {
          "internalType": "uint256",
          "name": "",
          "type": "uint256"
        }
      ],
      "stateMutability": "view",
      "type": "function"
    },
    {
      "inputs": [
        {
          "internalType": "uint256",
          "name": "_reportId",
          "type": "uint256"
        }
      ],
      "name": "totalConfirmation",
      "outputs": [
        {
          "internalType": "uint256",
          "name": "",
          "type": "uint256"
        }
      ],
      "stateMutability": "view",
      "type": "function"
    },
    {
      "inputs": [
        {
          "internalType": "uint256",
          "name": "_reportId",
          "type": "uint256"
        }
      ],
      "name": "totalConsulation",
      "outputs": [
        {
          "internalType": "uint256",
          "name": "",
          "type": "uint256"
        }
      ],
      "stateMutability": "view",
      "type": "function"
    },
    {
      "inputs": [
        {
          "internalType": "address",
          "name": "",
          "type": "address"
        }
      ],
      "name": "worksAt",
      "outputs": [
        {
          "internalType": "address",
          "name": "",
          "type": "address"
        }
      ],
      "stateMutability": "view",
      "type": "function"
    },
    {
      "inputs": [
        {
          "internalType": "string",
          "name": "_id",
          "type": "string"
        },
        {
          "internalType": "string",
          "name": "status",
          "type": "string"
        }
      ],
      "name": "modifyStatus",
      "outputs": [],
      "stateMutability": "nonpayable",
      "type": "function"
    }
  ],
  "bytecode": "0x608060405260008055600060015560006002556000600355600060045534801561002857600080fd5b50613d69806100386000396000f3fe608060405234801561001057600080fd5b50600436106101a95760003560e01c80638fc7043f116100f9578063ce64eac111610097578063e4ded01111610071578063e4ded0111461056a578063eac8aa621461059a578063ebfb412d146105ca578063f3cb8c31146105fa576101a9565b8063ce64eac1146104ee578063e12483f81461051e578063e292ec081461054e576101a9565b8063b89895f2116100d3578063b89895f214610440578063bdf6c6731461045e578063bed34bba1461048e578063bfa28ff1146104be576101a9565b80638fc7043f146103d6578063996440c6146103f2578063ac2018e514610422576101a9565b80634761658e1161016657806360ebd6901161014057806360ebd69014610328578063807ad9401461034657806389c19ddb146103765780638f9c79ed146103a6576101a9565b80634761658e1461029857806349d8fea1146102c85780635e390880146102f8576101a9565b80631b9d1154146101ae5780632f54bf6e146101cc5780633465d6d5146101fc5780633655181a1461022e57806339f0b1381461024a5780633eb23e691461027a575b600080fd5b6101b6610616565b6040516101c39190612df7565b60405180910390f35b6101e660048036038101906101e19190612e84565b61061c565b6040516101f39190612ecc565b60405180910390f35b61021660048036038101906102119190612e84565b61063c565b60405161022593929190612f80565b60405180910390f35b610248600480360381019061024391906130f3565b6106ee565b005b610264600480360381019061025f919061316b565b610eee565b60405161027191906131c3565b60405180910390f35b610282610f37565b60405161028f9190612df7565b60405180910390f35b6102b260048036038101906102ad919061316b565b610f3d565b6040516102bf91906131de565b60405180910390f35b6102e260048036038101906102dd919061316b565b6110f2565b6040516102ef9190612df7565b60405180910390f35b610312600480360381019061030d9190612e84565b61120d565b60405161031f9190612ecc565b60405180910390f35b61033061122d565b60405161033d9190612df7565b60405180910390f35b610360600480360381019061035b919061316b565b611233565b60405161036d9190612ecc565b60405180910390f35b610390600480360381019061038b91906130f3565b611706565b60405161039d91906131de565b60405180910390f35b6103c060048036038101906103bb9190612e84565b611732565b6040516103cd9190612ecc565b60405180910390f35b6103f060048036038101906103eb919061316b565b611752565b005b61040c60048036038101906104079190612e84565b611831565b6040516104199190612ecc565b60405180910390f35b61042a611851565b6040516104379190612df7565b60405180910390f35b610448611857565b6040516104559190612df7565b60405180910390f35b61047860048036038101906104739190612e84565b61185d565b6040516104859190612ecc565b60405180910390f35b6104a860048036038101906104a391906130f3565b61187d565b6040516104b59190612ecc565b60405180910390f35b6104d860048036038101906104d3919061322c565b6118d6565b6040516104e59190612df7565b60405180910390f35b61050860048036038101906105039190612e84565b6119c8565b6040516105159190612ecc565b60405180910390f35b6105386004803603810190610533919061316b565b6119e8565b6040516105459190612df7565b60405180910390f35b61056860048036038101906105639190613259565b611b14565b005b610584600480360381019061057f919061322c565b612372565b6040516105919190612df7565b60405180910390f35b6105b460048036038101906105af9190612e84565b612464565b6040516105c191906131c3565b60405180910390f35b6105e460048036038101906105df9190612e84565b612497565b6040516105f191906131de565b60405180910390f35b610614600480360381019061060f9190612e84565b612537565b005b60015481565b600a6020528060005260406000206000915054906101000a900460ff1681565b600e60205280600052604060002060009150905080600001805461065f906132e4565b80601f016020809104026020016040519081016040528092919081815260200182805461068b906132e4565b80156106d85780601f106106ad576101008083540402835291602001916106d8565b820191906000526020600020905b8154815290600101906020018083116106bb57829003601f168201915b5050505050908060030154908060040154905083565b600660003373ffffffffffffffffffffffffffffffffffffffff1673ffffffffffffffffffffffffffffffffffffffff16815260200190815260200160002060009054906101000a900460ff1661077a576040517f08c379a000000000000000000000000000000000000000000000000000000000815260040161077190613361565b60405180910390fd5b6000600b8360405161078c91906133bd565b908152602001604051809103902060009054906101000a900473ffffffffffffffffffffffffffffffffffffffff169050600760008273ffffffffffffffffffffffffffffffffffffffff1673ffffffffffffffffffffffffffffffffffffffff16815260200190815260200160002060009054906101000a900460ff168061085e5750600560008273ffffffffffffffffffffffffffffffffffffffff1673ffffffffffffffffffffffffffffffffffffffff16815260200190815260200160002060009054906101000a900460ff165b61089d576040517f08c379a000000000000000000000000000000000000000000000000000000000815260040161089490613420565b60405180910390fd5b60008060005b600e60003373ffffffffffffffffffffffffffffffffffffffff1673ffffffffffffffffffffffffffffffffffffffff16815260200190815260200160002060020180549050811015610d58578373ffffffffffffffffffffffffffffffffffffffff16600e60003373ffffffffffffffffffffffffffffffffffffffff1673ffffffffffffffffffffffffffffffffffffffff168152602001908152602001600020600201828154811061095b5761095a613440565b5b9060005260206000200160009054906101000a900473ffffffffffffffffffffffffffffffffffffffff1673ffffffffffffffffffffffffffffffffffffffff161480156109e457506109e3856040518060400160405280600781526020017f617070726f76650000000000000000000000000000000000000000000000000081525061187d565b5b156109f25760019150610d58565b8373ffffffffffffffffffffffffffffffffffffffff16600e60003373ffffffffffffffffffffffffffffffffffffffff1673ffffffffffffffffffffffffffffffffffffffff1681526020019081526020016000206002018281548110610a5d57610a5c613440565b5b9060005260206000200160009054906101000a900473ffffffffffffffffffffffffffffffffffffffff1673ffffffffffffffffffffffffffffffffffffffff16148015610ae65750610ae5856040518060400160405280600681526020017f72656d6f7665000000000000000000000000000000000000000000000000000081525061187d565b5b15610d45576000600e60003373ffffffffffffffffffffffffffffffffffffffff1673ffffffffffffffffffffffffffffffffffffffff168152602001908152602001600020600201805490509050600e60003373ffffffffffffffffffffffffffffffffffffffff1673ffffffffffffffffffffffffffffffffffffffff168152602001908152602001600020600201600182610b84919061349e565b81548110610b9557610b94613440565b5b9060005260206000200160009054906101000a900473ffffffffffffffffffffffffffffffffffffffff16600e60003373ffffffffffffffffffffffffffffffffffffffff1673ffffffffffffffffffffffffffffffffffffffff1681526020019081526020016000206002018381548110610c1457610c13613440565b5b9060005260206000200160006101000a81548173ffffffffffffffffffffffffffffffffffffffff021916908373ffffffffffffffffffffffffffffffffffffffff160217905550600e60003373ffffffffffffffffffffffffffffffffffffffff1673ffffffffffffffffffffffffffffffffffffffff1681526020019081526020016000206003016000815480929190610caf906134d2565b9190505550600e60003373ffffffffffffffffffffffffffffffffffffffff1673ffffffffffffffffffffffffffffffffffffffff168152602001908152602001600020600201805480610d0657610d056134fb565b5b6001900381819060005260206000200160006101000a81549073ffffffffffffffffffffffffffffffffffffffff021916905590556001935050610d58565b8080610d509061352a565b9150506108a3565b5080158015610da25750610da1846040518060400160405280600781526020017f617070726f76650000000000000000000000000000000000000000000000000081525061187d565b5b15610ea757600e60003373ffffffffffffffffffffffffffffffffffffffff1673ffffffffffffffffffffffffffffffffffffffff168152602001908152602001600020600201839080600181540180825580915050600190039060005260206000200160009091909190916101000a81548173ffffffffffffffffffffffffffffffffffffffff021916908373ffffffffffffffffffffffffffffffffffffffff160217905550600e60003373ffffffffffffffffffffffffffffffffffffffff1673ffffffffffffffffffffffffffffffffffffffff1681526020019081526020016000206003016000815480929190610e9d9061352a565b9190505550600191505b81610ee7576040517f08c379a0000000000000000000000000000000000000000000000000000000008152600401610ede906135be565b60405180910390fd5b5050505050565b600b818051602081018201805184825260208301602085012081835280955050505050506000915054906101000a900473ffffffffffffffffffffffffffffffffffffffff1681565b60025481565b60606000600b83604051610f5191906133bd565b908152602001604051809103902060009054906101000a900473ffffffffffffffffffffffffffffffffffffffff169050600660008273ffffffffffffffffffffffffffffffffffffffff1673ffffffffffffffffffffffffffffffffffffffff16815260200190815260200160002060009054906101000a900460ff168015610fe05750610fdf83611233565b5b61101f576040517f08c379a00000000000000000000000000000000000000000000000000000000081526004016110169061362a565b60405180910390fd5b600e60008273ffffffffffffffffffffffffffffffffffffffff1673ffffffffffffffffffffffffffffffffffffffff168152602001908152602001600020600001805461106c906132e4565b80601f0160208091040260200160405190810160405280929190818152602001828054611098906132e4565b80156110e55780601f106110ba576101008083540402835291602001916110e5565b820191906000526020600020905b8154815290600101906020018083116110c857829003601f168201915b5050505050915050919050565b600080600b8360405161110591906133bd565b908152602001604051809103902060009054906101000a900473ffffffffffffffffffffffffffffffffffffffff169050600660008273ffffffffffffffffffffffffffffffffffffffff1673ffffffffffffffffffffffffffffffffffffffff16815260200190815260200160002060009054906101000a900460ff166111c2576040517f08c379a00000000000000000000000000000000000000000000000000000000081526004016111b99061362a565b60405180910390fd5b600e60008273ffffffffffffffffffffffffffffffffffffffff1673ffffffffffffffffffffffffffffffffffffffff16815260200190815260200160002060030154915050919050565b60076020528060005260406000206000915054906101000a900460ff1681565b60035481565b600080600b8360405161124691906133bd565b908152602001604051809103902060009054906101000a900473ffffffffffffffffffffffffffffffffffffffff169050600660008273ffffffffffffffffffffffffffffffffffffffff1673ffffffffffffffffffffffffffffffffffffffff16815260200190815260200160002060009054906101000a900460ff16611303576040517f08c379a00000000000000000000000000000000000000000000000000000000081526004016112fa90613696565b60405180910390fd5b8073ffffffffffffffffffffffffffffffffffffffff163373ffffffffffffffffffffffffffffffffffffffff16036113ae578073ffffffffffffffffffffffffffffffffffffffff163373ffffffffffffffffffffffffffffffffffffffff16146113a4576040517f08c379a000000000000000000000000000000000000000000000000000000000815260040161139b90613702565b60405180910390fd5b6001915050611701565b600860003373ffffffffffffffffffffffffffffffffffffffff1673ffffffffffffffffffffffffffffffffffffffff16815260200190815260200160002060009054906101000a900460ff168061144f5750600960003373ffffffffffffffffffffffffffffffffffffffff1673ffffffffffffffffffffffffffffffffffffffff16815260200190815260200160002060009054906101000a900460ff165b61148e576040517f08c379a00000000000000000000000000000000000000000000000000000000081526004016114859061376e565b60405180910390fd5b6000600c60003373ffffffffffffffffffffffffffffffffffffffff1673ffffffffffffffffffffffffffffffffffffffff16815260200190815260200160002060009054906101000a900473ffffffffffffffffffffffffffffffffffffffff169050600560008273ffffffffffffffffffffffffffffffffffffffff1673ffffffffffffffffffffffffffffffffffffffff16815260200190815260200160002060009054906101000a900460ff16806115935750600760008273ffffffffffffffffffffffffffffffffffffffff1673ffffffffffffffffffffffffffffffffffffffff16815260200190815260200160002060009054906101000a900460ff165b6115d2576040517f08c379a00000000000000000000000000000000000000000000000000000000081526004016115c9906137da565b60405180910390fd5b60005b600e60008473ffffffffffffffffffffffffffffffffffffffff1673ffffffffffffffffffffffffffffffffffffffff168152602001908152602001600020600201805490508110156116f9576000600e60008573ffffffffffffffffffffffffffffffffffffffff1673ffffffffffffffffffffffffffffffffffffffff168152602001908152602001600020600201828154811061167857611677613440565b5b9060005260206000200160009054906101000a900473ffffffffffffffffffffffffffffffffffffffff1690508273ffffffffffffffffffffffffffffffffffffffff168173ffffffffffffffffffffffffffffffffffffffff16036116e5576001945050505050611701565b5080806116f19061352a565b9150506115d5565b505060009150505b919050565b6060828260405160200161171b9291906137fa565b604051602081830303815290604052905092915050565b60066020528060005260406000206000915054906101000a900460ff1681565b600660003373ffffffffffffffffffffffffffffffffffffffff1673ffffffffffffffffffffffffffffffffffffffff16815260200190815260200160002060009054906101000a900460ff166117de576040517f08c379a00000000000000000000000000000000000000000000000000000000081526004016117d590613361565b60405180910390fd5b80600e60003373ffffffffffffffffffffffffffffffffffffffff1673ffffffffffffffffffffffffffffffffffffffff168152602001908152602001600020600001908161182d91906139ca565b5050565b60086020528060005260406000206000915054906101000a900460ff1681565b60005481565b60045481565b60056020528060005260406000206000915054906101000a900460ff1681565b60008160405160200161189091906133bd565b60405160208183030381529060405280519060200120836040516020016118b791906133bd565b6040516020818303038152906040528051906020012014905092915050565b6000600660003373ffffffffffffffffffffffffffffffffffffffff1673ffffffffffffffffffffffffffffffffffffffff16815260200190815260200160002060009054906101000a900460ff16611964576040517f08c379a000000000000000000000000000000000000000000000000000000000815260040161195b9061362a565b60405180910390fd5b6000600e60003373ffffffffffffffffffffffffffffffffffffffff1673ffffffffffffffffffffffffffffffffffffffff168152602001908152602001600020600101600084815260200190815260200160002060020154905080915050919050565b60096020528060005260406000206000915054906101000a900460ff1681565b600080600b836040516119fb91906133bd565b908152602001604051809103902060009054906101000a900473ffffffffffffffffffffffffffffffffffffffff169050600660008273ffffffffffffffffffffffffffffffffffffffff1673ffffffffffffffffffffffffffffffffffffffff16815260200190815260200160002060009054906101000a900460ff168015611a8a5750611a8983611233565b5b611ac9576040517f08c379a0000000000000000000000000000000000000000000000000000000008152600401611ac090613696565b60405180910390fd5b600e60008273ffffffffffffffffffffffffffffffffffffffff1673ffffffffffffffffffffffffffffffffffffffff16815260200190815260200160002060040154915050919050565b600a60003373ffffffffffffffffffffffffffffffffffffffff1673ffffffffffffffffffffffffffffffffffffffff16815260200190815260200160002060009054906101000a900460ff16611ba0576040517f08c379a0000000000000000000000000000000000000000000000000000000008152600401611b9790613ae8565b60405180910390fd5b81600073ffffffffffffffffffffffffffffffffffffffff168173ffffffffffffffffffffffffffffffffffffffff1603611c10576040517f08c379a0000000000000000000000000000000000000000000000000000000008152600401611c0790613b54565b60405180910390fd5b600860008273ffffffffffffffffffffffffffffffffffffffff1673ffffffffffffffffffffffffffffffffffffffff16815260200190815260200160002060009054906101000a900460ff16158015611cb45750600960008273ffffffffffffffffffffffffffffffffffffffff1673ffffffffffffffffffffffffffffffffffffffff16815260200190815260200160002060009054906101000a900460ff16155b8015611d0a5750600760008273ffffffffffffffffffffffffffffffffffffffff1673ffffffffffffffffffffffffffffffffffffffff16815260200190815260200160002060009054906101000a900460ff16155b8015611d605750600660008273ffffffffffffffffffffffffffffffffffffffff1673ffffffffffffffffffffffffffffffffffffffff16815260200190815260200160002060009054906101000a900460ff16155b8015611db65750600a60008273ffffffffffffffffffffffffffffffffffffffff1673ffffffffffffffffffffffffffffffffffffffff16815260200190815260200160002060009054906101000a900460ff16155b8015611e0c5750600560008273ffffffffffffffffffffffffffffffffffffffff1673ffffffffffffffffffffffffffffffffffffffff16815260200190815260200160002060009054906101000a900460ff16155b611e4b576040517f08c379a0000000000000000000000000000000000000000000000000000000008152600401611e4290613bc0565b60405180910390fd5b611e8a826040518060400160405280600881526020017f686f73706974616c00000000000000000000000000000000000000000000000081525061187d565b15612002576001600560008573ffffffffffffffffffffffffffffffffffffffff1673ffffffffffffffffffffffffffffffffffffffff16815260200190815260200160002060006101000a81548160ff02191690831515021790555060016000815480929190611efa9061352a565b91905055506000611f0c600154612c78565b90506000611f4f6040518060400160405280600181526020017f680000000000000000000000000000000000000000000000000000000000000081525083611706565b905084600b82604051611f6291906133bd565b908152602001604051809103902060006101000a81548173ffffffffffffffffffffffffffffffffffffffff021916908373ffffffffffffffffffffffffffffffffffffffff16021790555080600d60008773ffffffffffffffffffffffffffffffffffffffff1673ffffffffffffffffffffffffffffffffffffffff1681526020019081526020016000209081611ffa91906139ca565b50505061236d565b612041826040518060400160405280600381526020017f6c6162000000000000000000000000000000000000000000000000000000000081525061187d565b156121b9576001600760008573ffffffffffffffffffffffffffffffffffffffff1673ffffffffffffffffffffffffffffffffffffffff16815260200190815260200160002060006101000a81548160ff021916908315150217905550600460008154809291906120b19061352a565b919050555060006120c3600454612c78565b905060006121066040518060400160405280600181526020017f6c0000000000000000000000000000000000000000000000000000000000000081525083611706565b905084600b8260405161211991906133bd565b908152602001604051809103902060006101000a81548173ffffffffffffffffffffffffffffffffffffffff021916908373ffffffffffffffffffffffffffffffffffffffff16021790555080600d60008773ffffffffffffffffffffffffffffffffffffffff1673ffffffffffffffffffffffffffffffffffffffff16815260200190815260200160002090816121b191906139ca565b50505061236c565b6121f8826040518060400160405280600781526020017f70617469656e740000000000000000000000000000000000000000000000000081525061187d565b1561236b576001600660008573ffffffffffffffffffffffffffffffffffffffff1673ffffffffffffffffffffffffffffffffffffffff16815260200190815260200160002060006101000a81548160ff0219169083151502179055506000808154809291906122679061352a565b91905055506000612279600054612c78565b905060006122bc6040518060400160405280600181526020017f700000000000000000000000000000000000000000000000000000000000000081525083611706565b905084600b826040516122cf91906133bd565b908152602001604051809103902060006101000a81548173ffffffffffffffffffffffffffffffffffffffff021916908373ffffffffffffffffffffffffffffffffffffffff16021790555080600d60008773ffffffffffffffffffffffffffffffffffffffff1673ffffffffffffffffffffffffffffffffffffffff168152602001908152602001600020908161236791906139ca565b5050505b5b5b505050565b6000600660003373ffffffffffffffffffffffffffffffffffffffff1673ffffffffffffffffffffffffffffffffffffffff16815260200190815260200160002060009054906101000a900460ff16612400576040517f08c379a00000000000000000000000000000000000000000000000000000000081526004016123f79061362a565b60405180910390fd5b6000600e60003373ffffffffffffffffffffffffffffffffffffffff1673ffffffffffffffffffffffffffffffffffffffff168152602001908152602001600020600101600084815260200190815260200160002060010154905080915050919050565b600c6020528060005260406000206000915054906101000a900473ffffffffffffffffffffffffffffffffffffffff1681565b600d60205280600052604060002060009150905080546124b6906132e4565b80601f01602080910402602001604051908101604052809291908181526020018280546124e2906132e4565b801561252f5780601f106125045761010080835404028352916020019161252f565b820191906000526020600020905b81548152906001019060200180831161251257829003601f168201915b505050505081565b80600073ffffffffffffffffffffffffffffffffffffffff168173ffffffffffffffffffffffffffffffffffffffff16036125a7576040517f08c379a000000000000000000000000000000000000000000000000000000000815260040161259e90613b54565b60405180910390fd5b600860008273ffffffffffffffffffffffffffffffffffffffff1673ffffffffffffffffffffffffffffffffffffffff16815260200190815260200160002060009054906101000a900460ff1615801561264b5750600960008273ffffffffffffffffffffffffffffffffffffffff1673ffffffffffffffffffffffffffffffffffffffff16815260200190815260200160002060009054906101000a900460ff16155b80156126a15750600760008273ffffffffffffffffffffffffffffffffffffffff1673ffffffffffffffffffffffffffffffffffffffff16815260200190815260200160002060009054906101000a900460ff16155b80156126f75750600660008273ffffffffffffffffffffffffffffffffffffffff1673ffffffffffffffffffffffffffffffffffffffff16815260200190815260200160002060009054906101000a900460ff16155b801561274d5750600a60008273ffffffffffffffffffffffffffffffffffffffff1673ffffffffffffffffffffffffffffffffffffffff16815260200190815260200160002060009054906101000a900460ff16155b80156127a35750600560008273ffffffffffffffffffffffffffffffffffffffff1673ffffffffffffffffffffffffffffffffffffffff16815260200190815260200160002060009054906101000a900460ff16155b6127e2576040517f08c379a00000000000000000000000000000000000000000000000000000000081526004016127d990613bc0565b60405180910390fd5b600560003373ffffffffffffffffffffffffffffffffffffffff1673ffffffffffffffffffffffffffffffffffffffff16815260200190815260200160002060009054906101000a900460ff16806128835750600760003373ffffffffffffffffffffffffffffffffffffffff1673ffffffffffffffffffffffffffffffffffffffff16815260200190815260200160002060009054906101000a900460ff165b6128c2576040517f08c379a00000000000000000000000000000000000000000000000000000000081526004016128b990613c2c565b60405180910390fd5b600560003373ffffffffffffffffffffffffffffffffffffffff1673ffffffffffffffffffffffffffffffffffffffff16815260200190815260200160002060009054906101000a900460ff1615612a8757600260008154809291906129279061352a565b91905055506001600860008473ffffffffffffffffffffffffffffffffffffffff1673ffffffffffffffffffffffffffffffffffffffff16815260200190815260200160002060006101000a81548160ff0219169083151502179055506000612991600254612c78565b905060006129d46040518060400160405280600181526020017f640000000000000000000000000000000000000000000000000000000000000081525083611706565b905083600b826040516129e791906133bd565b908152602001604051809103902060006101000a81548173ffffffffffffffffffffffffffffffffffffffff021916908373ffffffffffffffffffffffffffffffffffffffff16021790555080600d60008673ffffffffffffffffffffffffffffffffffffffff1673ffffffffffffffffffffffffffffffffffffffff1681526020019081526020016000209081612a7f91906139ca565b505050612bf6565b6001600960008473ffffffffffffffffffffffffffffffffffffffff1673ffffffffffffffffffffffffffffffffffffffff16815260200190815260200160002060006101000a81548160ff02191690831515021790555060036000815480929190612af29061352a565b91905055506000612b04600354612c78565b90506000612b476040518060400160405280600181526020017f740000000000000000000000000000000000000000000000000000000000000081525083611706565b905083600b82604051612b5a91906133bd565b908152602001604051809103902060006101000a81548173ffffffffffffffffffffffffffffffffffffffff021916908373ffffffffffffffffffffffffffffffffffffffff16021790555080600d60008673ffffffffffffffffffffffffffffffffffffffff1673ffffffffffffffffffffffffffffffffffffffff1681526020019081526020016000209081612bf291906139ca565b5050505b33600c60008473ffffffffffffffffffffffffffffffffffffffff1673ffffffffffffffffffffffffffffffffffffffff16815260200190815260200160002060006101000a81548173ffffffffffffffffffffffffffffffffffffffff021916908373ffffffffffffffffffffffffffffffffffffffff1602179055505050565b606060008203612cbf576040518060400160405280600181526020017f30000000000000000000000000000000000000000000000000000000000000008152509050612dd9565b600082905060005b60008214612cf1578080612cda9061352a565b915050600a82612cea9190613c7b565b9150612cc7565b60008167ffffffffffffffff811115612d0d57612d0c612fc8565b5b6040519080825280601f01601f191660200182016040528015612d3f5781602001600182028036833780820191505090505b50905060008290508593505b60008414612dd157600a84612d609190613cac565b6030612d6c9190613cdd565b60f81b8282612d7a906134d2565b92508281518110612d8e57612d8d613440565b5b60200101907effffffffffffffffffffffffffffffffffffffffffffffffffffffffffffff1916908160001a905350600a84612dca9190613c7b565b9350612d4b565b819450505050505b919050565b6000819050919050565b612df181612dde565b82525050565b6000602082019050612e0c6000830184612de8565b92915050565b6000604051905090565b600080fd5b600080fd5b600073ffffffffffffffffffffffffffffffffffffffff82169050919050565b6000612e5182612e26565b9050919050565b612e6181612e46565b8114612e6c57600080fd5b50565b600081359050612e7e81612e58565b92915050565b600060208284031215612e9a57612e99612e1c565b5b6000612ea884828501612e6f565b91505092915050565b60008115159050919050565b612ec681612eb1565b82525050565b6000602082019050612ee16000830184612ebd565b92915050565b600081519050919050565b600082825260208201905092915050565b60005b83811015612f21578082015181840152602081019050612f06565b83811115612f30576000848401525b50505050565b6000601f19601f8301169050919050565b6000612f5282612ee7565b612f5c8185612ef2565b9350612f6c818560208601612f03565b612f7581612f36565b840191505092915050565b60006060820190508181036000830152612f9a8186612f47565b9050612fa96020830185612de8565b612fb66040830184612de8565b949350505050565b600080fd5b600080fd5b7f4e487b7100000000000000000000000000000000000000000000000000000000600052604160045260246000fd5b61300082612f36565b810181811067ffffffffffffffff8211171561301f5761301e612fc8565b5b80604052505050565b6000613032612e12565b905061303e8282612ff7565b919050565b600067ffffffffffffffff82111561305e5761305d612fc8565b5b61306782612f36565b9050602081019050919050565b82818337600083830152505050565b600061309661309184613043565b613028565b9050828152602081018484840111156130b2576130b1612fc3565b5b6130bd848285613074565b509392505050565b600082601f8301126130da576130d9612fbe565b5b81356130ea848260208601613083565b91505092915050565b6000806040838503121561310a57613109612e1c565b5b600083013567ffffffffffffffff81111561312857613127612e21565b5b613134858286016130c5565b925050602083013567ffffffffffffffff81111561315557613154612e21565b5b613161858286016130c5565b9150509250929050565b60006020828403121561318157613180612e1c565b5b600082013567ffffffffffffffff81111561319f5761319e612e21565b5b6131ab848285016130c5565b91505092915050565b6131bd81612e46565b82525050565b60006020820190506131d860008301846131b4565b92915050565b600060208201905081810360008301526131f88184612f47565b905092915050565b61320981612dde565b811461321457600080fd5b50565b60008135905061322681613200565b92915050565b60006020828403121561324257613241612e1c565b5b600061325084828501613217565b91505092915050565b600080604083850312156132705761326f612e1c565b5b600061327e85828601612e6f565b925050602083013567ffffffffffffffff81111561329f5761329e612e21565b5b6132ab858286016130c5565b9150509250929050565b7f4e487b7100000000000000000000000000000000000000000000000000000000600052602260045260246000fd5b600060028204905060018216806132fc57607f821691505b60208210810361330f5761330e6132b5565b5b50919050565b7f73656e646572206973206e6f742070617469656e740000000000000000000000600082015250565b600061334b601583612ef2565b915061335682613315565b602082019050919050565b6000602082019050818103600083015261337a8161333e565b9050919050565b600081905092915050565b600061339782612ee7565b6133a18185613381565b93506133b1818560208601612f03565b80840191505092915050565b60006133c9828461338c565b915081905092915050565b7f4e6f7420612076616c6964206164647265737300000000000000000000000000600082015250565b600061340a601383612ef2565b9150613415826133d4565b602082019050919050565b60006020820190508181036000830152613439816133fd565b9050919050565b7f4e487b7100000000000000000000000000000000000000000000000000000000600052603260045260246000fd5b7f4e487b7100000000000000000000000000000000000000000000000000000000600052601160045260246000fd5b60006134a982612dde565b91506134b483612dde565b9250828210156134c7576134c661346f565b5b828203905092915050565b60006134dd82612dde565b9150600082036134f0576134ef61346f565b5b600182039050919050565b7f4e487b7100000000000000000000000000000000000000000000000000000000600052603160045260246000fd5b600061353582612dde565b91507fffffffffffffffffffffffffffffffffffffffffffffffffffffffffffffffff82036135675761356661346f565b5b600182019050919050565b7f696e76616c696420726571756573740000000000000000000000000000000000600082015250565b60006135a8600f83612ef2565b91506135b382613572565b602082019050919050565b600060208201905081810360008301526135d78161359b565b9050919050565b7f6e6f7420612070617469656e7400000000000000000000000000000000000000600082015250565b6000613614600d83612ef2565b915061361f826135de565b602082019050919050565b6000602082019050818103600083015261364381613607565b9050919050565b7f6e6f7420612070617469656e7427732069640000000000000000000000000000600082015250565b6000613680601283612ef2565b915061368b8261364a565b602082019050919050565b600060208201905081810360008301526136af81613673565b9050919050565b7f74727920796f7572206964000000000000000000000000000000000000000000600082015250565b60006136ec600b83612ef2565b91506136f7826136b6565b602082019050919050565b6000602082019050818103600083015261371b816136df565b9050919050565b7f6e6f74206120776f726b65720000000000000000000000000000000000000000600082015250565b6000613758600c83612ef2565b915061376382613722565b602082019050919050565b600060208201905081810360008301526137878161374b565b9050919050565b7f6e6f7420616c6c6f776564000000000000000000000000000000000000000000600082015250565b60006137c4600b83612ef2565b91506137cf8261378e565b602082019050919050565b600060208201905081810360008301526137f3816137b7565b9050919050565b6000613806828561338c565b9150613812828461338c565b91508190509392505050565b60008190508160005260206000209050919050565b60006020601f8301049050919050565b600082821b905092915050565b6000600883026138807fffffffffffffffffffffffffffffffffffffffffffffffffffffffffffffffff82613843565b61388a8683613843565b95508019841693508086168417925050509392505050565b6000819050919050565b60006138c76138c26138bd84612dde565b6138a2565b612dde565b9050919050565b6000819050919050565b6138e1836138ac565b6138f56138ed826138ce565b848454613850565b825550505050565b600090565b61390a6138fd565b6139158184846138d8565b505050565b5b818110156139395761392e600082613902565b60018101905061391b565b5050565b601f82111561397e5761394f8161381e565b61395884613833565b81016020851015613967578190505b61397b61397385613833565b83018261391a565b50505b505050565b600082821c905092915050565b60006139a160001984600802613983565b1980831691505092915050565b60006139ba8383613990565b9150826002028217905092915050565b6139d382612ee7565b67ffffffffffffffff8111156139ec576139eb612fc8565b5b6139f682546132e4565b613a0182828561393d565b600060209050601f831160018114613a345760008415613a22578287015190505b613a2c85826139ae565b865550613a94565b601f198416613a428661381e565b60005b82811015613a6a57848901518255600182019150602085019450602081019050613a45565b86831015613a875784890151613a83601f891682613990565b8355505b6001600288020188555050505b505050505050565b7f73656e646572206973206e6f74206f776e657200000000000000000000000000600082015250565b6000613ad2601383612ef2565b9150613add82613a9c565b602082019050919050565b60006020820190508181036000830152613b0181613ac5565b9050919050565b7f6e756c6c206164647265737320666f756e640000000000000000000000000000600082015250565b6000613b3e601283612ef2565b9150613b4982613b08565b602082019050919050565b60006020820190508181036000830152613b6d81613b31565b9050919050565b7f7072652d6578697374696e672061646472657373000000000000000000000000600082015250565b6000613baa601483612ef2565b9150613bb582613b74565b602082019050919050565b60006020820190508181036000830152613bd981613b9d565b9050919050565b7f756e617574686f72697a65642061636365737300000000000000000000000000600082015250565b6000613c16601383612ef2565b9150613c2182613be0565b602082019050919050565b60006020820190508181036000830152613c4581613c09565b9050919050565b7f4e487b7100000000000000000000000000000000000000000000000000000000600052601260045260246000fd5b6000613c8682612dde565b9150613c9183612dde565b925082613ca157613ca0613c4c565b5b828204905092915050565b6000613cb782612dde565b9150613cc283612dde565b925082613cd257613cd1613c4c565b5b828206905092915050565b6000613ce882612dde565b9150613cf383612dde565b9250827fffffffffffffffffffffffffffffffffffffffffffffffffffffffffffffffff03821115613d2857613d2761346f565b5b82820190509291505056fea2646970667358221220a4530510c7cd7a949c282b4e76a821499c5db55641063bf0ab9492aeab233c4964736f6c634300080f0033",
  "immutableReferences": {},
  "source": "// SPDX-License-Identifier: MIT\r\npragma solidity ^0.8;\r\nimport \"./details.sol\";\r\n\r\ncontract permission is details{\r\n\r\n    // patient adds or removes the insti who can update their medical report\r\n    // patient adds or removes the insti who can update their medical report\r\n    function modifyStatus(string memory _id,string memory status)\r\n        public \r\n        onlyPatient  \r\n    {\r\n        address _address = Id[_id];\r\n        // checks weather the entered id of lab or hospital\r\n        require(isLab[_address] || isHospital[_address],\"Not a valid address\");\r\n        bool ok = false;\r\n        bool bad = false;\r\n        for(uint256 i=0; i<record[msg.sender].permitted.length; i++){\r\n            if(record[msg.sender].permitted[i] == _address && compareStrings(status,\"approve\")){\r\n                bad = true;\r\n                break;\r\n            }\r\n            \r\n            if(record[msg.sender].permitted[i] == _address && compareStrings(status,\"remove\")){\r\n                uint256 n = record[msg.sender].permitted.length;\r\n                record[msg.sender].permitted[i] = record[msg.sender].permitted[n-1];\r\n                record[msg.sender].credit--;\r\n                record[msg.sender].permitted.pop();\r\n                ok = true;\r\n                break;\r\n            }\r\n        }\r\n        if(!bad && compareStrings(status,\"approve\")){\r\n            record[msg.sender].permitted.push(_address);\r\n            record[msg.sender].credit++;\r\n            ok = true;\r\n        }\r\n        require(ok, \"invalid request\");\r\n        \r\n\r\n    }\r\n\r\n    \r\n\r\n}",
  "sourcePath": "D:\\ri\\ehr\\contracts\\permission.sol",
  "compiler": {
    "name": "solc",
    "version": "0.8.15+commit.e14f2714.Emscripten.clang"
  },
  "schemaVersion": "3.4.8",
  "updatedAt": "2022-09-24T16:36:10.338Z",
  "devdoc": {
    "kind": "dev",
    "methods": {},
    "version": 1
  },
  "userdoc": {
    "kind": "user",
    "methods": {},
    "version": 1
  }
}