{
  "contractName": "permission",
  "abi": [
    {
      "inputs": [
        {
          "internalType": "address",
          "name": "",
          "type": "address"
        }
      ],
      "name": "Address",
      "outputs": [
        {
          "internalType": "string",
          "name": "",
          "type": "string"
        }
      ],
      "stateMutability": "view",
      "type": "function"
    },
    {
      "inputs": [
        {
          "internalType": "string",
          "name": "",
          "type": "string"
        }
      ],
      "name": "Id",
      "outputs": [
        {
          "internalType": "address",
          "name": "",
          "type": "address"
        }
      ],
      "stateMutability": "view",
      "type": "function"
    },
    {
      "inputs": [
        {
          "internalType": "address",
          "name": "_address",
          "type": "address"
        },
        {
          "internalType": "string",
          "name": "category",
          "type": "string"
        }
      ],
      "name": "addClient",
      "outputs": [],
      "stateMutability": "nonpayable",
      "type": "function"
    },
    {
      "inputs": [
        {
          "internalType": "address",
          "name": "_address",
          "type": "address"
        }
      ],
      "name": "addEmployee",
      "outputs": [],
      "stateMutability": "nonpayable",
      "type": "function"
    },
    {
      "inputs": [
        {
          "internalType": "string",
          "name": "a",
          "type": "string"
        },
        {
          "internalType": "string",
          "name": "b",
          "type": "string"
        }
      ],
      "name": "compareStrings",
      "outputs": [
        {
          "internalType": "bool",
          "name": "",
          "type": "bool"
        }
      ],
      "stateMutability": "pure",
      "type": "function"
    },
    {
      "inputs": [
        {
          "internalType": "string",
          "name": "a",
          "type": "string"
        },
        {
          "internalType": "string",
          "name": "b",
          "type": "string"
        }
      ],
      "name": "concat",
      "outputs": [
        {
          "internalType": "string",
          "name": "",
          "type": "string"
        }
      ],
      "stateMutability": "pure",
      "type": "function"
    },
    {
      "inputs": [
        {
          "internalType": "address",
          "name": "",
          "type": "address"
        }
      ],
      "name": "confirmedBy",
      "outputs": [
        {
          "internalType": "bool",
          "name": "",
          "type": "bool"
        }
      ],
      "stateMutability": "view",
      "type": "function"
    },
    {
      "inputs": [],
      "name": "doctorCnt",
      "outputs": [
        {
          "internalType": "uint256",
          "name": "",
          "type": "uint256"
        }
      ],
      "stateMutability": "view",
      "type": "function"
    },
    {
      "inputs": [
        {
          "internalType": "string",
          "name": "_id",
          "type": "string"
        }
      ],
      "name": "getCreditScore",
      "outputs": [
        {
          "internalType": "uint256",
          "name": "",
          "type": "uint256"
        }
      ],
      "stateMutability": "view",
      "type": "function"
    },
    {
      "inputs": [
        {
          "internalType": "string",
          "name": "_id",
          "type": "string"
        }
      ],
      "name": "getPersonalInfoHash",
      "outputs": [
        {
          "internalType": "string",
          "name": "",
          "type": "string"
        }
      ],
      "stateMutability": "view",
      "type": "function"
    },
    {
      "inputs": [],
      "name": "hospitalCnt",
      "outputs": [
        {
          "internalType": "uint256",
          "name": "",
          "type": "uint256"
        }
      ],
      "stateMutability": "view",
      "type": "function"
    },
    {
      "inputs": [
        {
          "internalType": "address",
          "name": "",
          "type": "address"
        }
      ],
      "name": "isDoctor",
      "outputs": [
        {
          "internalType": "bool",
          "name": "",
          "type": "bool"
        }
      ],
      "stateMutability": "view",
      "type": "function"
    },
    {
      "inputs": [
        {
          "internalType": "address",
          "name": "",
          "type": "address"
        }
      ],
      "name": "isHospital",
      "outputs": [
        {
          "internalType": "bool",
          "name": "",
          "type": "bool"
        }
      ],
      "stateMutability": "view",
      "type": "function"
    },
    {
      "inputs": [
        {
          "internalType": "address",
          "name": "",
          "type": "address"
        }
      ],
      "name": "isLab",
      "outputs": [
        {
          "internalType": "bool",
          "name": "",
          "type": "bool"
        }
      ],
      "stateMutability": "view",
      "type": "function"
    },
    {
      "inputs": [
        {
          "internalType": "address",
          "name": "",
          "type": "address"
        }
      ],
      "name": "isOwner",
      "outputs": [
        {
          "internalType": "bool",
          "name": "",
          "type": "bool"
        }
      ],
      "stateMutability": "view",
      "type": "function"
    },
    {
      "inputs": [
        {
          "internalType": "address",
          "name": "",
          "type": "address"
        }
      ],
      "name": "isPatient",
      "outputs": [
        {
          "internalType": "bool",
          "name": "",
          "type": "bool"
        }
      ],
      "stateMutability": "view",
      "type": "function"
    },
    {
      "inputs": [
        {
          "internalType": "address",
          "name": "",
          "type": "address"
        }
      ],
      "name": "isTech",
      "outputs": [
        {
          "internalType": "bool",
          "name": "",
          "type": "bool"
        }
      ],
      "stateMutability": "view",
      "type": "function"
    },
    {
      "inputs": [],
      "name": "labCnt",
      "outputs": [
        {
          "internalType": "uint256",
          "name": "",
          "type": "uint256"
        }
      ],
      "stateMutability": "view",
      "type": "function"
    },
    {
      "inputs": [],
      "name": "patientCnt",
      "outputs": [
        {
          "internalType": "uint256",
          "name": "",
          "type": "uint256"
        }
      ],
      "stateMutability": "view",
      "type": "function"
    },
    {
      "inputs": [
        {
          "internalType": "address",
          "name": "",
          "type": "address"
        }
      ],
      "name": "record",
      "outputs": [
        {
          "internalType": "string",
          "name": "personalInfoHash",
          "type": "string"
        },
        {
          "internalType": "uint256",
          "name": "credit",
          "type": "uint256"
        },
        {
          "internalType": "uint256",
          "name": "totalRecord",
          "type": "uint256"
        }
      ],
      "stateMutability": "view",
      "type": "function"
    },
    {
      "inputs": [
        {
          "internalType": "string",
          "name": "_pinfo",
          "type": "string"
        }
      ],
      "name": "setPersonalInfoHash",
      "outputs": [],
      "stateMutability": "nonpayable",
      "type": "function"
    },
    {
      "inputs": [],
      "name": "techCnt",
      "outputs": [
        {
          "internalType": "uint256",
          "name": "",
          "type": "uint256"
        }
      ],
      "stateMutability": "view",
      "type": "function"
    },
    {
      "inputs": [
        {
          "internalType": "uint256",
          "name": "_reportId",
          "type": "uint256"
        }
      ],
      "name": "totalConfirmation",
      "outputs": [
        {
          "internalType": "uint256",
          "name": "",
          "type": "uint256"
        }
      ],
      "stateMutability": "view",
      "type": "function"
    },
    {
      "inputs": [
        {
          "internalType": "uint256",
          "name": "_reportId",
          "type": "uint256"
        }
      ],
      "name": "totalConsulation",
      "outputs": [
        {
          "internalType": "uint256",
          "name": "",
          "type": "uint256"
        }
      ],
      "stateMutability": "view",
      "type": "function"
    },
    {
      "inputs": [
        {
          "internalType": "address",
          "name": "",
          "type": "address"
        }
      ],
      "name": "worksAt",
      "outputs": [
        {
          "internalType": "address",
          "name": "",
          "type": "address"
        }
      ],
      "stateMutability": "view",
      "type": "function"
    },
    {
      "inputs": [
        {
          "internalType": "string",
          "name": "t",
          "type": "string"
        },
        {
          "internalType": "string",
          "name": "_id",
          "type": "string"
        }
      ],
      "name": "appprove",
      "outputs": [],
      "stateMutability": "nonpayable",
      "type": "function"
    },
    {
      "inputs": [
        {
          "internalType": "string",
          "name": "_id",
          "type": "string"
        }
      ],
      "name": "remove",
      "outputs": [],
      "stateMutability": "nonpayable",
      "type": "function"
    }
  ],
  "bytecode": "0x608060405260008055600060015560006002556000600355600060045534801561002857600080fd5b50613be6806100386000396000f3fe608060405234801561001057600080fd5b50600436106101a95760003560e01c80638f9c79ed116100f9578063bfa28ff111610097578063e4ded01111610071578063e4ded01114610556578063eac8aa6214610586578063ebfb412d146105b6578063f3cb8c31146105e6576101a9565b8063bfa28ff1146104da578063ce64eac11461050a578063e292ec081461053a576101a9565b8063ac2018e5116100d3578063ac2018e51461043e578063b89895f21461045c578063bdf6c6731461047a578063bed34bba146104aa576101a9565b80638f9c79ed146103c25780638fc7043f146103f2578063996440c61461040e576101a9565b80634761658e116101665780635e390880116101405780635e3908801461032857806360ebd6901461035857806380599e4b1461037657806389c19ddb14610392576101a9565b80634761658e1461029857806349d8fea1146102c85780635070bd1f146102f8576101a9565b8063162dd8ae146101ae5780631b9d1154146101ca5780632f54bf6e146101e85780633465d6d51461021857806339f0b1381461024a5780633eb23e691461027a575b600080fd5b6101c860048036038101906101c39190612e8d565b610602565b005b6101d2610a02565b6040516101df9190612f1e565b60405180910390f35b61020260048036038101906101fd9190612f97565b610a08565b60405161020f9190612fdf565b60405180910390f35b610232600480360381019061022d9190612f97565b610a28565b60405161024193929190613082565b60405180910390f35b610264600480360381019061025f91906130c0565b610ada565b6040516102719190613118565b60405180910390f35b610282610b23565b60405161028f9190612f1e565b60405180910390f35b6102b260048036038101906102ad91906130c0565b610b29565b6040516102bf9190613133565b60405180910390f35b6102e260048036038101906102dd91906130c0565b61103d565b6040516102ef9190612f1e565b60405180910390f35b610312600480360381019061030d9190612f97565b611158565b60405161031f9190612fdf565b60405180910390f35b610342600480360381019061033d9190612f97565b611178565b60405161034f9190612fdf565b60405180910390f35b610360611198565b60405161036d9190612f1e565b60405180910390f35b610390600480360381019061038b91906130c0565b61119e565b005b6103ac60048036038101906103a79190612e8d565b611755565b6040516103b99190613133565b60405180910390f35b6103dc60048036038101906103d79190612f97565b611781565b6040516103e99190612fdf565b60405180910390f35b61040c600480360381019061040791906130c0565b6117a1565b005b61042860048036038101906104239190612f97565b611880565b6040516104359190612fdf565b60405180910390f35b6104466118a0565b6040516104539190612f1e565b60405180910390f35b6104646118a6565b6040516104719190612f1e565b60405180910390f35b610494600480360381019061048f9190612f97565b6118ac565b6040516104a19190612fdf565b60405180910390f35b6104c460048036038101906104bf9190612e8d565b6118cc565b6040516104d19190612fdf565b60405180910390f35b6104f460048036038101906104ef9190613181565b611925565b6040516105019190612f1e565b60405180910390f35b610524600480360381019061051f9190612f97565b611a17565b6040516105319190612fdf565b60405180910390f35b610554600480360381019061054f91906131ae565b611a37565b005b610570600480360381019061056b9190613181565b612295565b60405161057d9190612f1e565b60405180910390f35b6105a0600480360381019061059b9190612f97565b612387565b6040516105ad9190613118565b60405180910390f35b6105d060048036038101906105cb9190612f97565b6123ba565b6040516105dd9190613133565b60405180910390f35b61060060048036038101906105fb9190612f97565b61245a565b005b600660003373ffffffffffffffffffffffffffffffffffffffff1673ffffffffffffffffffffffffffffffffffffffff16815260200190815260200160002060009054906101000a900460ff1661068e576040517f08c379a000000000000000000000000000000000000000000000000000000000815260040161068590613256565b60405180910390fd5b6000600b826040516106a091906132b2565b908152602001604051809103902060009054906101000a900473ffffffffffffffffffffffffffffffffffffffff169050610710836040518060400160405280600181526020017f68000000000000000000000000000000000000000000000000000000000000008152506118cc565b156107a257600560008273ffffffffffffffffffffffffffffffffffffffff1673ffffffffffffffffffffffffffffffffffffffff16815260200190815260200160002060009054906101000a900460ff166107a1576040517f08c379a000000000000000000000000000000000000000000000000000000000815260040161079890613315565b60405180910390fd5b5b600760008273ffffffffffffffffffffffffffffffffffffffff1673ffffffffffffffffffffffffffffffffffffffff16815260200190815260200160002060009054906101000a900460ff16806108435750600560008273ffffffffffffffffffffffffffffffffffffffff1673ffffffffffffffffffffffffffffffffffffffff16815260200190815260200160002060009054906101000a900460ff165b610882576040517f08c379a000000000000000000000000000000000000000000000000000000000815260040161087990613381565b60405180910390fd5b61088a612d01565b81816000019073ffffffffffffffffffffffffffffffffffffffff16908173ffffffffffffffffffffffffffffffffffffffff16815250506001816020019015159081151581525050600e60003373ffffffffffffffffffffffffffffffffffffffff1673ffffffffffffffffffffffffffffffffffffffff168152602001908152602001600020600201819080600181540180825580915050600190039060005260206000200160009091909190915060008201518160000160006101000a81548173ffffffffffffffffffffffffffffffffffffffff021916908373ffffffffffffffffffffffffffffffffffffffff16021790555060208201518160000160146101000a81548160ff0219169083151502179055505050600e60003373ffffffffffffffffffffffffffffffffffffffff1673ffffffffffffffffffffffffffffffffffffffff16815260200190815260200160002060030160008154809291906109f7906133d0565b919050555050505050565b60015481565b600a6020528060005260406000206000915054906101000a900460ff1681565b600e602052806000526040600020600091509050806000018054610a4b90613447565b80601f0160208091040260200160405190810160405280929190818152602001828054610a7790613447565b8015610ac45780601f10610a9957610100808354040283529160200191610ac4565b820191906000526020600020905b815481529060010190602001808311610aa757829003601f168201915b5050505050908060030154908060040154905083565b600b818051602081018201805184825260208301602085012081835280955050505050506000915054906101000a900473ffffffffffffffffffffffffffffffffffffffff1681565b60025481565b6060600c60003373ffffffffffffffffffffffffffffffffffffffff1673ffffffffffffffffffffffffffffffffffffffff16815260200190815260200160002060009054906101000a900473ffffffffffffffffffffffffffffffffffffffff16826000600b82604051610b9e91906132b2565b908152602001604051809103902060009054906101000a900473ffffffffffffffffffffffffffffffffffffffff169050600560008473ffffffffffffffffffffffffffffffffffffffff1673ffffffffffffffffffffffffffffffffffffffff16815260200190815260200160002060009054906101000a900460ff1680610c705750600760008473ffffffffffffffffffffffffffffffffffffffff1673ffffffffffffffffffffffffffffffffffffffff16815260200190815260200160002060009054906101000a900460ff165b610caf576040517f08c379a0000000000000000000000000000000000000000000000000000000008152600401610ca6906134c4565b60405180910390fd5b6000805b600e60008473ffffffffffffffffffffffffffffffffffffffff1673ffffffffffffffffffffffffffffffffffffffff16815260200190815260200160002060020180549050811015610e56576000600e60008573ffffffffffffffffffffffffffffffffffffffff1673ffffffffffffffffffffffffffffffffffffffff1681526020019081526020016000206002018281548110610d5657610d556134e4565b5b9060005260206000200160000160009054906101000a900473ffffffffffffffffffffffffffffffffffffffff1690506000600e60008673ffffffffffffffffffffffffffffffffffffffff1673ffffffffffffffffffffffffffffffffffffffff1681526020019081526020016000206002018381548110610ddc57610ddb6134e4565b5b9060005260206000200160000160149054906101000a900460ff1690508673ffffffffffffffffffffffffffffffffffffffff168273ffffffffffffffffffffffffffffffffffffffff16148015610e315750805b15610e4157600193505050610e56565b50508080610e4e906133d0565b915050610cb3565b5080610e97576040517f08c379a0000000000000000000000000000000000000000000000000000000008152600401610e8e906134c4565b60405180910390fd5b6000600b87604051610ea991906132b2565b908152602001604051809103902060009054906101000a900473ffffffffffffffffffffffffffffffffffffffff169050600660008273ffffffffffffffffffffffffffffffffffffffff1673ffffffffffffffffffffffffffffffffffffffff16815260200190815260200160002060009054906101000a900460ff16610f66576040517f08c379a0000000000000000000000000000000000000000000000000000000008152600401610f5d9061355f565b60405180910390fd5b600e60008273ffffffffffffffffffffffffffffffffffffffff1673ffffffffffffffffffffffffffffffffffffffff1681526020019081526020016000206000018054610fb390613447565b80601f0160208091040260200160405190810160405280929190818152602001828054610fdf90613447565b801561102c5780601f106110015761010080835404028352916020019161102c565b820191906000526020600020905b81548152906001019060200180831161100f57829003601f168201915b505050505095505050505050919050565b600080600b8360405161105091906132b2565b908152602001604051809103902060009054906101000a900473ffffffffffffffffffffffffffffffffffffffff169050600660008273ffffffffffffffffffffffffffffffffffffffff1673ffffffffffffffffffffffffffffffffffffffff16815260200190815260200160002060009054906101000a900460ff1661110d576040517f08c379a00000000000000000000000000000000000000000000000000000000081526004016111049061355f565b60405180910390fd5b600e60008273ffffffffffffffffffffffffffffffffffffffff1673ffffffffffffffffffffffffffffffffffffffff16815260200190815260200160002060030154915050919050565b600f6020528060005260406000206000915054906101000a900460ff1681565b60076020528060005260406000206000915054906101000a900460ff1681565b60035481565b600660003373ffffffffffffffffffffffffffffffffffffffff1673ffffffffffffffffffffffffffffffffffffffff16815260200190815260200160002060009054906101000a900460ff1661122a576040517f08c379a000000000000000000000000000000000000000000000000000000000815260040161122190613256565b60405180910390fd5b6000600b8260405161123c91906132b2565b908152602001604051809103902060009054906101000a900473ffffffffffffffffffffffffffffffffffffffff1690506000600760008373ffffffffffffffffffffffffffffffffffffffff1673ffffffffffffffffffffffffffffffffffffffff16815260200190815260200160002060009054906101000a900460ff16806113105750600560008373ffffffffffffffffffffffffffffffffffffffff1673ffffffffffffffffffffffffffffffffffffffff16815260200190815260200160002060009054906101000a900460ff165b61134f576040517f08c379a000000000000000000000000000000000000000000000000000000000815260040161134690613381565b60405180910390fd5b60005b600e60003373ffffffffffffffffffffffffffffffffffffffff1673ffffffffffffffffffffffffffffffffffffffff1681526020019081526020016000206002018054905081101561170f578273ffffffffffffffffffffffffffffffffffffffff16600e60003373ffffffffffffffffffffffffffffffffffffffff1673ffffffffffffffffffffffffffffffffffffffff168152602001908152602001600020600201828154811061140a576114096134e4565b5b9060005260206000200160000160009054906101000a900473ffffffffffffffffffffffffffffffffffffffff1673ffffffffffffffffffffffffffffffffffffffff16036116fc576000600e60003373ffffffffffffffffffffffffffffffffffffffff1673ffffffffffffffffffffffffffffffffffffffff168152602001908152602001600020600201805490509050600e60003373ffffffffffffffffffffffffffffffffffffffff1673ffffffffffffffffffffffffffffffffffffffff1681526020019081526020016000206002016001826114ec919061357f565b815481106114fd576114fc6134e4565b5b90600052602060002001600e60003373ffffffffffffffffffffffffffffffffffffffff1673ffffffffffffffffffffffffffffffffffffffff168152602001908152602001600020600201838154811061155b5761155a6134e4565b5b906000526020600020016000820160009054906101000a900473ffffffffffffffffffffffffffffffffffffffff168160000160006101000a81548173ffffffffffffffffffffffffffffffffffffffff021916908373ffffffffffffffffffffffffffffffffffffffff1602179055506000820160149054906101000a900460ff168160000160146101000a81548160ff021916908315150217905550905050600e60003373ffffffffffffffffffffffffffffffffffffffff1673ffffffffffffffffffffffffffffffffffffffff168152602001908152602001600020600301600081548092919061164f906135b3565b9190505550600e60003373ffffffffffffffffffffffffffffffffffffffff1673ffffffffffffffffffffffffffffffffffffffff1681526020019081526020016000206002018054806116a6576116a56135dc565b5b60019003818190600052602060002001600080820160006101000a81549073ffffffffffffffffffffffffffffffffffffffff02191690556000820160146101000a81549060ff02191690555050905560019250505b8080611707906133d0565b915050611352565b5080611750576040517f08c379a000000000000000000000000000000000000000000000000000000000815260040161174790613657565b60405180910390fd5b505050565b6060828260405160200161176a929190613677565b604051602081830303815290604052905092915050565b60066020528060005260406000206000915054906101000a900460ff1681565b600660003373ffffffffffffffffffffffffffffffffffffffff1673ffffffffffffffffffffffffffffffffffffffff16815260200190815260200160002060009054906101000a900460ff1661182d576040517f08c379a000000000000000000000000000000000000000000000000000000000815260040161182490613256565b60405180910390fd5b80600e60003373ffffffffffffffffffffffffffffffffffffffff1673ffffffffffffffffffffffffffffffffffffffff168152602001908152602001600020600001908161187c9190613847565b5050565b60086020528060005260406000206000915054906101000a900460ff1681565b60005481565b60045481565b60056020528060005260406000206000915054906101000a900460ff1681565b6000816040516020016118df91906132b2565b604051602081830303815290604052805190602001208360405160200161190691906132b2565b6040516020818303038152906040528051906020012014905092915050565b6000600660003373ffffffffffffffffffffffffffffffffffffffff1673ffffffffffffffffffffffffffffffffffffffff16815260200190815260200160002060009054906101000a900460ff166119b3576040517f08c379a00000000000000000000000000000000000000000000000000000000081526004016119aa9061355f565b60405180910390fd5b6000600e60003373ffffffffffffffffffffffffffffffffffffffff1673ffffffffffffffffffffffffffffffffffffffff168152602001908152602001600020600101600084815260200190815260200160002060020154905080915050919050565b60096020528060005260406000206000915054906101000a900460ff1681565b600a60003373ffffffffffffffffffffffffffffffffffffffff1673ffffffffffffffffffffffffffffffffffffffff16815260200190815260200160002060009054906101000a900460ff16611ac3576040517f08c379a0000000000000000000000000000000000000000000000000000000008152600401611aba90613965565b60405180910390fd5b81600073ffffffffffffffffffffffffffffffffffffffff168173ffffffffffffffffffffffffffffffffffffffff1603611b33576040517f08c379a0000000000000000000000000000000000000000000000000000000008152600401611b2a906139d1565b60405180910390fd5b600860008273ffffffffffffffffffffffffffffffffffffffff1673ffffffffffffffffffffffffffffffffffffffff16815260200190815260200160002060009054906101000a900460ff16158015611bd75750600960008273ffffffffffffffffffffffffffffffffffffffff1673ffffffffffffffffffffffffffffffffffffffff16815260200190815260200160002060009054906101000a900460ff16155b8015611c2d5750600760008273ffffffffffffffffffffffffffffffffffffffff1673ffffffffffffffffffffffffffffffffffffffff16815260200190815260200160002060009054906101000a900460ff16155b8015611c835750600660008273ffffffffffffffffffffffffffffffffffffffff1673ffffffffffffffffffffffffffffffffffffffff16815260200190815260200160002060009054906101000a900460ff16155b8015611cd95750600a60008273ffffffffffffffffffffffffffffffffffffffff1673ffffffffffffffffffffffffffffffffffffffff16815260200190815260200160002060009054906101000a900460ff16155b8015611d2f5750600560008273ffffffffffffffffffffffffffffffffffffffff1673ffffffffffffffffffffffffffffffffffffffff16815260200190815260200160002060009054906101000a900460ff16155b611d6e576040517f08c379a0000000000000000000000000000000000000000000000000000000008152600401611d6590613a3d565b60405180910390fd5b611dad826040518060400160405280600881526020017f686f73706974616c0000000000000000000000000000000000000000000000008152506118cc565b15611f25576001600560008573ffffffffffffffffffffffffffffffffffffffff1673ffffffffffffffffffffffffffffffffffffffff16815260200190815260200160002060006101000a81548160ff02191690831515021790555060016000815480929190611e1d906133d0565b91905055506000611e2f600154612b9b565b90506000611e726040518060400160405280600181526020017f680000000000000000000000000000000000000000000000000000000000000081525083611755565b905084600b82604051611e8591906132b2565b908152602001604051809103902060006101000a81548173ffffffffffffffffffffffffffffffffffffffff021916908373ffffffffffffffffffffffffffffffffffffffff16021790555080600d60008773ffffffffffffffffffffffffffffffffffffffff1673ffffffffffffffffffffffffffffffffffffffff1681526020019081526020016000209081611f1d9190613847565b505050612290565b611f64826040518060400160405280600381526020017f6c616200000000000000000000000000000000000000000000000000000000008152506118cc565b156120dc576001600760008573ffffffffffffffffffffffffffffffffffffffff1673ffffffffffffffffffffffffffffffffffffffff16815260200190815260200160002060006101000a81548160ff02191690831515021790555060046000815480929190611fd4906133d0565b91905055506000611fe6600454612b9b565b905060006120296040518060400160405280600181526020017f6c0000000000000000000000000000000000000000000000000000000000000081525083611755565b905084600b8260405161203c91906132b2565b908152602001604051809103902060006101000a81548173ffffffffffffffffffffffffffffffffffffffff021916908373ffffffffffffffffffffffffffffffffffffffff16021790555080600d60008773ffffffffffffffffffffffffffffffffffffffff1673ffffffffffffffffffffffffffffffffffffffff16815260200190815260200160002090816120d49190613847565b50505061228f565b61211b826040518060400160405280600781526020017f70617469656e74000000000000000000000000000000000000000000000000008152506118cc565b1561228e576001600660008573ffffffffffffffffffffffffffffffffffffffff1673ffffffffffffffffffffffffffffffffffffffff16815260200190815260200160002060006101000a81548160ff02191690831515021790555060008081548092919061218a906133d0565b9190505550600061219c600054612b9b565b905060006121df6040518060400160405280600181526020017f700000000000000000000000000000000000000000000000000000000000000081525083611755565b905084600b826040516121f291906132b2565b908152602001604051809103902060006101000a81548173ffffffffffffffffffffffffffffffffffffffff021916908373ffffffffffffffffffffffffffffffffffffffff16021790555080600d60008773ffffffffffffffffffffffffffffffffffffffff1673ffffffffffffffffffffffffffffffffffffffff168152602001908152602001600020908161228a9190613847565b5050505b5b5b505050565b6000600660003373ffffffffffffffffffffffffffffffffffffffff1673ffffffffffffffffffffffffffffffffffffffff16815260200190815260200160002060009054906101000a900460ff16612323576040517f08c379a000000000000000000000000000000000000000000000000000000000815260040161231a9061355f565b60405180910390fd5b6000600e60003373ffffffffffffffffffffffffffffffffffffffff1673ffffffffffffffffffffffffffffffffffffffff168152602001908152602001600020600101600084815260200190815260200160002060010154905080915050919050565b600c6020528060005260406000206000915054906101000a900473ffffffffffffffffffffffffffffffffffffffff1681565b600d60205280600052604060002060009150905080546123d990613447565b80601f016020809104026020016040519081016040528092919081815260200182805461240590613447565b80156124525780601f1061242757610100808354040283529160200191612452565b820191906000526020600020905b81548152906001019060200180831161243557829003601f168201915b505050505081565b80600073ffffffffffffffffffffffffffffffffffffffff168173ffffffffffffffffffffffffffffffffffffffff16036124ca576040517f08c379a00000000000000000000000000000000000000000000000000000000081526004016124c1906139d1565b60405180910390fd5b600860008273ffffffffffffffffffffffffffffffffffffffff1673ffffffffffffffffffffffffffffffffffffffff16815260200190815260200160002060009054906101000a900460ff1615801561256e5750600960008273ffffffffffffffffffffffffffffffffffffffff1673ffffffffffffffffffffffffffffffffffffffff16815260200190815260200160002060009054906101000a900460ff16155b80156125c45750600760008273ffffffffffffffffffffffffffffffffffffffff1673ffffffffffffffffffffffffffffffffffffffff16815260200190815260200160002060009054906101000a900460ff16155b801561261a5750600660008273ffffffffffffffffffffffffffffffffffffffff1673ffffffffffffffffffffffffffffffffffffffff16815260200190815260200160002060009054906101000a900460ff16155b80156126705750600a60008273ffffffffffffffffffffffffffffffffffffffff1673ffffffffffffffffffffffffffffffffffffffff16815260200190815260200160002060009054906101000a900460ff16155b80156126c65750600560008273ffffffffffffffffffffffffffffffffffffffff1673ffffffffffffffffffffffffffffffffffffffff16815260200190815260200160002060009054906101000a900460ff16155b612705576040517f08c379a00000000000000000000000000000000000000000000000000000000081526004016126fc90613a3d565b60405180910390fd5b600560003373ffffffffffffffffffffffffffffffffffffffff1673ffffffffffffffffffffffffffffffffffffffff16815260200190815260200160002060009054906101000a900460ff16806127a65750600760003373ffffffffffffffffffffffffffffffffffffffff1673ffffffffffffffffffffffffffffffffffffffff16815260200190815260200160002060009054906101000a900460ff165b6127e5576040517f08c379a00000000000000000000000000000000000000000000000000000000081526004016127dc90613aa9565b60405180910390fd5b600560003373ffffffffffffffffffffffffffffffffffffffff1673ffffffffffffffffffffffffffffffffffffffff16815260200190815260200160002060009054906101000a900460ff16156129aa576002600081548092919061284a906133d0565b91905055506001600860008473ffffffffffffffffffffffffffffffffffffffff1673ffffffffffffffffffffffffffffffffffffffff16815260200190815260200160002060006101000a81548160ff02191690831515021790555060006128b4600254612b9b565b905060006128f76040518060400160405280600181526020017f640000000000000000000000000000000000000000000000000000000000000081525083611755565b905083600b8260405161290a91906132b2565b908152602001604051809103902060006101000a81548173ffffffffffffffffffffffffffffffffffffffff021916908373ffffffffffffffffffffffffffffffffffffffff16021790555080600d60008673ffffffffffffffffffffffffffffffffffffffff1673ffffffffffffffffffffffffffffffffffffffff16815260200190815260200160002090816129a29190613847565b505050612b19565b6001600960008473ffffffffffffffffffffffffffffffffffffffff1673ffffffffffffffffffffffffffffffffffffffff16815260200190815260200160002060006101000a81548160ff02191690831515021790555060036000815480929190612a15906133d0565b91905055506000612a27600354612b9b565b90506000612a6a6040518060400160405280600181526020017f740000000000000000000000000000000000000000000000000000000000000081525083611755565b905083600b82604051612a7d91906132b2565b908152602001604051809103902060006101000a81548173ffffffffffffffffffffffffffffffffffffffff021916908373ffffffffffffffffffffffffffffffffffffffff16021790555080600d60008673ffffffffffffffffffffffffffffffffffffffff1673ffffffffffffffffffffffffffffffffffffffff1681526020019081526020016000209081612b159190613847565b5050505b33600c60008473ffffffffffffffffffffffffffffffffffffffff1673ffffffffffffffffffffffffffffffffffffffff16815260200190815260200160002060006101000a81548173ffffffffffffffffffffffffffffffffffffffff021916908373ffffffffffffffffffffffffffffffffffffffff1602179055505050565b606060008203612be2576040518060400160405280600181526020017f30000000000000000000000000000000000000000000000000000000000000008152509050612cfc565b600082905060005b60008214612c14578080612bfd906133d0565b915050600a82612c0d9190613af8565b9150612bea565b60008167ffffffffffffffff811115612c3057612c2f612d62565b5b6040519080825280601f01601f191660200182016040528015612c625781602001600182028036833780820191505090505b50905060008290508593505b60008414612cf457600a84612c839190613b29565b6030612c8f9190613b5a565b60f81b8282612c9d906135b3565b92508281518110612cb157612cb06134e4565b5b60200101907effffffffffffffffffffffffffffffffffffffffffffffffffffffffffffff1916908160001a905350600a84612ced9190613af8565b9350612c6e565b819450505050505b919050565b6040518060400160405280600073ffffffffffffffffffffffffffffffffffffffff1681526020016000151581525090565b6000604051905090565b600080fd5b600080fd5b600080fd5b600080fd5b6000601f19601f8301169050919050565b7f4e487b7100000000000000000000000000000000000000000000000000000000600052604160045260246000fd5b612d9a82612d51565b810181811067ffffffffffffffff82111715612db957612db8612d62565b5b80604052505050565b6000612dcc612d33565b9050612dd88282612d91565b919050565b600067ffffffffffffffff821115612df857612df7612d62565b5b612e0182612d51565b9050602081019050919050565b82818337600083830152505050565b6000612e30612e2b84612ddd565b612dc2565b905082815260208101848484011115612e4c57612e4b612d4c565b5b612e57848285612e0e565b509392505050565b600082601f830112612e7457612e73612d47565b5b8135612e84848260208601612e1d565b91505092915050565b60008060408385031215612ea457612ea3612d3d565b5b600083013567ffffffffffffffff811115612ec257612ec1612d42565b5b612ece85828601612e5f565b925050602083013567ffffffffffffffff811115612eef57612eee612d42565b5b612efb85828601612e5f565b9150509250929050565b6000819050919050565b612f1881612f05565b82525050565b6000602082019050612f336000830184612f0f565b92915050565b600073ffffffffffffffffffffffffffffffffffffffff82169050919050565b6000612f6482612f39565b9050919050565b612f7481612f59565b8114612f7f57600080fd5b50565b600081359050612f9181612f6b565b92915050565b600060208284031215612fad57612fac612d3d565b5b6000612fbb84828501612f82565b91505092915050565b60008115159050919050565b612fd981612fc4565b82525050565b6000602082019050612ff46000830184612fd0565b92915050565b600081519050919050565b600082825260208201905092915050565b60005b83811015613034578082015181840152602081019050613019565b83811115613043576000848401525b50505050565b600061305482612ffa565b61305e8185613005565b935061306e818560208601613016565b61307781612d51565b840191505092915050565b6000606082019050818103600083015261309c8186613049565b90506130ab6020830185612f0f565b6130b86040830184612f0f565b949350505050565b6000602082840312156130d6576130d5612d3d565b5b600082013567ffffffffffffffff8111156130f4576130f3612d42565b5b61310084828501612e5f565b91505092915050565b61311281612f59565b82525050565b600060208201905061312d6000830184613109565b92915050565b6000602082019050818103600083015261314d8184613049565b905092915050565b61315e81612f05565b811461316957600080fd5b50565b60008135905061317b81613155565b92915050565b60006020828403121561319757613196612d3d565b5b60006131a58482850161316c565b91505092915050565b600080604083850312156131c5576131c4612d3d565b5b60006131d385828601612f82565b925050602083013567ffffffffffffffff8111156131f4576131f3612d42565b5b61320085828601612e5f565b9150509250929050565b7f73656e646572206973206e6f742070617469656e740000000000000000000000600082015250565b6000613240601583613005565b915061324b8261320a565b602082019050919050565b6000602082019050818103600083015261326f81613233565b9050919050565b600081905092915050565b600061328c82612ffa565b6132968185613276565b93506132a6818560208601613016565b80840191505092915050565b60006132be8284613281565b915081905092915050565b7f4e6f74206120686f73706974616c000000000000000000000000000000000000600082015250565b60006132ff600e83613005565b915061330a826132c9565b602082019050919050565b6000602082019050818103600083015261332e816132f2565b9050919050565b7f4e6f7420612076616c6964206164647265737300000000000000000000000000600082015250565b600061336b601383613005565b915061337682613335565b602082019050919050565b6000602082019050818103600083015261339a8161335e565b9050919050565b7f4e487b7100000000000000000000000000000000000000000000000000000000600052601160045260246000fd5b60006133db82612f05565b91507fffffffffffffffffffffffffffffffffffffffffffffffffffffffffffffffff820361340d5761340c6133a1565b5b600182019050919050565b7f4e487b7100000000000000000000000000000000000000000000000000000000600052602260045260246000fd5b6000600282049050600182168061345f57607f821691505b60208210810361347257613471613418565b5b50919050565b7f6e6f7420616c6c6f776564000000000000000000000000000000000000000000600082015250565b60006134ae600b83613005565b91506134b982613478565b602082019050919050565b600060208201905081810360008301526134dd816134a1565b9050919050565b7f4e487b7100000000000000000000000000000000000000000000000000000000600052603260045260246000fd5b7f6e6f7420612070617469656e7400000000000000000000000000000000000000600082015250565b6000613549600d83613005565b915061355482613513565b602082019050919050565b600060208201905081810360008301526135788161353c565b9050919050565b600061358a82612f05565b915061359583612f05565b9250828210156135a8576135a76133a1565b5b828203905092915050565b60006135be82612f05565b9150600082036135d1576135d06133a1565b5b600182039050919050565b7f4e487b7100000000000000000000000000000000000000000000000000000000600052603160045260246000fd5b7f696e76616c696420726571756573740000000000000000000000000000000000600082015250565b6000613641600f83613005565b915061364c8261360b565b602082019050919050565b6000602082019050818103600083015261367081613634565b9050919050565b60006136838285613281565b915061368f8284613281565b91508190509392505050565b60008190508160005260206000209050919050565b60006020601f8301049050919050565b600082821b905092915050565b6000600883026136fd7fffffffffffffffffffffffffffffffffffffffffffffffffffffffffffffffff826136c0565b61370786836136c0565b95508019841693508086168417925050509392505050565b6000819050919050565b600061374461373f61373a84612f05565b61371f565b612f05565b9050919050565b6000819050919050565b61375e83613729565b61377261376a8261374b565b8484546136cd565b825550505050565b600090565b61378761377a565b613792818484613755565b505050565b5b818110156137b6576137ab60008261377f565b600181019050613798565b5050565b601f8211156137fb576137cc8161369b565b6137d5846136b0565b810160208510156137e4578190505b6137f86137f0856136b0565b830182613797565b50505b505050565b600082821c905092915050565b600061381e60001984600802613800565b1980831691505092915050565b6000613837838361380d565b9150826002028217905092915050565b61385082612ffa565b67ffffffffffffffff81111561386957613868612d62565b5b6138738254613447565b61387e8282856137ba565b600060209050601f8311600181146138b1576000841561389f578287015190505b6138a9858261382b565b865550613911565b601f1984166138bf8661369b565b60005b828110156138e7578489015182556001820191506020850194506020810190506138c2565b868310156139045784890151613900601f89168261380d565b8355505b6001600288020188555050505b505050505050565b7f73656e646572206973206e6f74206f776e657200000000000000000000000000600082015250565b600061394f601383613005565b915061395a82613919565b602082019050919050565b6000602082019050818103600083015261397e81613942565b9050919050565b7f6e756c6c206164647265737320666f756e640000000000000000000000000000600082015250565b60006139bb601283613005565b91506139c682613985565b602082019050919050565b600060208201905081810360008301526139ea816139ae565b9050919050565b7f7072652d6578697374696e672061646472657373000000000000000000000000600082015250565b6000613a27601483613005565b9150613a32826139f1565b602082019050919050565b60006020820190508181036000830152613a5681613a1a565b9050919050565b7f756e617574686f72697a65642061636365737300000000000000000000000000600082015250565b6000613a93601383613005565b9150613a9e82613a5d565b602082019050919050565b60006020820190508181036000830152613ac281613a86565b9050919050565b7f4e487b7100000000000000000000000000000000000000000000000000000000600052601260045260246000fd5b6000613b0382612f05565b9150613b0e83612f05565b925082613b1e57613b1d613ac9565b5b828204905092915050565b6000613b3482612f05565b9150613b3f83612f05565b925082613b4f57613b4e613ac9565b5b828206905092915050565b6000613b6582612f05565b9150613b7083612f05565b9250827fffffffffffffffffffffffffffffffffffffffffffffffffffffffffffffffff03821115613ba557613ba46133a1565b5b82820190509291505056fea2646970667358221220f23ca296b1df09f2b8a29b02b3cc8d2a93ed3c3d34bb9885345b13fc668d692864736f6c634300080f0033",
  "immutableReferences": {},
  "source": "// SPDX-License-Identifier: MIT\r\npragma solidity ^0.8;\r\nimport \"./details.sol\";\r\n\r\ncontract permission is details{\r\n\r\n    // patient adds or removes the insti who can update their medical report\r\n    function appprove(string memory t,  string memory _id)\r\n        public \r\n        onlyPatient  \r\n    {\r\n        address _address = Id[_id];\r\n        if(compareStrings(t, \"h\")){\r\n            require(isHospital[_address],\"Not a hospital\");\r\n        }\r\n        \r\n        // checks weather the entered id of lab or hospital\r\n        require(isLab[_address] || isHospital[_address] ,\"Not a valid address\");\r\n        institutions memory tmp;\r\n        // address instiAddre = Id[_address];\r\n        tmp.instiAddress = _address;\r\n        tmp.status = true;\r\n        // labList[msg.sender].push(tmp);\r\n        record[msg.sender].permitted.push(tmp);\r\n        record[msg.sender].credit++;\r\n\r\n    }\r\n    // patient remove the approved hospitals and labs \r\n    function remove(string memory _id)\r\n        public \r\n        onlyPatient\r\n    {\r\n        address _address = Id[_id];\r\n        bool ok = false;\r\n        // confirms if the given address is of a hospital or a lab\r\n        require(isLab[_address] || isHospital[_address] ,\"Not a valid address\");\r\n        for(uint256 i=0; i<record[msg.sender].permitted.length; i++){\r\n            if(record[msg.sender].permitted[i].instiAddress == _address){\r\n                uint256 n = record[msg.sender].permitted.length;\r\n                record[msg.sender].permitted[i] = record[msg.sender].permitted[n-1];\r\n                record[msg.sender].credit--;\r\n                record[msg.sender].permitted.pop();\r\n                ok = true;\r\n            }\r\n        }\r\n        require(ok, \"invalid request\");\r\n    }\r\n\r\n    \r\n\r\n}",
  "sourcePath": "D:\\ri\\ehr\\contracts\\permission.sol",
  "compiler": {
    "name": "solc",
    "version": "0.8.15+commit.e14f2714.Emscripten.clang"
  },
  "schemaVersion": "3.4.8",
  "updatedAt": "2022-09-20T13:57:15.978Z",
  "devdoc": {
    "kind": "dev",
    "methods": {},
    "version": 1
  },
  "userdoc": {
    "kind": "user",
    "methods": {},
    "version": 1
  }
}