{
  "contractName": "permission",
  "abi": [
    {
      "inputs": [
        {
          "internalType": "address",
          "name": "",
          "type": "address"
        }
      ],
      "name": "Address",
      "outputs": [
        {
          "internalType": "string",
          "name": "",
          "type": "string"
        }
      ],
      "stateMutability": "view",
      "type": "function"
    },
    {
      "inputs": [
        {
          "internalType": "string",
          "name": "",
          "type": "string"
        }
      ],
      "name": "Id",
      "outputs": [
        {
          "internalType": "address",
          "name": "",
          "type": "address"
        }
      ],
      "stateMutability": "view",
      "type": "function"
    },
    {
      "inputs": [
        {
          "internalType": "address",
          "name": "_address",
          "type": "address"
        },
        {
          "internalType": "string",
          "name": "category",
          "type": "string"
        }
      ],
      "name": "addClient",
      "outputs": [],
      "stateMutability": "nonpayable",
      "type": "function"
    },
    {
      "inputs": [
        {
          "internalType": "address",
          "name": "_address",
          "type": "address"
        }
      ],
      "name": "addEmployee",
      "outputs": [],
      "stateMutability": "nonpayable",
      "type": "function"
    },
    {
      "inputs": [
        {
          "internalType": "string",
          "name": "a",
          "type": "string"
        },
        {
          "internalType": "string",
          "name": "b",
          "type": "string"
        }
      ],
      "name": "compareStrings",
      "outputs": [
        {
          "internalType": "bool",
          "name": "",
          "type": "bool"
        }
      ],
      "stateMutability": "pure",
      "type": "function"
    },
    {
      "inputs": [
        {
          "internalType": "string",
          "name": "a",
          "type": "string"
        },
        {
          "internalType": "string",
          "name": "b",
          "type": "string"
        }
      ],
      "name": "concat",
      "outputs": [
        {
          "internalType": "string",
          "name": "",
          "type": "string"
        }
      ],
      "stateMutability": "pure",
      "type": "function"
    },
    {
      "inputs": [],
      "name": "doctorCnt",
      "outputs": [
        {
          "internalType": "uint256",
          "name": "",
          "type": "uint256"
        }
      ],
      "stateMutability": "view",
      "type": "function"
    },
    {
      "inputs": [
        {
          "internalType": "string",
          "name": "_id",
          "type": "string"
        }
      ],
      "name": "getCreditScore",
      "outputs": [
        {
          "internalType": "uint256",
          "name": "",
          "type": "uint256"
        }
      ],
      "stateMutability": "view",
      "type": "function"
    },
    {
      "inputs": [
        {
          "internalType": "string",
          "name": "_id",
          "type": "string"
        }
      ],
      "name": "getMedRecordCnt",
      "outputs": [
        {
          "internalType": "uint256",
          "name": "x",
          "type": "uint256"
        }
      ],
      "stateMutability": "view",
      "type": "function"
    },
    {
      "inputs": [
        {
          "internalType": "string",
          "name": "_id",
          "type": "string"
        }
      ],
      "name": "getPersonalInfoHash",
      "outputs": [
        {
          "internalType": "string",
          "name": "x",
          "type": "string"
        }
      ],
      "stateMutability": "view",
      "type": "function"
    },
    {
      "inputs": [],
      "name": "hospitalCnt",
      "outputs": [
        {
          "internalType": "uint256",
          "name": "",
          "type": "uint256"
        }
      ],
      "stateMutability": "view",
      "type": "function"
    },
    {
      "inputs": [
        {
          "internalType": "string",
          "name": "_id",
          "type": "string"
        }
      ],
      "name": "isAllowed",
      "outputs": [
        {
          "internalType": "bool",
          "name": "",
          "type": "bool"
        }
      ],
      "stateMutability": "view",
      "type": "function"
    },
    {
      "inputs": [
        {
          "internalType": "address",
          "name": "",
          "type": "address"
        }
      ],
      "name": "isDoctor",
      "outputs": [
        {
          "internalType": "bool",
          "name": "",
          "type": "bool"
        }
      ],
      "stateMutability": "view",
      "type": "function"
    },
    {
      "inputs": [
        {
          "internalType": "address",
          "name": "",
          "type": "address"
        }
      ],
      "name": "isHospital",
      "outputs": [
        {
          "internalType": "bool",
          "name": "",
          "type": "bool"
        }
      ],
      "stateMutability": "view",
      "type": "function"
    },
    {
      "inputs": [
        {
          "internalType": "address",
          "name": "",
          "type": "address"
        }
      ],
      "name": "isLab",
      "outputs": [
        {
          "internalType": "bool",
          "name": "",
          "type": "bool"
        }
      ],
      "stateMutability": "view",
      "type": "function"
    },
    {
      "inputs": [
        {
          "internalType": "address",
          "name": "",
          "type": "address"
        }
      ],
      "name": "isOwner",
      "outputs": [
        {
          "internalType": "bool",
          "name": "",
          "type": "bool"
        }
      ],
      "stateMutability": "view",
      "type": "function"
    },
    {
      "inputs": [
        {
          "internalType": "address",
          "name": "",
          "type": "address"
        }
      ],
      "name": "isPatient",
      "outputs": [
        {
          "internalType": "bool",
          "name": "",
          "type": "bool"
        }
      ],
      "stateMutability": "view",
      "type": "function"
    },
    {
      "inputs": [
        {
          "internalType": "address",
          "name": "",
          "type": "address"
        }
      ],
      "name": "isTech",
      "outputs": [
        {
          "internalType": "bool",
          "name": "",
          "type": "bool"
        }
      ],
      "stateMutability": "view",
      "type": "function"
    },
    {
      "inputs": [],
      "name": "labCnt",
      "outputs": [
        {
          "internalType": "uint256",
          "name": "",
          "type": "uint256"
        }
      ],
      "stateMutability": "view",
      "type": "function"
    },
    {
      "inputs": [],
      "name": "patientCnt",
      "outputs": [
        {
          "internalType": "uint256",
          "name": "",
          "type": "uint256"
        }
      ],
      "stateMutability": "view",
      "type": "function"
    },
    {
      "inputs": [
        {
          "internalType": "address",
          "name": "",
          "type": "address"
        }
      ],
      "name": "record",
      "outputs": [
        {
          "internalType": "string",
          "name": "personalInfoHash",
          "type": "string"
        },
        {
          "internalType": "uint256",
          "name": "credit",
          "type": "uint256"
        },
        {
          "internalType": "uint256",
          "name": "totalRecord",
          "type": "uint256"
        }
      ],
      "stateMutability": "view",
      "type": "function"
    },
    {
      "inputs": [
        {
          "internalType": "string",
          "name": "_pinfo",
          "type": "string"
        }
      ],
      "name": "setPersonalInfoHash",
      "outputs": [],
      "stateMutability": "nonpayable",
      "type": "function"
    },
    {
      "inputs": [],
      "name": "techCnt",
      "outputs": [
        {
          "internalType": "uint256",
          "name": "",
          "type": "uint256"
        }
      ],
      "stateMutability": "view",
      "type": "function"
    },
    {
      "inputs": [
        {
          "internalType": "uint256",
          "name": "_reportId",
          "type": "uint256"
        }
      ],
      "name": "totalConfirmation",
      "outputs": [
        {
          "internalType": "uint256",
          "name": "",
          "type": "uint256"
        }
      ],
      "stateMutability": "view",
      "type": "function"
    },
    {
      "inputs": [
        {
          "internalType": "uint256",
          "name": "_reportId",
          "type": "uint256"
        }
      ],
      "name": "totalConsulation",
      "outputs": [
        {
          "internalType": "uint256",
          "name": "",
          "type": "uint256"
        }
      ],
      "stateMutability": "view",
      "type": "function"
    },
    {
      "inputs": [
        {
          "internalType": "address",
          "name": "",
          "type": "address"
        }
      ],
      "name": "worksAt",
      "outputs": [
        {
          "internalType": "address",
          "name": "",
          "type": "address"
        }
      ],
      "stateMutability": "view",
      "type": "function"
    },
    {
      "inputs": [
        {
          "internalType": "string",
          "name": "_id",
          "type": "string"
        },
        {
          "internalType": "string",
          "name": "status",
          "type": "string"
        }
      ],
      "name": "modifyStatus",
      "outputs": [],
      "stateMutability": "nonpayable",
      "type": "function"
    },
    {
      "inputs": [
        {
          "internalType": "string",
          "name": "_id",
          "type": "string"
        },
        {
          "internalType": "string",
          "name": "_pId",
          "type": "string"
        },
        {
          "internalType": "uint256",
          "name": "rId",
          "type": "uint256"
        }
      ],
      "name": "reffer",
      "outputs": [],
      "stateMutability": "nonpayable",
      "type": "function"
    },
    {
      "inputs": [
        {
          "internalType": "string",
          "name": "_id",
          "type": "string"
        },
        {
          "internalType": "uint256",
          "name": "rId",
          "type": "uint256"
        }
      ],
      "name": "approveRefferedDoctor",
      "outputs": [],
      "stateMutability": "nonpayable",
      "type": "function"
    }
  ],
  "bytecode": "0x608060405260008055600060015560006002556000600355600060045534801561002857600080fd5b50614608806100386000396000f3fe608060405234801561001057600080fd5b50600436106101cf5760003560e01c80638fc7043f11610104578063cd422a3f116100a2578063e4ded01111610071578063e4ded011146105c8578063eac8aa62146105f8578063ebfb412d14610628578063f3cb8c3114610658576101cf565b8063cd422a3f14610530578063ce64eac11461054c578063e12483f81461057c578063e292ec08146105ac576101cf565b8063b89895f2116100de578063b89895f214610482578063bdf6c673146104a0578063bed34bba146104d0578063bfa28ff114610500576101cf565b80638fc7043f14610418578063996440c614610434578063ac2018e514610464576101cf565b806349d8fea111610171578063807ad9401161014b578063807ad9401461036c57806382826ecd1461039c57806389c19ddb146103b85780638f9c79ed146103e8576101cf565b806349d8fea1146102ee5780635e3908801461031e57806360ebd6901461034e576101cf565b80633655181a116101ad5780633655181a1461025457806339f0b138146102705780633eb23e69146102a05780634761658e146102be576101cf565b80631b9d1154146101d45780632f54bf6e146101f25780633465d6d514610222575b600080fd5b6101dc610674565b6040516101e991906133ff565b60405180910390f35b61020c6004803603810190610207919061348c565b61067a565b60405161021991906134d4565b60405180910390f35b61023c6004803603810190610237919061348c565b61069a565b60405161024b93929190613588565b60405180910390f35b61026e600480360381019061026991906136fb565b61074c565b005b61028a60048036038101906102859190613773565b610f4c565b60405161029791906137cb565b60405180910390f35b6102a8610f95565b6040516102b591906133ff565b60405180910390f35b6102d860048036038101906102d39190613773565b610f9b565b6040516102e591906137e6565b60405180910390f35b61030860048036038101906103039190613773565b611150565b60405161031591906133ff565b60405180910390f35b6103386004803603810190610333919061348c565b61126b565b60405161034591906134d4565b60405180910390f35b61035661128b565b60405161036391906133ff565b60405180910390f35b61038660048036038101906103819190613773565b611291565b60405161039391906134d4565b60405180910390f35b6103b660048036038101906103b19190613834565b611764565b005b6103d260048036038101906103cd91906136fb565b611a33565b6040516103df91906137e6565b60405180910390f35b61040260048036038101906103fd919061348c565b611a5f565b60405161040f91906134d4565b60405180910390f35b610432600480360381019061042d9190613773565b611a7f565b005b61044e6004803603810190610449919061348c565b611b5e565b60405161045b91906134d4565b60405180910390f35b61046c611b7e565b60405161047991906133ff565b60405180910390f35b61048a611b84565b60405161049791906133ff565b60405180910390f35b6104ba60048036038101906104b5919061348c565b611b8a565b6040516104c791906134d4565b60405180910390f35b6104ea60048036038101906104e591906136fb565b611baa565b6040516104f791906134d4565b60405180910390f35b61051a60048036038101906105159190613890565b611c03565b60405161052791906133ff565b60405180910390f35b61054a600480360381019061054591906138bd565b611cf5565b005b6105666004803603810190610561919061348c565b611fd0565b60405161057391906134d4565b60405180910390f35b61059660048036038101906105919190613773565b611ff0565b6040516105a391906133ff565b60405180910390f35b6105c660048036038101906105c19190613948565b61211c565b005b6105e260048036038101906105dd9190613890565b61297a565b6040516105ef91906133ff565b60405180910390f35b610612600480360381019061060d919061348c565b612a6c565b60405161061f91906137cb565b60405180910390f35b610642600480360381019061063d919061348c565b612a9f565b60405161064f91906137e6565b60405180910390f35b610672600480360381019061066d919061348c565b612b3f565b005b60015481565b600a6020528060005260406000206000915054906101000a900460ff1681565b600e6020528060005260406000206000915090508060000180546106bd906139d3565b80601f01602080910402602001604051908101604052809291908181526020018280546106e9906139d3565b80156107365780601f1061070b57610100808354040283529160200191610736565b820191906000526020600020905b81548152906001019060200180831161071957829003601f168201915b5050505050908060030154908060040154905083565b600660003373ffffffffffffffffffffffffffffffffffffffff1673ffffffffffffffffffffffffffffffffffffffff16815260200190815260200160002060009054906101000a900460ff166107d8576040517f08c379a00000000000000000000000000000000000000000000000000000000081526004016107cf90613a50565b60405180910390fd5b6000600b836040516107ea9190613aac565b908152602001604051809103902060009054906101000a900473ffffffffffffffffffffffffffffffffffffffff169050600760008273ffffffffffffffffffffffffffffffffffffffff1673ffffffffffffffffffffffffffffffffffffffff16815260200190815260200160002060009054906101000a900460ff16806108bc5750600560008273ffffffffffffffffffffffffffffffffffffffff1673ffffffffffffffffffffffffffffffffffffffff16815260200190815260200160002060009054906101000a900460ff165b6108fb576040517f08c379a00000000000000000000000000000000000000000000000000000000081526004016108f290613b0f565b60405180910390fd5b60008060005b600e60003373ffffffffffffffffffffffffffffffffffffffff1673ffffffffffffffffffffffffffffffffffffffff16815260200190815260200160002060020180549050811015610db6578373ffffffffffffffffffffffffffffffffffffffff16600e60003373ffffffffffffffffffffffffffffffffffffffff1673ffffffffffffffffffffffffffffffffffffffff16815260200190815260200160002060020182815481106109b9576109b8613b2f565b5b9060005260206000200160009054906101000a900473ffffffffffffffffffffffffffffffffffffffff1673ffffffffffffffffffffffffffffffffffffffff16148015610a425750610a41856040518060400160405280600781526020017f617070726f766500000000000000000000000000000000000000000000000000815250611baa565b5b15610a505760019150610db6565b8373ffffffffffffffffffffffffffffffffffffffff16600e60003373ffffffffffffffffffffffffffffffffffffffff1673ffffffffffffffffffffffffffffffffffffffff1681526020019081526020016000206002018281548110610abb57610aba613b2f565b5b9060005260206000200160009054906101000a900473ffffffffffffffffffffffffffffffffffffffff1673ffffffffffffffffffffffffffffffffffffffff16148015610b445750610b43856040518060400160405280600681526020017f72656d6f76650000000000000000000000000000000000000000000000000000815250611baa565b5b15610da3576000600e60003373ffffffffffffffffffffffffffffffffffffffff1673ffffffffffffffffffffffffffffffffffffffff168152602001908152602001600020600201805490509050600e60003373ffffffffffffffffffffffffffffffffffffffff1673ffffffffffffffffffffffffffffffffffffffff168152602001908152602001600020600201600182610be29190613b8d565b81548110610bf357610bf2613b2f565b5b9060005260206000200160009054906101000a900473ffffffffffffffffffffffffffffffffffffffff16600e60003373ffffffffffffffffffffffffffffffffffffffff1673ffffffffffffffffffffffffffffffffffffffff1681526020019081526020016000206002018381548110610c7257610c71613b2f565b5b9060005260206000200160006101000a81548173ffffffffffffffffffffffffffffffffffffffff021916908373ffffffffffffffffffffffffffffffffffffffff160217905550600e60003373ffffffffffffffffffffffffffffffffffffffff1673ffffffffffffffffffffffffffffffffffffffff1681526020019081526020016000206003016000815480929190610d0d90613bc1565b9190505550600e60003373ffffffffffffffffffffffffffffffffffffffff1673ffffffffffffffffffffffffffffffffffffffff168152602001908152602001600020600201805480610d6457610d63613bea565b5b6001900381819060005260206000200160006101000a81549073ffffffffffffffffffffffffffffffffffffffff021916905590556001935050610db6565b8080610dae90613c19565b915050610901565b5080158015610e005750610dff846040518060400160405280600781526020017f617070726f766500000000000000000000000000000000000000000000000000815250611baa565b5b15610f0557600e60003373ffffffffffffffffffffffffffffffffffffffff1673ffffffffffffffffffffffffffffffffffffffff168152602001908152602001600020600201839080600181540180825580915050600190039060005260206000200160009091909190916101000a81548173ffffffffffffffffffffffffffffffffffffffff021916908373ffffffffffffffffffffffffffffffffffffffff160217905550600e60003373ffffffffffffffffffffffffffffffffffffffff1673ffffffffffffffffffffffffffffffffffffffff1681526020019081526020016000206003016000815480929190610efb90613c19565b9190505550600191505b81610f45576040517f08c379a0000000000000000000000000000000000000000000000000000000008152600401610f3c90613cad565b60405180910390fd5b5050505050565b600b818051602081018201805184825260208301602085012081835280955050505050506000915054906101000a900473ffffffffffffffffffffffffffffffffffffffff1681565b60025481565b60606000600b83604051610faf9190613aac565b908152602001604051809103902060009054906101000a900473ffffffffffffffffffffffffffffffffffffffff169050600660008273ffffffffffffffffffffffffffffffffffffffff1673ffffffffffffffffffffffffffffffffffffffff16815260200190815260200160002060009054906101000a900460ff16801561103e575061103d83611291565b5b61107d576040517f08c379a000000000000000000000000000000000000000000000000000000000815260040161107490613d19565b60405180910390fd5b600e60008273ffffffffffffffffffffffffffffffffffffffff1673ffffffffffffffffffffffffffffffffffffffff16815260200190815260200160002060000180546110ca906139d3565b80601f01602080910402602001604051908101604052809291908181526020018280546110f6906139d3565b80156111435780601f1061111857610100808354040283529160200191611143565b820191906000526020600020905b81548152906001019060200180831161112657829003601f168201915b5050505050915050919050565b600080600b836040516111639190613aac565b908152602001604051809103902060009054906101000a900473ffffffffffffffffffffffffffffffffffffffff169050600660008273ffffffffffffffffffffffffffffffffffffffff1673ffffffffffffffffffffffffffffffffffffffff16815260200190815260200160002060009054906101000a900460ff16611220576040517f08c379a000000000000000000000000000000000000000000000000000000000815260040161121790613d19565b60405180910390fd5b600e60008273ffffffffffffffffffffffffffffffffffffffff1673ffffffffffffffffffffffffffffffffffffffff16815260200190815260200160002060030154915050919050565b60076020528060005260406000206000915054906101000a900460ff1681565b60035481565b600080600b836040516112a49190613aac565b908152602001604051809103902060009054906101000a900473ffffffffffffffffffffffffffffffffffffffff169050600660008273ffffffffffffffffffffffffffffffffffffffff1673ffffffffffffffffffffffffffffffffffffffff16815260200190815260200160002060009054906101000a900460ff16611361576040517f08c379a000000000000000000000000000000000000000000000000000000000815260040161135890613d85565b60405180910390fd5b8073ffffffffffffffffffffffffffffffffffffffff163373ffffffffffffffffffffffffffffffffffffffff160361140c578073ffffffffffffffffffffffffffffffffffffffff163373ffffffffffffffffffffffffffffffffffffffff1614611402576040517f08c379a00000000000000000000000000000000000000000000000000000000081526004016113f990613df1565b60405180910390fd5b600191505061175f565b600860003373ffffffffffffffffffffffffffffffffffffffff1673ffffffffffffffffffffffffffffffffffffffff16815260200190815260200160002060009054906101000a900460ff16806114ad5750600960003373ffffffffffffffffffffffffffffffffffffffff1673ffffffffffffffffffffffffffffffffffffffff16815260200190815260200160002060009054906101000a900460ff165b6114ec576040517f08c379a00000000000000000000000000000000000000000000000000000000081526004016114e390613e5d565b60405180910390fd5b6000600c60003373ffffffffffffffffffffffffffffffffffffffff1673ffffffffffffffffffffffffffffffffffffffff16815260200190815260200160002060009054906101000a900473ffffffffffffffffffffffffffffffffffffffff169050600560008273ffffffffffffffffffffffffffffffffffffffff1673ffffffffffffffffffffffffffffffffffffffff16815260200190815260200160002060009054906101000a900460ff16806115f15750600760008273ffffffffffffffffffffffffffffffffffffffff1673ffffffffffffffffffffffffffffffffffffffff16815260200190815260200160002060009054906101000a900460ff165b611630576040517f08c379a000000000000000000000000000000000000000000000000000000000815260040161162790613ec9565b60405180910390fd5b60005b600e60008473ffffffffffffffffffffffffffffffffffffffff1673ffffffffffffffffffffffffffffffffffffffff16815260200190815260200160002060020180549050811015611757576000600e60008573ffffffffffffffffffffffffffffffffffffffff1673ffffffffffffffffffffffffffffffffffffffff16815260200190815260200160002060020182815481106116d6576116d5613b2f565b5b9060005260206000200160009054906101000a900473ffffffffffffffffffffffffffffffffffffffff1690508273ffffffffffffffffffffffffffffffffffffffff168173ffffffffffffffffffffffffffffffffffffffff160361174357600194505050505061175f565b50808061174f90613c19565b915050611633565b505060009150505b919050565b600660003373ffffffffffffffffffffffffffffffffffffffff1673ffffffffffffffffffffffffffffffffffffffff16815260200190815260200160002060009054906101000a900460ff166117f0576040517f08c379a00000000000000000000000000000000000000000000000000000000081526004016117e790613a50565b60405180910390fd5b6000600b836040516118029190613aac565b908152602001604051809103902060009054906101000a900473ffffffffffffffffffffffffffffffffffffffff169050600860008273ffffffffffffffffffffffffffffffffffffffff1673ffffffffffffffffffffffffffffffffffffffff16815260200190815260200160002060009054906101000a900460ff166118bf576040517f08c379a00000000000000000000000000000000000000000000000000000000081526004016118b690613f35565b60405180910390fd5b6001600e60003373ffffffffffffffffffffffffffffffffffffffff1673ffffffffffffffffffffffffffffffffffffffff168152602001908152602001600020600101600084815260200190815260200160002060040160008373ffffffffffffffffffffffffffffffffffffffff1673ffffffffffffffffffffffffffffffffffffffff1681526020019081526020016000205414611995576040517f08c379a000000000000000000000000000000000000000000000000000000000815260040161198c90613fa1565b60405180910390fd5b6002600e60003373ffffffffffffffffffffffffffffffffffffffff1673ffffffffffffffffffffffffffffffffffffffff168152602001908152602001600020600101600084815260200190815260200160002060040160008373ffffffffffffffffffffffffffffffffffffffff1673ffffffffffffffffffffffffffffffffffffffff16815260200190815260200160002081905550505050565b60608282604051602001611a48929190613fc1565b604051602081830303815290604052905092915050565b60066020528060005260406000206000915054906101000a900460ff1681565b600660003373ffffffffffffffffffffffffffffffffffffffff1673ffffffffffffffffffffffffffffffffffffffff16815260200190815260200160002060009054906101000a900460ff16611b0b576040517f08c379a0000000000000000000000000000000000000000000000000000000008152600401611b0290613a50565b60405180910390fd5b80600e60003373ffffffffffffffffffffffffffffffffffffffff1673ffffffffffffffffffffffffffffffffffffffff1681526020019081526020016000206000019081611b5a9190614191565b5050565b60086020528060005260406000206000915054906101000a900460ff1681565b60005481565b60045481565b60056020528060005260406000206000915054906101000a900460ff1681565b600081604051602001611bbd9190613aac565b6040516020818303038152906040528051906020012083604051602001611be49190613aac565b6040516020818303038152906040528051906020012014905092915050565b6000600660003373ffffffffffffffffffffffffffffffffffffffff1673ffffffffffffffffffffffffffffffffffffffff16815260200190815260200160002060009054906101000a900460ff16611c91576040517f08c379a0000000000000000000000000000000000000000000000000000000008152600401611c8890613d19565b60405180910390fd5b6000600e60003373ffffffffffffffffffffffffffffffffffffffff1673ffffffffffffffffffffffffffffffffffffffff168152602001908152602001600020600101600084815260200190815260200160002060020154905080915050919050565b600860003373ffffffffffffffffffffffffffffffffffffffff1673ffffffffffffffffffffffffffffffffffffffff16815260200190815260200160002060009054906101000a900460ff16611d81576040517f08c379a0000000000000000000000000000000000000000000000000000000008152600401611d78906142af565b60405180910390fd5b6000600b83604051611d939190613aac565b908152602001604051809103902060009054906101000a900473ffffffffffffffffffffffffffffffffffffffff1690506000600b85604051611dd69190613aac565b908152602001604051809103902060009054906101000a900473ffffffffffffffffffffffffffffffffffffffff169050600660008373ffffffffffffffffffffffffffffffffffffffff1673ffffffffffffffffffffffffffffffffffffffff16815260200190815260200160002060009054906101000a900460ff168015611ea95750600860008273ffffffffffffffffffffffffffffffffffffffff1673ffffffffffffffffffffffffffffffffffffffff16815260200190815260200160002060009054906101000a900460ff165b611ee8576040517f08c379a0000000000000000000000000000000000000000000000000000000008152600401611edf9061431b565b60405180910390fd5b611ef184611291565b611f30576040517f08c379a0000000000000000000000000000000000000000000000000000000008152600401611f2790613ec9565b60405180910390fd5b6001600e60008473ffffffffffffffffffffffffffffffffffffffff1673ffffffffffffffffffffffffffffffffffffffff168152602001908152602001600020600101600085815260200190815260200160002060040160008373ffffffffffffffffffffffffffffffffffffffff1673ffffffffffffffffffffffffffffffffffffffff168152602001908152602001600020819055505050505050565b60096020528060005260406000206000915054906101000a900460ff1681565b600080600b836040516120039190613aac565b908152602001604051809103902060009054906101000a900473ffffffffffffffffffffffffffffffffffffffff169050600660008273ffffffffffffffffffffffffffffffffffffffff1673ffffffffffffffffffffffffffffffffffffffff16815260200190815260200160002060009054906101000a900460ff168015612092575061209183611291565b5b6120d1576040517f08c379a00000000000000000000000000000000000000000000000000000000081526004016120c890613d85565b60405180910390fd5b600e60008273ffffffffffffffffffffffffffffffffffffffff1673ffffffffffffffffffffffffffffffffffffffff16815260200190815260200160002060040154915050919050565b600a60003373ffffffffffffffffffffffffffffffffffffffff1673ffffffffffffffffffffffffffffffffffffffff16815260200190815260200160002060009054906101000a900460ff166121a8576040517f08c379a000000000000000000000000000000000000000000000000000000000815260040161219f90614387565b60405180910390fd5b81600073ffffffffffffffffffffffffffffffffffffffff168173ffffffffffffffffffffffffffffffffffffffff1603612218576040517f08c379a000000000000000000000000000000000000000000000000000000000815260040161220f906143f3565b60405180910390fd5b600860008273ffffffffffffffffffffffffffffffffffffffff1673ffffffffffffffffffffffffffffffffffffffff16815260200190815260200160002060009054906101000a900460ff161580156122bc5750600960008273ffffffffffffffffffffffffffffffffffffffff1673ffffffffffffffffffffffffffffffffffffffff16815260200190815260200160002060009054906101000a900460ff16155b80156123125750600760008273ffffffffffffffffffffffffffffffffffffffff1673ffffffffffffffffffffffffffffffffffffffff16815260200190815260200160002060009054906101000a900460ff16155b80156123685750600660008273ffffffffffffffffffffffffffffffffffffffff1673ffffffffffffffffffffffffffffffffffffffff16815260200190815260200160002060009054906101000a900460ff16155b80156123be5750600a60008273ffffffffffffffffffffffffffffffffffffffff1673ffffffffffffffffffffffffffffffffffffffff16815260200190815260200160002060009054906101000a900460ff16155b80156124145750600560008273ffffffffffffffffffffffffffffffffffffffff1673ffffffffffffffffffffffffffffffffffffffff16815260200190815260200160002060009054906101000a900460ff16155b612453576040517f08c379a000000000000000000000000000000000000000000000000000000000815260040161244a9061445f565b60405180910390fd5b612492826040518060400160405280600881526020017f686f73706974616c000000000000000000000000000000000000000000000000815250611baa565b1561260a576001600560008573ffffffffffffffffffffffffffffffffffffffff1673ffffffffffffffffffffffffffffffffffffffff16815260200190815260200160002060006101000a81548160ff0219169083151502179055506001600081548092919061250290613c19565b91905055506000612514600154613280565b905060006125576040518060400160405280600181526020017f680000000000000000000000000000000000000000000000000000000000000081525083611a33565b905084600b8260405161256a9190613aac565b908152602001604051809103902060006101000a81548173ffffffffffffffffffffffffffffffffffffffff021916908373ffffffffffffffffffffffffffffffffffffffff16021790555080600d60008773ffffffffffffffffffffffffffffffffffffffff1673ffffffffffffffffffffffffffffffffffffffff16815260200190815260200160002090816126029190614191565b505050612975565b612649826040518060400160405280600381526020017f6c61620000000000000000000000000000000000000000000000000000000000815250611baa565b156127c1576001600760008573ffffffffffffffffffffffffffffffffffffffff1673ffffffffffffffffffffffffffffffffffffffff16815260200190815260200160002060006101000a81548160ff021916908315150217905550600460008154809291906126b990613c19565b919050555060006126cb600454613280565b9050600061270e6040518060400160405280600181526020017f6c0000000000000000000000000000000000000000000000000000000000000081525083611a33565b905084600b826040516127219190613aac565b908152602001604051809103902060006101000a81548173ffffffffffffffffffffffffffffffffffffffff021916908373ffffffffffffffffffffffffffffffffffffffff16021790555080600d60008773ffffffffffffffffffffffffffffffffffffffff1673ffffffffffffffffffffffffffffffffffffffff16815260200190815260200160002090816127b99190614191565b505050612974565b612800826040518060400160405280600781526020017f70617469656e7400000000000000000000000000000000000000000000000000815250611baa565b15612973576001600660008573ffffffffffffffffffffffffffffffffffffffff1673ffffffffffffffffffffffffffffffffffffffff16815260200190815260200160002060006101000a81548160ff02191690831515021790555060008081548092919061286f90613c19565b91905055506000612881600054613280565b905060006128c46040518060400160405280600181526020017f700000000000000000000000000000000000000000000000000000000000000081525083611a33565b905084600b826040516128d79190613aac565b908152602001604051809103902060006101000a81548173ffffffffffffffffffffffffffffffffffffffff021916908373ffffffffffffffffffffffffffffffffffffffff16021790555080600d60008773ffffffffffffffffffffffffffffffffffffffff1673ffffffffffffffffffffffffffffffffffffffff168152602001908152602001600020908161296f9190614191565b5050505b5b5b505050565b6000600660003373ffffffffffffffffffffffffffffffffffffffff1673ffffffffffffffffffffffffffffffffffffffff16815260200190815260200160002060009054906101000a900460ff16612a08576040517f08c379a00000000000000000000000000000000000000000000000000000000081526004016129ff90613d19565b60405180910390fd5b6000600e60003373ffffffffffffffffffffffffffffffffffffffff1673ffffffffffffffffffffffffffffffffffffffff168152602001908152602001600020600101600084815260200190815260200160002060010154905080915050919050565b600c6020528060005260406000206000915054906101000a900473ffffffffffffffffffffffffffffffffffffffff1681565b600d6020528060005260406000206000915090508054612abe906139d3565b80601f0160208091040260200160405190810160405280929190818152602001828054612aea906139d3565b8015612b375780601f10612b0c57610100808354040283529160200191612b37565b820191906000526020600020905b815481529060010190602001808311612b1a57829003601f168201915b505050505081565b80600073ffffffffffffffffffffffffffffffffffffffff168173ffffffffffffffffffffffffffffffffffffffff1603612baf576040517f08c379a0000000000000000000000000000000000000000000000000000000008152600401612ba6906143f3565b60405180910390fd5b600860008273ffffffffffffffffffffffffffffffffffffffff1673ffffffffffffffffffffffffffffffffffffffff16815260200190815260200160002060009054906101000a900460ff16158015612c535750600960008273ffffffffffffffffffffffffffffffffffffffff1673ffffffffffffffffffffffffffffffffffffffff16815260200190815260200160002060009054906101000a900460ff16155b8015612ca95750600760008273ffffffffffffffffffffffffffffffffffffffff1673ffffffffffffffffffffffffffffffffffffffff16815260200190815260200160002060009054906101000a900460ff16155b8015612cff5750600660008273ffffffffffffffffffffffffffffffffffffffff1673ffffffffffffffffffffffffffffffffffffffff16815260200190815260200160002060009054906101000a900460ff16155b8015612d555750600a60008273ffffffffffffffffffffffffffffffffffffffff1673ffffffffffffffffffffffffffffffffffffffff16815260200190815260200160002060009054906101000a900460ff16155b8015612dab5750600560008273ffffffffffffffffffffffffffffffffffffffff1673ffffffffffffffffffffffffffffffffffffffff16815260200190815260200160002060009054906101000a900460ff16155b612dea576040517f08c379a0000000000000000000000000000000000000000000000000000000008152600401612de19061445f565b60405180910390fd5b600560003373ffffffffffffffffffffffffffffffffffffffff1673ffffffffffffffffffffffffffffffffffffffff16815260200190815260200160002060009054906101000a900460ff1680612e8b5750600760003373ffffffffffffffffffffffffffffffffffffffff1673ffffffffffffffffffffffffffffffffffffffff16815260200190815260200160002060009054906101000a900460ff165b612eca576040517f08c379a0000000000000000000000000000000000000000000000000000000008152600401612ec1906144cb565b60405180910390fd5b600560003373ffffffffffffffffffffffffffffffffffffffff1673ffffffffffffffffffffffffffffffffffffffff16815260200190815260200160002060009054906101000a900460ff161561308f5760026000815480929190612f2f90613c19565b91905055506001600860008473ffffffffffffffffffffffffffffffffffffffff1673ffffffffffffffffffffffffffffffffffffffff16815260200190815260200160002060006101000a81548160ff0219169083151502179055506000612f99600254613280565b90506000612fdc6040518060400160405280600181526020017f640000000000000000000000000000000000000000000000000000000000000081525083611a33565b905083600b82604051612fef9190613aac565b908152602001604051809103902060006101000a81548173ffffffffffffffffffffffffffffffffffffffff021916908373ffffffffffffffffffffffffffffffffffffffff16021790555080600d60008673ffffffffffffffffffffffffffffffffffffffff1673ffffffffffffffffffffffffffffffffffffffff16815260200190815260200160002090816130879190614191565b5050506131fe565b6001600960008473ffffffffffffffffffffffffffffffffffffffff1673ffffffffffffffffffffffffffffffffffffffff16815260200190815260200160002060006101000a81548160ff021916908315150217905550600360008154809291906130fa90613c19565b9190505550600061310c600354613280565b9050600061314f6040518060400160405280600181526020017f740000000000000000000000000000000000000000000000000000000000000081525083611a33565b905083600b826040516131629190613aac565b908152602001604051809103902060006101000a81548173ffffffffffffffffffffffffffffffffffffffff021916908373ffffffffffffffffffffffffffffffffffffffff16021790555080600d60008673ffffffffffffffffffffffffffffffffffffffff1673ffffffffffffffffffffffffffffffffffffffff16815260200190815260200160002090816131fa9190614191565b5050505b33600c60008473ffffffffffffffffffffffffffffffffffffffff1673ffffffffffffffffffffffffffffffffffffffff16815260200190815260200160002060006101000a81548173ffffffffffffffffffffffffffffffffffffffff021916908373ffffffffffffffffffffffffffffffffffffffff1602179055505050565b6060600082036132c7576040518060400160405280600181526020017f300000000000000000000000000000000000000000000000000000000000000081525090506133e1565b600082905060005b600082146132f95780806132e290613c19565b915050600a826132f2919061451a565b91506132cf565b60008167ffffffffffffffff811115613315576133146135d0565b5b6040519080825280601f01601f1916602001820160405280156133475781602001600182028036833780820191505090505b50905060008290508593505b600084146133d957600a84613368919061454b565b6030613374919061457c565b60f81b828261338290613bc1565b9250828151811061339657613395613b2f565b5b60200101907effffffffffffffffffffffffffffffffffffffffffffffffffffffffffffff1916908160001a905350600a846133d2919061451a565b9350613353565b819450505050505b919050565b6000819050919050565b6133f9816133e6565b82525050565b600060208201905061341460008301846133f0565b92915050565b6000604051905090565b600080fd5b600080fd5b600073ffffffffffffffffffffffffffffffffffffffff82169050919050565b60006134598261342e565b9050919050565b6134698161344e565b811461347457600080fd5b50565b60008135905061348681613460565b92915050565b6000602082840312156134a2576134a1613424565b5b60006134b084828501613477565b91505092915050565b60008115159050919050565b6134ce816134b9565b82525050565b60006020820190506134e960008301846134c5565b92915050565b600081519050919050565b600082825260208201905092915050565b60005b8381101561352957808201518184015260208101905061350e565b83811115613538576000848401525b50505050565b6000601f19601f8301169050919050565b600061355a826134ef565b61356481856134fa565b935061357481856020860161350b565b61357d8161353e565b840191505092915050565b600060608201905081810360008301526135a2818661354f565b90506135b160208301856133f0565b6135be60408301846133f0565b949350505050565b600080fd5b600080fd5b7f4e487b7100000000000000000000000000000000000000000000000000000000600052604160045260246000fd5b6136088261353e565b810181811067ffffffffffffffff82111715613627576136266135d0565b5b80604052505050565b600061363a61341a565b905061364682826135ff565b919050565b600067ffffffffffffffff821115613666576136656135d0565b5b61366f8261353e565b9050602081019050919050565b82818337600083830152505050565b600061369e6136998461364b565b613630565b9050828152602081018484840111156136ba576136b96135cb565b5b6136c584828561367c565b509392505050565b600082601f8301126136e2576136e16135c6565b5b81356136f284826020860161368b565b91505092915050565b6000806040838503121561371257613711613424565b5b600083013567ffffffffffffffff8111156137305761372f613429565b5b61373c858286016136cd565b925050602083013567ffffffffffffffff81111561375d5761375c613429565b5b613769858286016136cd565b9150509250929050565b60006020828403121561378957613788613424565b5b600082013567ffffffffffffffff8111156137a7576137a6613429565b5b6137b3848285016136cd565b91505092915050565b6137c58161344e565b82525050565b60006020820190506137e060008301846137bc565b92915050565b60006020820190508181036000830152613800818461354f565b905092915050565b613811816133e6565b811461381c57600080fd5b50565b60008135905061382e81613808565b92915050565b6000806040838503121561384b5761384a613424565b5b600083013567ffffffffffffffff81111561386957613868613429565b5b613875858286016136cd565b92505060206138868582860161381f565b9150509250929050565b6000602082840312156138a6576138a5613424565b5b60006138b48482850161381f565b91505092915050565b6000806000606084860312156138d6576138d5613424565b5b600084013567ffffffffffffffff8111156138f4576138f3613429565b5b613900868287016136cd565b935050602084013567ffffffffffffffff81111561392157613920613429565b5b61392d868287016136cd565b925050604061393e8682870161381f565b9150509250925092565b6000806040838503121561395f5761395e613424565b5b600061396d85828601613477565b925050602083013567ffffffffffffffff81111561398e5761398d613429565b5b61399a858286016136cd565b9150509250929050565b7f4e487b7100000000000000000000000000000000000000000000000000000000600052602260045260246000fd5b600060028204905060018216806139eb57607f821691505b6020821081036139fe576139fd6139a4565b5b50919050565b7f73656e646572206973206e6f742070617469656e740000000000000000000000600082015250565b6000613a3a6015836134fa565b9150613a4582613a04565b602082019050919050565b60006020820190508181036000830152613a6981613a2d565b9050919050565b600081905092915050565b6000613a86826134ef565b613a908185613a70565b9350613aa081856020860161350b565b80840191505092915050565b6000613ab88284613a7b565b915081905092915050565b7f4e6f7420612076616c6964206164647265737300000000000000000000000000600082015250565b6000613af96013836134fa565b9150613b0482613ac3565b602082019050919050565b60006020820190508181036000830152613b2881613aec565b9050919050565b7f4e487b7100000000000000000000000000000000000000000000000000000000600052603260045260246000fd5b7f4e487b7100000000000000000000000000000000000000000000000000000000600052601160045260246000fd5b6000613b98826133e6565b9150613ba3836133e6565b925082821015613bb657613bb5613b5e565b5b828203905092915050565b6000613bcc826133e6565b915060008203613bdf57613bde613b5e565b5b600182039050919050565b7f4e487b7100000000000000000000000000000000000000000000000000000000600052603160045260246000fd5b6000613c24826133e6565b91507fffffffffffffffffffffffffffffffffffffffffffffffffffffffffffffffff8203613c5657613c55613b5e565b5b600182019050919050565b7f696e76616c696420726571756573740000000000000000000000000000000000600082015250565b6000613c97600f836134fa565b9150613ca282613c61565b602082019050919050565b60006020820190508181036000830152613cc681613c8a565b9050919050565b7f6e6f7420612070617469656e7400000000000000000000000000000000000000600082015250565b6000613d03600d836134fa565b9150613d0e82613ccd565b602082019050919050565b60006020820190508181036000830152613d3281613cf6565b9050919050565b7f6e6f7420612070617469656e7427732069640000000000000000000000000000600082015250565b6000613d6f6012836134fa565b9150613d7a82613d39565b602082019050919050565b60006020820190508181036000830152613d9e81613d62565b9050919050565b7f74727920796f7572206964000000000000000000000000000000000000000000600082015250565b6000613ddb600b836134fa565b9150613de682613da5565b602082019050919050565b60006020820190508181036000830152613e0a81613dce565b9050919050565b7f6e6f74206120776f726b65720000000000000000000000000000000000000000600082015250565b6000613e47600c836134fa565b9150613e5282613e11565b602082019050919050565b60006020820190508181036000830152613e7681613e3a565b9050919050565b7f6e6f7420616c6c6f776564000000000000000000000000000000000000000000600082015250565b6000613eb3600b836134fa565b9150613ebe82613e7d565b602082019050919050565b60006020820190508181036000830152613ee281613ea6565b9050919050565b7f6e6f74206120646f63746f720000000000000000000000000000000000000000600082015250565b6000613f1f600c836134fa565b9150613f2a82613ee9565b602082019050919050565b60006020820190508181036000830152613f4e81613f12565b9050919050565b7f6e6f7420612076616c6964207265717565737400000000000000000000000000600082015250565b6000613f8b6013836134fa565b9150613f9682613f55565b602082019050919050565b60006020820190508181036000830152613fba81613f7e565b9050919050565b6000613fcd8285613a7b565b9150613fd98284613a7b565b91508190509392505050565b60008190508160005260206000209050919050565b60006020601f8301049050919050565b600082821b905092915050565b6000600883026140477fffffffffffffffffffffffffffffffffffffffffffffffffffffffffffffffff8261400a565b614051868361400a565b95508019841693508086168417925050509392505050565b6000819050919050565b600061408e614089614084846133e6565b614069565b6133e6565b9050919050565b6000819050919050565b6140a883614073565b6140bc6140b482614095565b848454614017565b825550505050565b600090565b6140d16140c4565b6140dc81848461409f565b505050565b5b81811015614100576140f56000826140c9565b6001810190506140e2565b5050565b601f8211156141455761411681613fe5565b61411f84613ffa565b8101602085101561412e578190505b61414261413a85613ffa565b8301826140e1565b50505b505050565b600082821c905092915050565b60006141686000198460080261414a565b1980831691505092915050565b60006141818383614157565b9150826002028217905092915050565b61419a826134ef565b67ffffffffffffffff8111156141b3576141b26135d0565b5b6141bd82546139d3565b6141c8828285614104565b600060209050601f8311600181146141fb57600084156141e9578287015190505b6141f38582614175565b86555061425b565b601f19841661420986613fe5565b60005b828110156142315784890151825560018201915060208501945060208101905061420c565b8683101561424e578489015161424a601f891682614157565b8355505b6001600288020188555050505b505050505050565b7f73656e646572206973206e6f74206120646f63746f7200000000000000000000600082015250565b60006142996016836134fa565b91506142a482614263565b602082019050919050565b600060208201905081810360008301526142c88161428c565b9050919050565b7f6e6f742076616c696420706172616d7300000000000000000000000000000000600082015250565b60006143056010836134fa565b9150614310826142cf565b602082019050919050565b60006020820190508181036000830152614334816142f8565b9050919050565b7f73656e646572206973206e6f74206f776e657200000000000000000000000000600082015250565b60006143716013836134fa565b915061437c8261433b565b602082019050919050565b600060208201905081810360008301526143a081614364565b9050919050565b7f6e756c6c206164647265737320666f756e640000000000000000000000000000600082015250565b60006143dd6012836134fa565b91506143e8826143a7565b602082019050919050565b6000602082019050818103600083015261440c816143d0565b9050919050565b7f7072652d6578697374696e672061646472657373000000000000000000000000600082015250565b60006144496014836134fa565b915061445482614413565b602082019050919050565b600060208201905081810360008301526144788161443c565b9050919050565b7f756e617574686f72697a65642061636365737300000000000000000000000000600082015250565b60006144b56013836134fa565b91506144c08261447f565b602082019050919050565b600060208201905081810360008301526144e4816144a8565b9050919050565b7f4e487b7100000000000000000000000000000000000000000000000000000000600052601260045260246000fd5b6000614525826133e6565b9150614530836133e6565b9250826145405761453f6144eb565b5b828204905092915050565b6000614556826133e6565b9150614561836133e6565b925082614571576145706144eb565b5b828206905092915050565b6000614587826133e6565b9150614592836133e6565b9250827fffffffffffffffffffffffffffffffffffffffffffffffffffffffffffffffff038211156145c7576145c6613b5e565b5b82820190509291505056fea264697066735822122024ea703a614ad503683b99de64b25442d7d689e70cab6ec7fa65021e8d2a2af064736f6c634300080f0033",
  "immutableReferences": {},
  "source": "// SPDX-License-Identifier: MIT\r\npragma solidity ^0.8;\r\nimport \"./details.sol\";\r\n\r\ncontract permission is details{\r\n\r\n    // patient adds or removes the insti who can update their medical report\r\n    // patient adds or removes the insti who can update their medical report\r\n    function modifyStatus(string memory _id,string memory status)\r\n        public \r\n        onlyPatient  \r\n    {\r\n        address _address = Id[_id];\r\n        // checks weather the entered id of lab or hospital\r\n        require(isLab[_address] || isHospital[_address],\"Not a valid address\");\r\n        bool ok = false;\r\n        bool bad = false;\r\n        for(uint256 i=0; i<record[msg.sender].permitted.length; i++){\r\n            if(record[msg.sender].permitted[i] == _address && compareStrings(status,\"approve\")){\r\n                bad = true;\r\n                break;\r\n            }\r\n            \r\n            if(record[msg.sender].permitted[i] == _address && compareStrings(status,\"remove\")){\r\n                uint256 n = record[msg.sender].permitted.length;\r\n                record[msg.sender].permitted[i] = record[msg.sender].permitted[n-1];\r\n                record[msg.sender].credit--;\r\n                record[msg.sender].permitted.pop();\r\n                ok = true;\r\n                break;\r\n            }\r\n        }\r\n        if(!bad && compareStrings(status,\"approve\")){\r\n            record[msg.sender].permitted.push(_address);\r\n            record[msg.sender].credit++;\r\n            ok = true;\r\n        }\r\n        require(ok, \"invalid request\");\r\n        \r\n\r\n    }\r\n    function reffer(\r\n        string memory _id,\r\n        string memory _pId,\r\n        uint256 rId\r\n    )public\r\n    onlyDoctor\r\n    {\r\n        address _patientAddress = Id[_pId];\r\n        address _docAddress = Id[_id];\r\n        require(isPatient[_patientAddress] && isDoctor[_docAddress], \"not valid params\");\r\n        require(isAllowed(_pId),\"not allowed\");\r\n        record[_patientAddress].medicalInfoHash[rId].refferedTo[_docAddress] = 1;\r\n    }\r\n\r\n    function approveRefferedDoctor(\r\n        string memory _id,\r\n        uint256 rId\r\n    )public\r\n    onlyPatient\r\n    {\r\n        address _docAddress = Id[_id];\r\n        require(isDoctor[_docAddress], \"not a doctor\");\r\n        require(record[msg.sender].medicalInfoHash[rId].refferedTo[_docAddress] == 1, \"not a valid request\");\r\n        record[msg.sender].medicalInfoHash[rId].refferedTo[_docAddress] = 2; \r\n    }\r\n    \r\n\r\n    \r\n\r\n}",
  "sourcePath": "D:\\ri\\ehr\\contracts\\permission.sol",
  "compiler": {
    "name": "solc",
    "version": "0.8.15+commit.e14f2714.Emscripten.clang"
  },
  "schemaVersion": "3.4.8",
  "updatedAt": "2022-10-08T06:18:40.611Z",
  "devdoc": {
    "kind": "dev",
    "methods": {},
    "version": 1
  },
  "userdoc": {
    "kind": "user",
    "methods": {},
    "version": 1
  }
}