{
  "contractName": "updateReport",
  "abi": [
    {
      "inputs": [
        {
          "internalType": "address",
          "name": "",
          "type": "address"
        }
      ],
      "name": "Address",
      "outputs": [
        {
          "internalType": "string",
          "name": "",
          "type": "string"
        }
      ],
      "stateMutability": "view",
      "type": "function"
    },
    {
      "inputs": [
        {
          "internalType": "string",
          "name": "",
          "type": "string"
        }
      ],
      "name": "Id",
      "outputs": [
        {
          "internalType": "address",
          "name": "",
          "type": "address"
        }
      ],
      "stateMutability": "view",
      "type": "function"
    },
    {
      "inputs": [
        {
          "internalType": "address",
          "name": "_address",
          "type": "address"
        },
        {
          "internalType": "string",
          "name": "category",
          "type": "string"
        }
      ],
      "name": "addClient",
      "outputs": [],
      "stateMutability": "nonpayable",
      "type": "function"
    },
    {
      "inputs": [
        {
          "internalType": "address",
          "name": "_address",
          "type": "address"
        }
      ],
      "name": "addEmployee",
      "outputs": [],
      "stateMutability": "nonpayable",
      "type": "function"
    },
    {
      "inputs": [
        {
          "internalType": "string",
          "name": "a",
          "type": "string"
        },
        {
          "internalType": "string",
          "name": "b",
          "type": "string"
        }
      ],
      "name": "compareStrings",
      "outputs": [
        {
          "internalType": "bool",
          "name": "",
          "type": "bool"
        }
      ],
      "stateMutability": "pure",
      "type": "function"
    },
    {
      "inputs": [
        {
          "internalType": "string",
          "name": "a",
          "type": "string"
        },
        {
          "internalType": "string",
          "name": "b",
          "type": "string"
        }
      ],
      "name": "concat",
      "outputs": [
        {
          "internalType": "string",
          "name": "",
          "type": "string"
        }
      ],
      "stateMutability": "pure",
      "type": "function"
    },
    {
      "inputs": [],
      "name": "doctorCnt",
      "outputs": [
        {
          "internalType": "uint256",
          "name": "",
          "type": "uint256"
        }
      ],
      "stateMutability": "view",
      "type": "function"
    },
    {
      "inputs": [
        {
          "internalType": "string",
          "name": "_id",
          "type": "string"
        }
      ],
      "name": "getCreditScore",
      "outputs": [
        {
          "internalType": "uint256",
          "name": "",
          "type": "uint256"
        }
      ],
      "stateMutability": "view",
      "type": "function"
    },
    {
      "inputs": [
        {
          "internalType": "string",
          "name": "_id",
          "type": "string"
        }
      ],
      "name": "getMedRecordCnt",
      "outputs": [
        {
          "internalType": "uint256",
          "name": "x",
          "type": "uint256"
        }
      ],
      "stateMutability": "view",
      "type": "function"
    },
    {
      "inputs": [
        {
          "internalType": "string",
          "name": "_id",
          "type": "string"
        }
      ],
      "name": "getPersonalInfoHash",
      "outputs": [
        {
          "internalType": "string",
          "name": "x",
          "type": "string"
        }
      ],
      "stateMutability": "view",
      "type": "function"
    },
    {
      "inputs": [],
      "name": "hospitalCnt",
      "outputs": [
        {
          "internalType": "uint256",
          "name": "",
          "type": "uint256"
        }
      ],
      "stateMutability": "view",
      "type": "function"
    },
    {
      "inputs": [
        {
          "internalType": "string",
          "name": "_id",
          "type": "string"
        }
      ],
      "name": "isAllowed",
      "outputs": [
        {
          "internalType": "bool",
          "name": "",
          "type": "bool"
        }
      ],
      "stateMutability": "view",
      "type": "function"
    },
    {
      "inputs": [
        {
          "internalType": "address",
          "name": "",
          "type": "address"
        }
      ],
      "name": "isDoctor",
      "outputs": [
        {
          "internalType": "bool",
          "name": "",
          "type": "bool"
        }
      ],
      "stateMutability": "view",
      "type": "function"
    },
    {
      "inputs": [
        {
          "internalType": "address",
          "name": "",
          "type": "address"
        }
      ],
      "name": "isHospital",
      "outputs": [
        {
          "internalType": "bool",
          "name": "",
          "type": "bool"
        }
      ],
      "stateMutability": "view",
      "type": "function"
    },
    {
      "inputs": [
        {
          "internalType": "address",
          "name": "",
          "type": "address"
        }
      ],
      "name": "isLab",
      "outputs": [
        {
          "internalType": "bool",
          "name": "",
          "type": "bool"
        }
      ],
      "stateMutability": "view",
      "type": "function"
    },
    {
      "inputs": [
        {
          "internalType": "address",
          "name": "",
          "type": "address"
        }
      ],
      "name": "isOwner",
      "outputs": [
        {
          "internalType": "bool",
          "name": "",
          "type": "bool"
        }
      ],
      "stateMutability": "view",
      "type": "function"
    },
    {
      "inputs": [
        {
          "internalType": "address",
          "name": "",
          "type": "address"
        }
      ],
      "name": "isPatient",
      "outputs": [
        {
          "internalType": "bool",
          "name": "",
          "type": "bool"
        }
      ],
      "stateMutability": "view",
      "type": "function"
    },
    {
      "inputs": [
        {
          "internalType": "address",
          "name": "",
          "type": "address"
        }
      ],
      "name": "isTech",
      "outputs": [
        {
          "internalType": "bool",
          "name": "",
          "type": "bool"
        }
      ],
      "stateMutability": "view",
      "type": "function"
    },
    {
      "inputs": [],
      "name": "labCnt",
      "outputs": [
        {
          "internalType": "uint256",
          "name": "",
          "type": "uint256"
        }
      ],
      "stateMutability": "view",
      "type": "function"
    },
    {
      "inputs": [],
      "name": "patientCnt",
      "outputs": [
        {
          "internalType": "uint256",
          "name": "",
          "type": "uint256"
        }
      ],
      "stateMutability": "view",
      "type": "function"
    },
    {
      "inputs": [
        {
          "internalType": "address",
          "name": "",
          "type": "address"
        }
      ],
      "name": "record",
      "outputs": [
        {
          "internalType": "string",
          "name": "personalInfoHash",
          "type": "string"
        },
        {
          "internalType": "uint256",
          "name": "credit",
          "type": "uint256"
        },
        {
          "internalType": "uint256",
          "name": "totalRecord",
          "type": "uint256"
        }
      ],
      "stateMutability": "view",
      "type": "function"
    },
    {
      "inputs": [
        {
          "internalType": "string",
          "name": "_pinfo",
          "type": "string"
        }
      ],
      "name": "setPersonalInfoHash",
      "outputs": [],
      "stateMutability": "nonpayable",
      "type": "function"
    },
    {
      "inputs": [],
      "name": "techCnt",
      "outputs": [
        {
          "internalType": "uint256",
          "name": "",
          "type": "uint256"
        }
      ],
      "stateMutability": "view",
      "type": "function"
    },
    {
      "inputs": [
        {
          "internalType": "uint256",
          "name": "_reportId",
          "type": "uint256"
        }
      ],
      "name": "totalConfirmation",
      "outputs": [
        {
          "internalType": "uint256",
          "name": "",
          "type": "uint256"
        }
      ],
      "stateMutability": "view",
      "type": "function"
    },
    {
      "inputs": [
        {
          "internalType": "uint256",
          "name": "_reportId",
          "type": "uint256"
        }
      ],
      "name": "totalConsulation",
      "outputs": [
        {
          "internalType": "uint256",
          "name": "",
          "type": "uint256"
        }
      ],
      "stateMutability": "view",
      "type": "function"
    },
    {
      "inputs": [
        {
          "internalType": "address",
          "name": "",
          "type": "address"
        }
      ],
      "name": "worksAt",
      "outputs": [
        {
          "internalType": "address",
          "name": "",
          "type": "address"
        }
      ],
      "stateMutability": "view",
      "type": "function"
    },
    {
      "inputs": [
        {
          "internalType": "string",
          "name": "_mHash",
          "type": "string"
        },
        {
          "internalType": "string",
          "name": "_id",
          "type": "string"
        }
      ],
      "name": "setMedInfoHash",
      "outputs": [],
      "stateMutability": "nonpayable",
      "type": "function"
    },
    {
      "inputs": [
        {
          "internalType": "string",
          "name": "_id",
          "type": "string"
        },
        {
          "internalType": "uint256",
          "name": "_reportId",
          "type": "uint256"
        }
      ],
      "name": "getMedInfoHash",
      "outputs": [
        {
          "internalType": "string",
          "name": "",
          "type": "string"
        }
      ],
      "stateMutability": "view",
      "type": "function"
    },
    {
      "inputs": [
        {
          "internalType": "string",
          "name": "_id",
          "type": "string"
        },
        {
          "internalType": "uint256",
          "name": "_reportId",
          "type": "uint256"
        },
        {
          "internalType": "string",
          "name": "status",
          "type": "string"
        }
      ],
      "name": "confirmDisease",
      "outputs": [],
      "stateMutability": "nonpayable",
      "type": "function"
    },
    {
      "inputs": [
        {
          "internalType": "string",
          "name": "_id",
          "type": "string"
        },
        {
          "internalType": "uint256",
          "name": "_reportId",
          "type": "uint256"
        },
        {
          "internalType": "string",
          "name": "status",
          "type": "string"
        }
      ],
      "name": "reExam",
      "outputs": [],
      "stateMutability": "nonpayable",
      "type": "function"
    }
  ],
  "bytecode": "0x608060405260008055600060015560006002556000600355600060045534801561002857600080fd5b506147e1806100386000396000f3fe608060405234801561001057600080fd5b50600436106101da5760003560e01c80638fc7043f11610104578063bfa28ff1116100a2578063e4ded01111610071578063e4ded01114610603578063eac8aa6214610633578063ebfb412d14610663578063f3cb8c3114610693576101da565b8063bfa28ff114610557578063ce64eac114610587578063e12483f8146105b7578063e292ec08146105e7576101da565b8063b89895f2116100de578063b89895f2146104bd578063bb962ede146104db578063bdf6c673146104f7578063bed34bba14610527576101da565b80638fc7043f14610453578063996440c61461046f578063ac2018e51461049f576101da565b80634761658e1161017c578063807ad9401161014b578063807ad9401461039357806389c19ddb146103c35780638f9c79ed146103f35780638fa7939014610423576101da565b80634761658e146102e557806349d8fea1146103155780635e3908801461034557806360ebd69014610375576101da565b806333751782116101b857806333751782146102495780633465d6d51461026557806339f0b138146102975780633eb23e69146102c7576101da565b8063030b35cb146101df5780631b9d1154146101fb5780632f54bf6e14610219575b600080fd5b6101f960048036038101906101f4919061377c565b6106af565b005b610203610934565b604051610210919061380d565b60405180910390f35b610233600480360381019061022e9190613886565b61093a565b60405161024091906138ce565b60405180910390f35b610263600480360381019061025e9190613915565b61095a565b005b61027f600480360381019061027a9190613886565b610e32565b60405161028e93929190613a28565b60405180910390f35b6102b160048036038101906102ac9190613a66565b610ee4565b6040516102be9190613abe565b60405180910390f35b6102cf610f2d565b6040516102dc919061380d565b60405180910390f35b6102ff60048036038101906102fa9190613a66565b610f33565b60405161030c9190613ad9565b60405180910390f35b61032f600480360381019061032a9190613a66565b6110e8565b60405161033c919061380d565b60405180910390f35b61035f600480360381019061035a9190613886565b611203565b60405161036c91906138ce565b60405180910390f35b61037d611223565b60405161038a919061380d565b60405180910390f35b6103ad60048036038101906103a89190613a66565b611229565b6040516103ba91906138ce565b60405180910390f35b6103dd60048036038101906103d8919061377c565b6116fc565b6040516103ea9190613ad9565b60405180910390f35b61040d60048036038101906104089190613886565b611728565b60405161041a91906138ce565b60405180910390f35b61043d60048036038101906104389190613afb565b611748565b60405161044a9190613ad9565b60405180910390f35b61046d60048036038101906104689190613a66565b611abf565b005b61048960048036038101906104849190613886565b611b9e565b60405161049691906138ce565b60405180910390f35b6104a7611bbe565b6040516104b4919061380d565b60405180910390f35b6104c5611bc4565b6040516104d2919061380d565b60405180910390f35b6104f560048036038101906104f09190613915565b611bca565b005b610511600480360381019061050c9190613886565b6120a1565b60405161051e91906138ce565b60405180910390f35b610541600480360381019061053c919061377c565b6120c1565b60405161054e91906138ce565b60405180910390f35b610571600480360381019061056c9190613b57565b61211a565b60405161057e919061380d565b60405180910390f35b6105a1600480360381019061059c9190613886565b61220c565b6040516105ae91906138ce565b60405180910390f35b6105d160048036038101906105cc9190613a66565b61222c565b6040516105de919061380d565b60405180910390f35b61060160048036038101906105fc9190613b84565b612358565b005b61061d60048036038101906106189190613b57565b612bb6565b60405161062a919061380d565b60405180910390f35b61064d60048036038101906106489190613886565b612ca8565b60405161065a9190613abe565b60405180910390f35b61067d60048036038101906106789190613886565b612cdb565b60405161068a9190613ad9565b60405180910390f35b6106ad60048036038101906106a89190613886565b612d7b565b005b6000600b826040516106c19190613c1c565b908152602001604051809103902060009054906101000a900473ffffffffffffffffffffffffffffffffffffffff169050600660008273ffffffffffffffffffffffffffffffffffffffff1673ffffffffffffffffffffffffffffffffffffffff16815260200190815260200160002060009054906101000a900460ff1661077e576040517f08c379a000000000000000000000000000000000000000000000000000000000815260040161077590613c7f565b60405180910390fd5b61078782611229565b80156107dc5750600960003373ffffffffffffffffffffffffffffffffffffffff1673ffffffffffffffffffffffffffffffffffffffff16815260200190815260200160002060009054906101000a900460ff165b61081b576040517f08c379a000000000000000000000000000000000000000000000000000000000815260040161081290613ceb565b60405180910390fd5b6000600e60008373ffffffffffffffffffffffffffffffffffffffff1673ffffffffffffffffffffffffffffffffffffffff16815260200190815260200160002060040154905060018161086f9190613d3a565b905083600e60008473ffffffffffffffffffffffffffffffffffffffff1673ffffffffffffffffffffffffffffffffffffffff168152602001908152602001600020600101600083815260200190815260200160002060000190816108d49190613f9c565b5080600e60008473ffffffffffffffffffffffffffffffffffffffff1673ffffffffffffffffffffffffffffffffffffffff16815260200190815260200160002060040160008282546109279190613d3a565b9250508190555050505050565b60015481565b600a6020528060005260406000206000915054906101000a900460ff1681565b600860003373ffffffffffffffffffffffffffffffffffffffff1673ffffffffffffffffffffffffffffffffffffffff16815260200190815260200160002060009054906101000a900460ff166109e6576040517f08c379a00000000000000000000000000000000000000000000000000000000081526004016109dd906140ba565b60405180910390fd5b6000600b846040516109f89190613c1c565b908152602001604051809103902060009054906101000a900473ffffffffffffffffffffffffffffffffffffffff169050610a3284611229565b610a71576040517f08c379a0000000000000000000000000000000000000000000000000000000008152600401610a6890614126565b60405180910390fd5b600660008273ffffffffffffffffffffffffffffffffffffffff1673ffffffffffffffffffffffffffffffffffffffff16815260200190815260200160002060009054906101000a900460ff16610afd576040517f08c379a0000000000000000000000000000000000000000000000000000000008152600401610af490613c7f565b60405180910390fd5b600e60008273ffffffffffffffffffffffffffffffffffffffff1673ffffffffffffffffffffffffffffffffffffffff168152602001908152602001600020600101600084815260200190815260200160002060030160003373ffffffffffffffffffffffffffffffffffffffff1673ffffffffffffffffffffffffffffffffffffffff16815260200190815260200160002060009054906101000a900460ff1615610bde576040517f08c379a0000000000000000000000000000000000000000000000000000000008152600401610bd590614192565b60405180910390fd5b82600e60008373ffffffffffffffffffffffffffffffffffffffff1673ffffffffffffffffffffffffffffffffffffffff168152602001908152602001600020600401541015610c63576040517f08c379a0000000000000000000000000000000000000000000000000000000008152600401610c5a906141fe565b60405180910390fd5b6001600e60008373ffffffffffffffffffffffffffffffffffffffff1673ffffffffffffffffffffffffffffffffffffffff168152602001908152602001600020600101600085815260200190815260200160002060030160003373ffffffffffffffffffffffffffffffffffffffff1673ffffffffffffffffffffffffffffffffffffffff16815260200190815260200160002060006101000a81548160ff021916908315150217905550600e60008273ffffffffffffffffffffffffffffffffffffffff1673ffffffffffffffffffffffffffffffffffffffff16815260200190815260200160002060010160008481526020019081526020016000206001016000815480929190610d769061421e565b9190505550610dba826040518060400160405280600481526020017f74727565000000000000000000000000000000000000000000000000000000008152506120c1565b15610e2c57600e60008273ffffffffffffffffffffffffffffffffffffffff1673ffffffffffffffffffffffffffffffffffffffff16815260200190815260200160002060010160008481526020019081526020016000206002016000815480929190610e269061421e565b91905055505b50505050565b600e602052806000526040600020600091509050806000018054610e5590613dbf565b80601f0160208091040260200160405190810160405280929190818152602001828054610e8190613dbf565b8015610ece5780601f10610ea357610100808354040283529160200191610ece565b820191906000526020600020905b815481529060010190602001808311610eb157829003601f168201915b5050505050908060030154908060040154905083565b600b818051602081018201805184825260208301602085012081835280955050505050506000915054906101000a900473ffffffffffffffffffffffffffffffffffffffff1681565b60025481565b60606000600b83604051610f479190613c1c565b908152602001604051809103902060009054906101000a900473ffffffffffffffffffffffffffffffffffffffff169050600660008273ffffffffffffffffffffffffffffffffffffffff1673ffffffffffffffffffffffffffffffffffffffff16815260200190815260200160002060009054906101000a900460ff168015610fd65750610fd583611229565b5b611015576040517f08c379a000000000000000000000000000000000000000000000000000000000815260040161100c90613c7f565b60405180910390fd5b600e60008273ffffffffffffffffffffffffffffffffffffffff1673ffffffffffffffffffffffffffffffffffffffff168152602001908152602001600020600001805461106290613dbf565b80601f016020809104026020016040519081016040528092919081815260200182805461108e90613dbf565b80156110db5780601f106110b0576101008083540402835291602001916110db565b820191906000526020600020905b8154815290600101906020018083116110be57829003601f168201915b5050505050915050919050565b600080600b836040516110fb9190613c1c565b908152602001604051809103902060009054906101000a900473ffffffffffffffffffffffffffffffffffffffff169050600660008273ffffffffffffffffffffffffffffffffffffffff1673ffffffffffffffffffffffffffffffffffffffff16815260200190815260200160002060009054906101000a900460ff166111b8576040517f08c379a00000000000000000000000000000000000000000000000000000000081526004016111af90613c7f565b60405180910390fd5b600e60008273ffffffffffffffffffffffffffffffffffffffff1673ffffffffffffffffffffffffffffffffffffffff16815260200190815260200160002060030154915050919050565b60076020528060005260406000206000915054906101000a900460ff1681565b60035481565b600080600b8360405161123c9190613c1c565b908152602001604051809103902060009054906101000a900473ffffffffffffffffffffffffffffffffffffffff169050600660008273ffffffffffffffffffffffffffffffffffffffff1673ffffffffffffffffffffffffffffffffffffffff16815260200190815260200160002060009054906101000a900460ff166112f9576040517f08c379a00000000000000000000000000000000000000000000000000000000081526004016112f0906142b2565b60405180910390fd5b8073ffffffffffffffffffffffffffffffffffffffff163373ffffffffffffffffffffffffffffffffffffffff16036113a4578073ffffffffffffffffffffffffffffffffffffffff163373ffffffffffffffffffffffffffffffffffffffff161461139a576040517f08c379a00000000000000000000000000000000000000000000000000000000081526004016113919061431e565b60405180910390fd5b60019150506116f7565b600860003373ffffffffffffffffffffffffffffffffffffffff1673ffffffffffffffffffffffffffffffffffffffff16815260200190815260200160002060009054906101000a900460ff16806114455750600960003373ffffffffffffffffffffffffffffffffffffffff1673ffffffffffffffffffffffffffffffffffffffff16815260200190815260200160002060009054906101000a900460ff165b611484576040517f08c379a000000000000000000000000000000000000000000000000000000000815260040161147b9061438a565b60405180910390fd5b6000600c60003373ffffffffffffffffffffffffffffffffffffffff1673ffffffffffffffffffffffffffffffffffffffff16815260200190815260200160002060009054906101000a900473ffffffffffffffffffffffffffffffffffffffff169050600560008273ffffffffffffffffffffffffffffffffffffffff1673ffffffffffffffffffffffffffffffffffffffff16815260200190815260200160002060009054906101000a900460ff16806115895750600760008273ffffffffffffffffffffffffffffffffffffffff1673ffffffffffffffffffffffffffffffffffffffff16815260200190815260200160002060009054906101000a900460ff165b6115c8576040517f08c379a00000000000000000000000000000000000000000000000000000000081526004016115bf90614126565b60405180910390fd5b60005b600e60008473ffffffffffffffffffffffffffffffffffffffff1673ffffffffffffffffffffffffffffffffffffffff168152602001908152602001600020600201805490508110156116ef576000600e60008573ffffffffffffffffffffffffffffffffffffffff1673ffffffffffffffffffffffffffffffffffffffff168152602001908152602001600020600201828154811061166e5761166d6143aa565b5b9060005260206000200160009054906101000a900473ffffffffffffffffffffffffffffffffffffffff1690508273ffffffffffffffffffffffffffffffffffffffff168173ffffffffffffffffffffffffffffffffffffffff16036116db5760019450505050506116f7565b5080806116e79061421e565b9150506115cb565b505060009150505b919050565b606082826040516020016117119291906143d9565b604051602081830303815290604052905092915050565b60066020528060005260406000206000915054906101000a900460ff1681565b60606000600b8460405161175c9190613c1c565b908152602001604051809103902060009054906101000a900473ffffffffffffffffffffffffffffffffffffffff169050600660008273ffffffffffffffffffffffffffffffffffffffff1673ffffffffffffffffffffffffffffffffffffffff16815260200190815260200160002060009054906101000a900460ff16611819576040517f08c379a000000000000000000000000000000000000000000000000000000000815260040161181090613c7f565b60405180910390fd5b60056000600c60003373ffffffffffffffffffffffffffffffffffffffff1673ffffffffffffffffffffffffffffffffffffffff16815260200190815260200160002060009054906101000a900473ffffffffffffffffffffffffffffffffffffffff1673ffffffffffffffffffffffffffffffffffffffff1673ffffffffffffffffffffffffffffffffffffffff16815260200190815260200160002060009054906101000a900460ff16806119505750600660003373ffffffffffffffffffffffffffffffffffffffff1673ffffffffffffffffffffffffffffffffffffffff16815260200190815260200160002060009054906101000a900460ff16801561194f57508073ffffffffffffffffffffffffffffffffffffffff163373ffffffffffffffffffffffffffffffffffffffff16145b5b61198f576040517f08c379a000000000000000000000000000000000000000000000000000000000815260040161198690614126565b60405180910390fd5b61199884611229565b6119d7576040517f08c379a00000000000000000000000000000000000000000000000000000000081526004016119ce90614449565b60405180910390fd5b600e60008273ffffffffffffffffffffffffffffffffffffffff1673ffffffffffffffffffffffffffffffffffffffff16815260200190815260200160002060010160008481526020019081526020016000206000018054611a3890613dbf565b80601f0160208091040260200160405190810160405280929190818152602001828054611a6490613dbf565b8015611ab15780601f10611a8657610100808354040283529160200191611ab1565b820191906000526020600020905b815481529060010190602001808311611a9457829003601f168201915b505050505091505092915050565b600660003373ffffffffffffffffffffffffffffffffffffffff1673ffffffffffffffffffffffffffffffffffffffff16815260200190815260200160002060009054906101000a900460ff16611b4b576040517f08c379a0000000000000000000000000000000000000000000000000000000008152600401611b42906144b5565b60405180910390fd5b80600e60003373ffffffffffffffffffffffffffffffffffffffff1673ffffffffffffffffffffffffffffffffffffffff1681526020019081526020016000206000019081611b9a9190613f9c565b5050565b60086020528060005260406000206000915054906101000a900460ff1681565b60005481565b60045481565b600860003373ffffffffffffffffffffffffffffffffffffffff1673ffffffffffffffffffffffffffffffffffffffff16815260200190815260200160002060009054906101000a900460ff16611c56576040517f08c379a0000000000000000000000000000000000000000000000000000000008152600401611c4d906140ba565b60405180910390fd5b6000600b84604051611c689190613c1c565b908152602001604051809103902060009054906101000a900473ffffffffffffffffffffffffffffffffffffffff169050611ca284611229565b611ce1576040517f08c379a0000000000000000000000000000000000000000000000000000000008152600401611cd890614521565b60405180910390fd5b600660008273ffffffffffffffffffffffffffffffffffffffff1673ffffffffffffffffffffffffffffffffffffffff16815260200190815260200160002060009054906101000a900460ff16611d6d576040517f08c379a0000000000000000000000000000000000000000000000000000000008152600401611d6490613c7f565b60405180910390fd5b600e60008273ffffffffffffffffffffffffffffffffffffffff1673ffffffffffffffffffffffffffffffffffffffff168152602001908152602001600020600101600084815260200190815260200160002060030160003373ffffffffffffffffffffffffffffffffffffffff1673ffffffffffffffffffffffffffffffffffffffff16815260200190815260200160002060009054906101000a900460ff16611e4d576040517f08c379a0000000000000000000000000000000000000000000000000000000008152600401611e4490614192565b60405180910390fd5b82600e60008373ffffffffffffffffffffffffffffffffffffffff1673ffffffffffffffffffffffffffffffffffffffff168152602001908152602001600020600401541015611ed2576040517f08c379a0000000000000000000000000000000000000000000000000000000008152600401611ec9906141fe565b60405180910390fd5b6001600e60008373ffffffffffffffffffffffffffffffffffffffff1673ffffffffffffffffffffffffffffffffffffffff168152602001908152602001600020600101600085815260200190815260200160002060030160003373ffffffffffffffffffffffffffffffffffffffff1673ffffffffffffffffffffffffffffffffffffffff16815260200190815260200160002060006101000a81548160ff021916908315150217905550600e60008273ffffffffffffffffffffffffffffffffffffffff1673ffffffffffffffffffffffffffffffffffffffff16815260200190815260200160002060010160008481526020019081526020016000206001016000815480929190611fe59061421e565b9190505550612029826040518060400160405280600581526020017f66616c73650000000000000000000000000000000000000000000000000000008152506120c1565b1561209b57600e60008273ffffffffffffffffffffffffffffffffffffffff1673ffffffffffffffffffffffffffffffffffffffff1681526020019081526020016000206001016000848152602001908152602001600020600201600081548092919061209590614541565b91905055505b50505050565b60056020528060005260406000206000915054906101000a900460ff1681565b6000816040516020016120d49190613c1c565b60405160208183030381529060405280519060200120836040516020016120fb9190613c1c565b6040516020818303038152906040528051906020012014905092915050565b6000600660003373ffffffffffffffffffffffffffffffffffffffff1673ffffffffffffffffffffffffffffffffffffffff16815260200190815260200160002060009054906101000a900460ff166121a8576040517f08c379a000000000000000000000000000000000000000000000000000000000815260040161219f90613c7f565b60405180910390fd5b6000600e60003373ffffffffffffffffffffffffffffffffffffffff1673ffffffffffffffffffffffffffffffffffffffff168152602001908152602001600020600101600084815260200190815260200160002060020154905080915050919050565b60096020528060005260406000206000915054906101000a900460ff1681565b600080600b8360405161223f9190613c1c565b908152602001604051809103902060009054906101000a900473ffffffffffffffffffffffffffffffffffffffff169050600660008273ffffffffffffffffffffffffffffffffffffffff1673ffffffffffffffffffffffffffffffffffffffff16815260200190815260200160002060009054906101000a900460ff1680156122ce57506122cd83611229565b5b61230d576040517f08c379a0000000000000000000000000000000000000000000000000000000008152600401612304906142b2565b60405180910390fd5b600e60008273ffffffffffffffffffffffffffffffffffffffff1673ffffffffffffffffffffffffffffffffffffffff16815260200190815260200160002060040154915050919050565b600a60003373ffffffffffffffffffffffffffffffffffffffff1673ffffffffffffffffffffffffffffffffffffffff16815260200190815260200160002060009054906101000a900460ff166123e4576040517f08c379a00000000000000000000000000000000000000000000000000000000081526004016123db906145b6565b60405180910390fd5b81600073ffffffffffffffffffffffffffffffffffffffff168173ffffffffffffffffffffffffffffffffffffffff1603612454576040517f08c379a000000000000000000000000000000000000000000000000000000000815260040161244b90614622565b60405180910390fd5b600860008273ffffffffffffffffffffffffffffffffffffffff1673ffffffffffffffffffffffffffffffffffffffff16815260200190815260200160002060009054906101000a900460ff161580156124f85750600960008273ffffffffffffffffffffffffffffffffffffffff1673ffffffffffffffffffffffffffffffffffffffff16815260200190815260200160002060009054906101000a900460ff16155b801561254e5750600760008273ffffffffffffffffffffffffffffffffffffffff1673ffffffffffffffffffffffffffffffffffffffff16815260200190815260200160002060009054906101000a900460ff16155b80156125a45750600660008273ffffffffffffffffffffffffffffffffffffffff1673ffffffffffffffffffffffffffffffffffffffff16815260200190815260200160002060009054906101000a900460ff16155b80156125fa5750600a60008273ffffffffffffffffffffffffffffffffffffffff1673ffffffffffffffffffffffffffffffffffffffff16815260200190815260200160002060009054906101000a900460ff16155b80156126505750600560008273ffffffffffffffffffffffffffffffffffffffff1673ffffffffffffffffffffffffffffffffffffffff16815260200190815260200160002060009054906101000a900460ff16155b61268f576040517f08c379a00000000000000000000000000000000000000000000000000000000081526004016126869061468e565b60405180910390fd5b6126ce826040518060400160405280600881526020017f686f73706974616c0000000000000000000000000000000000000000000000008152506120c1565b15612846576001600560008573ffffffffffffffffffffffffffffffffffffffff1673ffffffffffffffffffffffffffffffffffffffff16815260200190815260200160002060006101000a81548160ff0219169083151502179055506001600081548092919061273e9061421e565b919050555060006127506001546134bc565b905060006127936040518060400160405280600181526020017f6800000000000000000000000000000000000000000000000000000000000000815250836116fc565b905084600b826040516127a69190613c1c565b908152602001604051809103902060006101000a81548173ffffffffffffffffffffffffffffffffffffffff021916908373ffffffffffffffffffffffffffffffffffffffff16021790555080600d60008773ffffffffffffffffffffffffffffffffffffffff1673ffffffffffffffffffffffffffffffffffffffff168152602001908152602001600020908161283e9190613f9c565b505050612bb1565b612885826040518060400160405280600381526020017f6c616200000000000000000000000000000000000000000000000000000000008152506120c1565b156129fd576001600760008573ffffffffffffffffffffffffffffffffffffffff1673ffffffffffffffffffffffffffffffffffffffff16815260200190815260200160002060006101000a81548160ff021916908315150217905550600460008154809291906128f59061421e565b919050555060006129076004546134bc565b9050600061294a6040518060400160405280600181526020017f6c00000000000000000000000000000000000000000000000000000000000000815250836116fc565b905084600b8260405161295d9190613c1c565b908152602001604051809103902060006101000a81548173ffffffffffffffffffffffffffffffffffffffff021916908373ffffffffffffffffffffffffffffffffffffffff16021790555080600d60008773ffffffffffffffffffffffffffffffffffffffff1673ffffffffffffffffffffffffffffffffffffffff16815260200190815260200160002090816129f59190613f9c565b505050612bb0565b612a3c826040518060400160405280600781526020017f70617469656e74000000000000000000000000000000000000000000000000008152506120c1565b15612baf576001600660008573ffffffffffffffffffffffffffffffffffffffff1673ffffffffffffffffffffffffffffffffffffffff16815260200190815260200160002060006101000a81548160ff021916908315150217905550600080815480929190612aab9061421e565b91905055506000612abd6000546134bc565b90506000612b006040518060400160405280600181526020017f7000000000000000000000000000000000000000000000000000000000000000815250836116fc565b905084600b82604051612b139190613c1c565b908152602001604051809103902060006101000a81548173ffffffffffffffffffffffffffffffffffffffff021916908373ffffffffffffffffffffffffffffffffffffffff16021790555080600d60008773ffffffffffffffffffffffffffffffffffffffff1673ffffffffffffffffffffffffffffffffffffffff1681526020019081526020016000209081612bab9190613f9c565b5050505b5b5b505050565b6000600660003373ffffffffffffffffffffffffffffffffffffffff1673ffffffffffffffffffffffffffffffffffffffff16815260200190815260200160002060009054906101000a900460ff16612c44576040517f08c379a0000000000000000000000000000000000000000000000000000000008152600401612c3b90613c7f565b60405180910390fd5b6000600e60003373ffffffffffffffffffffffffffffffffffffffff1673ffffffffffffffffffffffffffffffffffffffff168152602001908152602001600020600101600084815260200190815260200160002060010154905080915050919050565b600c6020528060005260406000206000915054906101000a900473ffffffffffffffffffffffffffffffffffffffff1681565b600d6020528060005260406000206000915090508054612cfa90613dbf565b80601f0160208091040260200160405190810160405280929190818152602001828054612d2690613dbf565b8015612d735780601f10612d4857610100808354040283529160200191612d73565b820191906000526020600020905b815481529060010190602001808311612d5657829003601f168201915b505050505081565b80600073ffffffffffffffffffffffffffffffffffffffff168173ffffffffffffffffffffffffffffffffffffffff1603612deb576040517f08c379a0000000000000000000000000000000000000000000000000000000008152600401612de290614622565b60405180910390fd5b600860008273ffffffffffffffffffffffffffffffffffffffff1673ffffffffffffffffffffffffffffffffffffffff16815260200190815260200160002060009054906101000a900460ff16158015612e8f5750600960008273ffffffffffffffffffffffffffffffffffffffff1673ffffffffffffffffffffffffffffffffffffffff16815260200190815260200160002060009054906101000a900460ff16155b8015612ee55750600760008273ffffffffffffffffffffffffffffffffffffffff1673ffffffffffffffffffffffffffffffffffffffff16815260200190815260200160002060009054906101000a900460ff16155b8015612f3b5750600660008273ffffffffffffffffffffffffffffffffffffffff1673ffffffffffffffffffffffffffffffffffffffff16815260200190815260200160002060009054906101000a900460ff16155b8015612f915750600a60008273ffffffffffffffffffffffffffffffffffffffff1673ffffffffffffffffffffffffffffffffffffffff16815260200190815260200160002060009054906101000a900460ff16155b8015612fe75750600560008273ffffffffffffffffffffffffffffffffffffffff1673ffffffffffffffffffffffffffffffffffffffff16815260200190815260200160002060009054906101000a900460ff16155b613026576040517f08c379a000000000000000000000000000000000000000000000000000000000815260040161301d9061468e565b60405180910390fd5b600560003373ffffffffffffffffffffffffffffffffffffffff1673ffffffffffffffffffffffffffffffffffffffff16815260200190815260200160002060009054906101000a900460ff16806130c75750600760003373ffffffffffffffffffffffffffffffffffffffff1673ffffffffffffffffffffffffffffffffffffffff16815260200190815260200160002060009054906101000a900460ff165b613106576040517f08c379a00000000000000000000000000000000000000000000000000000000081526004016130fd906146fa565b60405180910390fd5b600560003373ffffffffffffffffffffffffffffffffffffffff1673ffffffffffffffffffffffffffffffffffffffff16815260200190815260200160002060009054906101000a900460ff16156132cb576002600081548092919061316b9061421e565b91905055506001600860008473ffffffffffffffffffffffffffffffffffffffff1673ffffffffffffffffffffffffffffffffffffffff16815260200190815260200160002060006101000a81548160ff02191690831515021790555060006131d56002546134bc565b905060006132186040518060400160405280600181526020017f6400000000000000000000000000000000000000000000000000000000000000815250836116fc565b905083600b8260405161322b9190613c1c565b908152602001604051809103902060006101000a81548173ffffffffffffffffffffffffffffffffffffffff021916908373ffffffffffffffffffffffffffffffffffffffff16021790555080600d60008673ffffffffffffffffffffffffffffffffffffffff1673ffffffffffffffffffffffffffffffffffffffff16815260200190815260200160002090816132c39190613f9c565b50505061343a565b6001600960008473ffffffffffffffffffffffffffffffffffffffff1673ffffffffffffffffffffffffffffffffffffffff16815260200190815260200160002060006101000a81548160ff021916908315150217905550600360008154809291906133369061421e565b919050555060006133486003546134bc565b9050600061338b6040518060400160405280600181526020017f7400000000000000000000000000000000000000000000000000000000000000815250836116fc565b905083600b8260405161339e9190613c1c565b908152602001604051809103902060006101000a81548173ffffffffffffffffffffffffffffffffffffffff021916908373ffffffffffffffffffffffffffffffffffffffff16021790555080600d60008673ffffffffffffffffffffffffffffffffffffffff1673ffffffffffffffffffffffffffffffffffffffff16815260200190815260200160002090816134369190613f9c565b5050505b33600c60008473ffffffffffffffffffffffffffffffffffffffff1673ffffffffffffffffffffffffffffffffffffffff16815260200190815260200160002060006101000a81548173ffffffffffffffffffffffffffffffffffffffff021916908373ffffffffffffffffffffffffffffffffffffffff1602179055505050565b606060008203613503576040518060400160405280600181526020017f3000000000000000000000000000000000000000000000000000000000000000815250905061361d565b600082905060005b6000821461353557808061351e9061421e565b915050600a8261352e9190614749565b915061350b565b60008167ffffffffffffffff81111561355157613550613651565b5b6040519080825280601f01601f1916602001820160405280156135835781602001600182028036833780820191505090505b50905060008290508593505b6000841461361557600a846135a4919061477a565b60306135b09190613d3a565b60f81b82826135be90614541565b925082815181106135d2576135d16143aa565b5b60200101907effffffffffffffffffffffffffffffffffffffffffffffffffffffffffffff1916908160001a905350600a8461360e9190614749565b935061358f565b819450505050505b919050565b6000604051905090565b600080fd5b600080fd5b600080fd5b600080fd5b6000601f19601f8301169050919050565b7f4e487b7100000000000000000000000000000000000000000000000000000000600052604160045260246000fd5b61368982613640565b810181811067ffffffffffffffff821117156136a8576136a7613651565b5b80604052505050565b60006136bb613622565b90506136c78282613680565b919050565b600067ffffffffffffffff8211156136e7576136e6613651565b5b6136f082613640565b9050602081019050919050565b82818337600083830152505050565b600061371f61371a846136cc565b6136b1565b90508281526020810184848401111561373b5761373a61363b565b5b6137468482856136fd565b509392505050565b600082601f83011261376357613762613636565b5b813561377384826020860161370c565b91505092915050565b600080604083850312156137935761379261362c565b5b600083013567ffffffffffffffff8111156137b1576137b0613631565b5b6137bd8582860161374e565b925050602083013567ffffffffffffffff8111156137de576137dd613631565b5b6137ea8582860161374e565b9150509250929050565b6000819050919050565b613807816137f4565b82525050565b600060208201905061382260008301846137fe565b92915050565b600073ffffffffffffffffffffffffffffffffffffffff82169050919050565b600061385382613828565b9050919050565b61386381613848565b811461386e57600080fd5b50565b6000813590506138808161385a565b92915050565b60006020828403121561389c5761389b61362c565b5b60006138aa84828501613871565b91505092915050565b60008115159050919050565b6138c8816138b3565b82525050565b60006020820190506138e360008301846138bf565b92915050565b6138f2816137f4565b81146138fd57600080fd5b50565b60008135905061390f816138e9565b92915050565b60008060006060848603121561392e5761392d61362c565b5b600084013567ffffffffffffffff81111561394c5761394b613631565b5b6139588682870161374e565b935050602061396986828701613900565b925050604084013567ffffffffffffffff81111561398a57613989613631565b5b6139968682870161374e565b9150509250925092565b600081519050919050565b600082825260208201905092915050565b60005b838110156139da5780820151818401526020810190506139bf565b838111156139e9576000848401525b50505050565b60006139fa826139a0565b613a0481856139ab565b9350613a148185602086016139bc565b613a1d81613640565b840191505092915050565b60006060820190508181036000830152613a4281866139ef565b9050613a5160208301856137fe565b613a5e60408301846137fe565b949350505050565b600060208284031215613a7c57613a7b61362c565b5b600082013567ffffffffffffffff811115613a9a57613a99613631565b5b613aa68482850161374e565b91505092915050565b613ab881613848565b82525050565b6000602082019050613ad36000830184613aaf565b92915050565b60006020820190508181036000830152613af381846139ef565b905092915050565b60008060408385031215613b1257613b1161362c565b5b600083013567ffffffffffffffff811115613b3057613b2f613631565b5b613b3c8582860161374e565b9250506020613b4d85828601613900565b9150509250929050565b600060208284031215613b6d57613b6c61362c565b5b6000613b7b84828501613900565b91505092915050565b60008060408385031215613b9b57613b9a61362c565b5b6000613ba985828601613871565b925050602083013567ffffffffffffffff811115613bca57613bc9613631565b5b613bd68582860161374e565b9150509250929050565b600081905092915050565b6000613bf6826139a0565b613c008185613be0565b9350613c108185602086016139bc565b80840191505092915050565b6000613c288284613beb565b915081905092915050565b7f6e6f7420612070617469656e7400000000000000000000000000000000000000600082015250565b6000613c69600d836139ab565b9150613c7482613c33565b602082019050919050565b60006020820190508181036000830152613c9881613c5c565b9050919050565b7f6e6f742061206c61625465636800000000000000000000000000000000000000600082015250565b6000613cd5600d836139ab565b9150613ce082613c9f565b602082019050919050565b60006020820190508181036000830152613d0481613cc8565b9050919050565b7f4e487b7100000000000000000000000000000000000000000000000000000000600052601160045260246000fd5b6000613d45826137f4565b9150613d50836137f4565b9250827fffffffffffffffffffffffffffffffffffffffffffffffffffffffffffffffff03821115613d8557613d84613d0b565b5b828201905092915050565b7f4e487b7100000000000000000000000000000000000000000000000000000000600052602260045260246000fd5b60006002820490506001821680613dd757607f821691505b602082108103613dea57613de9613d90565b5b50919050565b60008190508160005260206000209050919050565b60006020601f8301049050919050565b600082821b905092915050565b600060088302613e527fffffffffffffffffffffffffffffffffffffffffffffffffffffffffffffffff82613e15565b613e5c8683613e15565b95508019841693508086168417925050509392505050565b6000819050919050565b6000613e99613e94613e8f846137f4565b613e74565b6137f4565b9050919050565b6000819050919050565b613eb383613e7e565b613ec7613ebf82613ea0565b848454613e22565b825550505050565b600090565b613edc613ecf565b613ee7818484613eaa565b505050565b5b81811015613f0b57613f00600082613ed4565b600181019050613eed565b5050565b601f821115613f5057613f2181613df0565b613f2a84613e05565b81016020851015613f39578190505b613f4d613f4585613e05565b830182613eec565b50505b505050565b600082821c905092915050565b6000613f7360001984600802613f55565b1980831691505092915050565b6000613f8c8383613f62565b9150826002028217905092915050565b613fa5826139a0565b67ffffffffffffffff811115613fbe57613fbd613651565b5b613fc88254613dbf565b613fd3828285613f0f565b600060209050601f8311600181146140065760008415613ff4578287015190505b613ffe8582613f80565b865550614066565b601f19841661401486613df0565b60005b8281101561403c57848901518255600182019150602085019450602081019050614017565b868310156140595784890151614055601f891682613f62565b8355505b6001600288020188555050505b505050505050565b7f73656e646572206973206e6f74206120646f63746f7200000000000000000000600082015250565b60006140a46016836139ab565b91506140af8261406e565b602082019050919050565b600060208201905081810360008301526140d381614097565b9050919050565b7f6e6f7420616c6c6f776564000000000000000000000000000000000000000000600082015250565b6000614110600b836139ab565b915061411b826140da565b602082019050919050565b6000602082019050818103600083015261413f81614103565b9050919050565b7f6861766520636f6e6669726d656420616c726561647900000000000000000000600082015250565b600061417c6016836139ab565b915061418782614146565b602082019050919050565b600060208201905081810360008301526141ab8161416f565b9050919050565b7f696e76616c6964207265706f7274204964000000000000000000000000000000600082015250565b60006141e86011836139ab565b91506141f3826141b2565b602082019050919050565b60006020820190508181036000830152614217816141db565b9050919050565b6000614229826137f4565b91507fffffffffffffffffffffffffffffffffffffffffffffffffffffffffffffffff820361425b5761425a613d0b565b5b600182019050919050565b7f6e6f7420612070617469656e7427732069640000000000000000000000000000600082015250565b600061429c6012836139ab565b91506142a782614266565b602082019050919050565b600060208201905081810360008301526142cb8161428f565b9050919050565b7f74727920796f7572206964000000000000000000000000000000000000000000600082015250565b6000614308600b836139ab565b9150614313826142d2565b602082019050919050565b60006020820190508181036000830152614337816142fb565b9050919050565b7f6e6f74206120776f726b65720000000000000000000000000000000000000000600082015250565b6000614374600c836139ab565b915061437f8261433e565b602082019050919050565b600060208201905081810360008301526143a381614367565b9050919050565b7f4e487b7100000000000000000000000000000000000000000000000000000000600052603260045260246000fd5b60006143e58285613beb565b91506143f18284613beb565b91508190509392505050565b7f6e6f7420612076616c6964207265717565737400000000000000000000000000600082015250565b60006144336013836139ab565b915061443e826143fd565b602082019050919050565b6000602082019050818103600083015261446281614426565b9050919050565b7f73656e646572206973206e6f742070617469656e740000000000000000000000600082015250565b600061449f6015836139ab565b91506144aa82614469565b602082019050919050565b600060208201905081810360008301526144ce81614492565b9050919050565b7f6e6f7420416c6c6f776564000000000000000000000000000000000000000000600082015250565b600061450b600b836139ab565b9150614516826144d5565b602082019050919050565b6000602082019050818103600083015261453a816144fe565b9050919050565b600061454c826137f4565b91506000820361455f5761455e613d0b565b5b600182039050919050565b7f73656e646572206973206e6f74206f776e657200000000000000000000000000600082015250565b60006145a06013836139ab565b91506145ab8261456a565b602082019050919050565b600060208201905081810360008301526145cf81614593565b9050919050565b7f6e756c6c206164647265737320666f756e640000000000000000000000000000600082015250565b600061460c6012836139ab565b9150614617826145d6565b602082019050919050565b6000602082019050818103600083015261463b816145ff565b9050919050565b7f7072652d6578697374696e672061646472657373000000000000000000000000600082015250565b60006146786014836139ab565b915061468382614642565b602082019050919050565b600060208201905081810360008301526146a78161466b565b9050919050565b7f756e617574686f72697a65642061636365737300000000000000000000000000600082015250565b60006146e46013836139ab565b91506146ef826146ae565b602082019050919050565b60006020820190508181036000830152614713816146d7565b9050919050565b7f4e487b7100000000000000000000000000000000000000000000000000000000600052601260045260246000fd5b6000614754826137f4565b915061475f836137f4565b92508261476f5761476e61471a565b5b828204905092915050565b6000614785826137f4565b9150614790836137f4565b9250826147a05761479f61471a565b5b82820690509291505056fea26469706673582212201f37e6067f85a63413ddd41046ce75ed2acab07e9705b2a155bbe5746e2acfec64736f6c634300080f0033",
  "immutableReferences": {},
  "source": "// SPDX-License-Identifier: MIT\r\npragma solidity ^0.8;\r\n\r\nimport \"../contracts/details.sol\";\r\n\r\ncontract updateReport is details{\r\n\r\n\r\n    // lab technician at approved lab can add a patient's med info\r\n    function setMedInfoHash(  \r\n        string memory _mHash,\r\n        string memory _id    \r\n    )public\r\n    {\r\n        address _patientAddress  = Id[_id];\r\n\r\n        require(isPatient[_patientAddress], \"not a patient\" );\r\n        require(isAllowed(_id) && isTech[msg.sender],\"not a labTech\");\r\n\r\n        uint256 last = record[_patientAddress].totalRecord;\r\n        last += 1;\r\n        record[_patientAddress].medicalInfoHash[last].cid = _mHash;\r\n        record[_patientAddress].totalRecord += last;\r\n    }\r\n    // patient or doctors at approved insti can see a patient medical info\r\n    function getMedInfoHash(string memory _id,uint256 _reportId)\r\n    public view \r\n    returns(string memory){\r\n        address _patientAddress = Id[_id];\r\n        require(isPatient[_patientAddress], \"not a patient\" );\r\n        require(isHospital[worksAt[msg.sender]] || (isPatient[msg.sender] && msg.sender == _patientAddress) , \"not allowed\");\r\n        require(isAllowed(_id),\"not a valid request\");\r\n        return record[_patientAddress].medicalInfoHash[_reportId].cid;        \r\n    }\r\n\r\n    // doctors at approved hospitals can confirm the disease status\r\n    function confirmDisease(\r\n        string memory _id,\r\n        uint256 _reportId,\r\n        string memory status)\r\n        public\r\n        onlyDoctor\r\n    {\r\n        address _patientAddress = Id[_id];\r\n        require(isAllowed(_id),\"not allowed\");\r\n        require(isPatient[_patientAddress], \"not a patient\" );\r\n        require(!record[_patientAddress].medicalInfoHash[_reportId].confirmedBy[msg.sender] , \"have confirmed already\");\r\n        require(record[_patientAddress].totalRecord >= _reportId,\"invalid report Id\");\r\n        record[_patientAddress].medicalInfoHash[_reportId].confirmedBy[msg.sender] = true;\r\n        record[_patientAddress].medicalInfoHash[_reportId].consultationCnt++;\r\n        if(compareStrings(status ,\"true\")){\r\n            record[_patientAddress].medicalInfoHash[_reportId].confirmationCnt++;\r\n        }\r\n        \r\n    }\r\n\r\n    function reExam(\r\n        string memory _id,\r\n        uint256 _reportId,\r\n        string memory status\r\n    )public\r\n    onlyDoctor\r\n    {\r\n        address _patientAddress = Id[_id];\r\n        require(isAllowed(_id),\"not Allowed\");\r\n        require(isPatient[_patientAddress], \"not a patient\" );\r\n        require(record[_patientAddress].medicalInfoHash[_reportId].confirmedBy[msg.sender] , \"have confirmed already\");\r\n        require(record[_patientAddress].totalRecord >= _reportId,\"invalid report Id\");\r\n        record[_patientAddress].medicalInfoHash[_reportId].confirmedBy[msg.sender] = true;\r\n        record[_patientAddress].medicalInfoHash[_reportId].consultationCnt++;\r\n        if(compareStrings(status ,\"false\")){\r\n            record[_patientAddress].medicalInfoHash[_reportId].confirmationCnt--;\r\n        }\r\n        \r\n    }\r\n}",
  "sourcePath": "D:\\ri\\ehr\\contracts\\updateReport.sol",
  "compiler": {
    "name": "solc",
    "version": "0.8.15+commit.e14f2714.Emscripten.clang"
  },
  "schemaVersion": "3.4.8",
  "updatedAt": "2022-09-24T16:36:10.377Z",
  "devdoc": {
    "kind": "dev",
    "methods": {},
    "version": 1
  },
  "userdoc": {
    "kind": "user",
    "methods": {},
    "version": 1
  }
}