{
  "contractName": "updateReport",
  "abi": [
    {
      "inputs": [
        {
          "internalType": "address",
          "name": "",
          "type": "address"
        }
      ],
      "name": "Address",
      "outputs": [
        {
          "internalType": "string",
          "name": "",
          "type": "string"
        }
      ],
      "stateMutability": "view",
      "type": "function"
    },
    {
      "inputs": [
        {
          "internalType": "string",
          "name": "",
          "type": "string"
        }
      ],
      "name": "Id",
      "outputs": [
        {
          "internalType": "address",
          "name": "",
          "type": "address"
        }
      ],
      "stateMutability": "view",
      "type": "function"
    },
    {
      "inputs": [
        {
          "internalType": "address",
          "name": "_address",
          "type": "address"
        },
        {
          "internalType": "string",
          "name": "category",
          "type": "string"
        }
      ],
      "name": "addClient",
      "outputs": [],
      "stateMutability": "nonpayable",
      "type": "function"
    },
    {
      "inputs": [
        {
          "internalType": "address",
          "name": "_address",
          "type": "address"
        }
      ],
      "name": "addEmployee",
      "outputs": [],
      "stateMutability": "nonpayable",
      "type": "function"
    },
    {
      "inputs": [
        {
          "internalType": "string",
          "name": "a",
          "type": "string"
        },
        {
          "internalType": "string",
          "name": "b",
          "type": "string"
        }
      ],
      "name": "compareStrings",
      "outputs": [
        {
          "internalType": "bool",
          "name": "",
          "type": "bool"
        }
      ],
      "stateMutability": "pure",
      "type": "function"
    },
    {
      "inputs": [
        {
          "internalType": "string",
          "name": "a",
          "type": "string"
        },
        {
          "internalType": "string",
          "name": "b",
          "type": "string"
        }
      ],
      "name": "concat",
      "outputs": [
        {
          "internalType": "string",
          "name": "",
          "type": "string"
        }
      ],
      "stateMutability": "pure",
      "type": "function"
    },
    {
      "inputs": [
        {
          "internalType": "address",
          "name": "",
          "type": "address"
        }
      ],
      "name": "confirmedBy",
      "outputs": [
        {
          "internalType": "bool",
          "name": "",
          "type": "bool"
        }
      ],
      "stateMutability": "view",
      "type": "function"
    },
    {
      "inputs": [],
      "name": "doctorCnt",
      "outputs": [
        {
          "internalType": "uint256",
          "name": "",
          "type": "uint256"
        }
      ],
      "stateMutability": "view",
      "type": "function"
    },
    {
      "inputs": [
        {
          "internalType": "string",
          "name": "_id",
          "type": "string"
        }
      ],
      "name": "getCreditScore",
      "outputs": [
        {
          "internalType": "uint256",
          "name": "",
          "type": "uint256"
        }
      ],
      "stateMutability": "view",
      "type": "function"
    },
    {
      "inputs": [
        {
          "internalType": "string",
          "name": "_id",
          "type": "string"
        }
      ],
      "name": "getPersonalInfoHash",
      "outputs": [
        {
          "internalType": "string",
          "name": "",
          "type": "string"
        }
      ],
      "stateMutability": "view",
      "type": "function"
    },
    {
      "inputs": [],
      "name": "hospitalCnt",
      "outputs": [
        {
          "internalType": "uint256",
          "name": "",
          "type": "uint256"
        }
      ],
      "stateMutability": "view",
      "type": "function"
    },
    {
      "inputs": [
        {
          "internalType": "address",
          "name": "",
          "type": "address"
        }
      ],
      "name": "isDoctor",
      "outputs": [
        {
          "internalType": "bool",
          "name": "",
          "type": "bool"
        }
      ],
      "stateMutability": "view",
      "type": "function"
    },
    {
      "inputs": [
        {
          "internalType": "address",
          "name": "",
          "type": "address"
        }
      ],
      "name": "isHospital",
      "outputs": [
        {
          "internalType": "bool",
          "name": "",
          "type": "bool"
        }
      ],
      "stateMutability": "view",
      "type": "function"
    },
    {
      "inputs": [
        {
          "internalType": "address",
          "name": "",
          "type": "address"
        }
      ],
      "name": "isLab",
      "outputs": [
        {
          "internalType": "bool",
          "name": "",
          "type": "bool"
        }
      ],
      "stateMutability": "view",
      "type": "function"
    },
    {
      "inputs": [
        {
          "internalType": "address",
          "name": "",
          "type": "address"
        }
      ],
      "name": "isOwner",
      "outputs": [
        {
          "internalType": "bool",
          "name": "",
          "type": "bool"
        }
      ],
      "stateMutability": "view",
      "type": "function"
    },
    {
      "inputs": [
        {
          "internalType": "address",
          "name": "",
          "type": "address"
        }
      ],
      "name": "isPatient",
      "outputs": [
        {
          "internalType": "bool",
          "name": "",
          "type": "bool"
        }
      ],
      "stateMutability": "view",
      "type": "function"
    },
    {
      "inputs": [
        {
          "internalType": "address",
          "name": "",
          "type": "address"
        }
      ],
      "name": "isTech",
      "outputs": [
        {
          "internalType": "bool",
          "name": "",
          "type": "bool"
        }
      ],
      "stateMutability": "view",
      "type": "function"
    },
    {
      "inputs": [],
      "name": "labCnt",
      "outputs": [
        {
          "internalType": "uint256",
          "name": "",
          "type": "uint256"
        }
      ],
      "stateMutability": "view",
      "type": "function"
    },
    {
      "inputs": [],
      "name": "patientCnt",
      "outputs": [
        {
          "internalType": "uint256",
          "name": "",
          "type": "uint256"
        }
      ],
      "stateMutability": "view",
      "type": "function"
    },
    {
      "inputs": [
        {
          "internalType": "address",
          "name": "",
          "type": "address"
        }
      ],
      "name": "record",
      "outputs": [
        {
          "internalType": "string",
          "name": "personalInfoHash",
          "type": "string"
        },
        {
          "internalType": "uint256",
          "name": "credit",
          "type": "uint256"
        },
        {
          "internalType": "uint256",
          "name": "totalRecord",
          "type": "uint256"
        }
      ],
      "stateMutability": "view",
      "type": "function"
    },
    {
      "inputs": [
        {
          "internalType": "string",
          "name": "_pinfo",
          "type": "string"
        }
      ],
      "name": "setPersonalInfoHash",
      "outputs": [],
      "stateMutability": "nonpayable",
      "type": "function"
    },
    {
      "inputs": [],
      "name": "techCnt",
      "outputs": [
        {
          "internalType": "uint256",
          "name": "",
          "type": "uint256"
        }
      ],
      "stateMutability": "view",
      "type": "function"
    },
    {
      "inputs": [
        {
          "internalType": "uint256",
          "name": "_reportId",
          "type": "uint256"
        }
      ],
      "name": "totalConfirmation",
      "outputs": [
        {
          "internalType": "uint256",
          "name": "",
          "type": "uint256"
        }
      ],
      "stateMutability": "view",
      "type": "function"
    },
    {
      "inputs": [
        {
          "internalType": "uint256",
          "name": "_reportId",
          "type": "uint256"
        }
      ],
      "name": "totalConsulation",
      "outputs": [
        {
          "internalType": "uint256",
          "name": "",
          "type": "uint256"
        }
      ],
      "stateMutability": "view",
      "type": "function"
    },
    {
      "inputs": [
        {
          "internalType": "address",
          "name": "",
          "type": "address"
        }
      ],
      "name": "worksAt",
      "outputs": [
        {
          "internalType": "address",
          "name": "",
          "type": "address"
        }
      ],
      "stateMutability": "view",
      "type": "function"
    },
    {
      "inputs": [
        {
          "internalType": "string",
          "name": "_mHash",
          "type": "string"
        },
        {
          "internalType": "string",
          "name": "_id",
          "type": "string"
        }
      ],
      "name": "setMedInfoHash",
      "outputs": [],
      "stateMutability": "nonpayable",
      "type": "function"
    },
    {
      "inputs": [
        {
          "internalType": "string",
          "name": "_id",
          "type": "string"
        },
        {
          "internalType": "uint256",
          "name": "_reportId",
          "type": "uint256"
        }
      ],
      "name": "getMedInfoHash",
      "outputs": [
        {
          "internalType": "string",
          "name": "",
          "type": "string"
        }
      ],
      "stateMutability": "view",
      "type": "function"
    },
    {
      "inputs": [
        {
          "internalType": "string",
          "name": "_id",
          "type": "string"
        },
        {
          "internalType": "uint256",
          "name": "_reportId",
          "type": "uint256"
        },
        {
          "internalType": "string",
          "name": "status",
          "type": "string"
        }
      ],
      "name": "confirmDisease",
      "outputs": [],
      "stateMutability": "nonpayable",
      "type": "function"
    }
  ],
  "bytecode": "0x608060405260008055600060015560006002556000600355600060045534801561002857600080fd5b506146f4806100386000396000f3fe608060405234801561001057600080fd5b50600436106101c45760003560e01c80638fa79390116100f9578063bfa28ff111610097578063e4ded01111610071578063e4ded011146105a1578063eac8aa62146105d1578063ebfb412d14610601578063f3cb8c3114610631576101c4565b8063bfa28ff114610525578063ce64eac114610555578063e292ec0814610585576101c4565b8063ac2018e5116100d3578063ac2018e514610489578063b89895f2146104a7578063bdf6c673146104c5578063bed34bba146104f5576101c4565b80638fa793901461040d5780638fc7043f1461043d578063996440c614610459576101c4565b80634761658e116101665780635e390880116101405780635e3908801461035f57806360ebd6901461038f57806389c19ddb146103ad5780638f9c79ed146103dd576101c4565b80634761658e146102cf57806349d8fea1146102ff5780635070bd1f1461032f576101c4565b806333751782116101a257806333751782146102335780633465d6d51461024f57806339f0b138146102815780633eb23e69146102b1576101c4565b8063030b35cb146101c95780631b9d1154146101e55780632f54bf6e14610203575b600080fd5b6101e360048036038101906101de919061383f565b61064d565b005b6101ed610c90565b6040516101fa91906138d0565b60405180910390f35b61021d60048036038101906102189190613949565b610c96565b60405161022a9190613991565b60405180910390f35b61024d600480360381019061024891906139d8565b610cb6565b005b61026960048036038101906102649190613949565b61140e565b60405161027893929190613aeb565b60405180910390f35b61029b60048036038101906102969190613b29565b6114c0565b6040516102a89190613b81565b60405180910390f35b6102b9611509565b6040516102c691906138d0565b60405180910390f35b6102e960048036038101906102e49190613b29565b61150f565b6040516102f69190613b9c565b60405180910390f35b61031960048036038101906103149190613b29565b611a23565b60405161032691906138d0565b60405180910390f35b61034960048036038101906103449190613949565b611b3e565b6040516103569190613991565b60405180910390f35b61037960048036038101906103749190613949565b611b5e565b6040516103869190613991565b60405180910390f35b610397611b7e565b6040516103a491906138d0565b60405180910390f35b6103c760048036038101906103c2919061383f565b611b84565b6040516103d49190613b9c565b60405180910390f35b6103f760048036038101906103f29190613949565b611bb0565b6040516104049190613991565b60405180910390f35b61042760048036038101906104229190613bbe565b611bd0565b6040516104349190613b9c565b60405180910390f35b61045760048036038101906104529190613b29565b612185565b005b610473600480360381019061046e9190613949565b612264565b6040516104809190613991565b60405180910390f35b610491612284565b60405161049e91906138d0565b60405180910390f35b6104af61228a565b6040516104bc91906138d0565b60405180910390f35b6104df60048036038101906104da9190613949565b612290565b6040516104ec9190613991565b60405180910390f35b61050f600480360381019061050a919061383f565b6122b0565b60405161051c9190613991565b60405180910390f35b61053f600480360381019061053a9190613c1a565b612309565b60405161054c91906138d0565b60405180910390f35b61056f600480360381019061056a9190613949565b6123fb565b60405161057c9190613991565b60405180910390f35b61059f600480360381019061059a9190613c47565b61241b565b005b6105bb60048036038101906105b69190613c1a565b612c79565b6040516105c891906138d0565b60405180910390f35b6105eb60048036038101906105e69190613949565b612d6b565b6040516105f89190613b81565b60405180910390f35b61061b60048036038101906106169190613949565b612d9e565b6040516106289190613b9c565b60405180910390f35b61064b60048036038101906106469190613949565b612e3e565b005b600c60003373ffffffffffffffffffffffffffffffffffffffff1673ffffffffffffffffffffffffffffffffffffffff16815260200190815260200160002060009054906101000a900473ffffffffffffffffffffffffffffffffffffffff16816000600b826040516106c09190613cdf565b908152602001604051809103902060009054906101000a900473ffffffffffffffffffffffffffffffffffffffff169050600560008473ffffffffffffffffffffffffffffffffffffffff1673ffffffffffffffffffffffffffffffffffffffff16815260200190815260200160002060009054906101000a900460ff16806107925750600760008473ffffffffffffffffffffffffffffffffffffffff1673ffffffffffffffffffffffffffffffffffffffff16815260200190815260200160002060009054906101000a900460ff165b6107d1576040517f08c379a00000000000000000000000000000000000000000000000000000000081526004016107c890613d42565b60405180910390fd5b6000805b600e60008473ffffffffffffffffffffffffffffffffffffffff1673ffffffffffffffffffffffffffffffffffffffff16815260200190815260200160002060020180549050811015610978576000600e60008573ffffffffffffffffffffffffffffffffffffffff1673ffffffffffffffffffffffffffffffffffffffff168152602001908152602001600020600201828154811061087857610877613d62565b5b9060005260206000200160000160009054906101000a900473ffffffffffffffffffffffffffffffffffffffff1690506000600e60008673ffffffffffffffffffffffffffffffffffffffff1673ffffffffffffffffffffffffffffffffffffffff16815260200190815260200160002060020183815481106108fe576108fd613d62565b5b9060005260206000200160000160149054906101000a900460ff1690508673ffffffffffffffffffffffffffffffffffffffff168273ffffffffffffffffffffffffffffffffffffffff161480156109535750805b1561096357600193505050610978565b5050808061097090613dc0565b9150506107d5565b50806109b9576040517f08c379a00000000000000000000000000000000000000000000000000000000081526004016109b090613d42565b60405180910390fd5b6000600b866040516109cb9190613cdf565b908152602001604051809103902060009054906101000a900473ffffffffffffffffffffffffffffffffffffffff169050600660008273ffffffffffffffffffffffffffffffffffffffff1673ffffffffffffffffffffffffffffffffffffffff16815260200190815260200160002060009054906101000a900460ff16610a88576040517f08c379a0000000000000000000000000000000000000000000000000000000008152600401610a7f90613e54565b60405180910390fd5b600960003373ffffffffffffffffffffffffffffffffffffffff1673ffffffffffffffffffffffffffffffffffffffff16815260200190815260200160002060009054906101000a900460ff16610b14576040517f08c379a0000000000000000000000000000000000000000000000000000000008152600401610b0b90613ec0565b60405180910390fd5b6000600e60008373ffffffffffffffffffffffffffffffffffffffff1673ffffffffffffffffffffffffffffffffffffffff168152602001908152602001600020600401549050600181610b689190613ee0565b905087600e60008473ffffffffffffffffffffffffffffffffffffffff1673ffffffffffffffffffffffffffffffffffffffff16815260200190815260200160002060010160008381526020019081526020016000206000019081610bcd9190614142565b506000600e60008473ffffffffffffffffffffffffffffffffffffffff1673ffffffffffffffffffffffffffffffffffffffff1681526020019081526020016000206001016000838152602001908152602001600020600101819055506000600e60008473ffffffffffffffffffffffffffffffffffffffff1673ffffffffffffffffffffffffffffffffffffffff1681526020019081526020016000206001016000838152602001908152602001600020600201819055505050505050505050565b60015481565b600a6020528060005260406000206000915054906101000a900460ff1681565b600c60003373ffffffffffffffffffffffffffffffffffffffff1673ffffffffffffffffffffffffffffffffffffffff16815260200190815260200160002060009054906101000a900473ffffffffffffffffffffffffffffffffffffffff16836000600b82604051610d299190613cdf565b908152602001604051809103902060009054906101000a900473ffffffffffffffffffffffffffffffffffffffff169050600560008473ffffffffffffffffffffffffffffffffffffffff1673ffffffffffffffffffffffffffffffffffffffff16815260200190815260200160002060009054906101000a900460ff1680610dfb5750600760008473ffffffffffffffffffffffffffffffffffffffff1673ffffffffffffffffffffffffffffffffffffffff16815260200190815260200160002060009054906101000a900460ff165b610e3a576040517f08c379a0000000000000000000000000000000000000000000000000000000008152600401610e3190613d42565b60405180910390fd5b6000805b600e60008473ffffffffffffffffffffffffffffffffffffffff1673ffffffffffffffffffffffffffffffffffffffff16815260200190815260200160002060020180549050811015610fe1576000600e60008573ffffffffffffffffffffffffffffffffffffffff1673ffffffffffffffffffffffffffffffffffffffff1681526020019081526020016000206002018281548110610ee157610ee0613d62565b5b9060005260206000200160000160009054906101000a900473ffffffffffffffffffffffffffffffffffffffff1690506000600e60008673ffffffffffffffffffffffffffffffffffffffff1673ffffffffffffffffffffffffffffffffffffffff1681526020019081526020016000206002018381548110610f6757610f66613d62565b5b9060005260206000200160000160149054906101000a900460ff1690508673ffffffffffffffffffffffffffffffffffffffff168273ffffffffffffffffffffffffffffffffffffffff16148015610fbc5750805b15610fcc57600193505050610fe1565b50508080610fd990613dc0565b915050610e3e565b5080611022576040517f08c379a000000000000000000000000000000000000000000000000000000000815260040161101990613d42565b60405180910390fd5b6000600b886040516110349190613cdf565b908152602001604051809103902060009054906101000a900473ffffffffffffffffffffffffffffffffffffffff169050600660008273ffffffffffffffffffffffffffffffffffffffff1673ffffffffffffffffffffffffffffffffffffffff16815260200190815260200160002060009054906101000a900460ff166110f1576040517f08c379a00000000000000000000000000000000000000000000000000000000081526004016110e890613e54565b60405180910390fd5b600860003373ffffffffffffffffffffffffffffffffffffffff1673ffffffffffffffffffffffffffffffffffffffff16815260200190815260200160002060009054906101000a900460ff1661117d576040517f08c379a000000000000000000000000000000000000000000000000000000000815260040161117490614260565b60405180910390fd5b600f60003373ffffffffffffffffffffffffffffffffffffffff1673ffffffffffffffffffffffffffffffffffffffff16815260200190815260200160002060009054906101000a900460ff161561120a576040517f08c379a0000000000000000000000000000000000000000000000000000000008152600401611201906142cc565b60405180910390fd5b86600e60008373ffffffffffffffffffffffffffffffffffffffff1673ffffffffffffffffffffffffffffffffffffffff16815260200190815260200160002060040154101561128f576040517f08c379a000000000000000000000000000000000000000000000000000000000815260040161128690614338565b60405180910390fd5b6001600f60003373ffffffffffffffffffffffffffffffffffffffff1673ffffffffffffffffffffffffffffffffffffffff16815260200190815260200160002060006101000a81548160ff021916908315150217905550600e60008273ffffffffffffffffffffffffffffffffffffffff1673ffffffffffffffffffffffffffffffffffffffff1681526020019081526020016000206001016000888152602001908152602001600020600101600081548092919061134e90613dc0565b9190505550611392866040518060400160405280600481526020017f74727565000000000000000000000000000000000000000000000000000000008152506122b0565b1561140457600e60008273ffffffffffffffffffffffffffffffffffffffff1673ffffffffffffffffffffffffffffffffffffffff168152602001908152602001600020600101600088815260200190815260200160002060020160008154809291906113fe90613dc0565b91905055505b5050505050505050565b600e60205280600052604060002060009150905080600001805461143190613f65565b80601f016020809104026020016040519081016040528092919081815260200182805461145d90613f65565b80156114aa5780601f1061147f576101008083540402835291602001916114aa565b820191906000526020600020905b81548152906001019060200180831161148d57829003601f168201915b5050505050908060030154908060040154905083565b600b818051602081018201805184825260208301602085012081835280955050505050506000915054906101000a900473ffffffffffffffffffffffffffffffffffffffff1681565b60025481565b6060600c60003373ffffffffffffffffffffffffffffffffffffffff1673ffffffffffffffffffffffffffffffffffffffff16815260200190815260200160002060009054906101000a900473ffffffffffffffffffffffffffffffffffffffff16826000600b826040516115849190613cdf565b908152602001604051809103902060009054906101000a900473ffffffffffffffffffffffffffffffffffffffff169050600560008473ffffffffffffffffffffffffffffffffffffffff1673ffffffffffffffffffffffffffffffffffffffff16815260200190815260200160002060009054906101000a900460ff16806116565750600760008473ffffffffffffffffffffffffffffffffffffffff1673ffffffffffffffffffffffffffffffffffffffff16815260200190815260200160002060009054906101000a900460ff165b611695576040517f08c379a000000000000000000000000000000000000000000000000000000000815260040161168c90613d42565b60405180910390fd5b6000805b600e60008473ffffffffffffffffffffffffffffffffffffffff1673ffffffffffffffffffffffffffffffffffffffff1681526020019081526020016000206002018054905081101561183c576000600e60008573ffffffffffffffffffffffffffffffffffffffff1673ffffffffffffffffffffffffffffffffffffffff168152602001908152602001600020600201828154811061173c5761173b613d62565b5b9060005260206000200160000160009054906101000a900473ffffffffffffffffffffffffffffffffffffffff1690506000600e60008673ffffffffffffffffffffffffffffffffffffffff1673ffffffffffffffffffffffffffffffffffffffff16815260200190815260200160002060020183815481106117c2576117c1613d62565b5b9060005260206000200160000160149054906101000a900460ff1690508673ffffffffffffffffffffffffffffffffffffffff168273ffffffffffffffffffffffffffffffffffffffff161480156118175750805b156118275760019350505061183c565b5050808061183490613dc0565b915050611699565b508061187d576040517f08c379a000000000000000000000000000000000000000000000000000000000815260040161187490613d42565b60405180910390fd5b6000600b8760405161188f9190613cdf565b908152602001604051809103902060009054906101000a900473ffffffffffffffffffffffffffffffffffffffff169050600660008273ffffffffffffffffffffffffffffffffffffffff1673ffffffffffffffffffffffffffffffffffffffff16815260200190815260200160002060009054906101000a900460ff1661194c576040517f08c379a000000000000000000000000000000000000000000000000000000000815260040161194390613e54565b60405180910390fd5b600e60008273ffffffffffffffffffffffffffffffffffffffff1673ffffffffffffffffffffffffffffffffffffffff168152602001908152602001600020600001805461199990613f65565b80601f01602080910402602001604051908101604052809291908181526020018280546119c590613f65565b8015611a125780601f106119e757610100808354040283529160200191611a12565b820191906000526020600020905b8154815290600101906020018083116119f557829003601f168201915b505050505095505050505050919050565b600080600b83604051611a369190613cdf565b908152602001604051809103902060009054906101000a900473ffffffffffffffffffffffffffffffffffffffff169050600660008273ffffffffffffffffffffffffffffffffffffffff1673ffffffffffffffffffffffffffffffffffffffff16815260200190815260200160002060009054906101000a900460ff16611af3576040517f08c379a0000000000000000000000000000000000000000000000000000000008152600401611aea90613e54565b60405180910390fd5b600e60008273ffffffffffffffffffffffffffffffffffffffff1673ffffffffffffffffffffffffffffffffffffffff16815260200190815260200160002060030154915050919050565b600f6020528060005260406000206000915054906101000a900460ff1681565b60076020528060005260406000206000915054906101000a900460ff1681565b60035481565b60608282604051602001611b99929190614358565b604051602081830303815290604052905092915050565b60066020528060005260406000206000915054906101000a900460ff1681565b60606000600b84604051611be49190613cdf565b908152602001604051809103902060009054906101000a900473ffffffffffffffffffffffffffffffffffffffff169050600660008273ffffffffffffffffffffffffffffffffffffffff1673ffffffffffffffffffffffffffffffffffffffff16815260200190815260200160002060009054906101000a900460ff16611ca1576040517f08c379a0000000000000000000000000000000000000000000000000000000008152600401611c9890613e54565b60405180910390fd5b60056000600c60003373ffffffffffffffffffffffffffffffffffffffff1673ffffffffffffffffffffffffffffffffffffffff16815260200190815260200160002060009054906101000a900473ffffffffffffffffffffffffffffffffffffffff1673ffffffffffffffffffffffffffffffffffffffff1673ffffffffffffffffffffffffffffffffffffffff16815260200190815260200160002060009054906101000a900460ff1680611dd85750600660003373ffffffffffffffffffffffffffffffffffffffff1673ffffffffffffffffffffffffffffffffffffffff16815260200190815260200160002060009054906101000a900460ff168015611dd757508073ffffffffffffffffffffffffffffffffffffffff163373ffffffffffffffffffffffffffffffffffffffff16145b5b611e17576040517f08c379a0000000000000000000000000000000000000000000000000000000008152600401611e0e90613d42565b60405180910390fd5b60003373ffffffffffffffffffffffffffffffffffffffff168273ffffffffffffffffffffffffffffffffffffffff1603611e55576001905061205c565b60005b600e60008473ffffffffffffffffffffffffffffffffffffffff1673ffffffffffffffffffffffffffffffffffffffff1681526020019081526020016000206002018054905081101561205a576000600e60008573ffffffffffffffffffffffffffffffffffffffff1673ffffffffffffffffffffffffffffffffffffffff1681526020019081526020016000206002018281548110611efb57611efa613d62565b5b9060005260206000200160000160009054906101000a900473ffffffffffffffffffffffffffffffffffffffff1690506000600e60008673ffffffffffffffffffffffffffffffffffffffff1673ffffffffffffffffffffffffffffffffffffffff1681526020019081526020016000206002018381548110611f8157611f80613d62565b5b9060005260206000200160000160149054906101000a900460ff169050600c60003373ffffffffffffffffffffffffffffffffffffffff1673ffffffffffffffffffffffffffffffffffffffff16815260200190815260200160002060009054906101000a900473ffffffffffffffffffffffffffffffffffffffff1673ffffffffffffffffffffffffffffffffffffffff168273ffffffffffffffffffffffffffffffffffffffff161480156120355750805b156120455760019350505061205a565b5050808061205290613dc0565b915050611e58565b505b8061209c576040517f08c379a0000000000000000000000000000000000000000000000000000000008152600401612093906143c8565b60405180910390fd5b600e60008373ffffffffffffffffffffffffffffffffffffffff1673ffffffffffffffffffffffffffffffffffffffff168152602001908152602001600020600101600085815260200190815260200160002060000180546120fd90613f65565b80601f016020809104026020016040519081016040528092919081815260200182805461212990613f65565b80156121765780601f1061214b57610100808354040283529160200191612176565b820191906000526020600020905b81548152906001019060200180831161215957829003601f168201915b50505050509250505092915050565b600660003373ffffffffffffffffffffffffffffffffffffffff1673ffffffffffffffffffffffffffffffffffffffff16815260200190815260200160002060009054906101000a900460ff16612211576040517f08c379a000000000000000000000000000000000000000000000000000000000815260040161220890614434565b60405180910390fd5b80600e60003373ffffffffffffffffffffffffffffffffffffffff1673ffffffffffffffffffffffffffffffffffffffff16815260200190815260200160002060000190816122609190614142565b5050565b60086020528060005260406000206000915054906101000a900460ff1681565b60005481565b60045481565b60056020528060005260406000206000915054906101000a900460ff1681565b6000816040516020016122c39190613cdf565b60405160208183030381529060405280519060200120836040516020016122ea9190613cdf565b6040516020818303038152906040528051906020012014905092915050565b6000600660003373ffffffffffffffffffffffffffffffffffffffff1673ffffffffffffffffffffffffffffffffffffffff16815260200190815260200160002060009054906101000a900460ff16612397576040517f08c379a000000000000000000000000000000000000000000000000000000000815260040161238e90613e54565b60405180910390fd5b6000600e60003373ffffffffffffffffffffffffffffffffffffffff1673ffffffffffffffffffffffffffffffffffffffff168152602001908152602001600020600101600084815260200190815260200160002060020154905080915050919050565b60096020528060005260406000206000915054906101000a900460ff1681565b600a60003373ffffffffffffffffffffffffffffffffffffffff1673ffffffffffffffffffffffffffffffffffffffff16815260200190815260200160002060009054906101000a900460ff166124a7576040517f08c379a000000000000000000000000000000000000000000000000000000000815260040161249e906144a0565b60405180910390fd5b81600073ffffffffffffffffffffffffffffffffffffffff168173ffffffffffffffffffffffffffffffffffffffff1603612517576040517f08c379a000000000000000000000000000000000000000000000000000000000815260040161250e9061450c565b60405180910390fd5b600860008273ffffffffffffffffffffffffffffffffffffffff1673ffffffffffffffffffffffffffffffffffffffff16815260200190815260200160002060009054906101000a900460ff161580156125bb5750600960008273ffffffffffffffffffffffffffffffffffffffff1673ffffffffffffffffffffffffffffffffffffffff16815260200190815260200160002060009054906101000a900460ff16155b80156126115750600760008273ffffffffffffffffffffffffffffffffffffffff1673ffffffffffffffffffffffffffffffffffffffff16815260200190815260200160002060009054906101000a900460ff16155b80156126675750600660008273ffffffffffffffffffffffffffffffffffffffff1673ffffffffffffffffffffffffffffffffffffffff16815260200190815260200160002060009054906101000a900460ff16155b80156126bd5750600a60008273ffffffffffffffffffffffffffffffffffffffff1673ffffffffffffffffffffffffffffffffffffffff16815260200190815260200160002060009054906101000a900460ff16155b80156127135750600560008273ffffffffffffffffffffffffffffffffffffffff1673ffffffffffffffffffffffffffffffffffffffff16815260200190815260200160002060009054906101000a900460ff16155b612752576040517f08c379a000000000000000000000000000000000000000000000000000000000815260040161274990614578565b60405180910390fd5b612791826040518060400160405280600881526020017f686f73706974616c0000000000000000000000000000000000000000000000008152506122b0565b15612909576001600560008573ffffffffffffffffffffffffffffffffffffffff1673ffffffffffffffffffffffffffffffffffffffff16815260200190815260200160002060006101000a81548160ff0219169083151502179055506001600081548092919061280190613dc0565b9190505550600061281360015461357f565b905060006128566040518060400160405280600181526020017f680000000000000000000000000000000000000000000000000000000000000081525083611b84565b905084600b826040516128699190613cdf565b908152602001604051809103902060006101000a81548173ffffffffffffffffffffffffffffffffffffffff021916908373ffffffffffffffffffffffffffffffffffffffff16021790555080600d60008773ffffffffffffffffffffffffffffffffffffffff1673ffffffffffffffffffffffffffffffffffffffff16815260200190815260200160002090816129019190614142565b505050612c74565b612948826040518060400160405280600381526020017f6c616200000000000000000000000000000000000000000000000000000000008152506122b0565b15612ac0576001600760008573ffffffffffffffffffffffffffffffffffffffff1673ffffffffffffffffffffffffffffffffffffffff16815260200190815260200160002060006101000a81548160ff021916908315150217905550600460008154809291906129b890613dc0565b919050555060006129ca60045461357f565b90506000612a0d6040518060400160405280600181526020017f6c0000000000000000000000000000000000000000000000000000000000000081525083611b84565b905084600b82604051612a209190613cdf565b908152602001604051809103902060006101000a81548173ffffffffffffffffffffffffffffffffffffffff021916908373ffffffffffffffffffffffffffffffffffffffff16021790555080600d60008773ffffffffffffffffffffffffffffffffffffffff1673ffffffffffffffffffffffffffffffffffffffff1681526020019081526020016000209081612ab89190614142565b505050612c73565b612aff826040518060400160405280600781526020017f70617469656e74000000000000000000000000000000000000000000000000008152506122b0565b15612c72576001600660008573ffffffffffffffffffffffffffffffffffffffff1673ffffffffffffffffffffffffffffffffffffffff16815260200190815260200160002060006101000a81548160ff021916908315150217905550600080815480929190612b6e90613dc0565b91905055506000612b8060005461357f565b90506000612bc36040518060400160405280600181526020017f700000000000000000000000000000000000000000000000000000000000000081525083611b84565b905084600b82604051612bd69190613cdf565b908152602001604051809103902060006101000a81548173ffffffffffffffffffffffffffffffffffffffff021916908373ffffffffffffffffffffffffffffffffffffffff16021790555080600d60008773ffffffffffffffffffffffffffffffffffffffff1673ffffffffffffffffffffffffffffffffffffffff1681526020019081526020016000209081612c6e9190614142565b5050505b5b5b505050565b6000600660003373ffffffffffffffffffffffffffffffffffffffff1673ffffffffffffffffffffffffffffffffffffffff16815260200190815260200160002060009054906101000a900460ff16612d07576040517f08c379a0000000000000000000000000000000000000000000000000000000008152600401612cfe90613e54565b60405180910390fd5b6000600e60003373ffffffffffffffffffffffffffffffffffffffff1673ffffffffffffffffffffffffffffffffffffffff168152602001908152602001600020600101600084815260200190815260200160002060010154905080915050919050565b600c6020528060005260406000206000915054906101000a900473ffffffffffffffffffffffffffffffffffffffff1681565b600d6020528060005260406000206000915090508054612dbd90613f65565b80601f0160208091040260200160405190810160405280929190818152602001828054612de990613f65565b8015612e365780601f10612e0b57610100808354040283529160200191612e36565b820191906000526020600020905b815481529060010190602001808311612e1957829003601f168201915b505050505081565b80600073ffffffffffffffffffffffffffffffffffffffff168173ffffffffffffffffffffffffffffffffffffffff1603612eae576040517f08c379a0000000000000000000000000000000000000000000000000000000008152600401612ea59061450c565b60405180910390fd5b600860008273ffffffffffffffffffffffffffffffffffffffff1673ffffffffffffffffffffffffffffffffffffffff16815260200190815260200160002060009054906101000a900460ff16158015612f525750600960008273ffffffffffffffffffffffffffffffffffffffff1673ffffffffffffffffffffffffffffffffffffffff16815260200190815260200160002060009054906101000a900460ff16155b8015612fa85750600760008273ffffffffffffffffffffffffffffffffffffffff1673ffffffffffffffffffffffffffffffffffffffff16815260200190815260200160002060009054906101000a900460ff16155b8015612ffe5750600660008273ffffffffffffffffffffffffffffffffffffffff1673ffffffffffffffffffffffffffffffffffffffff16815260200190815260200160002060009054906101000a900460ff16155b80156130545750600a60008273ffffffffffffffffffffffffffffffffffffffff1673ffffffffffffffffffffffffffffffffffffffff16815260200190815260200160002060009054906101000a900460ff16155b80156130aa5750600560008273ffffffffffffffffffffffffffffffffffffffff1673ffffffffffffffffffffffffffffffffffffffff16815260200190815260200160002060009054906101000a900460ff16155b6130e9576040517f08c379a00000000000000000000000000000000000000000000000000000000081526004016130e090614578565b60405180910390fd5b600560003373ffffffffffffffffffffffffffffffffffffffff1673ffffffffffffffffffffffffffffffffffffffff16815260200190815260200160002060009054906101000a900460ff168061318a5750600760003373ffffffffffffffffffffffffffffffffffffffff1673ffffffffffffffffffffffffffffffffffffffff16815260200190815260200160002060009054906101000a900460ff165b6131c9576040517f08c379a00000000000000000000000000000000000000000000000000000000081526004016131c0906145e4565b60405180910390fd5b600560003373ffffffffffffffffffffffffffffffffffffffff1673ffffffffffffffffffffffffffffffffffffffff16815260200190815260200160002060009054906101000a900460ff161561338e576002600081548092919061322e90613dc0565b91905055506001600860008473ffffffffffffffffffffffffffffffffffffffff1673ffffffffffffffffffffffffffffffffffffffff16815260200190815260200160002060006101000a81548160ff021916908315150217905550600061329860025461357f565b905060006132db6040518060400160405280600181526020017f640000000000000000000000000000000000000000000000000000000000000081525083611b84565b905083600b826040516132ee9190613cdf565b908152602001604051809103902060006101000a81548173ffffffffffffffffffffffffffffffffffffffff021916908373ffffffffffffffffffffffffffffffffffffffff16021790555080600d60008673ffffffffffffffffffffffffffffffffffffffff1673ffffffffffffffffffffffffffffffffffffffff16815260200190815260200160002090816133869190614142565b5050506134fd565b6001600960008473ffffffffffffffffffffffffffffffffffffffff1673ffffffffffffffffffffffffffffffffffffffff16815260200190815260200160002060006101000a81548160ff021916908315150217905550600360008154809291906133f990613dc0565b9190505550600061340b60035461357f565b9050600061344e6040518060400160405280600181526020017f740000000000000000000000000000000000000000000000000000000000000081525083611b84565b905083600b826040516134619190613cdf565b908152602001604051809103902060006101000a81548173ffffffffffffffffffffffffffffffffffffffff021916908373ffffffffffffffffffffffffffffffffffffffff16021790555080600d60008673ffffffffffffffffffffffffffffffffffffffff1673ffffffffffffffffffffffffffffffffffffffff16815260200190815260200160002090816134f99190614142565b5050505b33600c60008473ffffffffffffffffffffffffffffffffffffffff1673ffffffffffffffffffffffffffffffffffffffff16815260200190815260200160002060006101000a81548173ffffffffffffffffffffffffffffffffffffffff021916908373ffffffffffffffffffffffffffffffffffffffff1602179055505050565b6060600082036135c6576040518060400160405280600181526020017f300000000000000000000000000000000000000000000000000000000000000081525090506136e0565b600082905060005b600082146135f85780806135e190613dc0565b915050600a826135f19190614633565b91506135ce565b60008167ffffffffffffffff81111561361457613613613714565b5b6040519080825280601f01601f1916602001820160405280156136465781602001600182028036833780820191505090505b50905060008290508593505b600084146136d857600a846136679190614664565b60306136739190613ee0565b60f81b828261368190614695565b9250828151811061369557613694613d62565b5b60200101907effffffffffffffffffffffffffffffffffffffffffffffffffffffffffffff1916908160001a905350600a846136d19190614633565b9350613652565b819450505050505b919050565b6000604051905090565b600080fd5b600080fd5b600080fd5b600080fd5b6000601f19601f8301169050919050565b7f4e487b7100000000000000000000000000000000000000000000000000000000600052604160045260246000fd5b61374c82613703565b810181811067ffffffffffffffff8211171561376b5761376a613714565b5b80604052505050565b600061377e6136e5565b905061378a8282613743565b919050565b600067ffffffffffffffff8211156137aa576137a9613714565b5b6137b382613703565b9050602081019050919050565b82818337600083830152505050565b60006137e26137dd8461378f565b613774565b9050828152602081018484840111156137fe576137fd6136fe565b5b6138098482856137c0565b509392505050565b600082601f830112613826576138256136f9565b5b81356138368482602086016137cf565b91505092915050565b60008060408385031215613856576138556136ef565b5b600083013567ffffffffffffffff811115613874576138736136f4565b5b61388085828601613811565b925050602083013567ffffffffffffffff8111156138a1576138a06136f4565b5b6138ad85828601613811565b9150509250929050565b6000819050919050565b6138ca816138b7565b82525050565b60006020820190506138e560008301846138c1565b92915050565b600073ffffffffffffffffffffffffffffffffffffffff82169050919050565b6000613916826138eb565b9050919050565b6139268161390b565b811461393157600080fd5b50565b6000813590506139438161391d565b92915050565b60006020828403121561395f5761395e6136ef565b5b600061396d84828501613934565b91505092915050565b60008115159050919050565b61398b81613976565b82525050565b60006020820190506139a66000830184613982565b92915050565b6139b5816138b7565b81146139c057600080fd5b50565b6000813590506139d2816139ac565b92915050565b6000806000606084860312156139f1576139f06136ef565b5b600084013567ffffffffffffffff811115613a0f57613a0e6136f4565b5b613a1b86828701613811565b9350506020613a2c868287016139c3565b925050604084013567ffffffffffffffff811115613a4d57613a4c6136f4565b5b613a5986828701613811565b9150509250925092565b600081519050919050565b600082825260208201905092915050565b60005b83811015613a9d578082015181840152602081019050613a82565b83811115613aac576000848401525b50505050565b6000613abd82613a63565b613ac78185613a6e565b9350613ad7818560208601613a7f565b613ae081613703565b840191505092915050565b60006060820190508181036000830152613b058186613ab2565b9050613b1460208301856138c1565b613b2160408301846138c1565b949350505050565b600060208284031215613b3f57613b3e6136ef565b5b600082013567ffffffffffffffff811115613b5d57613b5c6136f4565b5b613b6984828501613811565b91505092915050565b613b7b8161390b565b82525050565b6000602082019050613b966000830184613b72565b92915050565b60006020820190508181036000830152613bb68184613ab2565b905092915050565b60008060408385031215613bd557613bd46136ef565b5b600083013567ffffffffffffffff811115613bf357613bf26136f4565b5b613bff85828601613811565b9250506020613c10858286016139c3565b9150509250929050565b600060208284031215613c3057613c2f6136ef565b5b6000613c3e848285016139c3565b91505092915050565b60008060408385031215613c5e57613c5d6136ef565b5b6000613c6c85828601613934565b925050602083013567ffffffffffffffff811115613c8d57613c8c6136f4565b5b613c9985828601613811565b9150509250929050565b600081905092915050565b6000613cb982613a63565b613cc38185613ca3565b9350613cd3818560208601613a7f565b80840191505092915050565b6000613ceb8284613cae565b915081905092915050565b7f6e6f7420616c6c6f776564000000000000000000000000000000000000000000600082015250565b6000613d2c600b83613a6e565b9150613d3782613cf6565b602082019050919050565b60006020820190508181036000830152613d5b81613d1f565b9050919050565b7f4e487b7100000000000000000000000000000000000000000000000000000000600052603260045260246000fd5b7f4e487b7100000000000000000000000000000000000000000000000000000000600052601160045260246000fd5b6000613dcb826138b7565b91507fffffffffffffffffffffffffffffffffffffffffffffffffffffffffffffffff8203613dfd57613dfc613d91565b5b600182019050919050565b7f6e6f7420612070617469656e7400000000000000000000000000000000000000600082015250565b6000613e3e600d83613a6e565b9150613e4982613e08565b602082019050919050565b60006020820190508181036000830152613e6d81613e31565b9050919050565b7f6e6f742061206c61625465636800000000000000000000000000000000000000600082015250565b6000613eaa600d83613a6e565b9150613eb582613e74565b602082019050919050565b60006020820190508181036000830152613ed981613e9d565b9050919050565b6000613eeb826138b7565b9150613ef6836138b7565b9250827fffffffffffffffffffffffffffffffffffffffffffffffffffffffffffffffff03821115613f2b57613f2a613d91565b5b828201905092915050565b7f4e487b7100000000000000000000000000000000000000000000000000000000600052602260045260246000fd5b60006002820490506001821680613f7d57607f821691505b602082108103613f9057613f8f613f36565b5b50919050565b60008190508160005260206000209050919050565b60006020601f8301049050919050565b600082821b905092915050565b600060088302613ff87fffffffffffffffffffffffffffffffffffffffffffffffffffffffffffffffff82613fbb565b6140028683613fbb565b95508019841693508086168417925050509392505050565b6000819050919050565b600061403f61403a614035846138b7565b61401a565b6138b7565b9050919050565b6000819050919050565b61405983614024565b61406d61406582614046565b848454613fc8565b825550505050565b600090565b614082614075565b61408d818484614050565b505050565b5b818110156140b1576140a660008261407a565b600181019050614093565b5050565b601f8211156140f6576140c781613f96565b6140d084613fab565b810160208510156140df578190505b6140f36140eb85613fab565b830182614092565b50505b505050565b600082821c905092915050565b6000614119600019846008026140fb565b1980831691505092915050565b60006141328383614108565b9150826002028217905092915050565b61414b82613a63565b67ffffffffffffffff81111561416457614163613714565b5b61416e8254613f65565b6141798282856140b5565b600060209050601f8311600181146141ac576000841561419a578287015190505b6141a48582614126565b86555061420c565b601f1984166141ba86613f96565b60005b828110156141e2578489015182556001820191506020850194506020810190506141bd565b868310156141ff57848901516141fb601f891682614108565b8355505b6001600288020188555050505b505050505050565b7f6e6f74206120646f63746f720000000000000000000000000000000000000000600082015250565b600061424a600c83613a6e565b915061425582614214565b602082019050919050565b600060208201905081810360008301526142798161423d565b9050919050565b7f6861766520636f6e6669726d656420616c726561647900000000000000000000600082015250565b60006142b6601683613a6e565b91506142c182614280565b602082019050919050565b600060208201905081810360008301526142e5816142a9565b9050919050565b7f696e76616c6964207265706f7274204964000000000000000000000000000000600082015250565b6000614322601183613a6e565b915061432d826142ec565b602082019050919050565b6000602082019050818103600083015261435181614315565b9050919050565b60006143648285613cae565b91506143708284613cae565b91508190509392505050565b7f6e6f7420612076616c6964207265717565737400000000000000000000000000600082015250565b60006143b2601383613a6e565b91506143bd8261437c565b602082019050919050565b600060208201905081810360008301526143e1816143a5565b9050919050565b7f73656e646572206973206e6f742070617469656e740000000000000000000000600082015250565b600061441e601583613a6e565b9150614429826143e8565b602082019050919050565b6000602082019050818103600083015261444d81614411565b9050919050565b7f73656e646572206973206e6f74206f776e657200000000000000000000000000600082015250565b600061448a601383613a6e565b915061449582614454565b602082019050919050565b600060208201905081810360008301526144b98161447d565b9050919050565b7f6e756c6c206164647265737320666f756e640000000000000000000000000000600082015250565b60006144f6601283613a6e565b9150614501826144c0565b602082019050919050565b60006020820190508181036000830152614525816144e9565b9050919050565b7f7072652d6578697374696e672061646472657373000000000000000000000000600082015250565b6000614562601483613a6e565b915061456d8261452c565b602082019050919050565b6000602082019050818103600083015261459181614555565b9050919050565b7f756e617574686f72697a65642061636365737300000000000000000000000000600082015250565b60006145ce601383613a6e565b91506145d982614598565b602082019050919050565b600060208201905081810360008301526145fd816145c1565b9050919050565b7f4e487b7100000000000000000000000000000000000000000000000000000000600052601260045260246000fd5b600061463e826138b7565b9150614649836138b7565b92508261465957614658614604565b5b828204905092915050565b600061466f826138b7565b915061467a836138b7565b92508261468a57614689614604565b5b828206905092915050565b60006146a0826138b7565b9150600082036146b3576146b2613d91565b5b60018203905091905056fea264697066735822122007ccaad741b8f44d5a36f04d0507baa622b7a0c267b6828eb1e36ea5902baa5564736f6c634300080f0033",
  "immutableReferences": {},
  "source": "// SPDX-License-Identifier: MIT\r\npragma solidity ^0.8;\r\n\r\nimport \"../contracts/details.sol\";\r\n\r\ncontract updateReport is details{\r\n\r\n\r\n    // lab technician at approved lab can add a patient's med info\r\n    function setMedInfoHash(  \r\n        string memory _mHash,\r\n        string memory _id\r\n        \r\n    )public\r\n    isAllowed(worksAt[msg.sender],_id)\r\n    {\r\n        address _patientAddress  = Id[_id];\r\n\r\n        require(isPatient[_patientAddress], \"not a patient\" );\r\n        require(isTech[msg.sender],\"not a labTech\");\r\n\r\n        uint256 last = record[_patientAddress].totalRecord;\r\n        last += 1;\r\n        record[_patientAddress].medicalInfoHash[last].cid = _mHash;\r\n        record[_patientAddress].medicalInfoHash[last].consultationCnt = 0;\r\n        record[_patientAddress].medicalInfoHash[last].confirmationCnt = 0;\r\n    }\r\n    // patient or doctors at approved insti can see a patient medical info\r\n    function getMedInfoHash(string memory _id,uint256 _reportId)\r\n    public view \r\n    returns(string memory){\r\n        address _patientAddress = Id[_id];\r\n        require(isPatient[_patientAddress], \"not a patient\" );\r\n        require(isHospital[worksAt[msg.sender]] || (isPatient[msg.sender] && msg.sender == _patientAddress) , \"not allowed\");\r\n        bool ok = false;\r\n        if(_patientAddress == msg.sender){\r\n            ok = true;\r\n        }else{\r\n            for(uint256 i=0; i < record[_patientAddress].permitted.length; i++){\r\n                address instiAddress = record[_patientAddress].permitted[i].instiAddress;\r\n                bool _status = record[_patientAddress].permitted[i].status;\r\n                if(instiAddress == worksAt[msg.sender] && _status){\r\n                    ok = true;\r\n                    break;\r\n                }\r\n\r\n            }\r\n        }\r\n        require(ok,\"not a valid request\");\r\n        return record[_patientAddress].medicalInfoHash[_reportId].cid;        \r\n    }\r\n\r\n    // doctors at approved hospitals can confirm the disease status\r\n    function confirmDisease(\r\n        string memory _id,\r\n        uint256 _reportId,\r\n        string memory status)\r\n        public\r\n        isAllowed(worksAt[msg.sender],_id)\r\n    {\r\n        address _patientAddress = Id[_id];\r\n        require(isPatient[_patientAddress], \"not a patient\" );\r\n        require(isDoctor[msg.sender],\"not a doctor\");\r\n        require(!confirmedBy[msg.sender] , \"have confirmed already\");\r\n        require(record[_patientAddress].totalRecord >= _reportId,\"invalid report Id\");\r\n        confirmedBy[msg.sender] = true;\r\n        record[_patientAddress].medicalInfoHash[_reportId].consultationCnt++;\r\n        if(compareStrings(status ,\"true\")){\r\n            record[_patientAddress].medicalInfoHash[_reportId].confirmationCnt++;\r\n        }\r\n        \r\n    }\r\n}",
  "sourcePath": "D:\\ri\\ehr\\contracts\\updateReport.sol",
  "compiler": {
    "name": "solc",
    "version": "0.8.15+commit.e14f2714.Emscripten.clang"
  },
  "schemaVersion": "3.4.8",
  "updatedAt": "2022-09-20T13:57:16.021Z",
  "devdoc": {
    "kind": "dev",
    "methods": {},
    "version": 1
  },
  "userdoc": {
    "kind": "user",
    "methods": {},
    "version": 1
  }
}