{
  "contractName": "updateReport",
  "abi": [
    {
      "inputs": [
        {
          "internalType": "address",
          "name": "",
          "type": "address"
        }
      ],
      "name": "Address",
      "outputs": [
        {
          "internalType": "string",
          "name": "",
          "type": "string"
        }
      ],
      "stateMutability": "view",
      "type": "function"
    },
    {
      "inputs": [
        {
          "internalType": "string",
          "name": "",
          "type": "string"
        }
      ],
      "name": "Id",
      "outputs": [
        {
          "internalType": "address",
          "name": "",
          "type": "address"
        }
      ],
      "stateMutability": "view",
      "type": "function"
    },
    {
      "inputs": [
        {
          "internalType": "address",
          "name": "_address",
          "type": "address"
        },
        {
          "internalType": "string",
          "name": "category",
          "type": "string"
        }
      ],
      "name": "addClient",
      "outputs": [],
      "stateMutability": "nonpayable",
      "type": "function"
    },
    {
      "inputs": [
        {
          "internalType": "address",
          "name": "_address",
          "type": "address"
        }
      ],
      "name": "addEmployee",
      "outputs": [],
      "stateMutability": "nonpayable",
      "type": "function"
    },
    {
      "inputs": [
        {
          "internalType": "string",
          "name": "a",
          "type": "string"
        },
        {
          "internalType": "string",
          "name": "b",
          "type": "string"
        }
      ],
      "name": "compareStrings",
      "outputs": [
        {
          "internalType": "bool",
          "name": "",
          "type": "bool"
        }
      ],
      "stateMutability": "pure",
      "type": "function"
    },
    {
      "inputs": [
        {
          "internalType": "string",
          "name": "a",
          "type": "string"
        },
        {
          "internalType": "string",
          "name": "b",
          "type": "string"
        }
      ],
      "name": "concat",
      "outputs": [
        {
          "internalType": "string",
          "name": "",
          "type": "string"
        }
      ],
      "stateMutability": "pure",
      "type": "function"
    },
    {
      "inputs": [],
      "name": "doctorCnt",
      "outputs": [
        {
          "internalType": "uint256",
          "name": "",
          "type": "uint256"
        }
      ],
      "stateMutability": "view",
      "type": "function"
    },
    {
      "inputs": [
        {
          "internalType": "string",
          "name": "_id",
          "type": "string"
        }
      ],
      "name": "getCreditScore",
      "outputs": [
        {
          "internalType": "uint256",
          "name": "",
          "type": "uint256"
        }
      ],
      "stateMutability": "view",
      "type": "function"
    },
    {
      "inputs": [
        {
          "internalType": "string",
          "name": "_id",
          "type": "string"
        }
      ],
      "name": "getMedRecordCnt",
      "outputs": [
        {
          "internalType": "uint256",
          "name": "x",
          "type": "uint256"
        }
      ],
      "stateMutability": "view",
      "type": "function"
    },
    {
      "inputs": [
        {
          "internalType": "string",
          "name": "_id",
          "type": "string"
        }
      ],
      "name": "getPersonalInfoHash",
      "outputs": [
        {
          "internalType": "string",
          "name": "x",
          "type": "string"
        }
      ],
      "stateMutability": "view",
      "type": "function"
    },
    {
      "inputs": [],
      "name": "hospitalCnt",
      "outputs": [
        {
          "internalType": "uint256",
          "name": "",
          "type": "uint256"
        }
      ],
      "stateMutability": "view",
      "type": "function"
    },
    {
      "inputs": [
        {
          "internalType": "string",
          "name": "_id",
          "type": "string"
        }
      ],
      "name": "isAllowed",
      "outputs": [
        {
          "internalType": "bool",
          "name": "",
          "type": "bool"
        }
      ],
      "stateMutability": "view",
      "type": "function"
    },
    {
      "inputs": [
        {
          "internalType": "address",
          "name": "",
          "type": "address"
        }
      ],
      "name": "isDoctor",
      "outputs": [
        {
          "internalType": "bool",
          "name": "",
          "type": "bool"
        }
      ],
      "stateMutability": "view",
      "type": "function"
    },
    {
      "inputs": [
        {
          "internalType": "address",
          "name": "",
          "type": "address"
        }
      ],
      "name": "isHospital",
      "outputs": [
        {
          "internalType": "bool",
          "name": "",
          "type": "bool"
        }
      ],
      "stateMutability": "view",
      "type": "function"
    },
    {
      "inputs": [
        {
          "internalType": "address",
          "name": "",
          "type": "address"
        }
      ],
      "name": "isLab",
      "outputs": [
        {
          "internalType": "bool",
          "name": "",
          "type": "bool"
        }
      ],
      "stateMutability": "view",
      "type": "function"
    },
    {
      "inputs": [
        {
          "internalType": "address",
          "name": "",
          "type": "address"
        }
      ],
      "name": "isOwner",
      "outputs": [
        {
          "internalType": "bool",
          "name": "",
          "type": "bool"
        }
      ],
      "stateMutability": "view",
      "type": "function"
    },
    {
      "inputs": [
        {
          "internalType": "address",
          "name": "",
          "type": "address"
        }
      ],
      "name": "isPatient",
      "outputs": [
        {
          "internalType": "bool",
          "name": "",
          "type": "bool"
        }
      ],
      "stateMutability": "view",
      "type": "function"
    },
    {
      "inputs": [
        {
          "internalType": "address",
          "name": "",
          "type": "address"
        }
      ],
      "name": "isTech",
      "outputs": [
        {
          "internalType": "bool",
          "name": "",
          "type": "bool"
        }
      ],
      "stateMutability": "view",
      "type": "function"
    },
    {
      "inputs": [],
      "name": "labCnt",
      "outputs": [
        {
          "internalType": "uint256",
          "name": "",
          "type": "uint256"
        }
      ],
      "stateMutability": "view",
      "type": "function"
    },
    {
      "inputs": [],
      "name": "patientCnt",
      "outputs": [
        {
          "internalType": "uint256",
          "name": "",
          "type": "uint256"
        }
      ],
      "stateMutability": "view",
      "type": "function"
    },
    {
      "inputs": [
        {
          "internalType": "address",
          "name": "",
          "type": "address"
        }
      ],
      "name": "record",
      "outputs": [
        {
          "internalType": "string",
          "name": "personalInfoHash",
          "type": "string"
        },
        {
          "internalType": "uint256",
          "name": "credit",
          "type": "uint256"
        },
        {
          "internalType": "uint256",
          "name": "totalRecord",
          "type": "uint256"
        }
      ],
      "stateMutability": "view",
      "type": "function"
    },
    {
      "inputs": [
        {
          "internalType": "string",
          "name": "_pinfo",
          "type": "string"
        }
      ],
      "name": "setPersonalInfoHash",
      "outputs": [],
      "stateMutability": "nonpayable",
      "type": "function"
    },
    {
      "inputs": [],
      "name": "techCnt",
      "outputs": [
        {
          "internalType": "uint256",
          "name": "",
          "type": "uint256"
        }
      ],
      "stateMutability": "view",
      "type": "function"
    },
    {
      "inputs": [
        {
          "internalType": "uint256",
          "name": "_reportId",
          "type": "uint256"
        }
      ],
      "name": "totalConfirmation",
      "outputs": [
        {
          "internalType": "uint256",
          "name": "",
          "type": "uint256"
        }
      ],
      "stateMutability": "view",
      "type": "function"
    },
    {
      "inputs": [
        {
          "internalType": "uint256",
          "name": "_reportId",
          "type": "uint256"
        }
      ],
      "name": "totalConsulation",
      "outputs": [
        {
          "internalType": "uint256",
          "name": "",
          "type": "uint256"
        }
      ],
      "stateMutability": "view",
      "type": "function"
    },
    {
      "inputs": [
        {
          "internalType": "address",
          "name": "",
          "type": "address"
        }
      ],
      "name": "worksAt",
      "outputs": [
        {
          "internalType": "address",
          "name": "",
          "type": "address"
        }
      ],
      "stateMutability": "view",
      "type": "function"
    },
    {
      "inputs": [
        {
          "internalType": "string",
          "name": "_mHash",
          "type": "string"
        },
        {
          "internalType": "string",
          "name": "_id",
          "type": "string"
        }
      ],
      "name": "setMedInfoHash",
      "outputs": [],
      "stateMutability": "nonpayable",
      "type": "function"
    },
    {
      "inputs": [
        {
          "internalType": "string",
          "name": "_id",
          "type": "string"
        },
        {
          "internalType": "uint256",
          "name": "_reportId",
          "type": "uint256"
        }
      ],
      "name": "getMedInfoHash",
      "outputs": [
        {
          "internalType": "string",
          "name": "",
          "type": "string"
        }
      ],
      "stateMutability": "view",
      "type": "function"
    },
    {
      "inputs": [
        {
          "internalType": "string",
          "name": "_id",
          "type": "string"
        },
        {
          "internalType": "uint256",
          "name": "_reportId",
          "type": "uint256"
        },
        {
          "internalType": "bool",
          "name": "status",
          "type": "bool"
        }
      ],
      "name": "confirmDisease",
      "outputs": [],
      "stateMutability": "nonpayable",
      "type": "function"
    }
  ],
  "bytecode": "0x608060405260008055600060015560006002556000600355600060045534801561002857600080fd5b506142e7806100386000396000f3fe608060405234801561001057600080fd5b50600436106101cf5760003560e01c80638fc7043f11610104578063bfa28ff1116100a2578063e4ded01111610071578063e4ded011146105dc578063eac8aa621461060c578063ebfb412d1461063c578063f3cb8c311461066c576101cf565b8063bfa28ff114610530578063ce64eac114610560578063e12483f814610590578063e292ec08146105c0576101cf565b8063ac2018e5116100de578063ac2018e514610494578063b89895f2146104b2578063bdf6c673146104d0578063bed34bba14610500576101cf565b80638fc7043f1461042c578063996440c614610448578063a848868714610478576101cf565b806349d8fea111610171578063807ad9401161014b578063807ad9401461036c57806389c19ddb1461039c5780638f9c79ed146103cc5780638fa79390146103fc576101cf565b806349d8fea1146102ee5780635e3908801461031e57806360ebd6901461034e576101cf565b80633465d6d5116101ad5780633465d6d51461023e57806339f0b138146102705780633eb23e69146102a05780634761658e146102be576101cf565b8063030b35cb146101d45780631b9d1154146101f05780632f54bf6e1461020e575b600080fd5b6101ee60048036038101906101e991906132de565b610688565b005b6101f861090d565b604051610205919061336f565b60405180910390f35b610228600480360381019061022391906133e8565b610913565b6040516102359190613430565b60405180910390f35b610258600480360381019061025391906133e8565b610933565b604051610267939291906134d3565b60405180910390f35b61028a60048036038101906102859190613511565b6109e5565b6040516102979190613569565b60405180910390f35b6102a8610a2e565b6040516102b5919061336f565b60405180910390f35b6102d860048036038101906102d39190613511565b610a34565b6040516102e59190613584565b60405180910390f35b61030860048036038101906103039190613511565b610be9565b604051610315919061336f565b60405180910390f35b610338600480360381019061033391906133e8565b610d04565b6040516103459190613430565b60405180910390f35b610356610d24565b604051610363919061336f565b60405180910390f35b61038660048036038101906103819190613511565b610d2a565b6040516103939190613430565b60405180910390f35b6103b660048036038101906103b191906132de565b6111fd565b6040516103c39190613584565b60405180910390f35b6103e660048036038101906103e191906133e8565b611229565b6040516103f39190613430565b60405180910390f35b610416600480360381019061041191906135d2565b611249565b6040516104239190613584565b60405180910390f35b61044660048036038101906104419190613511565b6115c0565b005b610462600480360381019061045d91906133e8565b61169f565b60405161046f9190613430565b60405180910390f35b610492600480360381019061048d919061365a565b6116bf565b005b61049c611bf7565b6040516104a9919061336f565b60405180910390f35b6104ba611bfd565b6040516104c7919061336f565b60405180910390f35b6104ea60048036038101906104e591906133e8565b611c03565b6040516104f79190613430565b60405180910390f35b61051a600480360381019061051591906132de565b611c23565b6040516105279190613430565b60405180910390f35b61054a600480360381019061054591906136c9565b611c7c565b604051610557919061336f565b60405180910390f35b61057a600480360381019061057591906133e8565b611d6e565b6040516105879190613430565b60405180910390f35b6105aa60048036038101906105a59190613511565b611d8e565b6040516105b7919061336f565b60405180910390f35b6105da60048036038101906105d591906136f6565b611eba565b005b6105f660048036038101906105f191906136c9565b612718565b604051610603919061336f565b60405180910390f35b610626600480360381019061062191906133e8565b61280a565b6040516106339190613569565b60405180910390f35b610656600480360381019061065191906133e8565b61283d565b6040516106639190613584565b60405180910390f35b610686600480360381019061068191906133e8565b6128dd565b005b6000600b8260405161069a919061378e565b908152602001604051809103902060009054906101000a900473ffffffffffffffffffffffffffffffffffffffff169050600660008273ffffffffffffffffffffffffffffffffffffffff1673ffffffffffffffffffffffffffffffffffffffff16815260200190815260200160002060009054906101000a900460ff16610757576040517f08c379a000000000000000000000000000000000000000000000000000000000815260040161074e906137f1565b60405180910390fd5b61076082610d2a565b80156107b55750600960003373ffffffffffffffffffffffffffffffffffffffff1673ffffffffffffffffffffffffffffffffffffffff16815260200190815260200160002060009054906101000a900460ff165b6107f4576040517f08c379a00000000000000000000000000000000000000000000000000000000081526004016107eb9061385d565b60405180910390fd5b6000600e60008373ffffffffffffffffffffffffffffffffffffffff1673ffffffffffffffffffffffffffffffffffffffff16815260200190815260200160002060040154905060018161084891906138ac565b905083600e60008473ffffffffffffffffffffffffffffffffffffffff1673ffffffffffffffffffffffffffffffffffffffff168152602001908152602001600020600101600083815260200190815260200160002060000190816108ad9190613b0e565b5080600e60008473ffffffffffffffffffffffffffffffffffffffff1673ffffffffffffffffffffffffffffffffffffffff168152602001908152602001600020600401600082825461090091906138ac565b9250508190555050505050565b60015481565b600a6020528060005260406000206000915054906101000a900460ff1681565b600e60205280600052604060002060009150905080600001805461095690613931565b80601f016020809104026020016040519081016040528092919081815260200182805461098290613931565b80156109cf5780601f106109a4576101008083540402835291602001916109cf565b820191906000526020600020905b8154815290600101906020018083116109b257829003601f168201915b5050505050908060030154908060040154905083565b600b818051602081018201805184825260208301602085012081835280955050505050506000915054906101000a900473ffffffffffffffffffffffffffffffffffffffff1681565b60025481565b60606000600b83604051610a48919061378e565b908152602001604051809103902060009054906101000a900473ffffffffffffffffffffffffffffffffffffffff169050600660008273ffffffffffffffffffffffffffffffffffffffff1673ffffffffffffffffffffffffffffffffffffffff16815260200190815260200160002060009054906101000a900460ff168015610ad75750610ad683610d2a565b5b610b16576040517f08c379a0000000000000000000000000000000000000000000000000000000008152600401610b0d906137f1565b60405180910390fd5b600e60008273ffffffffffffffffffffffffffffffffffffffff1673ffffffffffffffffffffffffffffffffffffffff1681526020019081526020016000206000018054610b6390613931565b80601f0160208091040260200160405190810160405280929190818152602001828054610b8f90613931565b8015610bdc5780601f10610bb157610100808354040283529160200191610bdc565b820191906000526020600020905b815481529060010190602001808311610bbf57829003601f168201915b5050505050915050919050565b600080600b83604051610bfc919061378e565b908152602001604051809103902060009054906101000a900473ffffffffffffffffffffffffffffffffffffffff169050600660008273ffffffffffffffffffffffffffffffffffffffff1673ffffffffffffffffffffffffffffffffffffffff16815260200190815260200160002060009054906101000a900460ff16610cb9576040517f08c379a0000000000000000000000000000000000000000000000000000000008152600401610cb0906137f1565b60405180910390fd5b600e60008273ffffffffffffffffffffffffffffffffffffffff1673ffffffffffffffffffffffffffffffffffffffff16815260200190815260200160002060030154915050919050565b60076020528060005260406000206000915054906101000a900460ff1681565b60035481565b600080600b83604051610d3d919061378e565b908152602001604051809103902060009054906101000a900473ffffffffffffffffffffffffffffffffffffffff169050600660008273ffffffffffffffffffffffffffffffffffffffff1673ffffffffffffffffffffffffffffffffffffffff16815260200190815260200160002060009054906101000a900460ff16610dfa576040517f08c379a0000000000000000000000000000000000000000000000000000000008152600401610df190613c2c565b60405180910390fd5b8073ffffffffffffffffffffffffffffffffffffffff163373ffffffffffffffffffffffffffffffffffffffff1603610ea5578073ffffffffffffffffffffffffffffffffffffffff163373ffffffffffffffffffffffffffffffffffffffff1614610e9b576040517f08c379a0000000000000000000000000000000000000000000000000000000008152600401610e9290613c98565b60405180910390fd5b60019150506111f8565b600860003373ffffffffffffffffffffffffffffffffffffffff1673ffffffffffffffffffffffffffffffffffffffff16815260200190815260200160002060009054906101000a900460ff1680610f465750600960003373ffffffffffffffffffffffffffffffffffffffff1673ffffffffffffffffffffffffffffffffffffffff16815260200190815260200160002060009054906101000a900460ff165b610f85576040517f08c379a0000000000000000000000000000000000000000000000000000000008152600401610f7c90613d04565b60405180910390fd5b6000600c60003373ffffffffffffffffffffffffffffffffffffffff1673ffffffffffffffffffffffffffffffffffffffff16815260200190815260200160002060009054906101000a900473ffffffffffffffffffffffffffffffffffffffff169050600560008273ffffffffffffffffffffffffffffffffffffffff1673ffffffffffffffffffffffffffffffffffffffff16815260200190815260200160002060009054906101000a900460ff168061108a5750600760008273ffffffffffffffffffffffffffffffffffffffff1673ffffffffffffffffffffffffffffffffffffffff16815260200190815260200160002060009054906101000a900460ff165b6110c9576040517f08c379a00000000000000000000000000000000000000000000000000000000081526004016110c090613d70565b60405180910390fd5b60005b600e60008473ffffffffffffffffffffffffffffffffffffffff1673ffffffffffffffffffffffffffffffffffffffff168152602001908152602001600020600201805490508110156111f0576000600e60008573ffffffffffffffffffffffffffffffffffffffff1673ffffffffffffffffffffffffffffffffffffffff168152602001908152602001600020600201828154811061116f5761116e613d90565b5b9060005260206000200160009054906101000a900473ffffffffffffffffffffffffffffffffffffffff1690508273ffffffffffffffffffffffffffffffffffffffff168173ffffffffffffffffffffffffffffffffffffffff16036111dc5760019450505050506111f8565b5080806111e890613dbf565b9150506110cc565b505060009150505b919050565b60608282604051602001611212929190613e07565b604051602081830303815290604052905092915050565b60066020528060005260406000206000915054906101000a900460ff1681565b60606000600b8460405161125d919061378e565b908152602001604051809103902060009054906101000a900473ffffffffffffffffffffffffffffffffffffffff169050600660008273ffffffffffffffffffffffffffffffffffffffff1673ffffffffffffffffffffffffffffffffffffffff16815260200190815260200160002060009054906101000a900460ff1661131a576040517f08c379a0000000000000000000000000000000000000000000000000000000008152600401611311906137f1565b60405180910390fd5b60056000600c60003373ffffffffffffffffffffffffffffffffffffffff1673ffffffffffffffffffffffffffffffffffffffff16815260200190815260200160002060009054906101000a900473ffffffffffffffffffffffffffffffffffffffff1673ffffffffffffffffffffffffffffffffffffffff1673ffffffffffffffffffffffffffffffffffffffff16815260200190815260200160002060009054906101000a900460ff16806114515750600660003373ffffffffffffffffffffffffffffffffffffffff1673ffffffffffffffffffffffffffffffffffffffff16815260200190815260200160002060009054906101000a900460ff16801561145057508073ffffffffffffffffffffffffffffffffffffffff163373ffffffffffffffffffffffffffffffffffffffff16145b5b611490576040517f08c379a000000000000000000000000000000000000000000000000000000000815260040161148790613d70565b60405180910390fd5b61149984610d2a565b6114d8576040517f08c379a00000000000000000000000000000000000000000000000000000000081526004016114cf90613e77565b60405180910390fd5b600e60008273ffffffffffffffffffffffffffffffffffffffff1673ffffffffffffffffffffffffffffffffffffffff1681526020019081526020016000206001016000848152602001908152602001600020600001805461153990613931565b80601f016020809104026020016040519081016040528092919081815260200182805461156590613931565b80156115b25780601f10611587576101008083540402835291602001916115b2565b820191906000526020600020905b81548152906001019060200180831161159557829003601f168201915b505050505091505092915050565b600660003373ffffffffffffffffffffffffffffffffffffffff1673ffffffffffffffffffffffffffffffffffffffff16815260200190815260200160002060009054906101000a900460ff1661164c576040517f08c379a000000000000000000000000000000000000000000000000000000000815260040161164390613ee3565b60405180910390fd5b80600e60003373ffffffffffffffffffffffffffffffffffffffff1673ffffffffffffffffffffffffffffffffffffffff168152602001908152602001600020600001908161169b9190613b0e565b5050565b60086020528060005260406000206000915054906101000a900460ff1681565b600860003373ffffffffffffffffffffffffffffffffffffffff1673ffffffffffffffffffffffffffffffffffffffff16815260200190815260200160002060009054906101000a900460ff1661174b576040517f08c379a000000000000000000000000000000000000000000000000000000000815260040161174290613f4f565b60405180910390fd5b6000600b8460405161175d919061378e565b908152602001604051809103902060009054906101000a900473ffffffffffffffffffffffffffffffffffffffff16905061179784610d2a565b8061183557506002600e60008373ffffffffffffffffffffffffffffffffffffffff1673ffffffffffffffffffffffffffffffffffffffff168152602001908152602001600020600101600085815260200190815260200160002060040160003373ffffffffffffffffffffffffffffffffffffffff1673ffffffffffffffffffffffffffffffffffffffff16815260200190815260200160002054145b611874576040517f08c379a000000000000000000000000000000000000000000000000000000000815260040161186b90613d70565b60405180910390fd5b600660008273ffffffffffffffffffffffffffffffffffffffff1673ffffffffffffffffffffffffffffffffffffffff16815260200190815260200160002060009054906101000a900460ff16611900576040517f08c379a00000000000000000000000000000000000000000000000000000000081526004016118f7906137f1565b60405180910390fd5b600e60008273ffffffffffffffffffffffffffffffffffffffff1673ffffffffffffffffffffffffffffffffffffffff168152602001908152602001600020600101600084815260200190815260200160002060030160003373ffffffffffffffffffffffffffffffffffffffff1673ffffffffffffffffffffffffffffffffffffffff16815260200190815260200160002060009054906101000a900460ff16156119e1576040517f08c379a00000000000000000000000000000000000000000000000000000000081526004016119d890613fbb565b60405180910390fd5b82600e60008373ffffffffffffffffffffffffffffffffffffffff1673ffffffffffffffffffffffffffffffffffffffff168152602001908152602001600020600401541015611a66576040517f08c379a0000000000000000000000000000000000000000000000000000000008152600401611a5d90614027565b60405180910390fd5b6001600e60008373ffffffffffffffffffffffffffffffffffffffff1673ffffffffffffffffffffffffffffffffffffffff168152602001908152602001600020600101600085815260200190815260200160002060030160003373ffffffffffffffffffffffffffffffffffffffff1673ffffffffffffffffffffffffffffffffffffffff16815260200190815260200160002060006101000a81548160ff021916908315150217905550600e60008273ffffffffffffffffffffffffffffffffffffffff1673ffffffffffffffffffffffffffffffffffffffff16815260200190815260200160002060010160008481526020019081526020016000206001016000815480929190611b7990613dbf565b91905055508115611bf157600e60008273ffffffffffffffffffffffffffffffffffffffff1673ffffffffffffffffffffffffffffffffffffffff16815260200190815260200160002060010160008481526020019081526020016000206002016000815480929190611beb90613dbf565b91905055505b50505050565b60005481565b60045481565b60056020528060005260406000206000915054906101000a900460ff1681565b600081604051602001611c36919061378e565b6040516020818303038152906040528051906020012083604051602001611c5d919061378e565b6040516020818303038152906040528051906020012014905092915050565b6000600660003373ffffffffffffffffffffffffffffffffffffffff1673ffffffffffffffffffffffffffffffffffffffff16815260200190815260200160002060009054906101000a900460ff16611d0a576040517f08c379a0000000000000000000000000000000000000000000000000000000008152600401611d01906137f1565b60405180910390fd5b6000600e60003373ffffffffffffffffffffffffffffffffffffffff1673ffffffffffffffffffffffffffffffffffffffff168152602001908152602001600020600101600084815260200190815260200160002060020154905080915050919050565b60096020528060005260406000206000915054906101000a900460ff1681565b600080600b83604051611da1919061378e565b908152602001604051809103902060009054906101000a900473ffffffffffffffffffffffffffffffffffffffff169050600660008273ffffffffffffffffffffffffffffffffffffffff1673ffffffffffffffffffffffffffffffffffffffff16815260200190815260200160002060009054906101000a900460ff168015611e305750611e2f83610d2a565b5b611e6f576040517f08c379a0000000000000000000000000000000000000000000000000000000008152600401611e6690613c2c565b60405180910390fd5b600e60008273ffffffffffffffffffffffffffffffffffffffff1673ffffffffffffffffffffffffffffffffffffffff16815260200190815260200160002060040154915050919050565b600a60003373ffffffffffffffffffffffffffffffffffffffff1673ffffffffffffffffffffffffffffffffffffffff16815260200190815260200160002060009054906101000a900460ff16611f46576040517f08c379a0000000000000000000000000000000000000000000000000000000008152600401611f3d90614093565b60405180910390fd5b81600073ffffffffffffffffffffffffffffffffffffffff168173ffffffffffffffffffffffffffffffffffffffff1603611fb6576040517f08c379a0000000000000000000000000000000000000000000000000000000008152600401611fad906140ff565b60405180910390fd5b600860008273ffffffffffffffffffffffffffffffffffffffff1673ffffffffffffffffffffffffffffffffffffffff16815260200190815260200160002060009054906101000a900460ff1615801561205a5750600960008273ffffffffffffffffffffffffffffffffffffffff1673ffffffffffffffffffffffffffffffffffffffff16815260200190815260200160002060009054906101000a900460ff16155b80156120b05750600760008273ffffffffffffffffffffffffffffffffffffffff1673ffffffffffffffffffffffffffffffffffffffff16815260200190815260200160002060009054906101000a900460ff16155b80156121065750600660008273ffffffffffffffffffffffffffffffffffffffff1673ffffffffffffffffffffffffffffffffffffffff16815260200190815260200160002060009054906101000a900460ff16155b801561215c5750600a60008273ffffffffffffffffffffffffffffffffffffffff1673ffffffffffffffffffffffffffffffffffffffff16815260200190815260200160002060009054906101000a900460ff16155b80156121b25750600560008273ffffffffffffffffffffffffffffffffffffffff1673ffffffffffffffffffffffffffffffffffffffff16815260200190815260200160002060009054906101000a900460ff16155b6121f1576040517f08c379a00000000000000000000000000000000000000000000000000000000081526004016121e89061416b565b60405180910390fd5b612230826040518060400160405280600881526020017f686f73706974616c000000000000000000000000000000000000000000000000815250611c23565b156123a8576001600560008573ffffffffffffffffffffffffffffffffffffffff1673ffffffffffffffffffffffffffffffffffffffff16815260200190815260200160002060006101000a81548160ff021916908315150217905550600160008154809291906122a090613dbf565b919050555060006122b260015461301e565b905060006122f56040518060400160405280600181526020017f6800000000000000000000000000000000000000000000000000000000000000815250836111fd565b905084600b82604051612308919061378e565b908152602001604051809103902060006101000a81548173ffffffffffffffffffffffffffffffffffffffff021916908373ffffffffffffffffffffffffffffffffffffffff16021790555080600d60008773ffffffffffffffffffffffffffffffffffffffff1673ffffffffffffffffffffffffffffffffffffffff16815260200190815260200160002090816123a09190613b0e565b505050612713565b6123e7826040518060400160405280600381526020017f6c61620000000000000000000000000000000000000000000000000000000000815250611c23565b1561255f576001600760008573ffffffffffffffffffffffffffffffffffffffff1673ffffffffffffffffffffffffffffffffffffffff16815260200190815260200160002060006101000a81548160ff0219169083151502179055506004600081548092919061245790613dbf565b9190505550600061246960045461301e565b905060006124ac6040518060400160405280600181526020017f6c00000000000000000000000000000000000000000000000000000000000000815250836111fd565b905084600b826040516124bf919061378e565b908152602001604051809103902060006101000a81548173ffffffffffffffffffffffffffffffffffffffff021916908373ffffffffffffffffffffffffffffffffffffffff16021790555080600d60008773ffffffffffffffffffffffffffffffffffffffff1673ffffffffffffffffffffffffffffffffffffffff16815260200190815260200160002090816125579190613b0e565b505050612712565b61259e826040518060400160405280600781526020017f70617469656e7400000000000000000000000000000000000000000000000000815250611c23565b15612711576001600660008573ffffffffffffffffffffffffffffffffffffffff1673ffffffffffffffffffffffffffffffffffffffff16815260200190815260200160002060006101000a81548160ff02191690831515021790555060008081548092919061260d90613dbf565b9190505550600061261f60005461301e565b905060006126626040518060400160405280600181526020017f7000000000000000000000000000000000000000000000000000000000000000815250836111fd565b905084600b82604051612675919061378e565b908152602001604051809103902060006101000a81548173ffffffffffffffffffffffffffffffffffffffff021916908373ffffffffffffffffffffffffffffffffffffffff16021790555080600d60008773ffffffffffffffffffffffffffffffffffffffff1673ffffffffffffffffffffffffffffffffffffffff168152602001908152602001600020908161270d9190613b0e565b5050505b5b5b505050565b6000600660003373ffffffffffffffffffffffffffffffffffffffff1673ffffffffffffffffffffffffffffffffffffffff16815260200190815260200160002060009054906101000a900460ff166127a6576040517f08c379a000000000000000000000000000000000000000000000000000000000815260040161279d906137f1565b60405180910390fd5b6000600e60003373ffffffffffffffffffffffffffffffffffffffff1673ffffffffffffffffffffffffffffffffffffffff168152602001908152602001600020600101600084815260200190815260200160002060010154905080915050919050565b600c6020528060005260406000206000915054906101000a900473ffffffffffffffffffffffffffffffffffffffff1681565b600d602052806000526040600020600091509050805461285c90613931565b80601f016020809104026020016040519081016040528092919081815260200182805461288890613931565b80156128d55780601f106128aa576101008083540402835291602001916128d5565b820191906000526020600020905b8154815290600101906020018083116128b857829003601f168201915b505050505081565b80600073ffffffffffffffffffffffffffffffffffffffff168173ffffffffffffffffffffffffffffffffffffffff160361294d576040517f08c379a0000000000000000000000000000000000000000000000000000000008152600401612944906140ff565b60405180910390fd5b600860008273ffffffffffffffffffffffffffffffffffffffff1673ffffffffffffffffffffffffffffffffffffffff16815260200190815260200160002060009054906101000a900460ff161580156129f15750600960008273ffffffffffffffffffffffffffffffffffffffff1673ffffffffffffffffffffffffffffffffffffffff16815260200190815260200160002060009054906101000a900460ff16155b8015612a475750600760008273ffffffffffffffffffffffffffffffffffffffff1673ffffffffffffffffffffffffffffffffffffffff16815260200190815260200160002060009054906101000a900460ff16155b8015612a9d5750600660008273ffffffffffffffffffffffffffffffffffffffff1673ffffffffffffffffffffffffffffffffffffffff16815260200190815260200160002060009054906101000a900460ff16155b8015612af35750600a60008273ffffffffffffffffffffffffffffffffffffffff1673ffffffffffffffffffffffffffffffffffffffff16815260200190815260200160002060009054906101000a900460ff16155b8015612b495750600560008273ffffffffffffffffffffffffffffffffffffffff1673ffffffffffffffffffffffffffffffffffffffff16815260200190815260200160002060009054906101000a900460ff16155b612b88576040517f08c379a0000000000000000000000000000000000000000000000000000000008152600401612b7f9061416b565b60405180910390fd5b600560003373ffffffffffffffffffffffffffffffffffffffff1673ffffffffffffffffffffffffffffffffffffffff16815260200190815260200160002060009054906101000a900460ff1680612c295750600760003373ffffffffffffffffffffffffffffffffffffffff1673ffffffffffffffffffffffffffffffffffffffff16815260200190815260200160002060009054906101000a900460ff165b612c68576040517f08c379a0000000000000000000000000000000000000000000000000000000008152600401612c5f906141d7565b60405180910390fd5b600560003373ffffffffffffffffffffffffffffffffffffffff1673ffffffffffffffffffffffffffffffffffffffff16815260200190815260200160002060009054906101000a900460ff1615612e2d5760026000815480929190612ccd90613dbf565b91905055506001600860008473ffffffffffffffffffffffffffffffffffffffff1673ffffffffffffffffffffffffffffffffffffffff16815260200190815260200160002060006101000a81548160ff0219169083151502179055506000612d3760025461301e565b90506000612d7a6040518060400160405280600181526020017f6400000000000000000000000000000000000000000000000000000000000000815250836111fd565b905083600b82604051612d8d919061378e565b908152602001604051809103902060006101000a81548173ffffffffffffffffffffffffffffffffffffffff021916908373ffffffffffffffffffffffffffffffffffffffff16021790555080600d60008673ffffffffffffffffffffffffffffffffffffffff1673ffffffffffffffffffffffffffffffffffffffff1681526020019081526020016000209081612e259190613b0e565b505050612f9c565b6001600960008473ffffffffffffffffffffffffffffffffffffffff1673ffffffffffffffffffffffffffffffffffffffff16815260200190815260200160002060006101000a81548160ff02191690831515021790555060036000815480929190612e9890613dbf565b91905055506000612eaa60035461301e565b90506000612eed6040518060400160405280600181526020017f7400000000000000000000000000000000000000000000000000000000000000815250836111fd565b905083600b82604051612f00919061378e565b908152602001604051809103902060006101000a81548173ffffffffffffffffffffffffffffffffffffffff021916908373ffffffffffffffffffffffffffffffffffffffff16021790555080600d60008673ffffffffffffffffffffffffffffffffffffffff1673ffffffffffffffffffffffffffffffffffffffff1681526020019081526020016000209081612f989190613b0e565b5050505b33600c60008473ffffffffffffffffffffffffffffffffffffffff1673ffffffffffffffffffffffffffffffffffffffff16815260200190815260200160002060006101000a81548173ffffffffffffffffffffffffffffffffffffffff021916908373ffffffffffffffffffffffffffffffffffffffff1602179055505050565b606060008203613065576040518060400160405280600181526020017f3000000000000000000000000000000000000000000000000000000000000000815250905061317f565b600082905060005b6000821461309757808061308090613dbf565b915050600a826130909190614226565b915061306d565b60008167ffffffffffffffff8111156130b3576130b26131b3565b5b6040519080825280601f01601f1916602001820160405280156130e55781602001600182028036833780820191505090505b50905060008290508593505b6000841461317757600a846131069190614257565b603061311291906138ac565b60f81b828261312090614288565b9250828151811061313457613133613d90565b5b60200101907effffffffffffffffffffffffffffffffffffffffffffffffffffffffffffff1916908160001a905350600a846131709190614226565b93506130f1565b819450505050505b919050565b6000604051905090565b600080fd5b600080fd5b600080fd5b600080fd5b6000601f19601f8301169050919050565b7f4e487b7100000000000000000000000000000000000000000000000000000000600052604160045260246000fd5b6131eb826131a2565b810181811067ffffffffffffffff8211171561320a576132096131b3565b5b80604052505050565b600061321d613184565b905061322982826131e2565b919050565b600067ffffffffffffffff821115613249576132486131b3565b5b613252826131a2565b9050602081019050919050565b82818337600083830152505050565b600061328161327c8461322e565b613213565b90508281526020810184848401111561329d5761329c61319d565b5b6132a884828561325f565b509392505050565b600082601f8301126132c5576132c4613198565b5b81356132d584826020860161326e565b91505092915050565b600080604083850312156132f5576132f461318e565b5b600083013567ffffffffffffffff81111561331357613312613193565b5b61331f858286016132b0565b925050602083013567ffffffffffffffff8111156133405761333f613193565b5b61334c858286016132b0565b9150509250929050565b6000819050919050565b61336981613356565b82525050565b60006020820190506133846000830184613360565b92915050565b600073ffffffffffffffffffffffffffffffffffffffff82169050919050565b60006133b58261338a565b9050919050565b6133c5816133aa565b81146133d057600080fd5b50565b6000813590506133e2816133bc565b92915050565b6000602082840312156133fe576133fd61318e565b5b600061340c848285016133d3565b91505092915050565b60008115159050919050565b61342a81613415565b82525050565b60006020820190506134456000830184613421565b92915050565b600081519050919050565b600082825260208201905092915050565b60005b8381101561348557808201518184015260208101905061346a565b83811115613494576000848401525b50505050565b60006134a58261344b565b6134af8185613456565b93506134bf818560208601613467565b6134c8816131a2565b840191505092915050565b600060608201905081810360008301526134ed818661349a565b90506134fc6020830185613360565b6135096040830184613360565b949350505050565b6000602082840312156135275761352661318e565b5b600082013567ffffffffffffffff81111561354557613544613193565b5b613551848285016132b0565b91505092915050565b613563816133aa565b82525050565b600060208201905061357e600083018461355a565b92915050565b6000602082019050818103600083015261359e818461349a565b905092915050565b6135af81613356565b81146135ba57600080fd5b50565b6000813590506135cc816135a6565b92915050565b600080604083850312156135e9576135e861318e565b5b600083013567ffffffffffffffff81111561360757613606613193565b5b613613858286016132b0565b9250506020613624858286016135bd565b9150509250929050565b61363781613415565b811461364257600080fd5b50565b6000813590506136548161362e565b92915050565b6000806000606084860312156136735761367261318e565b5b600084013567ffffffffffffffff81111561369157613690613193565b5b61369d868287016132b0565b93505060206136ae868287016135bd565b92505060406136bf86828701613645565b9150509250925092565b6000602082840312156136df576136de61318e565b5b60006136ed848285016135bd565b91505092915050565b6000806040838503121561370d5761370c61318e565b5b600061371b858286016133d3565b925050602083013567ffffffffffffffff81111561373c5761373b613193565b5b613748858286016132b0565b9150509250929050565b600081905092915050565b60006137688261344b565b6137728185613752565b9350613782818560208601613467565b80840191505092915050565b600061379a828461375d565b915081905092915050565b7f6e6f7420612070617469656e7400000000000000000000000000000000000000600082015250565b60006137db600d83613456565b91506137e6826137a5565b602082019050919050565b6000602082019050818103600083015261380a816137ce565b9050919050565b7f6e6f742061206c61625465636800000000000000000000000000000000000000600082015250565b6000613847600d83613456565b915061385282613811565b602082019050919050565b600060208201905081810360008301526138768161383a565b9050919050565b7f4e487b7100000000000000000000000000000000000000000000000000000000600052601160045260246000fd5b60006138b782613356565b91506138c283613356565b9250827fffffffffffffffffffffffffffffffffffffffffffffffffffffffffffffffff038211156138f7576138f661387d565b5b828201905092915050565b7f4e487b7100000000000000000000000000000000000000000000000000000000600052602260045260246000fd5b6000600282049050600182168061394957607f821691505b60208210810361395c5761395b613902565b5b50919050565b60008190508160005260206000209050919050565b60006020601f8301049050919050565b600082821b905092915050565b6000600883026139c47fffffffffffffffffffffffffffffffffffffffffffffffffffffffffffffffff82613987565b6139ce8683613987565b95508019841693508086168417925050509392505050565b6000819050919050565b6000613a0b613a06613a0184613356565b6139e6565b613356565b9050919050565b6000819050919050565b613a25836139f0565b613a39613a3182613a12565b848454613994565b825550505050565b600090565b613a4e613a41565b613a59818484613a1c565b505050565b5b81811015613a7d57613a72600082613a46565b600181019050613a5f565b5050565b601f821115613ac257613a9381613962565b613a9c84613977565b81016020851015613aab578190505b613abf613ab785613977565b830182613a5e565b50505b505050565b600082821c905092915050565b6000613ae560001984600802613ac7565b1980831691505092915050565b6000613afe8383613ad4565b9150826002028217905092915050565b613b178261344b565b67ffffffffffffffff811115613b3057613b2f6131b3565b5b613b3a8254613931565b613b45828285613a81565b600060209050601f831160018114613b785760008415613b66578287015190505b613b708582613af2565b865550613bd8565b601f198416613b8686613962565b60005b82811015613bae57848901518255600182019150602085019450602081019050613b89565b86831015613bcb5784890151613bc7601f891682613ad4565b8355505b6001600288020188555050505b505050505050565b7f6e6f7420612070617469656e7427732069640000000000000000000000000000600082015250565b6000613c16601283613456565b9150613c2182613be0565b602082019050919050565b60006020820190508181036000830152613c4581613c09565b9050919050565b7f74727920796f7572206964000000000000000000000000000000000000000000600082015250565b6000613c82600b83613456565b9150613c8d82613c4c565b602082019050919050565b60006020820190508181036000830152613cb181613c75565b9050919050565b7f6e6f74206120776f726b65720000000000000000000000000000000000000000600082015250565b6000613cee600c83613456565b9150613cf982613cb8565b602082019050919050565b60006020820190508181036000830152613d1d81613ce1565b9050919050565b7f6e6f7420616c6c6f776564000000000000000000000000000000000000000000600082015250565b6000613d5a600b83613456565b9150613d6582613d24565b602082019050919050565b60006020820190508181036000830152613d8981613d4d565b9050919050565b7f4e487b7100000000000000000000000000000000000000000000000000000000600052603260045260246000fd5b6000613dca82613356565b91507fffffffffffffffffffffffffffffffffffffffffffffffffffffffffffffffff8203613dfc57613dfb61387d565b5b600182019050919050565b6000613e13828561375d565b9150613e1f828461375d565b91508190509392505050565b7f6e6f7420612076616c6964207265717565737400000000000000000000000000600082015250565b6000613e61601383613456565b9150613e6c82613e2b565b602082019050919050565b60006020820190508181036000830152613e9081613e54565b9050919050565b7f73656e646572206973206e6f742070617469656e740000000000000000000000600082015250565b6000613ecd601583613456565b9150613ed882613e97565b602082019050919050565b60006020820190508181036000830152613efc81613ec0565b9050919050565b7f73656e646572206973206e6f74206120646f63746f7200000000000000000000600082015250565b6000613f39601683613456565b9150613f4482613f03565b602082019050919050565b60006020820190508181036000830152613f6881613f2c565b9050919050565b7f6861766520636f6e6669726d656420616c726561647900000000000000000000600082015250565b6000613fa5601683613456565b9150613fb082613f6f565b602082019050919050565b60006020820190508181036000830152613fd481613f98565b9050919050565b7f696e76616c6964207265706f7274204964000000000000000000000000000000600082015250565b6000614011601183613456565b915061401c82613fdb565b602082019050919050565b6000602082019050818103600083015261404081614004565b9050919050565b7f73656e646572206973206e6f74206f776e657200000000000000000000000000600082015250565b600061407d601383613456565b915061408882614047565b602082019050919050565b600060208201905081810360008301526140ac81614070565b9050919050565b7f6e756c6c206164647265737320666f756e640000000000000000000000000000600082015250565b60006140e9601283613456565b91506140f4826140b3565b602082019050919050565b60006020820190508181036000830152614118816140dc565b9050919050565b7f7072652d6578697374696e672061646472657373000000000000000000000000600082015250565b6000614155601483613456565b91506141608261411f565b602082019050919050565b6000602082019050818103600083015261418481614148565b9050919050565b7f756e617574686f72697a65642061636365737300000000000000000000000000600082015250565b60006141c1601383613456565b91506141cc8261418b565b602082019050919050565b600060208201905081810360008301526141f0816141b4565b9050919050565b7f4e487b7100000000000000000000000000000000000000000000000000000000600052601260045260246000fd5b600061423182613356565b915061423c83613356565b92508261424c5761424b6141f7565b5b828204905092915050565b600061426282613356565b915061426d83613356565b92508261427d5761427c6141f7565b5b828206905092915050565b600061429382613356565b9150600082036142a6576142a561387d565b5b60018203905091905056fea264697066735822122075e1ced345e51df75356cb140b978184e477822574233c8c8d035675c526996e64736f6c634300080f0033",
  "immutableReferences": {},
  "source": "// SPDX-License-Identifier: MIT\r\npragma solidity ^0.8;\r\n\r\nimport \"../contracts/details.sol\";\r\n\r\ncontract updateReport is details{\r\n\r\n\r\n    // lab technician at approved lab can add a patient's med info\r\n    function setMedInfoHash(  \r\n        string memory _mHash,\r\n        string memory _id    \r\n    )public\r\n    {\r\n        address _patientAddress  = Id[_id];\r\n\r\n        require(isPatient[_patientAddress], \"not a patient\" );\r\n        require(isAllowed(_id) && isTech[msg.sender],\"not a labTech\");\r\n\r\n        uint256 last = record[_patientAddress].totalRecord;\r\n        last += 1;\r\n        record[_patientAddress].medicalInfoHash[last].cid = _mHash;\r\n        record[_patientAddress].totalRecord += last;\r\n    }\r\n    // patient or doctors at approved insti can see a patient medical info\r\n    function getMedInfoHash(string memory _id,uint256 _reportId)\r\n    public view \r\n    returns(string memory){\r\n        address _patientAddress = Id[_id];\r\n        require(isPatient[_patientAddress], \"not a patient\" );\r\n        require(isHospital[worksAt[msg.sender]] || (isPatient[msg.sender] && msg.sender == _patientAddress) , \"not allowed\");\r\n        require(isAllowed(_id),\"not a valid request\");\r\n        return record[_patientAddress].medicalInfoHash[_reportId].cid;        \r\n    }\r\n\r\n    // doctors at approved hospitals can confirm the disease status\r\n    function confirmDisease(\r\n        string memory _id,\r\n        uint256 _reportId,\r\n        bool status)\r\n        public\r\n        onlyDoctor\r\n    {\r\n        address _patientAddress = Id[_id];\r\n        require(isAllowed(_id) || \r\n        record[_patientAddress].medicalInfoHash[_reportId].refferedTo[msg.sender] == 2,\"not allowed\");\r\n        require(isPatient[_patientAddress], \"not a patient\" );\r\n        require(!record[_patientAddress].medicalInfoHash[_reportId].confirmedBy[msg.sender] , \"have confirmed already\");\r\n        require(record[_patientAddress].totalRecord >= _reportId,\"invalid report Id\");\r\n        record[_patientAddress].medicalInfoHash[_reportId].confirmedBy[msg.sender] = true;\r\n        record[_patientAddress].medicalInfoHash[_reportId].consultationCnt++;\r\n        if(status){\r\n            record[_patientAddress].medicalInfoHash[_reportId].confirmationCnt++;\r\n        }\r\n        \r\n    }\r\n\r\n    \r\n}",
  "sourcePath": "D:\\ri\\ehr\\contracts\\updateReport.sol",
  "compiler": {
    "name": "solc",
    "version": "0.8.15+commit.e14f2714.Emscripten.clang"
  },
  "schemaVersion": "3.4.8",
  "updatedAt": "2022-10-08T06:18:40.742Z",
  "devdoc": {
    "kind": "dev",
    "methods": {},
    "version": 1
  },
  "userdoc": {
    "kind": "user",
    "methods": {},
    "version": 1
  }
}